:020000022000DC
:10600000000001207DCC0200A5CC0200CD8D020055
:10601000A9CC0200ABCC0200ADCC02000000000015
:10602000000000000000000000000000AFCC0200F3
:10603000B1CC020000000000B3CC0200B5CC0200DD
:1060400045A70200B7CC0200FDAB020019B4020064
:10605000E5B00200B7CC020071AA02006DAD0200EB
:10606000E9B30200F9B30200B7CC0200B7CC0200DA
:10607000B7CC0200B7CC0200B7CC0200B7CC02000C
:10608000B7CC020001710200B7CC0200B7CC02000D
:106090009D710200B7CC020031C70200B7CC0200EC
:1060A000B7CC0200B7CC0200B7CC0200B7CC0200DC
:1060B00025AD0200B7CC0200000000000000000087
:1060C000B7CC020035AD020045AD0200B7CC0200EE
:1060D000B7CC0200B7CC0200B7CC02000000000031
:1060E00000000000000000000000000000000000B0
:1060F00000000000000000000000000000000000A0
:10610000000000000000000000000000000000008F
:10611000000000000000000000000000000000007F
:10612000000000000000000000000000000000006F
:10613000000000000000000000000000000000005F
:10614000000000000000000000000000000000004F
:10615000000000000000000000000000000000003F
:10616000000000000000000000000000000000002F
:10617000000000000000000000000000000000001F
:10618000000000000000000000000000000000000F
:1061900000000000000000000000000000000000FF
:1061A00000000000000000000000000000000000EF
:1061B00000000000000000000000000000000000DF
:1061C00000000000000000000000000000000000CF
:1061D00000000000000000000000000000000000BF
:1061E00000000000000000000000000000000000AF
:1061F000000000000000000000000000000000009F
:1062000010B5054C237833B9044B13B10448AFF3F0
:1062100000800123237010BD78A200200000000040
:106220007C62030008B5034B1BB103490348AFF37D
:10623000008008BD000000007CA200207C620300FA
:10624000154B002B08BF134B9D46A3F5803A002148
:106250008B460F461348144A121A06F051FE0F4B94
:10626000002B00D098470E4B002B00D09847002001
:10627000002104000D000D48002802D00C4808F051
:1062800009FF06F029FD2000290000F041F806F082
:1062900013FD00BF00000800000001200000000006
:1062A0000000000078A2002030BD002095F0020020
:1062B0006502030038B504460D460146044806F061
:1062C00069FE04F1A05000F5E0708000056038BD63
:1062D00028480300012303FA00F0014B18607047BF
:1062E00008050050012303FA00F0014B18607047C5
:1062F0000C050050012303FA00F0034B1B68184201
:1063000014BF0120002070471005005070470000A6
:106310002DE970439AB000238DF831301AA840F26D
:106320000713ADF83230022300F8383D564904F027
:10633000CFFD18B1554A412100F08FFE0020022305
:10634000CDE90D000DA98DF8383006238DF83C00FD
:106350008DF83B3004F01EFE18B14C4A4C2100F081
:106360007CFE07230DA901208DF83B3004F012FEBE
:1063700018B1464A512100F070FE08230DA90220F1
:106380008DF83B3004F006FE18B1404A562100F06B
:1063900064FE3F4806F0FEFD00F0B4F83D4B0FCB25
:1063A00016AC84E80F001322142321463A48CDE9A5
:1063B000162304F0CFF818B1344A862100F04DFEC0
:1063C0003548364C364E00F0B5FB364806F0E2FD57
:1063D00000F0DEFC44F0010400F022FC8DED100A18
:1063E000CDED110A8DED121A00F0F0FC1C208DEDA0
:1063F000130ACDED140A8DED151AFFF77BFF002867
:106400003ED100F065F810EE100A86ED000A0DF09E
:106410004FFD8046159889460DF04AFDCDE90A01E9
:1064200014980DF045FDCDE9080113980DF040FDDD
:10643000CDE9060112980DF03BFDCDE9040111985C
:106440000DF036FDCDE9020110980DF031FD424608
:10645000CDE900014B46144805F0B8FC30680DF05A
:1064600027FD02460B46114806F094FD1920FFF760
:1064700039FF64254FF47A40A047013DFAD1ABE7DC
:106480001920FFF727FFA7E70D630200C3480300A9
:106490006648030044480300CC48030060480300FA
:1064A00094A200207C48030091480300A748030001
:1064B000064B0922C3F810250222C3F80825002242
:1064C000C3F804250122DA601A60704700B0014069
:1064D000094B01225A64D3F8443507EE903A074B32
:1064E000F8EE677A93ED000A77EEC07A9FED040A22
:1064F00087EE800A704700BF00B001407CBC0020DE
:106500000024F44670B52F4886B006F043FDFFF72F
:10651000CFFF06F0B7F804F0B7F930B904F07EF910
:1065200018B1294A2B2100F098FD4FF0A043032217
:10653000C3F868270021C3F83827C3F82C27C3F80D
:1065400034274FF08062C3F83017C3F808254FF4A2
:106550008042C3F808251C20FFF7ACFE1B4B02AAA3
:1065600003F10806154618685968144603C4083331
:10657000B3422246F7D106A918681B792371772305
:10658000206021F8143D284605F098FB104805F0DE
:10659000EDFB104806F0FEFC00211C20FFF78AFEF0
:1065A00001211920FFF786FE0B4B01225A64D3F814
:1065B000443507EE903A094BF8EE677AC3ED007A5E
:1065C00006B070BDE44803000149030039490300E7
:1065D0000D4903002049030000B001407CBC0020AD
:1065E00038B5054D044645F001054FF47A40A847FB
:1065F000013CFAD138BD00BF004A03007FB5054613
:106600000E46144672B603F071FC03F0BDFA002882
:10661000FBD13E4806F0BEFC41F201039D4264D02E
:1066200006D8012D12D03146394806F0B3FC10E0EF
:1066300044F201039D425AD044F202039D42F2D13A
:1066400022886168334806F0A5FC02E0324806F073
:10665000A1FC04F019F908B904F0E0F80023ADF842
:106660000C308DF80E3003A9012319208DF80D3060
:1066700004F014F903A9182004F010F903A9172055
:1066800004F00CF9192004F0C5F9182004F0C2F93F
:10669000172004F0BFF94FF4FA70FFF7A1FF19209B
:1066A00004F08AF9182004F087F9172004F084F91F
:1066B0003220FFF795FF192004F0ACF9182004F000
:1066C000A9F9172004F0A6F94FF4FA70FFF788FF34
:1066D000192004F071F9182004F06EF9172004F065
:1066E0006BF9FA20FFF77CFFCCE70C48AFE7A56811
:1066F000284603F01DFE2368019600930246636856
:106700000748294606F046FCA3E700BF46490300B8
:10671000E34903009E4903005F4903007C490300ED
:10672000B949030007B504F0AFF808B904F076F8EA
:106730000023ADF804308DF8063001A9012319209B
:106740008DF8053004F0AAF801A9182004F0A6F885
:1067500001A9172004F0A2F8192004F05BF9182011
:1067600004F058F9172004F055F94FF4FA70FFF7C8
:1067700037FF192004F020F9182004F01DF9172024
:1067800004F01AF93220FFF72BFF192004F042F928
:10679000182004F03FF9172004F03CF94FF4FA7088
:1067A000FFF71EFF192004F007F9182004F004F980
:1067B000172004F001F9FA20FFF712FFCCE7704729
:1067C0007FB5400003AB8DF80C108DF8150000214B
:1067D0000B480493009102238DF80D208DF814309E
:1067E00004AA012340688DF8161003F01FFF18B1AA
:1067F000044A392100F031FC07B05DF804FB00BF0A
:1068000034A70020184A030000B589B00F238DF883
:106810000E300DF10E030493012398408DF81500FE
:10682000184300218DF81D000E4800910DF10F0254
:106830008DF814308DF8163006928DF81C3004AAAD
:10684000022340688DF80F108DF81E1003F0EEFE45
:1068500018B1054A2F2100F000FC9DF80F0009B087
:106860005DF804FB34A70020184A030000B589B086
:1068700008AB069203F8111D0493012398408DF88C
:10688000150040F0010000218DF81D000B488DF827
:1068900014308DF81630009106238DF81C3004AAB0
:1068A000022340688DF81E1003F0C0FE18B1044AA0
:1068B000252100F0D2FB09B05DF804FB34A70020CD
:1068C000184A0300084B5B7A012B07D002D3022B36
:1068D00007D07047054B064A1A607047034B054ABC
:1068E000FAE7024B044AF7E734A7002014A7002078
:1068F000295C0F3C295C8F3C295C8F3D0A4B1B7E39
:10690000032B06D8DFE803F0020C0609074B084A00
:106910001A607047054B074AFAE7044B064AF7E747
:10692000024B064AF4E700BF34A7002000A700206E
:1069300040DA7F3840DAFF3840DA7F39B0E33F3A57
:106940000A4B93F82130032B06D8DFE803F0020648
:10695000090C074B074A1A607047054B064AFAE7CD
:10696000034B064AF7E7024B054AF4E734A7002039
:106970002CA70020F7CC1239240B98399F71E139EC
:10698000240B183A014B5878FFF73EBF34A700207C
:10699000014B9878FFF738BF34A7002010B5284C7A
:1069A000237A13B1A27A5201D3B2E27A617A607883
:1069B00002F0030242EAC1021A43D2B21021FFF7E9
:1069C000FFFE002211216078FFF7FAFE227B637B35
:1069D000002A18BF80222BB1A37B03F00F0343F0E2
:1069E00040031A4312216078FFF7EAFE627D237D9F
:1069F000002A18BF20220BB142F01002E37C13B131
:106A000042F00802D2B2A37D13B142F00202D2B228
:106A10001E216078FFF7D4FEE27B237C002A18BF9A
:106A200020220BB142F01002637C13B142F0080245
:106A3000D2B260781321BDE81040FFF7C1BE00BF9D
:106A400034A7002010B51B4C227FE37E002A18BF1C
:106A500020220BB142F01002A37E13B142F00802D3
:106A6000D2B21F216078FFF7ABFEE27D12B1627EE9
:106A70005201D2B2237E607842EAC30294F91D30FB
:106A8000D2B2002BA2BF42F0040203F003031A4368
:106A90002021FFF795FEA27F2AB1E27F520102F08A
:106AA000600242F0800260782121BDE81040FFF7CB
:106AB00087BE00BF34A7002010B51D4C94F82430C9
:106AC00094F8221094F82320A0785B018900002A12
:106AD00001F01C0103F0600343EA010318BF8022A8
:106AE0001A432021FFF76CFE94F82120A078212181
:106AF000FFF766FE94F8263094F82720A078002B44
:106B000018BF202302F003021A432221FFF758FE88
:106B100094F82520A078920002F00C022321FFF7C0
:106B20004FFEA07800222421BDE81040FFF748BEA8
:106B300034A70020324B13B5586006205881587690
:106B400046F60122FF201A8058771C224FF48074E9
:106B5000072001219A705C820022588440F20114BF
:106B600040F2033019725A729A81DA811A82997648
:106B7000D97619771A769A77DA7783F8201083F81E
:106B800021209884DA8483F828109C821D49DC82B5
:106B90001D4B0A801A804A805A808A809A801B4B3B
:106BA0001A701B4A92E803006B4683E80300194AF7
:106BB0001948194604F0EEFA20B1184A4FF4C6718C
:106BC00000F04BFAFFF77EFEFFF7BAFEFFF796FEE6
:106BD000FFF7D8FE0446FFF7DBFE40EA042000B2D0
:106BE00046F63D03984208D1FFF7D8FEFFF72AFF8B
:106BF000FFF762FF002002B010BD4FF0FF30FAE750
:106C000034A700200CA70020F8A6002004A700202D
:106C1000084A0300BF670200104A0300184A030035
:106C2000F0B5264B264C5878264D274E8BB005AA3A
:106C30002821FFF71BFE9DF815309DF814009DF8E4
:106C400016109DF81920247840EA03209DF817308B
:106C500041EA03219DF8183043EA02231B4A00B29F
:106C600009B21BB22880318013804CB1184C2788A0
:106C7000C01B28806088091A3180A1885B1A1380A4
:106C8000144BD3ED007AB6F9003000EE903AB2F929
:106C9000003001EE103AB5F9003000EE103AF8EE8F
:106CA000E00AB8EEC11AB8EEC00A60EEA70A20EEFC
:106CB000270A21EE271A0BB0F0BD00BF34A7002031
:106CC00004A7002006A7002008A700200AA700208C
:106CD000F8A6002000A70020F0B5264B264C5878D7
:106CE000264D274E8BB005AA1821FFF7BFFD9DF852
:106CF00015309DF814009DF816109DF81920247881
:106D000040EA03209DF8173041EA03219DF818302E
:106D100043EA02231B4A00B209B21BB22880318029
:106D200013804CB1184C2788C01B28806088091A32
:106D30003180A1885B1A1380144BD3ED007AB6F929
:106D4000003000EE903AB2F9003001EE103AB5F999
:106D5000003000EE103AF8EEE00AB8EEC11AB8EED4
:106D6000C00A60EEA70A20EE270A21EE271A0BB010
:106D7000F0BD00BF34A7002004A7002018A7002002
:106D80001AA700201CA700200CA7002014A7002091
:106D900010B50B4804F0D2FA044670B9094B084804
:106DA00000229A605A601A6004F0E2FA044804F083
:106DB000A9FA054B20461C6010BD0820FCE700BF67
:106DC000104A030020A7002030A7002000B52DEDB9
:106DD000028B00218BB02D4804F0E0FA2C4A9FED85
:106DE0002D7A13681060C31A07EE903AF8EE677AAE
:106DF00087EE878AFFF770FF274BF6EE007AB4EE36
:106E0000E71AF1EE10FA06DCBEEE007AB4EEC71A0D
:106E1000F1EE10FA05D593ED027AA8EE017A83ED32
:106E2000027AB4EEE70AF1EE10FA06DCBEEE007A62
:106E3000B4EEC70AF1EE10FA05D593ED007AA8EE8C
:106E4000007A83ED007AF4EEE70AF1EE10FA06DC40
:106E5000FEEE007AF4EEE70AF1EE10FA05D5D3ED76
:106E6000017AE8EE207AC3ED017A93E807000AABD5
:106E700003E907009DED070ADDED080A9DED091AFB
:106E80000BB0BDEC028B5DF804FB00BF104A0300A1
:106E900030A700200024744920A700200369C1689E
:106EA0008B429DBF8268D21802F1FF3203F1FF339B
:106EB00094BF501A581A70472DE9F041D0E9026783
:106EC0000446F61B4068964288461546384405D964
:106ED00005F07CFF3D44E560BDE8F0813246AD1B26
:106EE00005F074FF2A4608EB0601606805F06EFFA6
:106EF000F1E72DE9F843C5680646894617464FF085
:106F000000083469B3687068A54228BFE418013CE2
:106F1000621B5C1BBC4228BF3C46944228BF1446FF
:106F200049462844224605F051FFB3682544AB4248
:106F300008BF00253F1BA044A144F560E1D14046B5
:106F4000BDE8F88310B5114C114AA2610223C4E9CF
:106F50000433104BE361A2644FF400730E4A2362C2
:106F6000E264002310220D49A362E01D6362E36224
:106F7000A3656365E365226506F0E8F808492046E5
:106F800006F0E4F82023A37110BD00BF80BC0020F0
:106F90006D4A030070A7002060A70020764A030016
:106FA0007A4A0300F8B5184C182300FB033503FB9D
:106FB00000402544C46A012C0F46164611D003D365
:106FC000022C1BD000240AE02846FFF767FF864208
:106FD00005D8324639462846FFF76EFF344620462C
:106FE000F8BD2846FFF75AFF8642344628BF0446BC
:106FF000224639462846FFF75FFFF0E72846BDE8FE
:10700000F840FFF776BF00BF80BC002073B50D4B82
:107010001B7804460D4616460BB9FFF793FF02A8EE
:10702000002300F8013D00F0C3FA3246294620460D
:10703000FFF7B8FF04469DF8070000F0E9FA204684
:1070400002B070BD80BC002010B511461C461A4627
:107050000020FFF7DBFF204610BD00B583B0029093
:107060000091019244F2010071466A46FFF7C6FAA8
:1070700003B000BD094A537891780133DBB29942DD
:1070800008BF0023117899421FBF0370507818235E
:1070900003FB002014BF04300020704770A90020BB
:1070A00073B5054602A8002400F8014D0E4600F015
:1070B0007FFA0DF10600FFF7DDFF90B106700A4B75
:1070C0009DF8062045605A709DF8070000F0A0FA70
:1070D00024B9064B4FF48012C3F80021204602B0B9
:1070E00070BD0424F0E700BF70A9002000E100E0BB
:1070F000024B4FF43C6043F001031847904A0300F1
:10710000F8B51F491F4B0025C1F84051C1F8445143
:10711000C1F84851C1F84C51C1F80051C1F80451AF
:107120001B684BB3D1F8044517490968641A24F069
:107130007F442F461A68A24209D8A41A15441A7C23
:10714000DE691AB11F74D3E905209047AEB90F4B21
:107150000F4A197813788B4205D10133DBB2022B29
:1071600008BF0023137012780A4B43F822500A4BD1
:107170004FF48012C3F80021F8BD3346DAE700BFB0
:107180000010014090AA00208CAA002088AA0020AC
:1071900089AA002080AA002000E100E02DE9F74F35
:1071A0009C4A9D49137809789C4D99423CD0013303
:1071B000DBB2022B08BF0023137099491278994B58
:1071C0000F6853F822003B1823F07F4300220B6026
:1071D0002B6816461446944613B942B12B6006E05C
:1071E000196881420ED902B12B60091A19604FF05B
:1071F00001082B68DFF834A200930027BEB9DFF83E
:1072000034B260E0401A0C44D968C3F800C0D3F827
:107210001CE031B13A1922F07F42C3E90121DE615D
:107220001E4601227346D7E70026B046E1E7344602
:10723000F6697B4A63681268DFF8FCC1A068991A96
:1072400021F07F41614500F2A580014421600122C7
:1072500022742A680023C4E90133E361002A40F064
:10726000A2802C60CAE75A1C9BF80210D2B291424D
:107270008BF8002004BF00228BF80020182202FBAC
:1072800003B32A6819799C68022974D003297ED037
:10729000012918D1217CB1B9DA6862601A69A2604B
:1072A0005A69E2609B69A3615F4B1B78002BC0D0D9
:1072B0006160BEE79C4200F090809946DB69002B3C
:1072C000F8D1002323749BF800309BF801209A42E8
:1072D000C9D12B682FB9009A934202D1B8F1000F9F
:1072E00043D0002B41D0D3F800A0504D4C4BD5F8E3
:1072F00004751C68DFF844813E1B98F8003026F0C6
:107300007F4603369BB94FF48033C5F84433C5F844
:107310000433474B4FF400324FF00109C3F880218A
:107320001A60C5F80090FFF7E3FE88F80090B245B8
:107330002CBF5444A41924F07F44C5F84045D5F827
:107340000435DB1B23F07F43E41B033324F07F442D
:10735000A3420AD9D5F80435C5F84035FFF7C8FE71
:10736000334B4FF40032C3F800212F4B00221A7028
:1073700003B0BDE8F08F13469146A0E71174D269BF
:107380000123002AFAD1002B9DD02A609BE700231D
:107390001946F6E7D31A23F07F43834234BFC31A5A
:1073A0000023236053E721681368994213D8591AC0
:1073B0001160E26155E7091AD8691A4638B10346E7
:1073C00018688842F7D3401A18601846134621609F
:1073D000E061DC6112E71346F2E74C450DD1D36959
:1073E0002B6053B90E4801920121CAF808100360BE
:1073F0000D4B1970FFF77CFE019AE1692368C9F80B
:107400001C1011B1086803440B602B689A4218BF26
:10741000012756E788AA002089AA002090AA002008
:107420008CAA002080AA00207CAA00200010014025
:1074300000E100E070A90020FEFF7F007DAA00208F
:10744000F8B5194E194D1A4F4FF40033C6F8803075
:1074500001244FF48033C5F84833C5F808336C6015
:10746000FFF746FEAC6000243C60FFF741FE114B85
:107470001C70114B0B221C809A70104B1C60104B1F
:107480001C70104B4FF480121C70E023C6F8802152
:1074900086F814333260C5F8084586F81133D5F8FC
:1074A00004353B602046F8BD00E100E000100140DB
:1074B0008CAA00207DAA002070A9002090AA00209C
:1074C00088AA002089AA0020074B9B784BB132B1D3
:1074D00028B10368187C20B959745A617047072095
:1074E00070470820704700BF70A900202DE9F743BE
:1074F0001D4FBB7805460E4690469BB390B30429BA
:107500002ED9436973B3437C02A80024012B00F8F1
:10751000014D0CBF8946A14600F04AF80DF1060066
:10752000FFF7A8FDD0B101230370104B4560D3F8DD
:107530000435C0E90498C0E902369DF806307B7036
:107540009DF8070000F064F824B9094B4FF480124D
:10755000C3F80021204603B0BDE8F0830424EFE720
:107560000724F7E70824F5E770A900200010014080
:1075700000E100E0064A92783AB130B1426922B1A6
:10758000002202740221FFF78BBD0820704700BF64
:1075900070A90020EFF30583C3F308032BB9EFF3C1
:1075A0001480C04300F001007047012070470000C4
:1075B00070B50446FFF7EEFF012803D010494320C1
:1075C00005F0E4F9EFF3108672B60E4A90680123D5
:1075D00098B993600C4B0D4DD3F880102940116081
:1075E000C3F88050D3F8841051604FF0FF32C3F8D5
:1075F0008420207006B962B670BD2370FAE700BF20
:10760000964A0300F8BC002000E100E0FC06FFBD44
:1076100010B50446FFF7BEFF012803D009495120E9
:1076200005F0B4F9084B9A685AB154B9EFF31081D8
:1076300072B6064A18681060586850609C6001B9BC
:1076400062B610BD964A0300F8BC002000E100E0DD
:10765000024B1B680021986805F0B0BCB898002068
:1076600042884378007843EA022340EA03207047C7
:107670000B0A017043700B0C090E8370C1707047C8
:10768000024400F8011B9042FBD1704710B5024440
:1076900010F8013B11F8014B9042A3EB040301D019
:1076A000002BF5D0184610BD83690239023B8B428E
:1076B00083BF4389C06A01FB0300002070470000BC
:1076C00010B503685BB11A4612F8011B202911D9C5
:1076D0003A29F9D11978A1F13004092C02D94FF0D7
:1076E000FF3006E002339A42F9D13029F7D1026027
:1076F000002010BD014B1878FBE700BF94AA0020C2
:1077000038B50D46044618B9092000232B6038BD52
:107710000368002BF8D01A78002AF5D08188DA881F
:107720009142F1D1587801F06DFD10F00100EBD1DC
:107730002368EBE701380A4411F8013B00F8013FE8
:107740009142F9D17047CA7E8B7E032843EA022317
:1077500001BF487D0A7D42EA002243EA02431846FF
:107760007047C2F307238A76CB760378032B01BFD9
:10777000120C0A75120A4A75704770B500F134068A
:10778000026B054601233146407801F097FD04461F
:1077900088B9296B6B6AEA69E870CB1A934208D200
:1077A000AB78022B05D10A4401233146687801F0F9
:1077B00085FD204670BD0124FBE738B5036B8B4285
:1077C00004460D4615D0C37873B92A46012304F147
:1077D0003401607801F020FD002816BF4FF0FF351E
:1077E00000200120256338BDFFF7C7FF0028FAD12C
:1077F000EBE70020F7E70000002310B5C3704FF05F
:10780000FF3303630446FFF7D8FF18BB94F8332215
:1078100094F8323243EA02234AF6552293421BD1AE
:1078200094F83430EB2B03D01833DBB2012B15D88E
:1078300003220B4904F16A00FFF728FF48B1052233
:10784000084904F18600FFF721FF002814BF022039
:10785000002010BD0420FCE70320FAE70220F8E72F
:107860006B4B03006F4B03002DE9F043002385B001
:107870000B600F461546FFF723FF061EC0F2C180BE
:10788000974B53F82640002C00F0BD803C602378D5
:1078900005F0FE0573B1607801F0B4FCC10709D4AE
:1078A000002D00F0B28010F0040000D00A2005B0D6
:1078B000BDE8F0830023F0B22370607001F0E4FBB8
:1078C000C20700F1A4800DB14307EFD40021204688
:1078D000FFF792FF02287AD104F5FD75002115F813
:1078E000040C10B12846FFF7BBFE4DF82100013112
:1078F000042905F11005F2D100255DF82560002E60
:107900005DD031462046FFF777FF012858D894F81C
:10791000402094F83F3043EA0223B3F5007F5AD168
:1079200094F84B3094F84A5055EA032504D104F1F9
:107930005800FFF795FE054694F84490E56109F17B
:10794000FF33012B84F8029045D894F84170BBB204
:107950006381002B3FD07B1E3B423CD194F84630E4
:1079600094F8458048EA032818F00F0FA4F808801F
:1079700031D194F8481094F8470050EA012003D11F
:1079800004F15400FFF76CFE94F8432094F8423061
:1079900053EA02231FD005FB09F903EB18124A44EE
:1079A000904218D3811AB1FBF7F1A1B14D48814241
:1079B00011D84FF6F57081422BD903272FE0032011
:1079C0000135042D99D1042805D101206FE7042841
:1079D000FBD0012801D90D2069E7002697E7B8F10F
:1079E000000FF8D0022F4FEA410018BF40184B4457
:1079F00018BF01F00101A3620CBF014601EB500169
:107A000026E00B2053E70C2051E728464FE70320E0
:107A10004DE740F6F577B94294BF012702270231BE
:107A200033443244032FA16126626362E262D6D1FD
:107A300094F85F2094F85E3053EA0223CBD1B8F17A
:107A4000000FC8D104F16000FFF70AFEA0628900B0
:107A500001F2FF11B5EB512FBDD34FF0FF33C4E955
:107A60000333032F4FF0800323712FD194F8652047
:107A700094F8643043EA0223012B27D1711C20467D
:107A8000FFF79BFE10BB94F8332294F8323220713A
:107A900043EA02234AF65522934217D104F13400F7
:107AA000FFF7DEFD104B984210D104F50670FFF78A
:107AB000D7FD0E4B984209D104F50770FFF7D0FDB2
:107AC000206104F50870FFF7CBFDE060084A2770DD
:107AD000138801339BB200201380E3806061E6E6E7
:107AE00098AA0020F5FFFF0F525261417272416166
:107AF0009CAA002001292DE9F04705460C461746AF
:107B000072D983698B426FD90378022B3FD0032B44
:107B100050D0012B68D101EB5108416A01EB58218B
:107B2000FFF74BFE064638BB05F1340908F1010AA0
:107B3000C8F3080814F001041FBF19F8083003F057
:107B40000F023B0103F0F00314BF1343FBB209F82B
:107B50000830696A0123EB7001EB5A212846FFF7D0
:107B60002CFE064640B9CAF3080A44B1C7F307170A
:107B700009F80A700123EB703046BDE8F08719F868
:107B80000A30C7F3032723F00F031F43F0E7416ACE
:107B900001EB1421FFF711FE06460028ECD164002A
:107BA00005F1340304F4FF741A191F55C7F30727AE
:107BB0005770DFE7416A01EBD411FFF7FEFD06467F
:107BC0000028D9D1A40005F1340304F4FE741C4448
:107BD0002046FFF745FD27F0704700F0704139431C
:107BE0002046FFF745FDC5E70226C5E70129F8B5A0
:107BF00005460C4652D9836999424FD20378022B2D
:107C000029D0032B38D0012B48D101EB5106416A12
:107C100001EB5621FFF7D1FD10B14FF0FF30F8BD59
:107C2000771C696AC6F308062E4401EB57212846E3
:107C300096F83460FFF7C1FD0028EED1C7F30807BE
:107C40003D44E30795F8340046EA00204CBF0009A4
:107C5000C0F30B00E3E7416A01EB1421FFF7ADFD30
:107C60000028DAD16400343504F4FF742B19285D40
:107C70005B7840EA0320D2E7416A01EBD411FFF7B9
:107C80009CFD0028C9D1A40005F1340004F4FE7461
:107C90002044FFF7E5FC20F07040C0E70120BEE77C
:107CA000F8B505460468296182680E46D2B9237882
:107CB000022B01D9A36AB3B92389B3EB561F01D8AC
:107CC0000220F8BDA36AAB61AB696A61002BF7D0F3
:107CD00003EB56233434C6F308063444AB61EC613D
:107CE0000020EEE7134667891A467F02BE4211461E
:107CF00004D22046FFF7D8FCA861E5E72868FFF723
:107D000075FF431C024606D00128D9D9A3698342D6
:107D1000D6D9F61BEAE70120D3E72DE9F0418046EA
:107D200005680F4649B9EE68CEB1AB69B34298BF5A
:107D300001262B69ABB9002409E02846FFF756FF5E
:107D40000128044658D9421C04D14FF0FF34204684
:107D5000BDE8F081AB698342F9D83E46E9E70126E8
:107D6000E7E7BE4215D1AB69D8F80000741C9C420D
:107D700028BF02242146FFF739FF01283CD0431CCD
:107D8000E3D0D8B1EB68012B03D9AA69934238BF7D
:107D90001E463446AB690134A34202D8012ECAD92B
:107DA00002242146D8F80000FFF720FF40B1012847
:107DB00022D00130C9D0B442ECD1BCE7002CE8D0CD
:107DC0004FF0FF3221462846FFF794FE90B957B98D
:107DD000AA692B69EC60023A93420FD92B7943F0E0
:107DE00001032B71B3E7224639462846FFF782FE8E
:107DF0000028EDD00128A8D00124A8E7013B2B6181
:107E0000ECE7F8B50D46012D074611462CD904685C
:107E1000A369AB4228D92AB14FF0FF322046FFF7C1
:107E200069FE30B929463868FFF7E0FE064608B912
:107E30000020F8BD012817D0431C17D00022294686
:107E40002046FFF757FE0028F3D1A2692369911E4F
:107E50008B4205D201332361237943F0010323715F
:107E6000B2423546DED8E3E70220E2E70120E0E750
:107E700070B5C3780446002B44D12378032B38D146
:107E80002679012E35D104F134054FF4007200211A
:107E90002846FFF7F5FB552384F83232AA2384F8ED
:107EA000333252234122722184F8343084F8353041
:107EB000612384F8363084F8372084F81A2284F855
:107EC0001B3284F8181284F8191204F5077021691E
:107ED000FFF7CEFBE16804F50870FFF7C9FB226AE3
:107EE0006078013233462263294601F0E7F9002326
:107EF000237100221146607801F056FA003018BF55
:107F0000012003E0FFF739FC0028B6D070BDF8B5BA
:107F1000C37804460D46B3B929462046FFF7C4FB93
:107F200004F13406206307464FF400720021304606
:107F3000FFF7A6FB002563899D420AD36089401B99
:107F400018BF0120F8BDFFF718FC0028E4D001207D
:107F5000F8E701237A193146607801F0AFF900287B
:107F6000ECD10135E7E72DE9F843076905682037CB
:107F7000B7F5001F24BF0023836183690446894647
:107F800073B1C7F30808B8F1000F39D14169013363
:107F9000836139B92B89B3EB571F31D80023A36113
:107FA00004200BE06B89013B13EA572328D12846B4
:107FB000FFF71CFE0128064602D80220BDE8F88320
:107FC000421C01D10120F9E7AB69834212D8B9F113
:107FD000000FE3D061692046FFF79FFE0646A8B177
:107FE0000128EAD0431CEDD001462846FFF78FFF59
:107FF0000028E7D1666131462846FFF755FBA061AE
:10800000343545442761E5610020D7E70720D5E7EF
:108010002DE9F0470B7807682F2B04460D4601D059
:108020005C2B0AD12A4613782F2B154602F1010248
:10803000F9D05C2BF7D0002300E07B69A3602B789C
:108040001F2B30D9DFF88C9104F120080B2220215E
:108050004046FFF715FB2B782E2B2DD000226E1EED
:108060001146082016F8013F202B01F101010BD920
:108070002F2B01D05C2B5CD16818411B10F8016BD1
:108080002F2EFAD05C2EF8D0002A67D094F820204A
:10809000E52A04BF052284F82020202B8CBF002372
:1080A00004230D4417E0802384F82B302046002160
:1080B000BDE8F047FFF7F4BD84F820306B782E2B35
:1080C0002ED184F82130AB782E2B47D003222F2BD2
:1080D00028D11544202384F82B3000212046D4F8E1
:1080E00000A0FFF7DDFD064600283AD1A169504601
:1080F000FFF763FB0646A0BBE069037883B3C37A4E
:1081000003F03F03A371C37A1B0704D40B2241463B
:10811000FFF7BCFA28B300212046FFF724FFE2E76F
:108120000222D4E75C2BD4D0202B17D8154424236B
:10813000D1E72E2B3ED0904210D913F0800F18BFFC
:1081400003F07F03DFF890E018BF19F803301EF842
:1081500001CFBCF1000F32D06345F8D1062610E004
:10816000042694F82B309EB1042E0AD1990603F010
:10817000040209D5002A3FF469AF802384F82B302C
:1081800000263046BDE8F087002A08BF0526F8E73C
:108190005A07F6D4A379DB060AD523693878C3F3E6
:1081A000080307F134011944FFF7CDFAA0604DE749
:1081B0000526E6E70B28D1D008220B2052E7A3F1D1
:1081C000610CBCF1190F01D8203BDBB208F802307A
:1081D000013247E7EB4A0300C54B030038B50021E5
:1081E00004460568FFF75CFD70B9A1692846FFF7F2
:1081F000E4FA48B9E3691B78E52B08D03BB10121CB
:108200002046FFF7B0FEEFE7042808BF072038BD7F
:1082100070B505460668FFF7E1FF044690B9A96905
:108220003046FFF7CAFA044660B901462022E869E1
:10823000FFF726FA0B2205F12001E869FFF77AFA29
:108240000123F370204670BD1FB5CDE9001004A8CE
:10825000144640F8041DFFF733FA002814DB0C4BDA
:1082600053F820200AB100211170019A0AB10021AF
:108270001170019A43F8202044B1002201A96846F8
:10828000FFF7F2FA04B010BD0B20FBE72046F9E738
:1082900098AA00202DE9F04F8FB0164601910446B0
:1082A000002800F0DE8002F03F052A4602A901A85E
:1082B000FFF7DAFA0746002858D10DF13809029B7A
:1082C00049F82C3D01994846FFF7A2FE20B99DF9D7
:1082D0003730002BB8BF062016F01C0F56D00028F0
:1082E0004BD0042842D14846FFF792FF00283DD1E9
:1082F00045F00805290753D5DDF828A0DDF808B0BA
:1083000051469BF80000FFF71EFA212300268AF849
:1083100010304C238AF80E608AF80F608AF811300A
:108320000A9B2022DA72804632460A995846FFF7A5
:1083300018FA0A9B1E775E779E77DE77029B0122F2
:10834000DA70B8F1000F2BD0029B32464146484606
:10835000D3F830A0FFF755FD40B951460298FFF71A
:108360002CFA029A08F1FF33D360C8B100232360CE
:10837000074638460FB0BDE8F08F9DF8123013F075
:10838000110F6AD17007B5D50820EFE70028EDD1AD
:108390009DF81230DA065ED4B60701D5D8075CD452
:1083A000029EDDF82880336B2362C4F82480307885
:1083B0002907414648BF45F04005FFF7C4F9A060D2
:1083C00008F11C00FFF74CF92660E060F388A380F9
:1083D000002104F128064FF4007225746174E161F4
:1083E00061613046FFF74CF9AA06C2D5E568002D59
:1083F000BFD0029B6561B3F80A80A1684FEA4828A4
:10840000A8451AD30020A1610028AFD1C5F3080305
:10841000002BAED0DDF808804046FFF745F9F0B1FB
:1084200000EB5522E2610123314698F8010000F08B
:10843000F3FE00289DD0012098E72068FFF7D6FBC7
:1084400001280146A5EB080503D9431CD8D101201A
:10845000D9E70220D7E7042088E7072086E7022033
:1084600084E7092785E72DE9F04F9B4685B0002377
:108470008946CBF8003003A904461746FFF740F9B8
:108480000646002840F08980667C002E40F08580FA
:10849000237C9A0740F1AA806369FB4200D3DF4343
:1084A00004F1280A5EE0A1696EE0012802D10226EB
:1084B000667472E0431C01D10126F9E7A368A0614C
:1084C00003B9A06094F91030002B0CDA0398E2692C
:1084D00040780123514600F0F1FE0028ECD1237CC6
:1084E00003F07F032374039BA16900931846FFF7F1
:1084F000DBF80028DBD0019B7D0A03EB000850D09D
:10850000009B019A5B8900982A449A4288BF019A8D
:10851000407888BF9D1A2B464246494600F0CEFE61
:108520000028C9D1E169A1EB0801A9420AD24FF4A0
:10853000007209EB41215046FFF7FCF8237C03F061
:108540007F0323746D02DBF800302B44CBF800303E
:1085500063697F1BA9441D44E3686561AB422CBF7E
:10856000E360E560AFB16369C3F3080262BB039ADD
:108570005289013A12EA53220192A3D1002B92D1DF
:10858000A068002891D101462046FFF7C6FB0028CD
:108590008BD1237C43F040032374304605B0BDE803
:1085A000F08FE36943450DD0E26863699A4209D9C7
:1085B0000098012342465146407800F02DFE0028E5
:1085C0007FF47AAFC4F81C806069C0F30800C0F57E
:1085D0000075BD4228BF3D462A4649465044FFF734
:1085E000A9F8237C63F07F032374ACE70726D4E764
:1085F00073B54368002B044614DB5D1C03443B2D1C
:10860000866819730BDD01AB2A4600F10C01006886
:10861000FFF729FF019B5D1B18BF4FF0FF350136A7
:108620006560A66002B070BD13B54268002A0446BA
:1086300003DA4FF0FF3002B010BD00F10C0101ABC6
:108640000068FFF710FF0028F3D16268019B9A428F
:10865000EFD1A068EFE773B501A90446FFF750F822
:108660000546002839D1237C5A0636D51B060CD581
:108670000198E2694078012304F1280100F01EFE10
:1086800070BB237C03F07F032374216A0198FFF7FA
:1086900094F8054608BB666AF37A43F02003F37248
:1086A000A26820683146FFF75CF8E16806F11C001B
:1086B000FEF7DEFF212333764C237376019BB575DD
:1086C0000122F575B574F574DA700198FFF7D0FBE7
:1086D000237C23F0400305462374284602B070BD76
:1086E0000125FAE713B50446FFF7B5FF28B901A93C
:1086F0002046FFF705F800B9206002B010BDF7B5BD
:108700000D4601A90446FEF7FBFF0646002859D195
:10871000667C002E56D1E368AB4204D2227C12F074
:10872000020F08BF1D460022636962610DB92F4622
:108730001DE0019A57897F02002B39D0013B6A1E48
:10874000B3FBF7F1B2FBF7F28A4231D37A4213401E
:10875000A1696361ED1A002959D10027E3686569B1
:108760009D4281BF237CE56043F040032374C5F341
:1087700008053DB3E269974224D094F91030002BEC
:1087800004F128050ADA019801232946407800F00F
:1087900095FDE0B9237C03F07F0323740198012346
:1087A0003A462946407800F037FD80B9E76109E094
:1087B000A16879B92046FFF7B0FA0128014604D133
:1087C00002266674304603B0F0BD013001D10126A7
:1087D000F7E7A160A161BEE73B446361237C9A0790
:1087E000A5EB070506D52046FFF797FA014628B9FD
:1087F00005460FE02068FFF7F9F901464B1CE6D06B
:108800000129DDD9019B9B698B42D9D9A161BD4268
:108810006369E1D863692B446361C5F30803002BE6
:108820009BD00198FEF740FF0028C9D000EB5527E8
:1088300094E700002DE9F04F89B008AE0D4646F8E8
:108840000C0D304617461C46FEF73AFF0028C0F2D2
:108850003D82A34B53F820300BB100221A70C6B2F0
:10886000304600F011FCC20700F13282430700F1EC
:10887000318206AA0321304600F096FD30B9069AEF
:10888000531EB3F5004F01D21A4201D001230693C3
:1088900047B1944BA7F500729A4203D9132009B04F
:1088A000BDE8F08F7B1E3B42F8D1129B5B0A04931C
:1088B000002C00F01182002B00F00E8207AA01218B
:1088C000304600F071FD002840F0EA8015F0080302
:1088D0000293079B0CBF4FF03F094FF000094B4537
:1088E00001D20E20DBE7A3EB09037F2B0793F8D916
:1088F0007A0A802AD2D815F0020E07D005F00701B7
:10890000022900F0EF81E80740F1EC81E907C5D5C5
:10891000002A3BD174481D0B4FF0010830F8021FAC
:1089200009B1A9421BD940F6F571B3FBF8F58D42A8
:108930009BBF05EB4505013502356D088CBF6D0009
:10894000033505F2FF154FF020018CBF02270127E8
:108950006D0A4FF0010B0191E5E15200C7E14FEACA
:108960004808DBE7022F1FD103984FF6F5718842C4
:108970000ED9002A40F0B2814FEA4802402AC7D9F6
:10898000BEF1000F40F0B081802AAAD89046CAE715
:10899000039840F6F57188420CD8002AA1D14FEA1D
:1089A0004802802AB4D99CE7039A40F6F5739A42AC
:1089B00097D801274FF4007200212046FEF760FE91
:1089C0000B224A492046FEF7B5FE079984F80EB0FF
:1089D00000230222032FE3722273CBF3072B4FF005
:1089E0000102637418BF0223B1F5803F84F80D8043
:1089F00084F80FB02274A37454D2E174C1F3072138
:108A00002175F82363753F2300222376FF23A37685
:108A10006276E276494604F11C00FEF729FE032F38
:108A20004FF0210343D184F845304C2384F8432090
:108A300084F8442084F84630294604F12400FEF7E7
:108A400017FE022384F82C30012384F830300623EB
:108A500084F83230802384F84030254984F82D2072
:108A6000292384F82E2084F82F2084F8312084F8DC
:108A7000332084F84230132204F14700FEF75AFEF7
:108A80004FF0550384F8FE316FF0550384F8FF3141
:108A90004A4601232146304600F010FC834658B375
:108AA0000120FCE604F12000FEF7E2FDA9E784F8CE
:108AB00029304C2384F82A30C5F30723E37580233B
:108AC00084F82430292384F8272084F82820A575E9
:108AD00084F826301322074904F12B00CEE700BFAB
:108AE00098AA002000FEFF00744B0300924B030085
:108AF0009E4B0300B24B0300032F41D1012309F128
:108B000006022146304600F0D9FB4FF40072594668
:108B10002046FEF7B5FD5223237063706123A370D6
:108B200084F8E731039B41227221E27084F8E4115A
:108B300084F8E51184F8E621591E04F5F470FEF777
:108B400097FD022384F8EC314FF0550384F8FE3191
:108B50006FF0550384F8FF3109F107020123214624
:108B600084F8EDB184F8EEB184F8EFB1304600F04E
:108B7000A5FB012309EB03022146304600F09EFBD2
:108B8000129B23F4FF7222F0010200212046FEF71F
:108B900077FD032F52D1F8232370FF236370A37056
:108BA000E37023716371A371E37123726372A37223
:108BB0000F23E372049BAB4228BF2B46214652464B
:108BC00030469B4600F07AFB014600287FF468AFF0
:108BD0004FF400722046FEF753FDB5EB0B05DA4467
:108BE000E8D1019B032F08BF43460193019B049AE0
:108BF000934228BF13462146524630461D4600F098
:108C00005DFB00287FF44CAF019B5B1BAA440193E2
:108C1000ECD1032F1BD0079BB3F5803F19D2022F55
:108C200014BF01230423029AAAB100221146304640
:108C300000F0BAFB003018BF012030E6012F554983
:108C4000204618BF6FF00701FEF712FDB2E70C23B4
:108C5000E9E70623E7E74FF4007202992046FEF7A2
:108C60000FFD552284F8FE21AA2284F8FF21029AE2
:108C700084F8BE2184F8C121079A84F8C2314A449D
:108C800043F6C163B2FBF3F2FE2384F8C3319308C9
:108C900043F03F03012584F8C43184F8C5214946D7
:108CA00004F5E37084F8BF5184F8C051FEF7E0FC8E
:108CB000079904F5E570FEF7DBFC2B46029A214686
:108CC000304600F0FBFA0028AFD0E9E60B20E6E5DD
:108CD0000320E4E50A20E2E51120E0E5BEF1000F03
:108CE0003FF4FFAD002A52D12B485D0C012230F831
:108CF000021F19B1A9427FF630AE0021B3FBF2F09A
:108D0000264F8500A0F57F40F63805F20725B842CA
:108D10004FEA55253FF6E5AD90460A460021019100
:108D20004FF0200B03270199DDF818C00BEB090A5F
:108D3000681850440CF1FF310144CCF1000C01EAF9
:108D40000C0CC9EB0811ACEB000C032F084406BF58
:108D5000E344E24465448342FFF4C3ADA3EB0B015B
:108D60000198491B032FA1EB0001B1FBF8F103911E
:108D70007FF4F8AD03984FF6F57188423FF61AAECE
:108D8000002A7FF4AEAD5FEA58023FF4AAAD114667
:108D9000B4E700BFF8FFFF00824B0300FFFFFE0FA8
:108DA00010B594B00B4604464C22002101A8FEF7F2
:108DB00067FC013C019314F8011F01A819B9FFF7E2
:108DC00033FC14B010BDFFF713FCF4E71EF0040FE2
:108DD0001CBFEFF309800AE0EFF308800549064A5B
:108DE000884201D8904202D88D464FF00000034BD4
:108DF000184700000000012000E00020018E020062
:108E00002DE9F347054601F071F800F0BDFE00289A
:108E1000FBD12F4B2F4C9F6A2F4BE41AE4082404FC
:108E200044F00104002D4ED0AA692C49204601F0DF
:108E30002FF8EB680193AB6800932949D5E900232B
:108E4000204601F045F8EB6900932649D5E9042353
:108E5000204601F031F81E4BDB6A980703D5224902
:108E6000204601F011F8DFF89490DFF894A0002676
:108E70004FF0010808FA06F33B4206D059F82620C5
:108E80001AB15146204601F003F801361A2EF1D1ED
:108E9000390605D50E4B15495A6B204600F0F8FFF0
:108EA0003A0405D50A4B12499A6B204600F0F0FFB0
:108EB000104B1B68DB0700D500BE2846FDF732FCCF
:108EC00002B0BDE8F0870C49204600F0DDFFC2E7A4
:108ED00000ED00E0F862030090620300D54B030050
:108EE000EA4B03001F4C03007A4C0300C94C0300FB
:108EF000E94C0300F0ED00E0474C0300044D030093
:108F0000BE4C03004FF04023C3F81C05D3F80821E2
:108F1000002AFBD0D3F818050022C3F80821C0B2FC
:108F200070470000074908B50860FF20FFF7EAFF17
:108F3000FF2802D00B68002BF7D1A0F1FF035842A5
:108F4000584108BDA4AA00204FF0A0434FF480422E
:108F5000C3F80825FF20FFF7D5BF08B54FF0A043A1
:108F60004FF48042C3F80C25FF20FFF7CBFF4FF4EE
:108F7000FA70FFF7D7FF014618B9FFF7E5FF08467B
:108F800008BD0121FBE7020638B504460D4607D5AA
:108F900000213720FFF7F7FF01282BD804F07F04CA
:108FA0000C2C28D144F04000FFF7ACFF280EFFF74F
:108FB000A9FFC5F30740FFF7A5FFC5F30720FFF79B
:108FC000A1FFE8B2FFF79EFFECB1082C14BF01200F
:108FD0008720FFF797FF0C2C02D1FF20FFF792FFAD
:108FE0000A21FF20FFF78EFF030603D5013911F098
:108FF000FF01F6D138BDFFF7A7FFFFF7AEFF00284E
:10900000D0D1FF20F6E79520E3E7000038B5104DFA
:10901000C82204462A60FF20FFF774FFFF2803D10F
:1090200028680028F7D138BDFE280FD12144FF2041
:10903000FFF768FF04F8010BA142F8D1FF20FFF70A
:1090400061FFFF20FFF75EFF0120ECE70020EAE769
:10905000A0AA002010B500F2FF11441E14F8010F61
:10906000FFF750FF8C42F9D1FF20FFF74BFFFF20A5
:10907000FFF748FFFF20FFF745FF00F01F00431FE9
:109080005842584110BD0000F7B5002840F0B280AA
:109090004FF0A0420323C2F838370C21C2F86837DA
:1090A0004FF08063C2F83017C2F808354FF0402304
:1090B0000D24C3F808450B24C3F80C45C3F810155C
:1090C0000121C3F854054C4DC3F80015C3F808013D
:1090D0004FF48043C2F808350A232B602B68002B1D
:1090E000FCD1464B1A7812F0020F1E4603D01878B6
:1090F000C0B203B0F0BD4FF040234FF08062C3F820
:1091000024250A24FF20013CFFF7FCFE14F0FF0495
:10911000F8D121462046FFF736FF0128074665D1E2
:109120004FF47A734FF4D57108202B60FFF72BFFB3
:10913000012841D101AFFF20FFF7E4FE385501348B
:10914000042CF8D19DF80630012B4FD19DF8073043
:10915000AA2B4BD12B6833B14FF08041A920FFF7E8
:1091600012FF0028F6D12B68002B3FD000213A20B7
:10917000FFF709FF002839D10146FF20FFF7C2FEA3
:10918000785401310429F8D19DF8043013F0400FD0
:1091900014BF0C2404241A4B1C70FFF7D5FE3CB3FB
:1091A0004FF040234FF08042C3F82425337803F07A
:1091B000FE03337030789BE72146A920FFF7E3FEDA
:1091C000022836BF02240124A9272B682BB10021D5
:1091D0003846FFF7D8FE0028F7D12B6833B14FF49B
:1091E00000711020FFF7CFFE0028D4D00024D2E772
:1091F0000123DEE701207CE7A0AA0020A898002038
:109200009EAA002018B9034B1878C0B270470120FD
:10921000704700BFA898002070B51C464FF040234F
:109220000D4611460D22C3F808250B22C3F80C2564
:109230000C22C3F8102501260022C3F85425C3F8D8
:109240000065C3F8082188BB84B31A4B1B78DA0782
:109250002ED4194B1B781B0758BF4902012C11D182
:109260001120FFF790FE38B94FF400712846FFF740
:10927000CDFEB0FA80F46409FFF766FE201C18BF2B
:10928000012070BD1220FFF77EFE0028F4D14FF4BC
:1092900000712846FFF7BAFE18B1013C05F50075CC
:1092A000F5D100210C20FFF76EFEE5E70420E8E78A
:1092B0000320E6E7A89800209EAA002070B51C466F
:1092C0004FF0402316460D22C3F808250B22C3F8A1
:1092D0000C250C22C3F810250D4600220121C3F8ED
:1092E0005425C3F80015C3F80821002852D1002CDA
:1092F00050D02B4B1A78D0074ED41B7859074DD439
:10930000284B1B781A0758BF7602012C1BD1314617
:109310001820FFF738FE30B10124FFF715FE201C9E
:1093200018BF012070BD4FF4FA70FFF7FBFD002855
:10933000F2D0FE20FFF7E6FD2846FFF78BFEB0FADD
:1093400080F46409E9E713F0060F03D02146972063
:10935000FFF719FE31461920FFF715FE0028DCD172
:109360004FF4FA70FFF7DEFD50B1FC20FFF7CAFDA5
:109370002846FFF76FFE18B1013C05F50075EFD1E7
:109380004FF4FA70FFF7CEFD0028C5D0FD20FFF79F
:10939000B9FDC2E70420C5E70320C3E70220C1E707
:1093A000A89800209EAA00207FB54FF040231546C4
:1093B0000D22C3F808250B22C3F80C250C22C3F894
:1093C000102501240022C3F85425C3F80045C3F832
:1093D0000821002840F0DE80704B1B78D80700F190
:1093E000DB80042900F2D480DFE801F00309D24BCE
:1093F0009A00FFF7B2FDB0FA80F1490906E00021BA
:109400000920FFF7C0FD044628B10121FFF79CFDAC
:10941000084604B070BD10216846FFF7F7FD00282C
:10942000F3D09DF800309DF808109DF809009B09C5
:10943000012B9DF807300AD11A0402F47C1200EBCC
:10944000012101320A4492022A602146DEE79DF89A
:1094500006209B00920203EB911302F44062134436
:109460009DF805209DF80A1002F00F0202EBD112C0
:10947000410001F006010A440133073A93402B6092
:10948000E3E7474B1C7814F004011DD000218D2028
:10949000FFF779FD0028B8D1FF20FFF733FD102139
:1094A0006846FFF7B3FD0028AFD03021FF20FFF75B
:1094B00029FD013911F0FF01F8D19DF80A301A0990
:1094C000102393402B60A1E70920FFF75CFD0646BF
:1094D00000289AD110216846FFF798FD002894D003
:1094E00014F002019DF80A309DF80B000DD05B00CE
:1094F0009DF80D2003F07E0303EBD0139209013396
:10950000013A93402B60314680E7C20002F0180216
:10951000C3F3840302EB5012013302FB0333D1E7A0
:109520001F4B1E7816F0060F3FF46FAF6A460B21F3
:109530000020FFF739FF00287FF467AF9DF8003067
:109540009B0904D19DF80A305A067FF55EAFD5E934
:109550000014330758BF49024FF0200058BF64027F
:10956000FFF711FD00287FF450AF21462120FFF7BF
:109570000AFD014600287FF448AF2620FFF703FDCF
:1095800000287FF442AF47F23050FFF7CBFC32E7C0
:1095900004213BE704213BE7032139E7A898002099
:1095A0009EAA002038B54FF0A0430A4D4FF08062CC
:1095B000C3F80C250A2445F001054FF47A40A8476A
:1095C000013CFAD14FF0A0434FF08062C3F8082568
:1095D00038BD00BF30520300094A13689BB213B173
:1095E000013B9BB21360074A13689BB213B1013B66
:1095F0009BB21360044A137803F0F90313707047A9
:10960000A0AA0020A4AA0020A898002050E8002FBB
:109610000B4640E8003C9CF0000FF7D11046704725
:1096200050E8003F43EA010240E8002C9CF0000FA4
:10963000F6D11046704750E8002F02EA010340E8D7
:10964000003C9CF0000FF6D11046704750E8003FF8
:1096500003EB010240E8002C9CF0000FF6D110460D
:10966000704750E8003FA3EB010240E8002C9CF05B
:10967000000FF6D1104670470121FFF7D1BF00213E
:10968000FFF7D9BF37B5054620B914494FF492709A
:1096900003F07CF902A8002400F8014DFDF788FFD3
:1096A0002A68696813688B4210D9591E116013F833
:1096B000014C2A8AEB6802FB04342A68AB68116803
:1096C0005B1A1179DBB2994238BF13719DF807001C
:1096D000FDF79EFF204603B030BD00BF36520300A9
:1096E00037B50C46054620B9104940F2471003F043
:1096F0004DF924B90D494FF4A47003F047F902A8BD
:10970000002300F8013DFDF753FF2A681368591C38
:109710001160EA68A41A2A8AB4FBF2F41C709DF85E
:109720000700FDF775FF03B030BD00BF36520300E0
:1097300038B5084C04F108030546002818BF1C463C
:1097400023682BB11A6822605B6828469847F7E7C0
:1097500038BD00BFB0AA002020B9054B01225A70C5
:10976000FFF7E6BF012802D1014A9070F8E7704781
:10977000A8AA002020B9034B01225A70FFF7D8BFD6
:10978000704700BFA8AA002038B50B4C237883B9D6
:109790000A486360A3602361E36000F087FF054629
:1097A00002F0ACFF08B900F097FF012323702846B0
:1097B00038BD8525FBE700BFA8AA00205997020005
:1097C00013B5154C237823B914494FF4857003F071
:1097D000DDF8E36823B9114940F20B1003F0D6F825
:1097E00002A8002300F8013DFDF7E2FEE368013B1B
:1097F000E360E36853B902F081FF18B107497920AB
:1098000003F0C4F800F086FF0023A3709DF8070062
:10981000FDF7FEFE02B010BDA8AA0020865203008C
:10982000012813B509D003D303281BD002B010BD03
:10983000134B0122C3F88020F8E702A80023114C43
:1098400000F8013DFDF7B4FE23780BB9FFF79CFF4C
:10985000E3689DF807000133E3600123A370FDF77F
:10986000D7FEE3E7074B1B7823B9074940F24520B1
:1098700003F08CF800F030FFFFF7A2FFD6E700BF3F
:1098800000E100E0A8AA0020865203001FB503787B
:109890008DF8003003798DF8043043798DF8053068
:1098A00083688DF80630C3688DF80730036902932A
:1098B00043690393054A064B684653F8213052F832
:1098C0002110984705B05DF804FB00BFBCAA00203A
:1098D000C4AA002002494FF4F37003F057B800BF48
:1098E000E65203001F2810B5044601D9FFF7F2FF26
:1098F000012303FA04F44FF0A043C3F8084510BD58
:10990000024B4FF4807043F001031847E05203000C
:109910002DE9F14F924690F80080364A42F828A08F
:10992000354A42F828304B7B81460C467BB30B68A6
:109930004FF0A04503F5E07340F20C6245F8232098
:109940004B6803F5E073002645F823200868FFF70D
:10995000C9FF6068FFF7C6FF236803F5E07340F2B4
:109960000D6245F82320636803F5E0734FF0010BA7
:1099700045F82320FFF7C4FF67681F2F01D9FFF7C1
:10998000A9FFD5F81035FB40DB070ED506BBBAF1B1
:10999000000F1A4A434608BF0022214609F104007D
:1099A00001B0BDE8F04F01F0E3BD27681F2F01D9DA
:1099B000FFF790FF0BFA07F7C5F80C75FFF7A0FF4C
:1099C00001362068FFF78EFFFFF79AFF092ED3D1EB
:1099D00065681F2D01D9FFF77DFF4FF0A0420123DD
:1099E000AB40C2F80C35FFF78BFF6068FFF77AFFDA
:1099F000CDE700BFC4AA0020BCAA00208D980200B9
:109A0000037813F0040216D003F00303012B03D0F4
:109A1000022B09D0012070470A6800880232C0F387
:109A2000831002440A60F5E70B684288023303EBB7
:109A300092130B60EEE71046704700002DE9F04FDF
:109A400089B00646871C08A8484C009200230D46A2
:109A500000F8113DFDF7ACFD23682B60D4E901232C
:109A60001344226801339B1A04F21C4804F5836BEB
:109A700004F21449BB421AD3009A0023002A6DD085
:109A8000012262F3010343F0040366F389132168A2
:109A9000A2689DF80F000A4003320F4444F82230B8
:109AA0002760FDF7B5FD012009B0BDE8F08F012169
:109AB0004046FFF7CBFD5846FFF7DEFD0DF1200ACB
:109AC0004846FFF7D9FD60684AF8100DA5682840A0
:109AD000033004EB80005146FFF792FF02460498E2
:109AE000002AF4D105EA000304EB8303811CDB6840
:109AF00005930130054004EB850503F00303012BBA
:109B00000491ED6823D0022B08D0194901924FF43B
:109B1000BF7002F03BFF019A154607E0BDF8163012
:109B20009B0903332D0C01EB930304934846FFF785
:109B3000A6FD08B1049B636029464046FFF786FDF9
:109B4000D4E901231344226801339B1A92E7BDF83C
:109B50001430C3F383132D0C0B44E6E7022262F3A7
:109B6000010343F0040366F39F5390E79CAB00208E
:109B700036530300034BD3E90030C31A584258410F
:109B8000704700BF9CAB00202DE9F04387B0FFF782
:109B9000F1FF0646002840F0FC807F4DC5F8180410
:109BA000BFF34F8F6868AC6806AF47F8100D2040D0
:109BB000033005EB80003946FFF722FF029B18B106
:109BC000D5F81824002A5FD004EA0302991C013357
:109BD00005EB8202234005EB8303D268DB68049324
:109BE00002F00303022B0392029162D1BDF80E3002
:109BF0006A484FEA9318B8F1500FC14628BF4FF09A
:109C0000500969F38F1309F10801ADF80E3000F027
:109C1000EBF90746002800F0A78000F014FA03A92A
:109C200000230822384600F021FA029924EA0106AE
:109C30000136B600B14535D95FFA89F97EB3F6B27F
:109C4000A9EB0609214003315FFA89F4B146544E6D
:109C500005EB810108234A46384600F007FA36B181
:109C600009F1080322463146384600F0FFF9029B0D
:109C700008F1030803EB98030293D5F81834002B7E
:109C80004BD1D5F810445BE02A689A4204D86A6048
:109C9000304607B0BDE8F08304EA030088E7404996
:109CA0003446D7E72140033108234A4605EB8101BA
:109CB000DAE7012B58D1BDF80C303848C3F38311D3
:109CC000062928BF062161F3891302318900ADF806
:109CD0000C3000F089F90746002845D000F0B3F9B0
:109CE0000023082203A9384600F0C0F90026BDF879
:109CF0000C20C2F38312B31C96424FEA8303BCD2FA
:109D000002994A1C21400331029205EB8101042291
:109D1000384600F0ABF90136E9E7384600F097F92C
:109D2000FFF728FF80F00100C6B2B1E7E3685B7976
:109D300023B1236839461B6820469847E3681C68AE
:109D4000002CF3D1384600F082F906A800F8114D36
:109D5000FDF72EFCD5F818340BB9029B6B609DF80B
:109D60000700FDF755FCDBE7D5F8104454B90D4B5F
:109D70000D480E49C01AC008000440F0020000F06F
:109D800083F8CDE7236820469B689847E3681C6802
:109D9000ECE700267CE700BF9CAB002028630300B3
:109DA000A8AB002090620300E86203008D5303001B
:109DB0002DE9F74F2F4C80460F46914601A901220D
:109DC00018469B46D4F808A0FFF738FE00283DD07F
:109DD000019D0026A91C5E4506EB010240D1002131
:109DE0002548FFF713FC80F3100B244B244A4FEA5D
:109DF00018499B1AB9EBD30F04D3224940F2A310A0
:109E000002F0C4FD6B1C03EA0A0304EB830349EA76
:109E10000B42DA6005EA0A030333012114F8232018
:109E200068F3C50204F8232034F8232066F389126E
:109E300024F8232054F8232067F39F2244F823209A
:109E400061F301026FF3820204F8232094F82034B6
:109E50001BB1FFF799FE0028FBD103B0BDE8F08FDE
:109E60000AEA020204EB820259F82630D360013676
:109E7000B1E700BF9CAB0020B8AF0020286303000F
:109E8000906203003653030000231A46FFF790BF89
:109E900013B502AC012344F8042D2246FFF788FFD6
:109EA00002B010BD07B5CDE9002302236A46FFF7D3
:109EB0007FFF03B05DF804FB1FB5CDE90123069BCE
:109EC000039301AA0323FFF773FF05B05DF804FBBA
:109ED0001FB5CDE90023069B0293079B03936A46B7
:109EE0000423FFF765FF05B05DF804FB38B5094AA8
:109EF0000123D2F8104482F820341D4604B938BD3D
:109F0000E3685D71236820465B689847E3681C68D6
:109F1000F4E700BF9CAB00202DE9F74F99469DF870
:109F20003030019388461746054618B92249B620B5
:109F300002F02CFDEA8895F805B00BFB02FBABF1B3
:109F4000040BCB4503D81C49C42002F01FFD3E681A
:109F5000B5F806A006EB09025A4509F1040188BFCD
:109F6000ABEB0906B1FBFAF43E600AFB141144B9ED
:109F7000AAEB0107B74228BF37462EB903B0BDE8A8
:109F8000F08F2D68013CF2E7019A043108EB0403DD
:109F9000681872B101463A461846F61B02F016FFE1
:109FA000B2453C442D6857464FF0000128BF374664
:109FB000E3E73A461946F0E7A2530300F8B54679BD
:109FC0000146721E0546002393422D6803D30024E8
:109FD000A64202D8F8BD0133F6E70F682846FFF71E
:109FE0007FFB01343946F3E72DE9F843CD1C068A9F
:109FF0000746FFF747FB043E35440446B5FBF6F53C
:10A00000F0B14FF48073EDB28380C680013D0760EC
:10A0100081464FF00008A84512D23846FFF732FBC0
:10A02000064648B163790133637108F10108C9F844
:10A03000000007608146EEE72046FFF7BFFF344689
:10A040002046BDE8F88301210430FFF7FFBA10B5C0
:10A05000012104460430FFF704FB10F0FF0F04D188
:10A060002046BDE81040FFF7A9BF10BD30B585B050
:10A07000144604AA002542F8044D0095FFF74CFF52
:10A08000039BA34203D00349F62002F07FFC05B0F6
:10A0900030BD00BFA25303000268136852689342A8
:10A0A00091BFD01A80680130801888BFC01A7047ED
:10A0B00038B50C46054618B90449772002F066FC0D
:10A0C000AB68A3428CBF601C002038BDFB5303006B
:10A0D00038B5044618B907498A2002F057FC2368AE
:10A0E00020461D685968FFF7E3FF431B584258415B
:10A0F00038BD00BFFB5303002DE9F3410D46044674
:10A1000018B92E49952002F041FC1DB92B49962023
:10A1100002F03CFC02A8002300F8013DFDF748FADC
:10A120002046FFF7D5FF804610B1237C002B3BD1A2
:10A13000276820467E687968FFF7BAFF7860B8F133
:10A14000000F05D0276820463968FFF7B1FF386057
:10A15000E2686068531E072B20D8DFE803F0041084
:10A160001F141F1F1F182B7883552046FFF794FFDD
:10A1700023689A68824200D29860002415E02B88F8
:10A1800020F81630F1E72B6840F82630EDE7D5E9E6
:10A19000002300EBC600C0E90023E6E7294606FBE2
:10A1A000020002F013FEE0E704249DF80700FDF72B
:10A1B0002FFA204602B0BDE8F08100BFFB53030038
:10A1C00010B5044620B9064940F20A2002F0DEFB31
:10A1D000236818685B68C31A5842584110BD00BF15
:10A1E000FB5303002DE9F3410C469046054618B990
:10A1F0002549D92002F0CAFB1CB92349DA2002F014
:10A20000C5FB02A8002300F8013DFDF7D1F928465F
:10A21000FFF7D6FF002834D12F683E68B8F1000F51
:10A2200004D139682846FFF743FF3860EA68696857
:10A23000531E072B1FD8DFE803F0040F1E131E1E4A
:10A240001E178B5D237000249DF80700FDF7E0F9D1
:10A25000204602B0BDE8F08131F816302380F2E7E5
:10A2600051F826302360EEE701EBC601D1E9002367
:10A27000C4E90023E7E706FB0211204602F0A6FD31
:10A28000E1E70524E0E700BFFB53030038B50D46C6
:10A29000044618B90849502002F078FB1DB9064958
:10A2A000512002F073FB25602B6863606A6893425B
:10A2B00004BF0023636038BD4954030010B5044651
:10A2C00018B90B49632002F061FB23681BB90849E8
:10A2D000642002F05BFB636843B1226891680B4421
:10A2E00063605268934204BF0023636010BD00BFE7
:10A2F000495403000D4930B5A1F5947202259142ED
:10A3000001D800200EE08B1ADB1093FBF5F302EB73
:10A31000C30452F83330834205D802D204F1080254
:10A32000EDE7606830BD2146E9E700BFF055030066
:10A3300008B5FFF7DFFF024B002808BF184608BD2D
:10A34000B2540300C0B2002348700B707047000085
:10A3500070B50D46044618B90849712002F016FB85
:10A3600023681A6812683AB11A681B6851681B683A
:10A370002846BDE87040184770BD00BFAA590300C9
:10A38000F0B5044687B018B92D49372002F0FEFA1F
:10A390002368187E1A68C0B207B296684FEAC70CE5
:10A3A00006EB0C0256F8376051791779927912F062
:10A3B000010F4FEA510501F0010139D0002937D1D1
:10A3C000D3F800E09EF80CE00130704530DAD3F8A5
:10A3D00000E00CF10800DEF808C084449CF805C0D9
:10A3E000B5EB5C0F24D11A6891680A1851F800C0C7
:10A3F000187E517992F804E09279013011F0010F42
:10A400004FEA4212C0B20CBF0321022102F0200227
:10A4100018768DF8041004F10C0001A98DF8055090
:10A42000CDE9027ECDE9046C01F0FEF907B0F0BD84
:10A4300052014FF0000C02F02002E646E9E700BFAF
:10A44000AA5903002DE9F74F0E46044618B92949C9
:10A45000872002F09BFA2568DFF89CB04FF00008D7
:10A4600002A800F8018DFDF7A3F816B923681B6850
:10A4700043B9002229466068FFF7B4FE90B3C5F8DF
:10A48000008000269DF80700FDF7C2F87EB32B6818
:10A490001B694BBB2F1D10223946686902F064FC12
:10A4A000A8B104F10C0A504604F1080901F060F962
:10A4B00023465A4639464846FFF72AFA18B10D494D
:10A4C000B42002F063FA504601F008F96F6185F894
:10A4D00018802046FFF754FF014640B12046FFF7A1
:10A4E00037FFBDE70126CDE72B681F69D3E703B02F
:10A4F000BDE8F08FAA590300FDA4020038B50C4650
:10A50000054618B91249D22002F040FA23681B68A8
:10A510001BB90F49D82002F039FA297871B922689D
:10A52000137E10680133007BDBB2984207D91376A3
:10A530002046FFF725FF014608B938BD0321204614
:10A54000FFF706FF20460121BDE83840FFF77ABF3C
:10A55000AA590300F8B50E46044620B919494FF42C
:10A56000847002F013FA636823B9164940F20910A7
:10A5700002F00CFA63689B6823B912494FF48570A6
:10A5800002F004FA26B90F4940F20B1002F0FEF96E
:10A5900023460D4A314604F10800FFF7B9F9074692
:10A5A00070B904F10C0001F099F823681F6096E877
:10A5B0000F002568043585E80F0023681A1D5A61CD
:10A5C0003846F8BDAA590300FDA4020037B5054678
:10A5D000019120B9144940F22D1002F0D7F9019BE6
:10A5E00023B911494FF4977002F0D0F9019B9B6891
:10A5F00023B90D4940F22F1002F0C8F9019B1B7BD3
:10A6000023B909494FF4987002F0C0F901A96868AC
:10A61000FFF772FD044618B901462846FFF712FFFE
:10A62000204603B030BD00BFAA5903002DE9F04118
:10A6300086B0884617461E460C9C054620B9194927
:10A6400040F24F1002F0A2F927B916494FF4A87052
:10A6500002F09CF926B9134940F2511002F096F924
:10A660000023ADF8003001238DF8003001A90E4B16
:10A6700001932846CDF808D003978DF81060CDF8E7
:10A680001480FFF7A3FF20B106B0BDE8F08104B14C
:10A69000A0479DF80030002BF9D19DF80100C0B211
:10A6A000F2E700BFAA59030045A3020010B5044613
:10A6B00018B90749A02002F069F9064B187920B9AA
:10A6C00001221C601A71587110BD8520FCE700BF83
:10A6D000FE590300C0AF002008B50B4B1B791BB916
:10A6E0000A49B92002F052F9094B1A68D2075FBF34
:10A6F000E02283F8002301221A604FF080430122F8
:10A70000C3F8182508BD00BFC0AF0020FE590300E4
:10A7100000E100E008B5084B1B791BB90749F3209D
:10A7200002F034F9064B01221A604FF08042D2F851
:10A730001834DB03FBD408BDC0AF0020FE59030072
:10A740000C00004007B5154B1A687AB100221A6058
:10A750001B680093009B4FF080430122C3F808233D
:10A760000F4B587910B95A711B6898470D4B1A68EE
:10A7700082B100221A601B680193019B4FF0804355
:10A780000222C3F80823064B1B68012003B05DF8C2
:10A7900004EB184703B05DF804FB00BF0001004064
:10A7A000C0AF00200401004000F1804000F5C0402F
:10A7B000002382B0036003680193019B02B07047DD
:10A7C000054B4FF0FF32072843F8202084BF1B18A9
:10A7D00083F84820704700BFC8AF002002494FF4FB
:10A7E000F37002F0D3B800BFE65203001F2838B55B
:10A7F00004460D4601D9FFF7F1FFA00000F1A0408B
:10A80000D0F8003723F44033C0F80037D0F80037D1
:10A8100043EA0543C0F8003738BD000010B5164CB8
:10A8200094F8583033BBFF21E2180133202B82F813
:10A830003010F9D10021C8B2FFF7C2FF01310C2955
:10A84000F9D1042200210D4802F05AFB0C4BE02202
:10A8500083F8062340221A604FF4BE70FFF7A4FF6E
:10A86000084B4FF00042C3F80423012384F858300A
:10A87000002010BD0820FCE7C8AF00201CB000205D
:10A8800000E100E000600040034B93F85800003006
:10A8900018BF0120704700BFC8AF00201F2870B547
:10A8A00004460D4604D941494FF4987002F06EF801
:10A8B0003F4E96F85830012B04D03C4940F23110FD
:10A8C00002F064F825B939494FF4997002F05EF846
:10A8D000331993F93020013265D1AA78002A54D077
:10A8E000002356F8231001314FEA830248D1311971
:10A8F00002F1804281F83030002102F5C04246F872
:10A900002310D2F810052B78697820F498101B04D6
:10A91000090520F4F85001F4801103F44033C2F823
:10A9200010050B432102D2F8100501F4F8510B4336
:10A930000343C2F810356B78012B4FF0010528D185
:10A940001F2C01D9FFF74AFF4FF0A043A540C3F8E1
:10A9500008551F2C01D9FFF741FF04F5E0724FF0B5
:10A96000A043032143F82210E2081249012304F016
:10A97000070403FA04F48B5C1C438C54002003E0AE
:10A980000133082BADD1042070BDFE2283F83020A6
:10A99000D1E71F2C01D9FFF721FF4FF0A043A540BD
:10A9A000C3F80C55D5E70820EEE700BF515A030065
:10A9B000C8AF00201CB000201F2838B5054604D9B8
:10A9C00012494FF4BE7001F0E1FF114C621992F987
:10A9D0003020013204D10D4940F27D1001F0D6FF44
:10A9E000631993F83030072B04D808494FF4BF702F
:10A9F00001F0CCFF1F2D01D9FFF7F0FE012303FA70
:10AA000005F54FF0A043C3F8085538BD515A03006F
:10AA1000C8AF00201F2838B5054604D912494FF4A5
:10AA2000C37001F0B3FF114C621992F9302001326A
:10AA300004D10D4940F2871001F0A8FF631993F883
:10AA40003030072B04D808494FF4C47001F09EFF42
:10AA50001F2D01D9FFF7C2FE012303FA05F54FF0C0
:10AA6000A043C3F80C5538BD515A0300C8AF0020AD
:10AA70002DE9F04F87B000245B4A5C4E5C4D039497
:10AA800001211368A2F5C040012B80B206D1D6F88F
:10AA900004330B4202D0FFF787FE0C430432AA4274
:10AAA0004FEA4101EDD1534B1B68012B0AD14FF402
:10AAB000BE70FFF779FE4FF0A04344F00044D3F896
:10AAC0001035039314F0FF0F1AD04B4F00250126C9
:10AAD000344210D0AB0003F1804303F5C043D3F8F8
:10AAE0001005D3F8101557F82530C0F30420C1F332
:10AAF000014103B198470135082D4FEA4606E7D1D9
:10AB0000002C6EDA00224FF0FF33CDE904233A4FD8
:10AB10004FF0000A56464FF0A04907EB0A0393F99D
:10AB20005040631C46D0E4B2012224F0C00504F07A
:10AB3000070B02FA0BFBEB0806AAD11811F8042C3C
:10AB400012EA0B0F36D07A19A40992F9302057F87F
:10AB50002280B8F1000F0AD1032C2BD10DF1100C7B
:10AB60001CF8030040EA0B000CF8030001E0032C82
:10AB7000F4D01F2D03D90191FFF730FE019911F890
:10AB80000C1C05F5E07311EA0B0F59F82330C3F3E1
:10AB9000014320D0022B0DD1032C05D1214628469C
:10ABA000FFF724FE0136F6B2B8F1000F02D02146BD
:10ABB0002846C0470AF1010ABAF1040FADD186B1A7
:10ABC0004FF0A043039AD3F810359A4209D003936B
:10ABD000049B05939CE7032BECD1032CE4D10221C9
:10ABE000DDE707B0BDE8F08F006100400060004085
:10ABF000206100407C610040C8AF002010B5054CCA
:10AC000022681AB90449512001F0C0FE2368BDE84A
:10AC10001040184724B00020AA5A030037B50D464B
:10AC200030B90F49772001F0B1FE002003B030BDEC
:10AC30000C4B9842F9D102A8002300F8013DFCF723
:10AC4000B7FC094B1C7914B901221D601A719DF8DB
:10AC50000700FCF7DDFC002CE7D01120E6E700BF81
:10AC6000AA5A03000020004024B0002018B9064969
:10AC70009B2001F08BBE054B984201BF044B002284
:10AC80001A601A71704700BFAA5A030000200040E2
:10AC900024B000200023435082B043580193019B0D
:10ACA00002B0704770B5D0F8103105460C4653B16C
:10ACB0004FF48871FFF7EEFF63795A0703D52368D5
:10ACC0000BB101209847D5F814315BB14FF48A716C
:10ACD0002846FFF7DFFF63791B0703D523680BB115
:10ACE00002209847D5F81C315BB128464FF48E718D
:10ACF000FFF7D0FF607910F0100002D1236803B194
:10AD00009847D5F8043163B14FF482712846FFF7B4
:10AD1000C1FF0123237123681BB10320BDE87040EC
:10AD2000184770BD01490248FFF7BCBF2CB0002096
:10AD300000C0014001490248FFF7B4BF34B0002011
:10AD40000010024001490248FFF7ACBF3CB00020B0
:10AD50000020024000F1804000F5E040002382B076
:10AD6000036003680193019B02B07047F0B5514B3B
:10AD7000514C1B6885B0DBB14FF4827094F82E20E3
:10AD8000FFF7E8FF12B194F82F30A3B16368029384
:10AD90002389ADF80C30E36800218DF80410002BF6
:10ADA00044D12374236801A89847002384F82F30E6
:10ADB00094F82E3003B3414B1B68EBB14FF4807015
:10ADC000FFF7C8FF94F82D20638B91B28B4238D9DE
:10ADD0005B1A21899BB26383CB1A616801EB430143
:10ADE000374BC3F82C16C3F830264FF48270FFF7A8
:10ADF000B1FF344B01221A60334B1B685BB14FF437
:10AE00008870FFF7A7FF002304A82374022300F82B
:10AE10000C3D236898472D4B1B6813B34FF48A7081
:10AE2000FFF798FF0023237405B0F0BD208B6083EB
:10AE300063602081E160002AB4D1214B01221A60B5
:10AE4000B0E7D2D1E368012184F82F103BB1002193
:10AE500061831B49C1F82C36C1F83026C5E76383EE
:10AE6000C3E766694FF000470125002EDCD0B6FA33
:10AE700086F227FA02F34632920026EA030602F12E
:10AE8000804303F5E0431B68002BEED01046FFF72C
:10AE900061FFA2F58C72D30882F00402C2F3800233
:10AEA0008DF808308DF804508DF80920236801A82A
:10AEB0009847DAE70471004044B000200071004078
:10AEC0000070004004700040107100401471004098
:10AED00070B50E46054618B92949D62001F056FD31
:10AEE0001EB92749D72001F051FD264C94F82C308B
:10AEF000002B43D1244A29782660C2F8F0156978DE
:10AF0000C2F8F415E97884F82E102374012184F82E
:10AF10002D30636184F82F306FF0004384F82C10DB
:10AF20004FF48270C2F80833FFF714FF4FF48070BB
:10AF3000FFF710FF4FF48A70FFF70CFFAD78AB1EE0
:10AF4000012B06D96B1F022B03D910496B2001F08E
:10AF50001DFD0F4B6D018022EDB283F807531A607F
:10AF6000094B0222C3F8042394F82E10012209B1E0
:10AF7000C3F80423C3F80025002070BD0820FCE7B7
:10AF8000015B030044B00020007000404E5B0300F2
:10AF900000E100E070B53E4E96F82C3004460D46B8
:10AFA00023B93C4940F2231001F0F0FC072C04D9EE
:10AFB00038494FF4927001F0E9FC374BD3F8F4357F
:10AFC00013F0FF0F07D096F82D3023B1314940F22E
:10AFD000271001F0DBFCEB79013B082B04D92D494C
:10AFE00040F2291001F0D2FC2B7A092B04D929490F
:10AFF0004FF4957001F0CAFC337C002B45D104F16D
:10B000000C0206EB42031B7923B996F82D3001336D
:10B0100086F82D3006EB4206EB7933712B7AAA784D
:10B0200073716B7812021B0102F4E06203F03003CB
:10B0300013432A7802F003021343EA78120302F45E
:10B04000805213432A79120402F4E02213436A79EE
:10B05000120502F480121343AA79120602F08072DC
:10B060001343220102F1804202F5E042240104F17F
:10B070008044C2F8183504F5E044EB792A7AC4F824
:10B0800014250020C4F8103570BD1120FCE700BF66
:10B0900044B00020015B03000070004002494FF4FF
:10B0A000F37001F073BC00BFE65203001F2810B517
:10B0B000044601D9FFF7F2FF012303FA04F44FF02D
:10B0C000A043C3F80C4510BD1F2810B5044601D994
:10B0D000FFF7E4FF012303FA04F44FF0A043C3F8A1
:10B0E000084510BD13B54FF04023D3F818310BB30A
:10B0F000114B124C00221A601B680193019B2368BC
:10B1000023B90F494FF4277001F040FCE07FFF287E
:10B1100003D0A37F5BB1FFF7C9FF002363772372DE
:10B12000D4E90031074802B0BDE810401847FFF7E6
:10B13000CBFFF2E702B010BD1841004074B0002010
:10B14000985B03007CB000202DE9F74300240646FD
:10B150000F4600F5A0754FF48038A14604F1500069
:10B160002B68800080B26BB1D6F8043308FA04F281
:10B170001A4207D0C5F800902B680193019BD7E9CC
:10B18000003198470134042C05F10405E6D103B0E1
:10B19000BDE8F0832DE9F347544B07791546026863
:10B1A0009A4204460E4603D15149482001F0EEFB75
:10B1B0001EB94F494A2001F0E9FB1DB94C494B200B
:10B1C00001F0E4FB4B4A0C2303FB072390461B7A58
:10B1D000002B40F089802368444A93420FD002F547
:10B1E000805293420BD002F58052934207D002F571
:10B1F0008032934203D002F58052934202D1B37859
:10B20000032B03D93A495F2001F0C0FB0C237B4399
:10B2100008EB030248F80350736853600022154698
:10B2200060792168D3B2984202F1010254D8F578CE
:10B23000AB1E4FEA113A012B4FFA8AF906D96B1F60
:10B24000022B03D92C496B2001F0A0FBB9F1000FB0
:10B25000AEBF09F160430AF00F03284A28484FEABD
:10B260004515EDB2AABF03F56143D55483F80053E9
:10B2700023681B0B59B24909012203F01F0302FA8C
:10B2800003F340F8213020687378D0F8041503F0F8
:10B29000030321F003010B43C0F804352068B378A1
:10B2A000D0F8081503F0030321F003010B43C0F8A5
:10B2B000083520683378D0F8101503F00F0321F01B
:10B2C0000F010B43C0F810350C2303FB0787002048
:10B2D0003A7202B0BDE8F0879B0003F5A073CD5031
:10B2E000CB580193019B9BE70820F2E700800040C8
:10B2F000E95B030098B000204E5B030014ED00E012
:10B3000000E100E038B50B4C02790C2101FB024250
:10B310000546127A012A03D007498F2001F036FB37
:10B320002B6801221A602B790C2202FB03430222B4
:10B330001A7238BD98B00020E95B030038B50A4C9A
:10B3400002790C2101FB02420546127A1AB907491B
:10B350009F2001F01BFB2B790C2202FB0343187A80
:10B36000831E5842584138BD98B00020E95B030065
:10B3700010B5084A03790C2101FB032304461B7A0C
:10B380001BB90549B32001F001FB23680122DA60F3
:10B3900010BD00BF98B00020E95B030038B5104A2B
:10B3A00003790C460C2101FB032305461B7A1BB9CC
:10B3B0000C49C22001F0EAFA6B79A34203D809498B
:10B3C000C32001F0E3FA04F110039B00DBB22A680A
:10B3D0000121D15004F5A8742B6853F8240038BD1E
:10B3E00098B00020E95B030001490248FFF7ACBEBA
:10B3F00098B000200080004001490248FFF7A4BE39
:10B40000A4B00020009000400023435082B0435875
:10B410000193019B02B07047F0B5504C236887B090
:10B4200023B94F4940F2452001F0B0FA4D4AD2F815
:10B4300024311546A3B14FF492711046FFF7E4FF93
:10B44000D2F8043163B9A368C2F808330223A360B9
:10B45000A368C2F8043301231362536107B0F0BD3F
:10B46000D5F80431002B49D03F4F3E484FF482714C
:10B47000FFF7CAFF0FCF01AE0FC63B68336094F8E9
:10B480002E307BB1237B012B0CBFD5F83C25D5F8A2
:10B490004C250292022B334B0CBFD3F83C35D3F82A
:10B4A0004C3503934FF4B0712E48FFF7ADFF4FF4C6
:10B4B000AE712C48FFF7A8FF94F8303013B194F820
:10B4C0002E303BB1274B0022C3F80022A260274A4E
:10B4D000C3F80823234AD2F8C434C2F8C4349A0704
:10B4E00036D501238DF8003094F830300BB984F84C
:10B4F0002F30D4E9003168469847AFE74FF4A47184
:10B500001848FFF781FF237B83B9174F0FCF01AE98
:10B510000FC63B68336094F83030002BDAD1C5F8A1
:10B520000032A360114BC5F80833D3E74FF4007322
:10B53000C5F8003240F20223A36003F1CE73C5F8D0
:10B540000833A368C5F804330123AB602B6285E799
:10B5500013F0040318BF0223C4E700BFB0B00020FB
:10B560003C5C030000300040BCB0002002029C01A3
:10B570002DE9F74F8046934601930C4619B950497F
:10B58000A92001F003FAD4E900239A4203D14C49DF
:10B59000AA2001F0FBF998F804704A4E342303FB0B
:10B5A00007FA06EB0A0999F82D20002A40F083805B
:10B5B0004549D8F80000FFF731FB054600287CD14B
:10B5C00046F80AB0019BC9F80800C9F8043089F8A8
:10B5D000300089F82F00637B89F83230D4F800906E
:10B5E000B9F11F0F04D939494FF4F37001F0CEF9C6
:10B5F0004FF0A04309F5E07940F20C6243F82920AE
:10B60000D4F804A0BAF11F0F994604D92F494FF47A
:10B61000F37001F0BBF90AF5E07A40F20C6349F8E7
:10B620002A30D4E90012D8F80030C3F80815C3F85E
:10B630000C25A268C3F8242534237B43F35883B335
:10B64000D8F80030247B4FEA133AA31E012B4FFA9F
:10B650008AF906D9631F022B03D91D496B2001F01B
:10B6600095F9B9F1000FACBF09F16043194B4FEAEE
:10B670004414B8BF0AF00F0AE4B2AABF03F561434D
:10B6800003F80A4083F80043D8F800301B0B5AB285
:10B69000012103F01F0301FA03F352090E4941F897
:10B6A0002230342303FB0766012386F82D30284619
:10B6B00003B0BDE8F08F0825F9E71125F7E700BFD3
:10B6C0003C5C0300B0B0002019B40200E652030055
:10B6D0004E5B030014ED00E000E100E070B50D4D9D
:10B6E0000479342202FB0452064692F82D20012AE6
:10B6F00004D0094940F2111001F048F933680622DC
:10B70000C3F80025342303FB0454022384F82D30AE
:10B7100070BD00BFB0B000203C5C030070B5114D9F
:10B720000479342202FB0452064692F82D2022B9F5
:10B730000D494FF48E7001F029F93422336802FB71
:10B7400004540021094AA160C3F80823D3F8002259
:10B7500022F4BC52C3F80022C3F80015012384F878
:10B760002D3070BDB0B000203C5C030002029C0193
:10B77000F8B5294D0479342303FB0453064693F8A6
:10B780002D301BB92549F82001F000F9342363431B
:10B79000EB5863B133681B0B5AB20121520903F015
:10B7A0001F0301FA03F320321D4941F822303046CD
:10B7B000FFF7B4FF3068FFF759FA342303FB045353
:10B7C00093F8323003BB3368D3F808751F2F04D9C0
:10B7D00014494FF4F37001F0D9F84FF0A04307F586
:10B7E000E077022243F827203268D2F80C751F2F29
:10B7F0001E4604D90B494FF4F37001F0C7F807F562
:10B80000E077022346F82730342303FB0454002357
:10B8100084F82D30F8BD00BFB0B000203C5C0300C0
:10B8200000E100E0E65203002DE9F8430379044605
:10B830000D4690462BB94B68FF2B02D88B68FF2B27
:10B8400004D9B6494FF4F87001F0A0F82779B44E46
:10B8500034237B43F3583BB92B78022B04D1AF49F7
:10B860004FF4FB7001F092F834237B43F3583BB95B
:10B870002B78032B04D1A94940F2F71001F086F888
:10B88000EB6803F06043B3F1005F03D01022104671
:10B89000BDE8F8832468A34BC4F808334FF0340C98
:10B8A0000CFB076C9CF82F302BB1DCF80830C4F887
:10B8B00004331122EBE718F0140F0CBF012300230F
:10B8C0008CF82F30A946B9E80F000CF10C0EAEE849
:10B8D0000F00D9F80030CEF80030C8F300138CF810
:10B8E00030306B78C4F888354FF482712046FFF70A
:10B8F0008BFD4FF49271FFF787FD18F0010318BF1D
:10B900000123C4F8503518F0020318BF0123C4F80E
:10B9100040352B78032B00F2E080DFE803F0A0C86D
:10B92000810218F0100F04D07C4940F2711001F030
:10B930002DF818F0080F04D078494FF4B97001F0D1
:10B9400025F818F0040F04D0744940F2731001F088
:10B950001DF82B6903F06043B3F1005F96D14FF4FB
:10B960008073C4F800326B68EA68C4F84425204646
:10B97000C4F848354FF4A871FFF746FD4FF4B07195
:10B98000FFF742FD4FF4A471FFF73EFD0123236250
:10B99000A360D4F85031002BFBD04FF4A87120469F
:10B9A000FFF732FDAB682A69C4F84425C4F848356E
:10B9B000342303FB07635C4A9A604FF482730821C7
:10B9C000002218F0080F04D1287803281CBF01209A
:10B9D00060503421794370187158002940F08280FA
:10B9E000012523441968002900F089803421D4F806
:10B9F000C434C4F8C43401FB0766002186F82F1054
:10BA0000002B3FF444AF13F0020F48F2012208BFAD
:10BA1000032213F0040F48F2022318BF1A4636E738
:10BA20006B68EA68C4F84425C4F848352B6903F00C
:10BA30006042B2F1005F7FF429AFAA68C4F83435E0
:10BA40004FF48453C4F83825C4F80032342303FB80
:10BA5000076340F202229A6001232362ADE76B681C
:10BA6000EA68C4F8442518F0200FC4F848354FF0B0
:10BA7000340310D003FB07634FF48072C4F8002234
:10BA8000294A9A604FF4A471FFF7BEFC4FF4A473E7
:10BA90000122226293E74FF4007203FB0763C4F8AC
:10BAA000002240F202229A604FF48273F0E76B6842
:10BAB000EA68C4F83425C4F838354FF48053C4F824
:10BAC0000032342303FB076340F202229A60012311
:10BAD000236200214FF4827372E74FF482730821CE
