:020000022000DC
:106000000000012051D4020079D40200557502002D
:106010007DD402007FD4020081D402000000000081
:1060200000000000000000000000000083D4020017
:1060300085D402000000000087D4020089D4020049
:10604000C99E02008BD4020035AB0200A1B502004C
:1060500041B102008BD4020055A8020065AD0200D8
:1060600079B2020091B202008BD402008BD40200FC
:106070008BD402008BD402008BD402008BD402009C
:106080008BD40200C97202008BD402008BD40200B0
:10609000097302008BD4020059C902008BD402009C
:1060A0008BD402008BD402008BD402008BD402006C
:1060B00089AC02008BD40200000000000000000048
:1060C0008BD40200A1AC0200B9AC02008BD4020058
:1060D0008BD402008BD402008BD40200000000009D
:1060E00000000000000000000000000000000000B0
:1060F00000000000000000000000000000000000A0
:10610000000000000000000000000000000000008F
:10611000000000000000000000000000000000007F
:10612000000000000000000000000000000000006F
:10613000000000000000000000000000000000005F
:10614000000000000000000000000000000000004F
:10615000000000000000000000000000000000003F
:10616000000000000000000000000000000000002F
:10617000000000000000000000000000000000001F
:10618000000000000000000000000000000000000F
:1061900000000000000000000000000000000000FF
:1061A00000000000000000000000000000000000EF
:1061B00000000000000000000000000000000000DF
:1061C00000000000000000000000000000000000CF
:1061D00000000000000000000000000000000000BF
:1061E00000000000000000000000000000000000AF
:1061F000000000000000000000000000000000009F
:1062000010B5054C237833B9044B13B10448AFF3F0
:1062100000800123237010BD18A30020000000009F
:106220008C58030008B5034B1BB103490348AFF377
:10623000008008BD000000001CA300208C58030053
:10624000154B002B08BF134B9D46A3F5803A002148
:106250008B460F461348144A121A07F017FA0F4BD1
:10626000002B00D098470E4B002B00D09847002001
:10627000002104000D000D48002802D00C4809F050
:1062800081FA07F013F92000290000F041F807F027
:10629000FDF800BF00000800000001200000000021
:1062A0000000000018A3002048B5002085F7020078
:1062B0005509030000B585B00190019B002B0AD061
:1062C000074B43F001030393019B9B010293039B44
:1062D0000298984700E000BF05B05DF804FB00BFDE
:1062E0009034030000B583B00190019B002B0AD0CD
:1062F0004FF47A70FFF7DEFF019B013B0193019B96
:10630000002BF5D100E000BF03B05DF804FB0000F6
:1063100000B585B0002303934FF40041002002F044
:10632000ADFA0390039B0293029B002B04D0134A07
:106330001B21029800F037FB02F036FA104807F0F4
:10634000EFF9002301930123009301AB19460D4897
:1063500007F0E6F94FF47A70FFF7C4FF019B5A1C6F
:1063600001921946084807F0DBF9019B052BF1D98A
:10637000009A019B13440093ECE700BF54340300E0
:106380005C340300703403007434030000B585B03E
:106390000190019B002B0AD0074B43F001030393AC
:1063A000019B9B010293039B0298984700E000BF6A
:1063B00005B05DF804FB00BF6035030000B583B095
:1063C0000190019B002B0AD04FF47A70FFF7DEFF9B
:1063D000019B013B0193019B002BF5D100E000BF25
:1063E00003B05DF804FB000010B58EB00590049179
:1063F000039272B602F0D0FF00BF02F08FFD034699
:10640000002BFAD15D4807F08BF9059B41F20102A0
:10641000934213D041F20102934202D8012B09D0DA
:1064200032E044F20102934217D044F20202934256
:1064300008D029E0524807F073F92AE0514807F0E4
:106440006FF926E0039B0893089B5968089B1B88FB
:106450001A464D4807F064F91BE0039B0793079B1E
:106460009C68079B9B68184603F06EFB079B596866
:10647000079B1B68049A019200930B460246214633
:10648000424807F04DF904E00499414807F048F903
:1064900000BF04F00FF9034683F00103DBB2002BC9
:1064A00001D004F0B5F806AB00210A461A800A466E
:1064B0009A7001238DF8193000230D930CE0354AB2
:1064C0000D9B13441B781A4606AB1946104604F080
:1064D000FDF80D9B01330D930D9B022BEFDD002387
:1064E0000C9309E02B4A0C9B13441B78184604F0CC
:1064F00083F90C9B01330C930C9B022BF2DD4FF4C0
:10650000FA70FFF75BFF00230B9309E0214A0B9B16
:1065100013441B78184604F041F90B9B01330B938D
:106520000B9B022BF2DD3220FFF748FF00230A937A
:1065300009E0184A0A9B13441B78184604F05CF9DA
:106540000A9B01330A930A9B022BF2DD4FF4FA7087
:10655000FFF734FF0023099309E00E4A099B134417
:106560001B78184604F01AF9099B01330993099B1B
:10657000022BF2DDFA20FFF721FFB0E79C34030085
:10658000B8340300D8340300FC340300183503008A
:10659000443503009834030000B589B0019004F03D
:1065A00089F8034683F00103DBB2002B01D004F02D
:1065B0002FF802AB00210A461A800A469A7001237E
:1065C0008DF80930002307930CE02F4A079B1344F2
:1065D0001B781A4602AB1946104604F077F8079B61
:1065E00001330793079B022BEFDD0023069309E09D
:1065F000254A069B13441B78184604F0FDF8069BB9
:1066000001330693069B022BF2DD4FF4FA70FFF77D
:10661000D5FE0023059309E01B4A059B13441B7814
:10662000184604F0BBF8059B01330593059B022B2C
:10663000F2DD3220FFF7C2FE0023049309E0124A84
:10664000049B13441B78184604F0D6F8049B0133CE
:106650000493049B022BF2DD4FF4FA70FFF7AEFEB9
:106660000023039309E0084A039B13441B78184650
:1066700004F094F8039B01330393039B022BF2DD98
:10668000FA20FFF79BFEB0E79834030000B583B013
:106690001F4B0193019B02221A61019B02225A6146
:1066A000019B1C4A9A61019B1B4ADA61019B4FF4D2
:1066B00000721A62019B00229A62019B00225A62B8
:1066C000019B0022DA62019B124A9A64019B134AE1
:1066D000DA64019B10221A65019B00229A65019BD6
:1066E00000225A65019B0022DA65019B07330C49A1
:1066F000184607F0F1F8019B0A49184607F0ECF834
:10670000019B20229A7100BF03B05DF804FB00BF1B
:1067100098B400206835030054A7002054A9002035
:10672000743503007835030000B589B003900291F9
:10673000019200230693039BDB680593039B1B696F
:106740000493049A059B9A4205D9049A059BD31A8F
:10675000013B079307E0039B9A680499059BCB1ABA
:106760001344013B0793039B9A68059BD31A079A2E
:10677000934228BF13460793079A019B934228BF71
:1067800013460793039B5A68059B1344079A029983
:10679000184606F0E1FE069A079B13440693029AF8
:1067A000079B13440293019A079BD31A0193059AFE
:1067B000079B13440593039B9B68059A9A4201D15A
:1067C00000230593039B059ADA60019B002BB5D14A
:1067D000069B184609B05DF804FB00B589B003902C
:1067E00002910192039BDB680793039B9A68079BC6
:1067F000D31A0693069A019B9A420ED9039B5A68B4
:10680000079B1344019A0299184606F0A5FE079AC1
:10681000019B1A44039BDA601AE0069B0593039BD5
:106820005A68079B1344059A0299184606F094FE8D
:10683000019A069BD31A0593039B5868029A069BFC
:106840001344059A194606F087FE039B059ADA6001
:1068500000BF09B05DF804FB86B00190019B1B6985
:106860000493019BDB680393049A039B9A4208D824
:10687000019B9A68039BD21A049B1344013B059326
:1068800004E0049A039BD31A013B0593059B184629
:1068900006B0704700B589B0039002910192029B47
:1068A0000693039B5A1C13465B001344DB001F4AEC
:1068B00013440593059B5B69012B17D0012B02D371
:1068C000022B23D029E00598FFF7C6FF0490049A15
:1068D000019B9A4202D20023079321E0019B079378
:1068E000019A06990598FFF778FF19E00598FFF7D8
:1068F000B3FF0490019A049B934228BF1346079369
:10690000079A06990598FFF768FF09E0019A06992A
:106910000598FFF709FF079002E00023079300BFE7
:10692000079B184609B05DF804FB00BF98B400202F
:1069300000B587B00390029101920F4B1B78002B9A
:1069400001D1FFF7A3FE00238DF813300DF11303DF
:10695000184600F0A5FD019A02990398FFF79AFFE7
:1069600005909DF81330184600F0B0FD059B1846C1
:1069700007B05DF804FB00BF98B4002008B5FFF72E
:1069800085FE00BF08BD00B585B00390029101925D
:106990000093009A01990020FFF7CAFF009B184658
:1069A00005B05DF804FB00B583B002900091019240
:1069B00044F2010071466A46FFF716FD03B000BDC0
:1069C00000BF000082B003468DF807309DF8073005
:1069D00003F01F0205499DF907305B09012000FA09
:1069E00002F241F8232000BF02B0704700E100E04E
:1069F00082B003468DF807309DF8073003F01F0280
:106A000006499DF907305B09012000FA02F2403384
:106A100041F8232000BF02B0704700BF00E100E052
:106A200082B003468DF807309DF8073003F01F024F
:106A300006499DF907305B09012000FA02F2603334
:106A400041F8232000BF02B0704700BF00E100E022
:106A500000B585B00190019B002B0AD0074B43F095
:106A600001030393019B9B010293039B02989847A8
:106A700000E000BF05B05DF804FB00BF80350300F7
:106A800008B50D4B4FF48032C3F844230A4B4FF442
:106A90008032C3F804231120FFF7C2FF1120FFF753
:106AA00091FF054B01221A602F20FFF7D1FF034B06
:106AB00001221A7000BF08BD0010014082AA002008
:106AC000024BD3F804351846704700BF0010014050
:106AD00082B001900091019A009BD31A23F07F436A
:106AE000184602B07047000082B00190034A019B33
:106AF000C2F8403500BF02B0704700BF001001402F
:106B000086B00190284B1B68002B03D1264A019BBD
:106B1000136045E0019B1A68234B1B681B689A426F
:106B200010D8214B1B681968019B1A681E4B1B6803
:106B30008A1A1A601C4B1A68019BDA611A4A019B77
:106B400013602DE0019B1B680393174B1B68059393
:106B5000154B1B68049309E0049B1B68039AD31A26
:106B60000393049B0593049BDB690493049B002B14
:106B700004D0049B1B68039A9A42EDD8049B002B17
:106B800005D0049B1A68039BD21A049B1A60019BD0
:106B9000039A1A60019B049ADA61059B019ADA61F3
:106BA00000BF06B0704700BF70AA002000B587B0D4
:106BB00001902A4B1B680393284B1B680593059B88
:106BC000049308E0049A019B9A4208D0049B059321
:106BD000049BDB690493049B002BF3D100E000BF0E
:106BE000049B002B01D1002333E0059A049B9A42B9
:106BF00014D11A4B1B68DB69184A1360174B1B68CA
:106C0000002B0BD1164B01229A60164B00221A6002
:106C1000154B01221A702F20FFF71AFF049B1B68E7
:106C20000293049BDA69059BDA61059BDB69049397
:106C3000049B002B05D0049B1A68029B1A44049BFA
:106C40001A60064B1B68039A9A4214BF0123002363
:106C5000DBB2184607B05DF804FB00BF70AA002045
:106C60000010014074AA002083AA002008B511205A
:106C7000FFF7BEFE00BF08BD08B51420FFF7B8FE41
:106C800000BF08BD00B583B00190019B5B69019A0C
:106C900092691046984700BF03B05DF804FB0000FE
:106CA00000B585B02B4B1B68002B4ED00023019301
:106CB000FFF706FF0246284B1B6819461046FFF7F0
:106CC00007FF0290234B1B6803931DE0039B1B6887
:106CD000029A9A421CD3039B1B68029AD31A02930E
:106CE000039B1B68019A13440193039B0093039B2E
:106CF000DB690393009B1B7C002B05D0009B0022CB
:106D00001A740098FFF7BEFF039B002BDED100E052
:106D100000BF124B1A78124B1B789A420CD1104BC1
:106D20001B780133DAB20E4B1A700D4B1B78022B15
:106D300002D10B4B00221A70094B1B781946094AE5
:106D4000019B42F82130FFF797FF00BF05B05DF8C7
:106D500004FB00BF70AA002074AA002080AA0020B3
:106D600081AA002078AA002082B00190184B1A78DE
:106D7000184B1B789A4223D0154B1B780133DAB29B
:106D8000134B1A70124B1B78022B02D1104B0022AE
:106D90001A700F4B1B781A460F4B53F82220019B99
:106DA0001A60019B1A680D4B1B6813440B4A136051
:106DB0000A4B1B6823F07F43084A1360012303E05A
:106DC000019B00221A600023184602B0704700BFE2
:106DD00080AA002081AA002078AA002074AA00209E
:106DE00088B00390029101920023079338E0204B72
:106DF0001B680693069B1B68039A9A4206D2069B61
:106E00001A68039BD21A069B1A602DE0069B1B682A
:106E1000039AD31A0393069B1B68079A134407939C
:106E2000069B00221A60124B1B680593069BDB69C8
:106E30000F4A1360069BDB68002B11D0029A079B58
:106E4000134423F07F42069B5A60069BDA68069B38
:106E50009A60019B1A68069BDA61019B059A1A6089
:106E6000034B1B68002BC2D100BF08B0704700BFA6
:106E700070AA002000B589B0019000238DF81F3062
:106E8000664B1B680593AAE0019B002B05D0019B74
:106E90000693069BDB69019361E0614B1B781A4600
:106EA00013465B001344DB005D4A13440433049330
:106EB0005B4B1B780133DAB2594B1A70584B1A7876
:106EC000574B9B789A4202D1554B00221A70049B73
:106ED0005B680693049B1B78022B04D0032B1BD00A
:106EE000012B1FD01DE0049B5B681846FFF75EFE78
:106EF0000346002B02D001238DF81F30069B002291
:106F00001A746CE0454B1B680393039B00221A74B0
:106F1000039BDB69414A1360404B1B68002BF1D196
:106F20005DE05CE000BF069B1B7C002B00D056E0C0
:106F3000049B9A68069B5A60049BDA68069B9A60D9
:106F4000049B1A69069BDA60049B5A69069B9A6146
:106F5000344B1B78002B02D0069B00225A60069B04
:106F60005A68314B1B68D31A23F07F432F4A934250
:106F70000ED8069B5A682C4B1B6819461046FFF723
:106F8000A7FD0246069B9B681A44069B1A6017E001
:106F9000254B1A68069B5B6819461046FFF798FD5B
:106FA0000290069B9B68029A9A4206D2069B9A68B8
:106FB000029BD21A069B1A6002E0069B00221A600E
:106FC000069B00225A60069B00229A60069B0122C3
:106FD0001A74069B0022DA610698FFF791FD019B67
:106FE000002B7FF451AF0E4B1A780D4B5B789A4211
:106FF0007FF44AAF9DF81F30002B04D1074B1B686C
:10700000059A9A4201D0012300E0002303F0010316
:10701000DBB2184609B05DF804FB00BF70AA00207F
:1070200064A9002083AA002074AA0020FEFF7F002C
:1070300010B588B00190254B1B68002B43D0234B23
:107040001B681B680793FFF73BFD0690204B1B68EE
:10705000059305990698FFF73BFD03460333049318
:107060001C4B1B7883F00103DBB2002B01D0FFF730
:1070700007FD049A079B934238BF1346059A1344B1
:107080000593059B23F07F4305930598FFF72CFD9F
:10709000FFF716FD039006990398FFF719FD0346C5
:1070A000DC1C06990598FFF713FD03469C420AD99C
:1070B000FFF706FD03461846FFF716FD2F20FFF7E2
:1070C000C7FCFFF7D3FD00BF08B010BD70AA0020B9
:1070D00074AA002082AA002000B587B00023019383
:1070E00000238DF81730194B1B680493184B1B684D
:1070F00003936B461846FFF737FE03468DF80B30B7
:107100009DF80B30002B08D0009B01AA049918466B
:10711000FFF766FE01238DF81730019B1846FFF735
:10712000A9FE0346002B02D001238DF817309DF8ED
:107130001730002B02D00398FFF77AFF054B00228F
:107140001A7000BF07B05DF804FB00BF74AA0020EE
:1071500070AA002083AA002082B003468DF8073071
:10716000034A9DF80730537000BF02B0704700BF5C
:1071700064A9002084B00190144B5B7801338DF832
:107180000F30124B9B789DF80F209A4202D10023BA
:107190008DF80F300D4B1B789DF80F209A4201D1CE
:1071A00000230FE0019B9DF80F201A70074B5B78BE
:1071B0001A4613465B001344DB00044A13440433AD
:1071C0000293029B184604B0704700BF64A90020D8
:1071D00000B589B0039002910192009300230793B8
:1071E00000238DF816300DF11603184600F058F9FB
:1071F0000DF117031846FFF7BDFF0690069B002B05
:1072000002D10423079318E0069B01221A70069B03
:10721000039A5A60FFF754FC0246069B9A60069B4D
:10722000029ADA60069B019A1A61069B009A5A61DB
:107230009DF817301846FFF78FFF9DF81630184657
:1072400000F044F9079B002B01D1FFF715FD079BC8
:10725000184609B05DF804FB00B587B001900B46F5
:107260008DF803300023059300238DF80E300DF1C7
:107270000E03184600F014F90DF10F031846FFF73E
:1072800079FF0490049B002B02D1042305930BE0AB
:10729000049B9DF803201A70049B019A5A609DF884
:1072A0000F301846FFF758FF9DF80E30184600F0D3
:1072B0000DF9059B002B01D1FFF7DEFC059B18465D
:1072C00007B05DF804FB000008B50E4B0022C3F8C0
:1072D00040210C4B0022C3F844210A4B0022C3F882
:1072E0004821084B0022C3F84C21064B0022C3F86A
:1072F0000021044B0022C3F80421FFF7D1FC00BF9A
:1073000008BD00BF0010014008B5FFF7E5FE00BF53
:1073100008BD000000B587B0039002910192039B65
:107320000593144B9B78002B01D108231EE0039B8F
:10733000002B01D1082319E0029B042B01D807235D
:1073400014E0059B5B69002B01D108230EE0059B2F
:107350005B7C012B01D1029B00E000230493019B85
:10736000049A02990598FFF733FF0346184607B0C1
:107370005DF804FB64A9002000B585B00190019B75
:1073800003930D4B9B78002B01D1082310E0019B48
:10739000002B03D0039B5B69002B01D1082307E07E
:1073A000039B00221A7402210398FFF755FF03463E
:1073B000184605B05DF804FB64A9002082B0EFF325
:1073C00010830093009B019372B6019B184602B094
:1073D000704762B600BF704700B585B00190FFF7F7
:1073E000EDFF0390164B9B68002B1BD1144B012221
:1073F0009A60144BD3F88020134B1340104A13604B
:10740000104B114AC3F880200E4BD3F884300C4A3D
:1074100053600C4B4FF0FF32C3F88420019B0022D5
:107420001A7002E0019B01221A70039B002B01D10C
:10743000FFF7CFFF0023184605B05DF804FB00BF3F
:1074400010B5002000E100E0FC06FFBD00B585B0EE
:1074500003468DF80730104B9B68002B16D09DF823
:107460000730002B12D1FFF7A9FF03900B4A0A4BFC
:107470001B681360094A084B5B685360064B002287
:107480009A60039B002B01D1FFF7A3FF002318464E
:1074900005B05DF804FB00BF10B5002000E100E07E
:1074A00000B583B0019000F02BF80346012B03D008
:1074B0000549432005F0DCFA0198FFF78DFF00BF76
:1074C00003B05DF804FB00BF8835030000B583B04E
:1074D00003468DF8073000F013F80346012B03D064
:1074E0000649512005F0C4FA9DF807301846FFF709
:1074F000ADFF00BF03B05DF804FB00BF883503009B
:1075000084B0EFF305830193019BC3F30803039356
:10751000039B002B0DD1EFF314830093009B029388
:10752000029B03F00103002B0CBF01230023DBB2FD
:1075300000E00123184604B07047000008B5044B72
:107540001B689B680021184606F0FEF800BF08BDC6
:107550005C9900201EF0040F1CBFEFF309800AE0C5
:10756000EFF308800549064A884201D8904202D8C4
:107570008D464FF00000034B18470000000001202B
:1075800000E000208D75020000BF00BF10B588B07C
:10759000039001F001FF00BF01F0C0FC0346002B87
:1075A000FAD1039B0693584B9B6A0593069B002BCD
:1075B00035D0564A564BD31ADB081B0443F0010062
:1075C000069B9B691A46534901F046FC4F4A504BB3
:1075D000D31ADB081B0443F00100069B1968069BC5
:1075E0005C68069B9B68069AD268019200932346CA
:1075F0000A46494901F06BFC444A454BD31ADB0863
:107600001B0443F00100069B1A69069B5969069BFF
:10761000DB6900930B46414901F043FC0AE03B4A19
:107620003B4BD31ADB081B0443F001033C491846CB
:1076300001F004FC344BDB6A03F00203002B0AD098
:10764000324A334BD31ADB081B0443F0010335499C
:10765000184601F0F3FB0023079320E00122079B6B
:1076600002FA03F31A46059B1340002B14D02E4A4E
:10767000079B52F82330002B0ED0244A244BD31AF8
:10768000DB081B0443F00100274A079B52F8233014
:107690001A46264901F0E0FB079B01330793079B3D
:1076A000192BDBD9059B03F08003002B0CD0174A64
:1076B000174BD31ADB081B0443F00100124B5B6B22
:1076C0001A461B4901F0C8FB059B03F40043002B3D
:1076D0000CD00E4A0E4BD31ADB081B0443F00100FA
:1076E000094B9B6B1A46134901F0B6FB124B1B6802
:1076F00003F00103002B00D000BE0398FEF74CFFFF
:1077000000BF08B010BD00BF00ED00E00859030045
:10771000A0580300EC350300043603003C36030098
:107720006436030098360300A8980020DC36030076
:10773000E836030008370300F0ED00E010B487B02E
:1077400001900091019B009A53E8004F104643E8D6
:10775000000191F0000FF7D1059404900391059B6F
:10776000184607B05DF8044B704710B487B001901D
:107770000091019B009A53E8004F44EA020043E85D
:10778000000191F0000FF6D1059404900391049B41
:10779000184607B05DF8044B704710B487B00190ED
:1077A0000091019B009A53E8004F04EA020043E86D
:1077B000000191F0000FF6D1059404900391059B10
:1077C000184607B05DF8044B704710B487B00190BD
:1077D0000091019B009A53E8004F04EB020043E83C
:1077E000000191F0000FF6D1059404900391049BE1
:1077F000184607B05DF8044B704710B487B001908D
:107800000091019B009A53E8004FA4EB020043E86B
:10781000000191F0000FF6D1059404900391049BB0
:10782000184607B05DF8044B704700B583B001906F
:1078300001210198FFF799FF0346184603B05DF850
:1078400004FB00B583B0019000210198FFF7A5FF6C
:107850000346184603B05DF804FB000000B583B092
:1078600001900B468DF80330019B002B03D1084992
:10787000E82005F0FDF8019BDA689DF803300199D6
:10788000098A01FB03F31344184603B05DF804FBB7
:10789000F83B030000B583B001900091019B002BE1
:1078A00003D10849F52005F0E3F8009B019AD2685E
:1078B0009B1A019A128AB3FBF2F3DBB2184603B0AB
:1078C0005DF804FBF83B030000B585B00190019B17
:1078D000002B01D10E234DE0019B1B68002B03D12F
:1078E0002649FF2005F0C4F8019B5B68002B04D1FA
:1078F00022494FF4807005F0BBF8019B9B68002B78
:1079000004D11E4940F2011005F0B2F8019BDB687A
:10791000002B04D119494FF4817005F0A9F8019B9F
:107920001B8A002B04D1154940F2031005F0A0F882
:10793000019B9B681A46019B5B68D31A8DF80F3038
:10794000019B1B68019A52681A6007E0019B1A6844
:107950001368591C11609DF80F201A709DF80F30A4
:107960005A1E8DF80F20002BF0D1019B1B680022BE
:107970001A710023184605B05DF804FBF83B0300BC
:1079800000B585B00190019B002B04D120494FF434
:10799000927005F06DF80023039300238DF80A30F0
:1079A0000DF10A031846FFF77BFD019B1B681A685F
:1079B000019B5B689A4220D9019B1B681A68013AB7
:1079C0001A601B681B7819460198FFF747FF039060
:1079D000019B9B681A46019B1B681B68D31A8DF894
:1079E0000B30019B1B681B799DF80B209A4204D930
:1079F000019B1B689DF80B201A719DF80A301846F0
:107A0000FFF764FD039B184605B05DF804FB00BF5B
:107A1000F83B030010B584B001900091019B002B4E
:107A200004D1154940F2471005F022F8009B002BC5
:107A300004D111494FF4A47005F01AF8009B039388
:107A400000238DF80B300DF10B031846FFF728FDCE
:107A5000019B1B681C68621C1A6003990198FFF760
:107A600019FF034623709DF80B301846FFF72EFDD3
:107A700000BF04B010BD00BFF83B030082B0034656
:107A80008DF807309DF8073003F01F0206499DF975
:107A900007305B09012000FA02F2203341F823206D
:107AA00000BF02B0704700BF00E100E008B504F07D
:107AB00027FF034683F00103DBB2002B03D1054906
:107AC000792004F0D5FF02F0E7F9034B00229A7009
:107AD00000BF08BD503C030084AA002000B583B05D
:107AE00000230193144B1B78002B02D085230193B4
:107AF0001CE0114B00229A600F4B00225A600E4B83
:107B000000221A610C4B0022DA600C4802F08AF95C
:107B1000019004F0F5FE034683F00103DBB2002B75
:107B200001D002F0A5F9044B01221A70019B1846FE
:107B300003B05DF804FB00BF84AA0020157C02009E
:107B400084B00190019B1B680393039B002B03D01F
:107B5000039B1A68019B1A60039B184604B0704788
:107B600000B583B0164B1B78002B04D115494FF498
:107B7000857004F07DFF124BDB68002B04D11149A6
:107B800040F20B1004F074FF00238DF807300DF164
:107B900007031846FFF784FC094BDB68013B084AE2
:107BA000D360074BDB68002B01D1FFF77FFF9DF807
:107BB00007301846FFF78AFC00BF03B05DF804FBEE
:107BC00084AA0020503C030000B585B003468DF820
:107BD00007309DF80730002B02D10C4B039301E0D6
:107BE0000B4B03930398FFF7ABFF0290029B002B14
:107BF00006D0029B5B689DF8072010469847F1E786
:107C000000BF00BF05B05DF804FB00BF8CAA0020D8
:107C100094AA002000B583B003468DF807309DF884
:107C20000730002B05D10A4B01225A700020FFF7C4
:107C3000CBFF9DF80730012B05D1054B01229A702F
:107C40000120FFF7C1FF00BF03B05DF804FB00BFD8
:107C500084AA002000B583B001900091019B002B05
:107C600005D1054B01225A700020FFF7ADFF00BF80
:107C700003B05DF804FB00BF84AA002000B585B006
:107C8000034600918DF807309DF80730012B08D08E
:107C9000032B25D0002B00D030E00020FFF7EEFEB4
:107CA0002CE000238DF80F300DF10F031846FFF77D
:107CB000F7FB144B1B7883F00103DBB2002B01D0E0
:107CC000FFF70CFF0F4BDB6801330E4AD3600D4BFF
:107CD00001229A709DF80F301846FFF7F7FB0DE070
:107CE000084B1B78002B04D1074940F2452004F0D3
:107CF000BFFE02F0BDF8FFF733FF00BF00BF05B0C5
:107D00005DF804FB84AA0020503C030000B583B05A
:107D10000190019B002B03D10C49312004F0A8FEF7
:107D2000019B9B68002B0CD0019B5B69019A106939
:107D3000019A1168019A92689847019B00229A6003
:107D400000E000BF03B05DF804FB00BFA03C0300EF
:107D50000EB400B584B00190019B002B03D11849EB
:107D6000422004F085FE019B5B69002B03D114497E
:107D7000432004F07DFE019B1B68002B03D11049BA
:107D8000442004F075FE019B5B68002B03D10C4975
:107D9000452004F06DFE059B002B0AD000230393C1
:107DA00006AB039303AB1A460599019800F0B0F9AE
:107DB00000E000BF04B05DF804EB03B0704700BF03
:107DC000A03C030000B583B001900B468DF8033052
:107DD000019B1A68019B9B68581C01998860134499
:107DE0009DF803201A70019B9A68019B5B689A4278
:107DF00002D30198FFF78AFF00BF03B05DF804FBD0
:107E000000B587B00390029101920093002305937F
:107E1000009B03F00103002B24D00BE0029B0133F5
:107E20000293059B013305939DF81330194603987F
:107E3000FFF7C8FF029B1B788DF813309DF81330B5
:107E4000002BEBD106E0019B013B0193202103981D
:107E5000FFF7B8FF019A059B9A422ED9019B002B90
:107E6000F1D12AE0029B002B0BD0029805F0A8FD6F
:107E7000059006E0019B013B019320210398FFF749
:107E8000A1FF019A059B9A420FD9019B002BF1D1CA
:107E90000BE0029B01330293059B013305939DF890
:107EA000133019460398FFF78DFF029B1B788DF85E
:107EB00013309DF81330002BEBD100BF07B05DF8F5
:107EC00004FB000000B589B0039002910192009379
:107ED000029B07930123069307E0079A019BB2FBDD
:107EE000F3F30793069B01330693079A019B9A428B
:107EF000F3D2009A069B9A4201D9009B06930B9BF2
:107F000003F00103002B22D10A9B002B1FD00B9BF7
:107F100003F00203002B06D0009B002B03D130237B
:107F20008DF8173002E020238DF8173008E00A9B07
:107F3000013B0A939DF8173019460398FFF742FF5B
:107F40000A9B002B03D0069A0A9B9A42EFD3012387
:107F50000793009B012B03D9009B013B009309E091
:107F6000029A079BB2FBF3F30493049A019B9A4293
:107F700000D205E0079B019A02FB03F30793E8E7B1
:107F8000029A079BB2FBF3F30493049B079A02FB4C
:107F900003F3029AD31A0293154A049B13441B78E5
:107FA00019460398FFF70EFF079A019BB2FBF3F304
:107FB0000793079B002BE3D10B9B03F00103002BDE
:107FC00011D00A9B002B0ED006E00A9B013B0A93BE
:107FD00020210398FFF7F6FE0A9B002B03D0069A98
:107FE0000A9B9A42F1D300BF09B05DF804FB00BFC1
:107FF000383D030000B589B00590049103920293C7
:10800000049B002BB8BF5B4206930123079307E054
:10801000039B069A92FBF3F30693079B01330793A6
:10802000039B069A9A42F3DA029A079B9A4201D975
:10803000029B07930A9B002B0AD0049B002B04DBB6
:108040000B9B03F00403002B02D00A9B013B0A9315
:108050000B9B03F00203002B02D0029B002B16D0D7
:108060000B9B03F00103002B11D10A9B002B0ED0B8
:1080700006E00A9B013B0A9320210598FFF7A2FE28
:108080000A9B002B03D0079A0A9B9A42F1D3049BC8
:10809000002B07DA049B5B4204932D210598FFF720
:1080A00091FE08E00B9B03F00403002B03D02B216F
:1080B0000598FFF787FE0B9B03F00203002B19D0F6
:1080C0000B9B03F00103002B14D1029B002B11D159
:1080D0000A9B002B0ED006E00A9B013B0A9330213D
:1080E0000598FFF76FFE0A9B002B03D0079A0A9BA7
:1080F0009A42F1D304990B9B01930A9B0093029B34
:10810000039A0598FFF7DEFE00BF09B05DF804FB97
:1081100000B58FB0059004910392059B002B04D10C
:10812000C8494FF4A27004F0A3FC059B5B69002BC7
:1081300004D1C4494FF4A37004F09AFC059B1B685A
:10814000002B04D1BF4940F2471004F091FC059B7D
:108150005B68002B04D1BB494FF4A47004F088FC89
:10816000049B002B00F0ED81049B1B788DF83730C9
:10817000049B013304939DF83730002B00F0D88125
:108180009DF83730252B40F0C78100230A93012347
:108190000C93049B1B788DF837309DF837302D2BCE
:1081A00004D0302B0AD02B2B10D017E00A9B43F0C1
:1081B00001030A93049B0133049312E00A9B43F0EA
:1081C00002030A93049B013304930AE00A9B43F0E1
:1081D00004030A93049B0133049302E000230C93ED
:1081E00000BF0C9B002BD4D1002309939DF837309E
:1081F0002A2B0CD1039B1B68191D039A11601B6865
:10820000099A13440993049B013304931AE0049BD5
:108210001B788DF837309DF837302F2B12D99DF809
:108220003730392B0ED8049B01330493099A134637
:108230009B0013445B001A469DF837301344303BD3
:108240000993D3E700230B93049B1B788DF83730F9
:108250009DF837302E2B1DD1049B01330493049BD2
:108260001B788DF837309DF837302F2B12D99DF8B9
:108270003730392B0ED8049B013304930B9A1346E5
:108280009B0013445B001A469DF837301344303B83
:108290000B93E4E7049B1B788DF837309DF837305B
:1082A0006C2B03D09DF83730682B07D1049B01332A
:1082B0000493049B1B788DF83730EFE79DF8373037
:1082C000253B532B00F2238101A252F823F000BF7B
:1082D000058502000F8502000F8502000F85020050
:1082E0000F8502000F8502000F8502000F85020036
:1082F0000F8502000F8502000F8502000F85020026
:108300000F8502000F8502000F8502000F85020015
:108310000F8502000F8502000F8502000F85020005
:108320000F8502000F8502000F8502000F850200F5
:108330000F8502000F8502000F8502000F850200E5
:108340000F8502000F8502000F8502000F850200D5
:108350000F8502000F8502000F8502000F850200C5
:108360000F8502000F8502000F8502000F850200B5
:108370000F8502000F8502000F8502000F850200A5
:108380000F8502000F8502000F8502000F85020095
:108390000F8502000F8502000F8502009184020004
:1083A0000F8502000F8502000F8502000F85020075
:1083B0000F8502000F8502000F8502000F85020065
:1083C0000F8502000F85020021840200498402000B
:1083D0000F8502000F8502000F8502000F85020045
:1083E000498402000F8502000F8502000F850200FC
:1083F0000F8502000F8502000F850200D184020064
:108400000F8502000F850200B58402000F8502006F
:108410006D8402000F8502000F8502009184020026
:10842000039B1B68191D039A11601B680C930C9B1E
:108430008DF81F309DF81F3019460598FFF7C2FCD4
:1084400066E000BFE83C0300039B1B68191D039A0C
:1084500011601B680C930A9B0193099B00930B9B73
:108460000A220C990598FFF7C5FD51E0039B1B6894
:10847000191D039A11601B680C930C990A9B0193B8
:10848000099B00930B9B0A220598FFF71BFD3FE019
:10849000039B1B68191D039A11601B680C930C99B0
:1084A0000A9B0193099B00930B9B10220598FFF7F1
:1084B00009FD2DE0039B1B68191D039A11601B68C1
:1084C00008930A9B099A08990598FFF799FC1FE001
:1084D000039B1B68191D039A11601B680C933021C4
:1084E0000598FFF76FFC78210598FFF76BFC0C9956
:1084F0000023019308230093082310220598FFF717
:10850000E1FC05E025210598FFF75CFC00E000BFD9
:10851000049B0133049305E09DF837301946059814
:10852000FFF750FC049B1B78002B7FF41DAE00E08E
:1085300000BF059B1B7B002B04D00598FFF7E6FBD3
:1085400000E000BF0FB05DF804FB00BF00B585B0D0
:108550000190019B002B0AD0074B43F001030393CA
:10856000019B9B010293039B0298984700E000BF88
:1085700005B05DF804FB00BF103F030000B583B0F9
:108580000190019B002B0AD04FF47A70FFF7DEFFB9
:10859000019B013B0193019B002BF5D100E000BF43
:1085A00003B05DF804FB08B5FEF7E8F900BF08BDAD
:1085B00000B589B0039002910192019B002B33D04A
:1085C0000023079303230693029A079B1344019AFF
:1085D00019460020FEF75EF90590079A059B1344A3
:1085E0000793019A059BD31A0193059B002B13D186
:1085F0000F4B1B7883F00103DBB2002B13D101205A
:10860000FFF7BCFF069B013B0693069B002B03D1A3
:10861000074B00221A7007E0054B01221A70019BDC
:10862000002BD1D100E000BF00BF09B05DF804FB12
:1086300098AA002000B585B003900291054B0093E5
:108640004023054A0299039800F012F800BF05B0D4
:108650005DF804FBB18502009CAA002082B0019065
:1086600000BF02B0704782B0019000BF02B07047F7
:1086700000B5A1B00590049103920293049801F013
:10868000F0F8039B1593029B169300231793002386
:108690008DF8603000231993229B1A9300231F93B7
:1086A0000FA91F9B0822049801F0B4F908231F9317
:1086B000119B1293BDF84030ADF84C30BDF84230FC
:1086C000ADF84E3000238DF851309DF83C3003F06A
:1086D0000303DBB2012B26D10F9BC3F395231C931D
:1086E0009DF83C30C3F3C203DBB28DF85030BDF8C7
:1086F0003C30C3F38313DBB21B931B9B9A0009A985
:108700001F9B049801F086F91B9B9B001F9A134442
:108710001F9312AA09A915AB009313461B9A1C9824
:1087200000F0E6FE2FE09DF83C3003F00303DBB2DF
:10873000022B28D1BDF83E30C3F389139BB21E93A0
:108740009DF83C30C3F3C203DBB28DF850301E9B62
:10875000082B28BF08231D9307A91F9B1D9A049867
:1087600001F058F91F9A1D9B13441F931E9A1D9BDD
:10877000D31A1E9315AB12AA07A81D9900F05AFF31
:108780001E9B002BE3D1049801F07AF800BF21B0C2
:108790005DF804FB82B00190019BDB6801225A71F5
:1087A00000BF02B07047000000B583B04FF0FF3348
:1087B0000193FFF7F8FE0421084800F0B5FD019091
:1087C000019B002B03DA0649412004F051F90348CC
:1087D000FFF7E0FF00BF03B05DF804FBAC590300F6
:1087E000283F030000B583B001900091019B1B68F6
:1087F0001B6800990198984700BF03B05DF804FB1F
:1088000000B583B00190019B1B685B680198984795
:1088100000BF03B05DF804FB00B583B00190019B7D
:108820001B689B680198984700BF03B05DF804FB84
:1088300082B001900B468DF80330019BDB689DF8F8
:1088400003201A7100BF02B0704782B00190019BF3
:10885000DB681B79184602B0704782B00190019B1B
:10886000DB6801225A7100BF02B0704782B00190EC
:10887000019BDB685B79184602B0704700B585B094
:1088800001900091154BFF229A60144B00221A6050
:10889000124B00225A60114B0022C3F818240F4BD0
:1088A0000022C3F814240D4B012283F820240C4825
:1088B00000F03CFF0390039B002B01D0039B08E0DA
:1088C000084801F0C7F8084A084BD31ADB0802939E
:1088D0000023184605B05DF804FB00BF44AC00203F
:1088E00038590300883F030038590300A05803009B
:1088F000024A034BD31ADB08184670473859030065
:10890000A058030000B587B001900B468DF80330E6
:108910009DF80330002B1FD0FFF7EAFF04900023DF
:10892000059313E0059B9B000E4A13440393039B9E
:108930001B881A46019B1B689A4204D1019B059A29
:108940001A60002309E0059B01330593059A049BF7
:108950009A42E7D3052300E00023184607B05DF8EC
:1089600004FB00BF18A3002000B585B001900B46A2
:108970008DF803309DF8032001AB11461846FFF730
:10898000C1FF0346002B07D1019BDB00054A1344BE
:108990000393039B1B6800E00023184605B05DF8B5
:1089A00004FB00BFA058030084B001900B468DF873
:1089B0000330019BDB00174A134402939DF80330F8
:1089C000013B032B1CD801A252F823F0DD890200E1
:1089D000E5890200ED890200F789020002238DF883
:1089E0000F3011E004238DF80F300DE0029B1B794E
:1089F0008DF80F3008E0029B5B798DF80F3003E0B3
:108A000000238DF80F3000BF9DF80F30184604B0DA
:108A1000704700BFA058030084B00190009100236C
:108A20008DF80F30019B1B7803F00403DBB2002BA1
:108A300024D0019B1B78C3F30103DBB2012B02D0CE
:108A4000022B0CD017E0009B1B68019A1288C2F31E
:108A50008312D2B213449A1C009B1A600BE0009B55
:108A60001B68019A5288C2F3891292B213449A1C6D
:108A7000009B1A6000BF01238DF80F309DF80F3066
:108A8000184604B07047000000B58BB00023ADF865
:108A900026303E48FEF7C9FE3D48FEF7C6FE3D4B78
:108AA0005B6804933B4B9B680693049A069B1340B8
:108AB00002339B00374A13440433089304AB19462E
:108AC0000898FFF7A9FF0346002B09D0049A069BDC
:108AD000134002339B002F4A134404330893EDE7FD
:108AE00000BF0023079311E0049B5A1C0492069ACE
:108AF0001340079A920001A90A44264902339B00B9
:108B00000B445B681360079B01330793079B012BA2
:108B1000EAD99DF80430C3F30103DBB2012B10D076
:108B2000022B1CD1BDF80A30ADF82630BDF8063056
:108B3000C3F389139BB203339A08049B1344049331
:108B400013E0BDF80A30ADF82630BDF80430C3F3A9
:108B50008313DBB21A46049B1344049305E00E49C9
:108B60004FF4BF7003F084FF00BF0948FEF769FEB1
:108B70000590059B002B02D0049B064A5360BDF86C
:108B8000263018460BB05DF804FB00BF5CB0002037
:108B900058B0002044AC0020983F030000B585B0D9
:108BA00000210748FEF7CAFD0390039B0293029B36
:108BB00083F310030193019B184605B05DF804FB95
:108BC00060B0002000B589B003900291019200933B
:108BD000039B1B0C0793FFF7E1FF0690FFF788FE4E
:108BE0000246079B934204D3214940F2A31003F0AD
:108BF0003FFF069B1904009B5A1C0A9B1340079ACF
:108C00000A431C4902339B000B445A60009A0A9B9A
:108C1000134002339B00174A134404330593039B0C
:108C200003F00703D9B2059A137861F3C5031370F3
:108C3000019B03F00F03D9B2059A138861F38913DE
:108C40001380029BC3F31501059A136861F39F23F8
:108C50001360059A1378012161F301031370059ADB
:108C600013786FF38203137000BF09B05DF804FB43
:108C7000983F030044AC002000B58DB003900291F2
:108C800013468DF80730039B02330A9301238DF8B6
:108C9000273000238DF81B300DF11B031846FEF71B
:108CA000FFFB404B1A68029B1A603E4B9A683D4B93
:108CB00059683C4B1B68CB1A134401330B9314E0E7
:108CC00001213948FEF781FDFFF7DEFE0790079985
:108CD0003548FEF77AFD334B9A68324B5968314B71
:108CE0001B68CB1A134401330B930A9A0B9B9A42CD
:108CF000E6D89DF82730002B48D0002305939DF837
:108D00000730002B17D09DF81430012262F30103C5
:108D10008DF814309DF8143043F004038DF81430AE
:108D2000039B03F00F03DAB2BDF8143062F389132A
:108D3000ADF8143016E09DF81430022262F30103FE
:108D40008DF814309DF8143043F004038DF814307E
:108D5000039BC3F309039AB2BDF8163062F38F1375
:108D6000ADF816300F4B1A680E4B9B681340023358
:108D70009B000C4A134404330893059A089B1A601D
:108D8000084B1A680A9B1344064A13609DF81B306F
:108D90001846FEF79BFB9DF8273018460DB05DF88E
:108DA00004FB00BF44AC002060B0002000B58BB0D5
:108DB00005900491039202931F4B9B68079306ABA7
:108DC000012219460298FFF757FF0346002B24D0D3
:108DD000069B023309930023089311E0089B9B0034
:108DE000039A1A44099B591C099107990B40126870
:108DF000114902339B000B445A60089B01330893CE
:108E0000089A029B9A42E9D3069A079B009313465D
:108E1000029A04990598FFF7D5FE074B93F8203482
:108E2000002B05D000BF00F079F80346002BFAD1E3
:108E300000BF0BB05DF804FB44AC002000B583B06C
:108E4000019000910023002200990198FFF7AEFFE6
:108E500000BF03B05DF804FB00B587B0039002913A
:108E60000192019B059305AA012302990398FFF73C
:108E70009DFF00BF07B05DF804FB00B587B003900D
:108E8000029101920093019B0493009B059304AA15
:108E9000022302990398FFF789FF00BF07B05DF82E
:108EA00004FB00B589B00390029101920093019BED
:108EB0000593009B06930A9B079305AA0323029937
:108EC0000398FFF773FF00BF09B05DF804FB00B51E
:108ED00089B00390029101920093019B0493009B3F
:108EE00005930A9B06930B9B079304AA04230299FC
:108EF0000398FFF75BFF00BF09B05DF804FB0000BB
:108F0000054B5A68044B1B689A420CBF012300238F
:108F1000DBB21846704700BF44AC002000B599B0E2
:108F2000FFF7EEFF0346002B01D00023BCE19A4B74
:108F30000022C3F81824BFF34F8F974B5B6804934C
:108F4000954B9B681093049A109B134002339B002F
:108F5000914A13440433119300231793002316936B
:108F600000230F9304AB19461198FFF755FD0346F4
:108F7000002B19D0884BD3F81834002B14D1864B12
:108F80001A68049B9A4205D8834B1B68824A536037
:108F9000002389E1049A109B134002339B007E4A10
:108FA000134404331193DDE70023159311E0049B70
:108FB0005A1C0492109A1340159A920001A90A446F
:108FC000754902339B000B445B681360159B0133AA
:108FD0001593159B012BEAD99DF8043003F0030388
:108FE000DBB2022B40F09C80BDF80630C3F389133E
:108FF0009BB20D93BDF80630C3F389139BB2502B7F
:1090000028BF50239BB20C930C9BC3F309039AB265
:10901000BDF8063062F38F13ADF806300C9B0833B1
:109020000B939DF80430C3F3C203DBB20F930B998B
:109030005A4800F086FB1790179B002B00F0D08059
:10904000179800F00EFC01A9169B0822179800F053
:10905000C3FC169B08331693049BDA43109B134002
:1090600001339B000A930C9A0A9B9A4242D90A9BAD
:10907000002B08D0049A109B134002339B00464AF1
:109080001344043300E0464B08930A9B002B02D0A4
:109090000A9BDBB201E00C9BDBB28DF81F300A9B10
:1090A000002B01D03E4B00E0002306930A9B002BCF
:1090B00006D00C9BDAB20A9BDBB2D31ADBB200E01B
:1090C00000238DF817309DF81F20169B08991798DC
:1090D00000F082FC9DF81F30169A13441693069BED
:1090E000002B16D09DF81720169B0699179800F0B4
:1090F00073FC0EE0049A109B134002339B00264A37
:10910000134404330993169B0C9A0999179800F09D
:1091100063FC0D9B03339A08049B134404935FE0A4
:109120009DF8043003F00303DBB2012B58D1BDF8E6
:109130000430C3F38313DBB2062B28BF0623DAB255
:10914000BDF8043062F38913ADF80430BDF8043083
:10915000C3F38313DBB202330E939DF80430C3F3E1
:10916000C203DBB20F930E9B9B0019460B4800F025
:10917000E8FA1790179B002B32D0179800F071FB7C
:1091800001A9169B0822179800F026FC169B0833AD
:109190001693002315931AE044AC002038590300BD
:1091A00050AC0020049B5A1C0492109A13400233C6
:1091B0009B003F4A1344191D169B0422179800F088
:1091C0000BFC169B04331693159B01331593BDF8C6
:1091D0000430C3F38313DBB21A46159B9342E1D3E9
:1091E000179B002B40D0324BD3F810341493304BE4
:1091F000D3F81834002B1BD0179800F041FB4DE03A
:1092000000238DF84F301498FFF730FB0346002BF6
:1092100002D001238DF84F309DF84F30002B03D042
:1092200017991498FFF7DEFA149BDB681B681493F8
:10923000149B002BE4D1179800F022FB00238DF83B
:1092400003300DF103031846FEF72AF9184BD3F843
:109250001834002B02D1049B154A53609DF803304B
:109260001846FEF733F919E0114BD3F81034129376
:1092700006E01298FFF7D0FA129BDB681B68129386
:10928000129B002BF5D10B4A0B4BD31ADB081B04A6
:1092900043F0020309491846FFF7D0FDFFF730FEFF
:1092A000034683F00103DBB2184619B05DF804FBF6
:1092B00044AC0020F8580300A0580300F03F03001E
:1092C00000B585B00023039323E0164BD3F8103488
:1092D000029301238DF807300FE00298FFF7B5FAEB
:1092E00003461A46039B934203D100238DF80730AF
:1092F00006E0029BDB681B680293029B002BECD10B
:109300009DF80730002B01D0039B07E0039B01333E
:109310000393039B092BD8DD4FF0FF33184605B0AC
:109320005DF804FB44AC002000B585B001900B460D
:109330008DF80330FFF7C4FF0390039BB3F1FF3FA9
:1093400001D1039B22E0039BDBB219460198FFF792
:109350006FFA104BD3F81034002B08D10D4A019B43
:10936000C2F81034019BDB6800221A600DE0094B43
:10937000D3F81034DA68019BDB6812681A60054B79
:10938000D3F81034DB68019A1A60039B184605B0C5
:109390005DF804FB44AC002000B583B00C4BD3F85F
:1093A000103401930A4B012283F8202409E001982C
:1093B000FFF753FA0198FFF723FA019BDB681B685C
:1093C0000193019B002BF2D100BF03B05DF804FBB9
:1093D00044AC002082B00190009100BF02B0704701
:1093E00010B584B003900291039BDB88002B0AD058
:1093F000039BDB881A461F4B009313461E4A1F49E6
:109400000298FEF7A5FC039B1B7A052B2ED0039B2D
:109410005B7A002B12D0039B9B881A46039B1B7A16
:1094200019461046FFF7C0FA03461A46144B53F884
:1094300022301A4613490298FEF78AFC039B1B68E8
:1094400019460298FFF7C6FF039B1B7A1A460E4B7C
:1094500053F82240039B9B8800211846FFF784FAAB
:109460000346224609490298FEF772FC00BF04B089
:1094700010BD00BF24400300344003006C400300D3
:109480002C99002084400300189900208840030094
:1094900000B585B00390029113468DF80730039B09
:1094A0001B7A052B0FD0039B5B7A002B06D00D4B4C
:1094B0001B681A460C490298FEF74AFC0B490298B1
:1094C000FEF746FC07E09DF80730002B03D0074964
:1094D0000298FEF73DFC0298FEF718FC00BF05B0AD
:1094E0005DF804FB2C9900208440030094400300A5
:1094F00030B58BB007900691059204930E9B1B7BB1
:109500008DF827300E9B00221A730E990498FFF7EE
:1095100067FF059B062B7FD801A252F823F000BFFE
:109520003D95020047950200579502006B95020099
:1095300089950200B1950200E195020007990E9805
:10954000FEF706FC69E0069B1B681A4607990E9811
:10955000FEF7FEFB61E0069B1A68069B04331B685E
:1095600007990E98FEF7F4FB57E0069B1A68069BD6
:1095700004331968069B08331B6800930B46079950
:109580000E98FEF7E5FB48E0069B1968069B04333E
:109590001868069B08331B68069A0C321268019201
:1095A000009303460A4607990E98FEF7D1FB34E074
:1095B000069B1868069B04331C68069B08331B68CF
:1095C000069A0C32126806991031096802910192CC
:1095D00000932346024607990E98FEF7B9FB1CE05C
:1095E000069B1C68069B04331D68069B08331B689A
:1095F000069A0C32126806991031096806981430E0
:10960000006803900291019200932B46224607992D
:109610000E98FEF79DFB00E000BF00220E99049813
:10962000FFF736FF0E9B9DF827201A7300BF0BB083
:1096300030BD00BF00B587B0039002910192009346
:10964000029B082B64D8009B1B7B8DF81330009B7A
:1096500000221A7300990198FFF7C2FE00230593B8
:1096600014E0059A029B9A4209D2039A059B13447F
:109670001B781A4628490098FEF76AFB03E0274941
:109680000098FEF765FB059B01330593059B072BAF
:10969000E7D923490098FEF75BFB002305932AE0F6
:1096A000059A029B9A421FD2039A059B13441B788A
:1096B0008DF812309DF812307E2B0ED803F028FF63
:1096C00002469DF81230013313441B7803F09703D0
:1096D000002B02D09DF8123000E02E231A461149CB
:1096E0000098FEF735FB03E00F490098FEF730FBCA
:1096F000059B01330593059B072BD1D901220099C6
:109700000198FFF7C5FE009B9DF813201A7300E037
:1097100000BF07B05DF804FB98400300A0400300C1
:10972000A4400300A8400300AC40030000B583B090
:1097300001900198FEF7C8F80346184603B05DF89B
:1097400004FB00B58BB001900091019B1B8A043B88
:109750000793009A079B1344DA1C079BB2FBF3F3B1
:109760008DF81B300198FEF70BF90590059B002B37
:1097700001D1002338E0059B00221A71059B0122CC
:109780005A71079B9AB2059BDA80059B09939DF855
:109790001B30013B0493099B019A1A600023089334
:1097A0001DE00198FEF7ECF80390039B002B0ED010
:1097B000059B5B790133DAB2059B5A71099B039AC9
:1097C0001A60039B019A1A60039B099304E00598B1
:1097D00000F00EF8002307E0089B01330893089A75
:1097E000049B9A42DDD3059B18460BB05DF804FB41
:1097F00000B58BB00190019B0793079B5B798DF8B7
:109800001B30019B08939DF81B30013B05930023FF
:10981000099305E0089B1B680893099B0133099392
:10982000099A059B9A42F5D3089B1B680493019BF8
:109830000893002309930BE0089B1B680393089986
:109840000498FEF7E7F8039B0893099B01330993FB
:109850009DF81B30099A9A42EED300BF0BB05DF819
:1098600004FB00B585B00190019B0393039B043377
:1098700001211846FDF7A9FF00BF05B05DF804FB04
:1098800000B587B00190019B0593059B043301212E
:109890001846FDF7B2FF0346039303AB0493049B02
:1098A0001B78002B02D10198FFF7A2FF00BF07B081
:1098B0005DF804FB00B591B0039002910192009312
:1098C000039B002B03D14349B62003F0D1F8039B3F
:1098D0000993039B0F93099BDB881A46099B5B79CD
:1098E00003FB02F3043B0893009A089B9A4203D3BC
:1098F0003849C42003F0BCF8099BDB880793009B20
:109900001A1D079BB2FBF3F30E93009B0433079AD7
:10991000B3FBF2F2079901FB02F29B1A0D93019B34
:109920001A68009B1344089A9A4203D2089A009B33
:10993000D31A01E0019B1B680C93019B0C9A1A60DF
:1099400005E00F9B1B680F930E9B013B0E930E9B34
:10995000002BF6D100230B93079A0D9BD31A0A9381
:109960000A9A0C9B934228BF13460A932AE0029A54
:109970000B9B134406930F9A0D9B134404330593DA
:109980009DF84830002B05D00A9A0599069803F0F7
:10999000E3FD04E00A9A0699059803F0DDFD002333
:1099A0000D930F9B1B680F930C9A0A9BD31A0C9371
:1099B0000B9A0A9B13440B93079A0C9B934228BF64
:1099C00013460A930C9B002BD1D100BF11B05DF858
:1099D00004FB00BFB040030000B589B005900491BE
:1099E00003920293039B079307AA00230093029B11
:1099F00004990598FFF75EFF079B039A9A4203D0EC
:109A00000349F62003F034F800BF09B05DF804FB09
:109A1000B040030000B589B0059004910392029311
:109A2000039B079307AA01230093029B04990598BF
:109A3000FFF740FF079B039A9A4204D004494FF472
:109A4000807003F015F800BF09B05DF804FB00BF9B
:109A5000B040030082B00190019B9B6800229A6095
:109A6000019B9B6800221A61019B9B6800225A613E
:109A7000019B9B680022DA60019B9B6800225A6070
:109A8000019B9B6800221A6000BF02B07047000073
:109A900000B583B001900091019B002B03D11049C8
:109AA000502002F0E5FF009B002B03D10C49512010
:109AB00002F0DEFF019B009A1A60019B1B681A6886
:109AC000019B5A60019B5A68019B1B685B689A4224
:109AD00002D1019B00225A6000BF03B05DF804FB75
:109AE0001842030000B583B00190019B002B03D105
:109AF0001449632002F0BCFF019B1B68002B03D1BB
:109B00001049642002F0B4FF019B5B68002B14D065
:109B1000019B5B681A46019B1B689B6813441A46AD
:109B2000019B5A60019B5A68019B1B685B689A42C3
:109B300004D1019B00225A6000E000BF03B05DF831
:109B400004FB00BF1842030000B585B001900198E6
:109B500000F00EF80390039B002B01D0039B00E064
:109B6000024B184605B05DF804FB00BF84420300B9
:109B700086B00190164B0593164B04931FE0049A90
:109B8000059BD31ADB10DA0F13445B10DB00059A38
:109B900013440393039B1B680293029A019B9A420E
:109BA00002D9039B04930AE0029A019B9A4203D2D2
:109BB000039B0833059302E0039B5B6804E0059A6E
:109BC000049B9A42DBD30023184606B0704700BFBF
:109BD00084460300AC47030082B003468DF807308B
:109BE0009DF8073003F01F0205499DF907305B0916
:109BF000012000FA02F241F8232000BF02B07047B2
:109C000000E100E082B0034600918DF807309DF935
:109C10000730002B0CDA009BDAB20C499DF80730B4
:109C200003F00F03043B5201D2B20B441A7609E051
:109C3000009BDAB206499DF907305201D2B20B44BB
:109C400083F8002300BF02B0704700BF00ED00E0C2
:109C500000E100E082B00190019B1B0B5BB2184653
:109C600002B0704700B583B003460A468DF807304E
:109C700013468DF806309DF80630012B03D99DF868
:109C80000630032B0BD99DF80630042B03D99DF821
:109C90000630072B03D908496B2002F0E9FE9DF836
:109CA00006209DF9073011461846FFF7ABFF00BFAD
:109CB00003B05DF804FB00BFAC47030000B583B000
:109CC00003468DF807309DF907301846FFF784FFEB
:109CD00000BF03B05DF804FB82B003468DF8073087
:109CE0000F4A9DF90730002B00DA1F335B115BB27E
:109CF00052F823209DF90730594203F01F0301F069
:109D00001F0158BF4B425BB222FA03F303F0010379
:109D1000002B14BF01230023DBB2184602B07047AA
:109D200000E100E082B001904FF08042019BC2F858
:109D3000083300BF02B0704782B003468DF8073089
:109D40009DF8073003F1804301221A6000BF02B082
:109D5000704784B00346ADF80630BDF8063003F115
:109D6000804300221A60BDF8063003F180431B686F
:109D70000393039B00BF04B0704782B00346ADF865
:109D80000630BDF8063003F180431B68002B14BF7A
:109D900001230023DBB2184602B0704782B0019065
:109DA0004FF08042019BC2F8183500BF02B07047E7
:109DB0004FF08043D3F818341B0C03F00103002B41
:109DC00014BF01230023DBB21846704700B583B0EF
:109DD00007238DF807304FF08040FFF73BFF034625
:109DE0001846FFF779FF034683F00103DBB2002B2F
:109DF00013D04FF08040FFF72DFF03461A469DF821
:109E0000073019461046FFF72DFF4FF08040FFF74F
:109E100021FF03461846FFF751FF00BF03B05DF86E
:109E200004FB000000B585B00190019B002B03D11D
:109E30000D49A02002F01CFE002303930B4B1B795D
:109E4000002B02D08523039308E0084A019B13608E
:109E5000064B01221A71054B00225A71039B1846CA
:109E600005B05DF804FB00BFF847030068B00020B0
:109E700008B5074B1B79002B03D10649B92002F026
:109E8000F7FDFFF7A3FF0120FFF788FF00BF08BD24
:109E900068B00020F847030008B5094B1B79002B78
:109EA00003D10849F32002F0E3FD0C20FFF744FF43
:109EB00000BFFFF77DFF0346002BFAD100BF08BDAE
:109EC00068B00020F847030008B54FF48070FFF732
:109ED00054FF0346002B14D04FF48070FFF739FF76
:109EE0000120FFF71FFF114B5B7983F00103DBB209
:109EF000002B06D00D4B01225A710C4B1B68002021
:109F000098474FF48270FFF738FF0346002B0AD0C2
:109F10004FF48270FFF71DFF0220FFF703FF034B92
:109F20001B680120984700BF08BD00BF68B0002033
:109F300082B003468DF807309DF8073003F01F020A
:109F400005499DF907305B09012000FA02F241F84A
:109F5000232000BF02B0704700E100E082B003465A
:109F600000918DF807309DF90730002B0CDA009B2B
:109F7000DAB20C499DF8073003F00F03043B52019D
:109F8000D2B20B441A7609E0009BDAB206499DF979
:109F900007305201D2B20B4483F8002300BF02B055
:109FA000704700BF00ED00E000E100E000B583B0C5
:109FB00003460A468DF8073013468DF806309DF8A3
:109FC0000630012B03D99DF80630032B0BD99DF8E1
:109FD0000630042B03D99DF80630072B03D9084916
:109FE0006B2002F045FD9DF806209DF907301146D3
:109FF0001846FFF7B3FF00BF03B05DF804FB00BFD6
:10A000004848030000B583B003468DF807309DF93A
:10A0100007301846FFF78CFF00BF03B05DF804FB64
:10A0200000B583B00346ADF80630BDF806301846DB
:10A0300000F026F803461B68012B0CBF0123002308
:10A04000DBB2184603B05DF804FB00B585B00346EB
:10A05000ADF80630BDF80630184600F011F803469A
:10A060001A4600231360BDF80630184600F008F8C1
:10A0700003461B680393039B00BF05B05DF804FB18
:10A0800082B00346ADF80630BDF8063003F18043D8
:10A0900003F5C043184602B07047000082B001903B
:10A0A000034A019BC2F8043300BF02B0704700BFEF
:10A0B0000060004082B00190034BD3F80423019B61
:10A0C0001340184602B070470060004082B0019013
:10A0D000054A019B03F5A27352F823301B0A03F0D3
:10A0E0001F03184602B070470060004082B0019024
:10A0F000064A019B03F5A27352F823301B0C03F0B0
:10A100000303DBB2184602B0704700BF0060004096
:10A1100084B00390029111461A460B468DF8073021
:10A1200013468DF80630184A039B03F5A27352F8C4
:10A130002330154923F4981323F4F853039A02F5B6
:10A14000A27241F82230104A039B03F5A27352F821
:10A150002320029B1B0203F4F8519DF807301B04D7
:10A1600003F4403319439DF806301B0503F48013B4
:10A170000B4305491A43039B03F5A27341F82320BF
:10A1800000BF04B0704700BF0060004000B583B05E
:10A190000190019B1B681F2B04D905494FF4F370F4
:10A1A00002F066FC4FF0A043184603B05DF804FBD4
:10A1B0008C48030000B585B00190084611461A4648
:10A1C00003468DF803300B468DF8023013468DF8A8
:10A1D000013001AB1846FFF7D9FF03909DF803202B
:10A1E0009DF802305B001A439DF801309B001A4332
:10A1F0009DF818301B0242EA03019DF81C301B0435
:10A20000019A1943039B02F5E07243F8221000BF44
:10A2100005B05DF804FB00B585B003900023019301
:10A22000002300930023012201210398FFF7C2FFBE
:10A2300000BF05B05DF804FB00B585B001900B468A
:10A240008DF8033001AB1846FFF7A0FF0390019A89
:10A25000039B02F5E07253F82230019A23F4403157
:10A26000039B02F5E07243F82210019A039B02F56A
:10A27000E07253F822309DF8032012041146019A2F
:10A280001943039B02F5E07243F8221000BF05B0AA
:10A290005DF804FB00B585B0019001AB1846FFF7EF
:10A2A00075FF0390019B012202FA03F319460398FC
:10A2B00000F036F800BF05B05DF804FB00B585B0CE
:10A2C000019001AB1846FFF761FF0390019B01224B
:10A2D00002FA03F31946039800F02CF800BF05B00A
:10A2E0005DF804FB00B585B0019001AB1846FFF79F
:10A2F0004DFF0390019A039B02F5E07253F8223060
:10A300001B0C03F00303DBB2184605B05DF804FB39
:10A3100082B00190019BD3F81035184602B0704707
:10A3200082B001900091019B009AC3F8082500BFFC
:10A3300002B0704782B001900091019B009AC3F86F
:10A340000C2500BF02B0704700B587B003900291A2
:10A3500001924FF0A0430493039A029B1344012BF4
:10A3600004D9124940F2163002F082FB039B059398
:10A3700011E0059B9B0006AA134453F8083C1846BD
:10A38000FFF7C6FF0246019B1A60019B043301934D
:10A39000059B01330593039A029B1344059A9A4245
:10A3A000E7D300BF07B05DF804FB00BF8C48030093
:10A3B00084B001900091009B0393019BDB08029302
:10A3C000019B03F0070301930122019B02FA03F3AF
:10A3D0000399029A0A4412781340184604B0704751
:10A3E00084B001900091009B0393019BDB080293D2
:10A3F000019B03F007030193039A029B13441B780C
:10A400005AB20121019B01FA03F35BB2134359B223
:10A41000039A029B1344CAB21A7000BF04B070477B
:10A4200082B00190074A019B1344303393F9003006
:10A43000B3F1FF3F14BF01230023DBB2184602B083
:10A44000704700BF70B0002082B001900C4A019BA1
:10A450001344303393F90030002B09DB084A019B89
:10A460001344303393F90030072B01DC012300E063
:10A47000002303F00103DBB2184602B0704700BFAF
:10A4800070B0002084B00390029101928DF80330E7
:10A49000029B59B20E4A039B134430330A461A708A
:10A4A0000B49029B019A41F823209DF8033083F069
:10A4B0000103DBB2002B08D0029B083B039A51B288
:10A4C000034A13440A4683F8502000BF04B0704783
:10A4D00070B0002082B00190044A019B13443033D5
:10A4E000FE221A7000BF02B0704700BF70B000209B
:10A4F00082B00190044A019B13443033FF221A704A
:10A5000000BF02B0704700BF70B0002000B583B03C
:10A51000019004490198FFF763FF00BF03B05DF8A5
:10A5200004FB00BFC4B0002082B00190044A019B2C
:10A530001344303393F90030184602B0704700BF1F
:10A5400070B0002082B00190034A019B52F8233082
:10A55000184602B0704700BF70B0002000B589B047
:10A560000390029113468DF80730FF238DF81F30BA
:10A570009DF80730002B01D0002300E0082305934D
:10A580009DF80730002B01D0082300E00C23049332
:10A59000059B069314E00F4A069B52F82330B3F153
:10A5A000FF3F0AD19DF80730029A06990398FFF7FA
:10A5B00069FF069B8DF81F3006E0069B013306936A
:10A5C000069A049B9A42E6D39DF91F30184609B0BB
:10A5D0005DF804FB70B0002082B003468DF80730B0
:10A5E0009DF80730094A4FF0FF3142F823109DF8DB
:10A5F0000730072B07D99DF80730083B034A13445F
:10A60000FF2283F8502000BF02B0704770B00020D6
:10A6100000B583B0254B93F85830002B03D00823A6
:10A620000193019B3EE000238DF8033009E09DF883
:10A6300003301846FFF75CFF9DF8033001338DF8B7
:10A6400003309DF803301F2BF1D900238DF8033020
:10A6500009E09DF803301846FFF7BEFF9DF8033070
:10A6600001338DF803309DF803300B2BF1D9042210
:10A6700000210F4803F00AF807210620FFF796FC97
:10A680000620FFF7BFFC4FF4BE70FFF7DEFC4FF073
:10A690000040FFF703FD054B012283F858200023FB
:10A6A0000193019B184603B05DF804FB70B00020D5
:10A6B000C4B00020044B93F85830002B14BF012382
:10A6C0000023DBB21846704770B0002000B585B09B
:10A6D00001900091019B1F2B04D92E494FF49870D3
:10A6E00002F0C6F92C4B93F85830012B04D02949BD
:10A6F00040F2311002F0BCF9009B002B04D1254937
:10A700004FF4997002F0B4F9002303930198FFF716
:10A7100087FE0346002B02D00823039334E0009BFE
:10A720009B78002B19D0012200210198FFF716FF1A
:10A7300003468DF80B309DF90B30B3F1FF3F09D084
:10A740009DF90B00009B1A78009B5B780199FFF73D
:10A75000DFFC05E00423039302E00198FFF7BAFE53
:10A76000039B002B10D1009B5B78012B03D1019838
:10A77000FFF790FD02E00198FFF7A0FD0198FFF7B9
:10A780004AFD0198FFF7C2FE039B184605B05DF82D
:10A7900004FB00BFD848030070B0002000B583B0B0
:10A7A0000190019B1F2B04D912494FF4BE7002F097
:10A7B0005FF90198FFF734FE0346002B04D10D49E1
:10A7C00040F27D1002F054F90198FFF73DFE034678
:10A7D00083F00103DBB2002B04D106494FF4BF70B4
:10A7E00002F046F90198FFF755FD00BF03B05DF890
:10A7F00004FB00BFD848030000B583B00190019B63
:10A800001F2B04D912494FF4C37002F031F901989B
:10A81000FFF706FE0346002B04D10D4940F28710D6
:10A8200002F026F90198FFF70FFE034683F00103BB
:10A83000DBB2002B04D106494FF4C47002F018F9C2
:10A840000198FFF73BFD00BF03B05DF804FB00BFBC
:10A85000D848030000B595B000231093002303935C
:10A860004FF48073ADF83A300123129300230F9315
:10A8700021E0BDF83A301846FFF7D2FB0346002B23
:10A880000ED01298FFF716FC0346002B08D0BDF837
:10A890003A301846FFF7D9FB109A129B13431093D6
:10A8A000129B5B001293BDF83A300433ADF83A3096
:10A8B0000F9B01330F930F9B072BDAD94FF4BE7018
:10A8C000FFF7AEFB0346002B0DD04FF4BE70FFF731
:10A8D000BCFB109B43F00043109303AB1A460121CD
:10A8E0000020FFF731FD109BDBB2002B29D00123A4
:10A8F000129300230F9321E0129A109B1340002B18
:10A9000016D00F98FFF7E2FB0D900F98FFF7EEFBC4
:10A9100003468DF833300F98FFF714FE0B900B9B16
:10A92000002B05D09DF833200B9B11460D989847BE
:10A93000129B5B0012930F9B01330F930F9B072B0E
:10A94000DAD9109B002B80F2EE8000238DF84F3077
:10A9500000230293002311930AE0119B9B0014AA89
:10A9600013444FF0FF3243F84C2C119B01331193E9
:10A97000119B002BF1D000238DF84F3000230F9353
:10A9800078E06B4A0F9B1344503393F900308DF8F5
:10A990002B309DF82B3023F0C0030993644A0F9BA2
:10A9A0001344503393F90030B3F1FF3F5FD001AB54
:10A9B00019460998FFF7FCFC0346002B57D09DF879
:10A9C0002B309B098DF823300998FFF7ADFD034626
:10A9D0001846FFF7B7FD0790079B002B03D19DF8A2
:10A9E0002330032B43D19DF82330032B04D102AB3A
:10A9F00019460998FFF7F4FC0998FFF773FC034622
:10AA00008DF81B3003AB19460998FFF7D1FC059070
:10AA1000059B002B03D09DF81B30022B06D0059B15
:10AA2000002B24D19DF81B30032B20D19DF823301F
:10AA3000032B13D19DF81B30022B01D1032300E01F
:10AA400002238DF813309DF8133019460998FFF74B
:10AA5000F3FB9DF84F3001338DF84F30079B002BEF
:10AA600005D09DF82320079B1146099898470F9B16
:10AA700001330F930F9B032B83D99DF84F30002B8D
:10AA80004CD001238DF84E306B461A460121002030
:10AA9000FFF75AFC0023119314E0119B9B0014AAAA
:10AAA000134453F8502C119B9B0014A90B4453F8EA
:10AAB000443C9A4203D000238DF84E3005E0119BB0
:10AAC00001331193119B002BE7D09DF84E30002BE2
:10AAD00003D000238DF84F3020E0002311931AE0BB
:10AAE000119B9B0014AA134453F8502C119B9B00FC
:10AAF00014A90B4443F8442C119B9B0014AA134443
:10AB000053F8482C119B9B0014A90B4443F84C2C80
:10AB1000119B01331193119B002BE1D09DF84F3015
:10AB2000002B7FF428AF00BF15B05DF804FB00BF19
:10AB300070B0002008B5064B1B68002B03D10549F7
:10AB4000512001F095FF024B1B68984700BF08BDDC
:10AB5000CCB000203049030084B001900B46ADF822
:10AB60000230BDF80230019A134400221A60BDF889
:10AB70000230019A13441B680393039B00BF04B087
:10AB8000704782B001900B46ADF80230BDF802303C
:10AB9000019A13441B68002B14BF01230023DBB26E
:10ABA000184602B0704700B583B0019000914FF491
:10ABB00088710198FFF7E5FF0346002B12D04FF490
:10ABC00088710198FFF7C8FF009B5B7903F00403CD
:10ABD000002B07D0009B1B68002B03D0009B1B6839
:10ABE000012098474FF48A710198FFF7CAFF034686
:10ABF000002B12D04FF48A710198FFF7ADFF009B34
:10AC00005B7903F00803002B07D0009B1B68002B27
:10AC100003D0009B1B68022098474FF48E71019867
:10AC2000FFF7AFFF0346002B12D04FF48E7101984F
:10AC3000FFF792FF009B5B7903F01003002B07D115
:10AC4000009B1B68002B03D0009B1B6800209847CB
:10AC50004FF482710198FFF794FF0346002B0FD049
:10AC60004FF482710198FFF777FF009B01221A7160
:10AC7000009B1B68002B03D0009B1B680320984798
:10AC800000BF03B05DF804FB08B503490348FFF7B4
:10AC90008AFF00BF08BD00BFD4B0002000C0014043
:10ACA00008B503490348FFF77EFF00BF08BD00BF9A
:10ACB000DCB000200010024008B503490348FFF74C
:10ACC00072FF00BF08BD00BFE4B0002000200240BA
:10ACD00082B003468DF807309DF8073003F18043BA
:10ACE00003F5E04301221A6000BF02B0704782B052
:10ACF0000346ADF80630BDF8063003F1804303F596
:10AD0000E0431B68002B14BF01230023DBB218466D
:10AD100002B0704784B00346ADF80630BDF8063087
:10AD200003F1804303F5E04300221A60BDF80630CA
:10AD300003F1804303F5E0431B680393039B00BFCB
:10AD400004B0704782B001900091054A019BC2F89F
:10AD50002C36034A009BC2F8303600BF02B0704761
:10AD60000070004000B58DB04FF48270FFF7BFFF58
:10AD70000346002B46D04FF48270FFF7CBFF8C4B7D
:10AD800093F82E3083F00103DBB2002B04D1884B03
:10AD900093F82F30002B35D000238DF81830844BDA
:10ADA0005B680793824B1B899BB2ADF82030804BC8
:10ADB000DB68002B03D17E4B00221A7419E07C4B18
:10ADC0001A8B7B4B5A837A4BDB68794A5360784BFA
:10ADD0001A8B774B1A81764B0022DA60744B93F80A
:10ADE0002E3083F00103DBB2002B02D00020FFF7EE
:10ADF0006FFF6F4B1B6806AA104698476C4B0022EA
:10AE000083F82F206A4B93F82E30002B62D04FF43A
:10AE10008070FFF76CFF0346002B5BD04FF480700F
:10AE2000FFF778FF624B5A8B614B93F82D309BB242
:10AE30009A421CD95E4B5A8B5D4B93F82D309BB2D6
:10AE4000D31A9AB25A4B5A83594B5A68584B1B899A
:10AE50009BB21946564B5B8BCB1A5B001A44544B82
:10AE600093F82D3019461046FFF76CFF2BE0504B3E
:10AE70005A8B4F4B93F82D309BB29A4214D14C4BC6
:10AE8000DB68002B10D04A4B012283F82F20484B5F
:10AE900000225A83464BDA68454B93F82D30194609
:10AEA0001046FFF74FFF0EE0414B5A8B404B93F893
:10AEB0002D309BB29A4206D13D4B012283F82F20C0
:10AEC0003B4B00225A834FF48270FFF723FF04208C
:10AED000FFF7FEFE4FF48870FFF709FF0346002BD3
:10AEE0000ED04FF48870FFF715FF314B00221A7413
:10AEF00002238DF80C302E4B1B6803AA104698478E
:10AF00004FF48A70FFF7F3FE0346002B07D04FF48F
:10AF10008A70FFF7FFFE264B00221A7444E0244B90
:10AF20005B690B933DE00B9BB3FA83F30A934FF0FD
:10AF300000420A9B22FA03F3DB430B9A13400B9364
:10AF40000A9B9BB246339BB29B00ADF82630BDF8FE
:10AF500026301846FFF7CBFE0346002B21D0BDF864
:10AF600026301846FFF7D6FE01238DF80030BDF8D5
:10AF70002630A3F58C73DB08DBB28DF80430BDF806
:10AF80002630A3F58C7303F00403002B0CBF0123C0
:10AF90000023DBB28DF80530054B1B686A4610466E
:10AFA00098470B9B002BBED100BF0DB05DF804FB92
:10AFB000ECB0002084B001900B46ADF80230BDF833
:10AFC0000230019A134400221A60BDF80230019A3F
:10AFD00013441B680393039B00BF04B0704782B007
:10AFE00001900B46ADF80230BDF80230019A1344CF
:10AFF0001B68002B14BF01230023DBB2184602B0EC
:10B000007047000000B583B00190019B1B681F2BA7
:10B0100004D905494FF4F37001F02AFD4FF0A04325
:10B02000184603B05DF804FBC04B030000B585B0C3
:10B03000019001AB1846FFF7E5FF0390019B012249
:10B0400002FA03F31946039800F018F800BF05B0A0
:10B050005DF804FB00B585B0019001AB1846FFF721
:10B06000D1FF0390019B012202FA03F319460398D2
:10B0700000F00EF800BF05B05DF804FB82B001904F
:10B080000091019B009AC3F8082500BF02B07047E9
:10B0900082B001900091019B009AC3F80C2500BF7B
:10B0A00002B0704700B583B00190019BDB7FFF2B9E
:10B0B0000ED0019B9B7F002B05D0019BDB7F1846A8
:10B0C000FFF7C8FF04E0019BDB7F1846FFF7AEFFE8
:10B0D000019B00225A77019B00221A72019B1B6878
:10B0E000019A02F10800019A52681146984700BF80
:10B0F00003B05DF804FB000000B583B0019000913F
:10B100004FF48C710198FFF76AFF0346002B10D0B3
:10B110004FF48C710198FFF74DFF009B1B68002BCB
:10B1200004D106494FF4277001F0A2FC0098FFF704
:10B13000B9FF00BF03B05DF804FB00BF0C4C030077
:10B1400008B503494FF04020FFF7D6FF00BF08BD08
:10B150001CB1002084B001900B46ADF80230BDF860
:10B160000230019A134400221A60BDF80230019A9D
:10B1700013441B680393039B00BF04B0704782B065
:10B1800001900B46ADF80230BDF80230019A13442D
:10B190001B68002B14BF01230023DBB2184602B04A
:10B1A000704782B001900091019BD3F80423009B6B
:10B1B0001340002B14BF01230023DBB2184602B05A
:10B1C000704782B00190019B9BB250339BB29B00B1
:10B1D0009BB2184602B0704782B001904FF48032A3
:10B1E000019B02FA03F3184602B0704700B587B01E
:10B1F0000390029113468DF8073000238DF8173025
:10B2000030E09DF817301846FFF7DBFF0346ADF836
:10B2100014309DF817301846FFF7DEFF0490BDF894
:10B22000143019460398FFF7AAFF0346002B14D0E9
:10B2300004990398FFF7B5FF0346002B0DD0BDF826
:10B24000143019460398FFF785FF029B1B68029A8A
:10B250005168BDF81420104698479DF81730013307
:10B260008DF817309DF817209DF807309A42C8D303
:10B2700000BF07B05DF804FB08B50422024903488B
:10B28000FFF7B4FF00BF08BD40B1002000800040C0
:10B2900008B5042202490348FFF7A8FF00BF08BD14
:10B2A0004CB100200090004082B001900B468DF818
:10B2B00003309DF80330019A134401221A6000BF45
:10B2C00002B0704784B001900B46ADF80230BDF873
:10B2D0000230019A134400221A60BDF80230019A2C
:10B2E00013441B680393039B00BF04B0704782B0F4
:10B2F00001900B46ADF80230BDF80230019A1344BC
:10B300001B68002B14BF01230023DBB2184602B0D8
:10B31000704782B001900091019B009AC3F804230A
:10B3200000BF02B0704782B001900091019B009A6B
:10B33000C3F8082300BF02B0704784B00190019B9E
:10B34000D3F8C4340393019B039AC3F8C424039B2A
:10B35000184604B0704782B001900091019B009A9A
:10B36000C3F8002200BF02B0704782B00190019B79
:10B37000D3F84C35184602B0704782B00190019B5B
:10B38000D3F83C35184602B07047000030B58BB09A
:10B3900001900091009B1B68002B04D17E4940F274
:10B3A000452001F065FB4FF492710198FFF79FFF74
:10B3B0000346002B27D04FF492710198FFF782FFCC
:10B3C0004FF482710198FFF792FF034683F0010367
:10B3D000DBB2002B17D0009B9B6819460198FFF742
:10B3E000A2FF009B02229A60009B9B68194601986D
:10B3F000FFF78FFF20210198FFF756FF14210198D6
:10B40000FFF752FFC5E04FF482710198FFF76FFF1D
:10B410000346002B50D04FF482710198FFF752FF82
:10B42000009B04AC03F10C050FCD0FC42B68236007
:10B43000009B93F82E30002B1BD0009B1B7B012B15
:10B4400004D10198FFF799FF034603E00198FFF745
:10B450008CFF03460593009B1B7B022B04D10198B4
:10B46000FFF78BFF034603E00198FFF77EFF0346DB
:10B4700006934FF4B0710198FFF724FF4FF4AE71BB
:10B480000198FFF71FFF009B93F8303083F0010312
:10B49000DBB2002B04D1009B93F82E30002B4CD054
:10B4A00000210198FFF757FF009B00229A603B495B
:10B4B0000198FFF738FF40E04FF4A4710198FFF7BF
:10B4C00001FF009B1B7B002B1BD1009B04AC03F1F5
:10B4D0000C050FCD0FC42B682360009B93F8303010
:10B4E00083F00103DBB2002B27D000210198FFF786
:10B4F00032FF009B00229A6028490198FFF713FF52
:10B500001BE04FF400710198FFF725FF009B40F20C
:10B5100002229A6021490198FFF705FF009B9B6872
:10B5200019460198FFF7F5FE08210198FFF7BCFEC8
:10B5300020210198FFF7B8FE2BE00198FFF7FDFEF0
:10B540000990099B03F00203002B03D001238DF81F
:10B550000C300BE0099B03F00403002B03D0022303
:10B560008DF80C3002E000238DF80C30009B93F82E
:10B57000303083F00103DBB2002B03D0009B0022AC
:10B5800083F82F20009B1B68009A516803AA10467D
:10B5900098470BB030BD00BF844D030002029C01F0
:10B5A00008B503490348FFF7F1FE00BF08BD00BF1F
:10B5B00058B100200030004086B0039001921A4636
:10B5C0000B46ADF80A3013468DF80930039B002B6B
:10B5D00002D0019B002B01D100233CE00023ADF8F9
:10B5E00016300CE0BDF81630039A13441B789AB25B
:10B5F000BDF8163013449BB20133ADF81630019BF1
:10B600001B88BDF816209A4209D3BDF816300133C5
:10B61000039A13441B789DF809209A4205D0BDF87F
:10B620001620BDF80A309A42DCD3BDF81620BDF8CA
:10B630000A309A4201D300230DE0BDF816300233E0
:10B640009AB2019B1A80BDF81630039A13441B78F6
:10B650009BB2013B9BB2184606B0704700B585B05F
:10B6600001900B46ADF8023013468DF801300023EF
:10B67000ADF80C309DF8013003AABDF80210019816
:10B68000FFF79AFF0346ADF80E30BDF80E30002BE1
:10B6900001D1002304E0BDF80C301A46019B13448D
:10B6A000184605B05DF804FB72DF704700BF18460E
:10B6B00073DF704700BF184682B00190019B93F87A
:10B6C0005432184602B0704784B0019000230393AF
:10B6D0000AE0019A039B13441B78002B01D001233D
:10B6E00006E0039B01330393039B052BF1D9002351
:10B6F000184604B07047000082B003468DF807304A
:10B700009DF807305A1C074B83FB02135910D317BF
:10B71000C91A0B469B000B44D11ACBB2184602B093
:10B72000704700BF6766666682B001900091009B1B
:10B73000DB7B012B04D1009B9A88019BA3F8482254
:10B7400000BF02B0704700B585B001900091019B29
:10B75000002283F85222009B9A88019BB3F848325A
:10B760009A4216D1019B1B7983F00103DBB2002BB7
:10B770000FD00121019800F0AFF90390039B002B3B
:10B7800007D0019B9B6B002B03D0019B9B6B039805
:10B79000984700BF05B05DF804FB00B585B0019087
:10B7A0000091009B1B88262B1ED1009B1B7A012B2E
:10B7B00003D0009B1B7A022B17D1019B9B78184664
:10B7C000FFF79AFF03461946019800F085F90390A8
:10B7D000039B002B09D0019B9B6B002B05D0019B89
:10B7E0009B6B0398984700E000BF05B05DF804FB31
:10B7F00000B585B001900B468DF80330019B03F234
:10B800004B231846FFF760FF03468DF80F309DF875
:10B810000330013B032B33D801A252F823F000BFC1
:10B8200031B8020055B8020069B8020075B80200CC
:10B83000019B9B79002B0DD0019B93F8243083F062
:10B840000103DBB2002B05D09DF80F30002B01D097
:10B85000012316E0019BDB79002B05D09DF80F300A
:10B86000002B01D002230CE0019B1B7A002B01D09E
:10B87000032306E0019B5B7A002B01D0042300E048
:10B880000023184605B05DF804FB00BF82B00190AC
:10B890000091019B012283F83120019B0022C3F813
:10B8A0004422019B03F24A22009B5A60009B002223
:10B8B0009A60009B02221A70009B80229A810023CA
:10B8C000184602B0704782B001900091019B02229D
:10B8D00083F83120019B93F82430002B03D0009B88
:10B8E00007221A7002E0009B03221A70019B1B6959
:10B8F0009AB2009B9A81019B0022C3F84422019BCB
:10B9000003F24A22009B5A60019BDA68009B9A600E
:10B910000023184602B0704700B583B00190019B28
:10B920005B79002B0FD0019B93F8523283F0010317
:10B93000DBB2002B07D00198FFF7BEFE0346002BB9
:10B9400001D0012300E0002303F00103DBB218461D
:10B9500003B05DF804FB00B585B001900B468DF88F
:10B960000330019BD3F83402019BB3F83832012233
:10B970001946FFF773FE0390039B002B03D0039B34
:10B980009DF803201A70019B03F15400019B03F5FD
:10B990000D71019B3C331A46FFF786FE034618469D
:10B9A00005B05DF804FB00B585B001900091019BE6
:10B9B0005A69009B9A60019B9B699AB2009B9A818D
:10B9C000019B93F82430002B04D0019B062283F8BE
:10B9D0003C2003E0019B012283F83C200198FFF703
:10B9E0009BFF0346002B13D0009B02221A750421F3
:10B9F0000198FFF7B0FF0390039B0293029B002B7B
:10BA000001D0029B0FE0019B052283F8312003E067
:10BA1000019B032283F83120019B03F50D72019BEA
:10BA2000C3F844220023184605B05DF804FB00B5B6
:10BA300085B001900091019BDA69009B9A60019B9F
:10BA40001B6A9AB2009B9A81019B93F82430002BC9
:10BA500004D0019B062283F83C2003E0019B0122D5
:10BA600083F83C200198FFF757FF0346002B13D0C3
:10BA7000009B02221A7504210198FFF76CFF0390C6
:10BA8000039B0293029B002B01D0029B0FE0019BC2
:10BA9000062283F8312003E0019B042283F8312041
:10BAA000019B03F50D72019BC3F844220023184645
:10BAB00005B05DF804FB82B00190019B1B68012B6F
:10BAC00003D0019B1B68022B01D1012300E000235E
:10BAD000184602B07047000000B585B001900B46D3
