:020000022000DC
:1060000000000120CD9E0200F59E02004D6E0200B0
:10601000F99E0200FB9E0200FD9E020000000000AF
:10602000000000000000000000000000FF9E0200D1
:10603000019F020000000000039F0200059F020074
:106040001D840200079F0200D588020035900200DF
:10605000C98B0200079F0200498702001D8A0200C7
:106060000590020015900200079F0200079F0200A2
:10607000079F0200079F0200079F0200079F020080
:10608000079F020099690200079F0200079F020014
:10609000356A0200079F020081990200079F0200F3
:1060A000079F0200079F0200079F0200079F020050
:1060B000D5890200079F02000000000000000000D8
:1060C000079F0200E5890200F5890200079F020090
:1060D000079F0200079F0200079F020000000000C8
:1060E00000000000000000000000000000000000B0
:1060F00000000000000000000000000000000000A0
:10610000000000000000000000000000000000008F
:10611000000000000000000000000000000000007F
:10612000000000000000000000000000000000006F
:10613000000000000000000000000000000000005F
:10614000000000000000000000000000000000004F
:10615000000000000000000000000000000000003F
:10616000000000000000000000000000000000002F
:10617000000000000000000000000000000000001F
:10618000000000000000000000000000000000000F
:1061900000000000000000000000000000000000FF
:1061A00000000000000000000000000000000000EF
:1061B00000000000000000000000000000000000DF
:1061C00000000000000000000000000000000000CF
:1061D00000000000000000000000000000000000BF
:1061E00000000000000000000000000000000000AF
:1061F000000000000000000000000000000000009F
:1062000010B5054C237833B9044B13B10448AFF3F0
:1062100000800123237010BD78A200200000000040
:10622000BC32030008B5034B1BB103490348AFF36D
:10623000008008BD000000007CA20020BC320300EA
:10624000154B002B08BF134B9D46A3F5803A002148
:106250008B460F461348144A121A03F055FF0F4B92
:10626000002B00D098470E4B002B00D09847002001
:10627000002104000D000D48002802D00C4807F052
:10628000E9FC03F051FE2000290000F021F803F0A2
:106290003BFE00BF000008000000012000000000DD
:1062A0000000000078A20020C8B4002055DC0200E5
:1062B00025EE020038B5054D4FF47A7445F001051E
:1062C0004FF47A40A847013CFAD138BD401A030088
:1062D00070B54FF4004190B0002001F0A9FB18B157
:1062E000214A1D2100F005FB204C01F0CFFA204887
:1062F00003F054FF94E80F006D46103485E80F005A
:1063000094E80F0004AE86E80F0000231A463146D9
:10631000284600F0D3FF18B1134A2F2100F0E9FA04
:10632000284600F04BF81348134D144C03F036FF89
:10633000FFF7C0FF2B462246102108A804F00AF8F8
:10634000002108A800F0B2F8FFF7B4FF0C4B22467A
:1063500010210CA803F0FEFF00210CA800F0A6F805
:10636000FFF7A8FFE6E700BF461A0300181A03006C
:106370004D1A03005E1A0300731A03008F1A0300FC
:10638000921A03001FB500220091022369460430CF
:10639000CDE90132039202F057FD05B05DF804FB30
:1063A00038B5054D0A2445F001054FF47A40A84759
:1063B000013CFAD138BD00BFB01A030073B502AC7E
:1063C0000E2324F8043D374E21463060FFF7DAFFF4
:1063D0000546C0B1344A182100F08BFA284602B0B5
:1063E00070BD314A2221F7E72F4A2C21F4E72E4ACB
:1063F0003621F1E72C4A4021EEE72B4A4A21EBE710
:10640000294A5421E8E7FFF7CBFF022321463068F1
:10641000ADF80430FFF7B6FF05460028E1D1FFF7DD
:10642000BFFF4FF4804321463068ADF80430FFF7DA
:10643000A9FF05460028D7D1FFF7B2FF48F20103B4
:1064400021463068ADF80430FFF79CFF0546002870
:10645000CDD1FFF7A5FF4FF4004321463068ADF8DA
:106460000430FFF78FFF05460028C3D1FFF798FFE0
:1064700044F2030321463068ADF80430FFF782FF91
:1064800005460028B9D1FFF78BFF4023214630682D
:10649000ADF80430FFF776FF05460028B0D1FFF7CE
:1064A0007FFF9BE794A20020B61A03002DE9F34179
:1064B00007460C4604F004F8102806463CD85CBB9E
:1064C00002A9202321F8043D1F4B1868FFF75AFF4B
:1064D0000446C8B9DFF870800025B54238BF7B5D3F
:1064E000D8F8000028BF20239A0862F07F029B01A1
:1064F00001A98DF804208DF80530FFF743FF04460D
:10650000F0B1124A8E2101E0104A6D2100F0F1F93C
:10651000204602B0BDE8F081012C0FD102A9302342
:1065200021F8043D084B1868FFF72CFF04460028AB
:10653000D0D0064A7521E9E70924E9E70B24E7E70B
:106540000135102DC9D1E3E794A20020B61A03004B
:1065500038B5054D044645F001054FF47A40A8478B
:10656000013CFAD138BD00BFD01B03007FB5054602
:106570000E46144672B601F091FC01F0B3FA002801
:10658000FBD13E4803F00AFE41F201039D4264D074
:1065900006D8012D12D03146394803F0FFFD10E036
:1065A00044F201039D425AD044F202039D42F2D1CB
:1065B00022886168334803F0F1FD02E0324803F0BD
:1065C000EDFD01F0CDFF08B901F094FF0023ADF817
:1065D0000C308DF80E3003A9012319208DF80D30F1
:1065E00001F0C8FF03A9182001F0C4FF03A9172078
:1065F00001F0C0FF192002F079F8182002F076F8B7
:10660000172002F073F84FF4FA70FFF7A1FF19207A
:1066100002F03EF8182002F03BF8172002F038F89C
:106620003220FFF795FF192002F060F8182002F0E1
:106630005DF8172002F05AF84FF4FA70FFF788FF60
:10664000192002F025F8182002F022F8172002F095
:106650001FF8FA20FFF77CFFCCE70C48AFE7A568EE
:10666000284601F085FE2368019600930246636880
:106670000748294603F092FDA3E700BF0F1B030064
:10668000AC1B0300671B0300281B0300451B030012
:10669000821B030007B501F063FF08B901F02AFF70
:1066A0000023ADF804308DF8063001A9012319202C
:1066B0008DF8053001F05EFF01A9182001F05AFFA6
:1066C00001A9172001F056FF192002F00FF8182039
:1066D00002F00CF8172002F009F84FF4FA70FFF7F7
:1066E00037FF192001F0D4FF182001F0D1FF172047
:1066F00001F0CEFF3220FFF72BFF192001F0F6FF4B
:10670000182001F0F3FF172001F0F0FF4FF4FA70AA
:10671000FFF71EFF192001F0BBFF182001F0B8FFA2
:10672000172001F0B5FFFA20FFF712FFCCE703694D
:10673000C1688B429DBF8268D21802F1FF3203F11B
:10674000FF3394BF501A581A70472DE9F041D0E931
:1067500002670446F61B4068964288461546384450
:1067600005D903F037FC3D44E560BDE8F0813246D1
:10677000AD1B03F02FFC2A4608EB0601606803F00E
:1067800029FCF1E72DE9F843C56806468946174616
:106790004FF000083469B3687068A54228BFE41858
:1067A000013C621B5C1BBC4228BF3C46944228BF94
:1067B000144649462844224603F00CFCB36825449D
:1067C000AB4208BF00253F1BA044A144F560E1D1C6
:1067D0004046BDE8F883000010B5114C114AA26193
:1067E0000223C4E90433104BE361A2644FF4007345
:1067F0000E4A2362E264002310220D49A362E01DC9
:106800006362E362A3656365E365226503F0EAFD05
:106810000849204603F0E6FD2023A37110BD00BF08
:1068200018B40020D61B0300C8A60020B8A600207C
:10683000DF1B0300E31B0300F8B5184C182300FB13
:10684000033503FB00402544C46A012C0F4616465D
:1068500011D003D3022C1BD000240AE02846FFF7F6
:1068600066FF864205D8324639462846FFF76DFF57
:1068700034462046F8BD2846FFF759FF8642344685
:1068800028BF0446224639462846FFF75EFFF0E758
:106890002846BDE8F840FFF775BF00BF18B40020D8
:1068A00073B50D4B1B7804460D4616460BB9FFF722
:1068B00093FF02A8002300F8013D00F06FFA324672
:1068C00029462046FFF7B8FF04469DF8070000F070
:1068D00095FA204602B070BD18B40020FFF77CBFC7
:1068E00010B511461C461A460020FFF7D9FF204676
:1068F00010BD00B583B002900091019244F20100F6
:1069000071466A46FFF732FE03B000BD094A53786C
:1069100091780133DBB2994208BF00231178994284
:106920001FBF03705078182303FB002014BF0430EE
:1069300000207047C8A8002073B5054602A80024AF
:1069400000F8014D0E4600F029FA0DF10600FFF7A0
:10695000DDFF90B106700A4B9DF8062045605A7025
:106960009DF8070000F04AFA24B9064B4FF4801254
:10697000C3F80021204602B070BD0424F0E700BF38
:10698000C8A8002000E100E0024B4FF43C6043F057
:1069900001031847F01B0300F8B51F491F4B0025E2
:1069A000C1F84051C1F84451C1F84851C1F84C51A7
:1069B000C1F80051C1F804511B684BB3D1F804452C
:1069C00017490968641A24F07F442F461A68A242C6
:1069D00009D8A41A15441A7CDE691AB11F74D3E9C8
:1069E00005209047AEB90F4B0F4A197813788B42A8
:1069F00005D10133DBB2022B08BF002313701278DC
:106A00000A4B43F822500A4B4FF48012C3F800217E
:106A1000F8BD3346DAE700BF00100140E8A90020C6
:106A2000E4A90020E0A90020E1A90020D8A90020C5
:106A300000E100E02DE9F74F9C4A9D491378097861
:106A40009C4D99423CD00133DBB2022B08BF00239E
:106A5000137099491278994B0F6853F822003B182C
:106A600023F07F4300220B602B68164614469446A1
:106A700013B942B12B6006E0196881420ED902B108
:106A80002B60091A19604FF001082B68DFF834A257
:106A900000930027BEB9DFF834B260E0401A0C441E
:106AA000D968C3F800C0D3F81CE031B13A1922F01C
:106AB0007F42C3E90121DE611E4601227346D7E70A
:106AC0000026B046E1E73446F6697B4A63681268FF
:106AD000DFF8FCC1A068991A21F07F41614500F2FE
:106AE000A58001442160012222742A680023C4E9A0
:106AF0000133E361002A40F0A2802C60CAE75A1CEF
:106B00009BF80210D2B291428BF8002004BF002201
:106B10008BF80020182202FB03B32A6819799C68BD
:106B2000022974D003297ED0012918D1217CB1B962
:106B3000DA6862601A69A2605A69E2609B69A361BF
:106B40005F4B1B78002BC0D06160BEE79C4200F019
:106B500090809946DB69002BF8D1002323749BF8C1
:106B600000309BF801209A42C9D12B682FB9009AB6
:106B7000934202D1B8F1000F43D0002B41D0D3F89B
:106B800000A0504D4C4BD5F804751C68DFF84481CB
:106B90003E1B98F8003026F07F4603369BB94FF431
:106BA0008033C5F84433C5F80433474B4FF4003203
:106BB0004FF00109C3F880211A60C5F80090FFF773
:106BC000E3FE88F80090B2452CBF5444A41924F089
:106BD0007F44C5F84045D5F80435DB1B23F07F43DF
:106BE000E41B033324F07F44A3420AD9D5F80435CB
:106BF000C5F84035FFF7C8FE334B4FF40032C3F8F9
:106C000000212F4B00221A7003B0BDE8F08F13460D
:106C10009146A0E71174D2690123002AFAD1002B12
:106C20009DD02A609BE700231946F6E7D31A23F08C
:106C30007F43834234BFC31A0023236053E7216894
:106C40001368994213D8591A1160E26155E7091A7D
:106C5000D8691A4638B1034618688842F7D3401AF3
:106C60001860184613462160E061DC6112E71346A4
:106C7000F2E74C450DD1D3692B6053B90E48019210
:106C80000121CAF8081003600D4B1970FFF77CFE54
:106C9000019AE1692368C9F81C1011B1086803441E
:106CA0000B602B689A4218BF012756E7E0A9002025
:106CB000E1A90020E8A90020E4A90020D8A900202B
:106CC000D4A900200010014000E100E0C8A8002085
:106CD000FEFF7F00D5A900202DE9F7431D4FBB78AB
:106CE00005460E4690469BB390B304292ED94369BE
:106CF00073B3437C02A80024012B00F8014D0CBFA4
:106D00008946A14600F04AF80DF10600FFF7FEFDA6
:106D1000D0B101230370104B4560D3F80435C0E9AE
:106D20000498C0E902369DF806307B709DF8070094
:106D300000F064F824B9094B4FF48012C3F8002125
:106D4000204603B0BDE8F0830424EFE70724F7E70B
:106D50000824F5E7C8A800200010014000E100E089
:106D6000064A92783AB130B1426922B100220274E7
:106D70000221FFF7E1BD0820704700BFC8A800202E
:106D8000EFF30583C3F308032BB9EFF31480C0437B
:106D900000F00100704701207047000070B5044604
:106DA000FFF7EEFF012803D01049432002F016FF41
:106DB000EFF3108672B60E4A9068012398B993607B
:106DC0000C4B0D4DD3F8801029401160C3F8805052
:106DD000D3F8841051604FF0FF32C3F88420207044
:106DE00006B962B670BD2370FAE700BFF61B030058
:106DF00090B4002000E100E0FC06FFBD10B50446A1
:106E0000FFF7BEFF012803D00949512002F0E6FE3A
:106E1000084B9A685AB154B9EFF3108172B6064A1A
:106E200018681060586850609C6001B962B610BD67
:106E3000F61B030090B4002000E100E0024B1B6849
:106E40000021986803F0BEB9BC9800201EF0040F22
:106E50001CBFEFF309800AE0EFF308800549064AFA
:106E6000884201D8904202D88D464FF00000034B73
:106E7000184700000000012000E00020816E0200A1
:106E80002DE9F347054601F009F800F02BFE002834
:106E9000FBD12F4B2F4C9F6A2F4BE41AE40824049C
:106EA00044F00104002D4ED0AA692C49204600F080
:106EB0009DFFEB680193AB6800932949D5E9002356
:106EC000204600F0B3FFEB6900932649D5E904237F
:106ED000204600F09FFF1E4BDB6A980703D522492E
:106EE000204600F07FFFDFF89490DFF894A00026A2
:106EF0004FF0010808FA06F33B4206D059F8262065
:106F00001AB15146204600F071FF01361A2EF1D118
:106F1000390605D50E4B15495A6B204600F066FF21
:106F20003A0405D50A4B12499A6B204600F05EFFE1
:106F3000104B1B68DB0700D500BE2846FFF7AAFBF5
:106F400002B0BDE8F0870C49204600F04BFFC2E7D5
:106F500000ED00E038330300D03203004B1C030087
:106F6000601C0300951C0300F01C03003F1D030080
:106F70005F1D0300F0ED00E0BD1C03007C1D03005D
:106F8000341D030050E8002F0B4640E8003C9CF005
:106F9000000FF7D11046704750E8003F43EA010266
:106FA00040E8002C9CF0000FF6D11046704750E8E6
:106FB000002F02EA010340E8003C9CF0000FF6D1EC
:106FC0001046704750E8003F03EB010240E8002CF8
:106FD0009CF0000FF6D11046704750E8003FA3EB3D
:106FE000010240E8002C9CF0000FF6D110467047DB
:106FF0000121FFF7D1BF0021FFF7D9BF10B504462B
:10700000002834D003681BB91A49FF2002F0E6FDBE
:10701000636823B917494FF4807002F0DFFDA3685D
:1070200023B9144940F2011002F0D8FDE36823B9F6
:1070300010494FF4817002F0D1FD238A23B90D4924
:1070400040F2031002F0CAFDD4E9012321689B1A23
:10705000DBB20A60013BDBB2FF2B226802D10020C9
:10706000107110BD1168481C10600B70F2E70E2003
:10707000F7E700BFA422030037B5054620B914493D
:107080004FF4927002F0AAFD02A8002400F8014D0E
:10709000FFF784FE2A68696813688B4210D9591E6D
:1070A000116013F8014C2A8AEB6802FB04342A6849
:1070B000AB6811685B1A1179DBB2994238BF137162
:1070C0009DF80700FFF79AFE204603B030BD00BFD1
:1070D000A422030037B50C46054620B9104940F2FA
:1070E000471002F07BFD24B90D494FF4A47002F063
:1070F00075FD02A8002300F8013DFFF74FFE2A6846
:107100001368591C1160EA68A41A2A8AB4FBF2F4C5
:107110001C709DF80700FFF771FE03B030BD00BF83
:10712000A422030038B5084C04F1080305460028E2
:1071300018BF1C4623682BB11A6822605B6828467A
:107140009847F7E738BD00BFF4A9002020B9054BE8
:1071500001225A70FFF7E6BF012802D1014A907060
:10716000F8E77047ECA9002020B9034B01225A70C0
:10717000FFF7D8BF704700BFECA9002038B50B4C13
:10718000237883B90A486360A3602361E36001F058
:10719000F9F8054602F0DAFB08B901F009F9012314
:1071A0002370284638BD8525FBE700BFECA90020E9
:1071B0004D71020013B5154C237823B914494FF4CF
:1071C000857002F00BFDE36823B9114940F20B1002
:1071D00002F004FD02A8002300F8013DFFF7DEFDE8
:1071E000E368013BE360E36853B902F0AFFB18B119
:1071F0000749792002F0F2FC01F0F8F80023A370AF
:107200009DF80700FFF7FAFD02B010BDECA90020C1
:10721000F4220300012813B509D003D303281BD09F
:1072200002B010BD134B0122C3F88020F8E702A87A
:107230000023114C00F8013DFFF7B0FD23780BB996
:10724000FFF79CFFE3689DF807000133E36001232B
:10725000A370FFF7D3FDE3E7074B1B7823B907497A
:1072600040F2452002F0BAFC01F0A2F8FFF7A2FFBD
:10727000D6E700BF00E100E0ECA90020F422030003
:107280007FB503788DF804304368029383688DF8E6
:107290000C30C368049303698DF81430054A064B1B
:1072A00001A853F8213052F82110984707B05DF833
:1072B00004FB00BF00AA00200CAA0020F0B506467F
:1072C000944616F8047B194A42F827C0184A42F837
:1072D0002730184B0C460FCB85B06D4685E80F0064
:1072E00023788DF8003063788DF80130A3788DF81D
:1072F0000230E3788DF8033023798DF80530637917
:107300008DF80630A3680293237B8DF80C30BCF116
:10731000000F637B8DF80D30074A3B4608BF002203
:107320002946304601F082FC05B0F0BD0CAA0020D1
:1073300000AA00204C2303008172020010B504460D
:1073400018B90649312002F049FCA2682AB16369E4
:107350002168206998470023A36010BD5C230300C7
:107360000EB433B5059D044618B91249422002F007
:1073700035FC63691BB90F49432002F02FFC2368D9
:107380001BB90C49442002F029FC63681BB9094968
:10739000452002F023FC3DB102AA06AB42F8043DB1
:1073A0002946204600F06EF802B0BDE8304003B038
:1073B000704700BF5C230300826830B40468551C2A
:1073C0008560A154D0E901329A4202D330BCFFF764
:1073D000B5BF30BC704700002DE9F84F9946DDE994
:1073E0000A431746824688460A460126BA420FD209
:1073F0004E4538BF4E4613F0010B01D164B900244D
:107400000125B9F1010F1AD909F1FF397D43F8E7D8
:10741000B2FBF7F20136E9E79B070ED5B9F1000F91
:107420000CBF30252025A642EAD2013C2946504611
:10743000FFF7C2FF002CF6D1E1E72025F3E7B8FB08
:10744000F5F39F42E2D9DFF83890B8FBF5F35046E8
:1074500019F8031005FB1388FFF7AEFFB5FBF7F52E
:10746000002DF2D1BBF1000F02D00CB1A64201D326
:10747000BDE8F88F20215046013CFFF79DFFF4E75F
:10748000A22303002DE9F74F0E469046054620B98A
:10749000AC494FF4A27002F0A1FB6B6923B9A94972
:1074A0004FF4A37002F09AFB2B6823B9A54940F270
:1074B000471002F093FB6B6823B9A2494FF4A47004
:1074C00002F08CFB002E00F03A8116F8011B002917
:1074D00058D0252940F0D180002702E047F001076D
:1074E0001646324612F8013B2D2BF7D0302B04D034
:1074F0002B2B05D147F00407F2E747F00207EFE72F
:1075000000242A2B06F101021BD1D8F80030191DE6
:10751000C8F800101B6816461C4433782E2B1CD16B
:1075200001364FF0000A314611F8012BA2F130006C
:10753000092814D80A2303FB0A23A3F1300A0E46B4
:10754000F1E712F8013CA3F130010929E5D80A213D
:1075500001FB0434303C1646D3E74FF0000A3246B4
:1075600012F8011B01F0FB0068281646F8D06929C3
:1075700016D054D8582970D00ED825297DD033780C
:10758000002BA2D12B7B002B00F0D980284603B022
:10759000BDE8F04FFFF7D2BE632968D06429EED171
:1075A000D8F80020111DC8F80010D2F8009089EA20
:1075B000E972A2EBE9724FF0010B092A61DCD345B5
:1075C00038BFD3462CB1B9F1000F01DB790700D5E4
:1075D000013CBA0702D5BAF1000F04D0FB0702D470
:1075E000002C54D10024B9F1000F58DAC9F1000978
:1075F0002D212846FFF7E0FE07F00302022A05D1FD
:10760000BAF1000F02D1002C4DD10024CDE9004782
:1076100053460A2249462846FFF7DEFEAFE77329A4
:1076200054D016D87029AAD1D8F800301A1DC8F83D
:107630000020302128461C68FFF7BEFE782128462E
:10764000FFF7BAFE00220823CDE9003221461022BE
:10765000E1E775292FD0782991D1D8F800100A1DBB
:10766000C8F80020CDE90047534610222CE0D8F896
:1076700000301A1DC8F8002019782846FFF79CFE34
:107680007DE70A230BF1010B92FBF3F295E7A3458B
:10769000A9D220212846013CFFF78EFEA0E77807FB
:1076A000AAD52B21A5E7A345B0D230212846013C1D
:1076B000FFF782FEA7E7D8F80010CDE900470A1DC2
:1076C000C8F8002053460A220968A4E7D8F8003019
:1076D0001A1DC8F80020F907D3F8009012D54F46BC
:1076E000A7EB090B17F8011B41B9A345BFF447AF3E
:1076F00020212846013CFFF75FFEF6E72846FFF70A
:107700005BFEEDE7B9F1000F17D0484602F0D8FE56
:107710000746BC4200D954B909F1FF3919F8011FD5
:1077200000293FF42CAF2846FFF746FEF6E720215C
:107730002846013CFFF740FEEBE74F46E9E703B080
:10774000BDE8F08FB22303007047000007B5044B7B
:107750000093044A402300F032F803B05DF804FBC4
:107760006977020019AA00202DE9F84389461446DA
:10777000B2B10F4B0F4E0325002743F001082246FC
:1077800009EB07010020FFF757F80744241A48B90E
:1077900033782BB14FF47A40C047013D02D13570A8
:1077A000BDE8F88301233370002CE8D1F8E700BF6F
:1077B0001024030018AA00207047FFF78FB8F0B517
:1077C00095B01C46164608460D4600F032FD1A9B41
:1077D0000D93CDE9086400242346082205A9284614
:1077E0000A948DF82C400C9400F04CFD079B0293FA
:1077F000BDF81830ADF80C30BDF81A30ADF80E30C9
:107800009DF814308DF8114003F00302012A1DD1B8
:10781000BDF81440059EC3F3C203C4F383148DF86E
:107820001030A20008230EA9284600F02BFDC6F355
:10783000952608AB0093224602AB0EA9304600F015
:107840009DFB284600F0F9FC15B0F0BD022AF8D1E6
:10785000BDF81640C3F3C203A4098DF81030082701
:10786000082C264628BF08263B4632460EA9284645
:1078700000F008FDA41B08AB02AA31460EA837444D
:1078800000F0E0FB002CEBD1DBE7000008B5FFF7D0
:1078900094FF0421064800F0D7FA002803DA0549CE
:1078A000412002F09BF9044B01225A7108BD00BF30
:1078B000DC33030024240300A8980020037813F08D
:1078C000040216D003F00303012B03D0022B09D0CE
:1078D000012070470A6800880232C0F38310024416
:1078E0000A60F5E70B684288023303EB92130B60E2
:1078F000EEE71046704700002DE9F04F89B00646CC
:10790000871C08A8484C009200230D4600F8113D42
:10791000FFF744FA23682B60D4E90123134422685B
:1079200001339B1A04F21C4804F5836B04F21449DA
:10793000BB421AD3009A0023002A6DD0012262F3C1
:10794000010343F0040366F389132168A2689DF8DC
:107950000F000A4003320F4444F822302760FFF73B
:107960004DFA012009B0BDE8F08F01214046FFF734
:1079700029FB5846FFF73CFB0DF1200A4846FFF76C
:1079800037FB60684AF8100DA5682840033004EB07
:1079900080005146FFF792FF02460498002AF4D176
:1079A00005EA000304EB8303811CDB6805930130C7
:1079B000054004EB850503F00303012B0491ED68FA
:1079C00023D0022B08D0194901924FF4BF7002F066
:1079D00005F9019A154607E0BDF816309B090333F7
:1079E0002D0C01EB930304934846FFF704FB08B109
:1079F000049B636029464046FFF7E4FAD4E901237B
:107A00001344226801339B1A92E7BDF81430C3F384
:107A100083132D0C0B44E6E7022262F3010343F0CB
:107A2000040366F39F5390E72CAB002093240300DC
:107A30000B4B0C48FF2210B59A600022C3F81824A3
:107A4000C3E90022C3F81424012283F8202400F0A3
:107A5000A9FB044610B9044800F02AFC204610BDDA
:107A60002CAB002068330300EC24030030B50A4C33
:107A700071B10A4A0A49121BD20800239A4201D165
:107A8000002030BD31F82350854202D00133F5E7A4
:107A9000034654F83300F4E7D032030068330300A0
:107AA00078A20020094B013903EBC000032909D853
:107AB000DFE801F00A0204060420704700797047ED
:107AC000407970470020704702207047D032030091
:107AD000034BD3E90030C31A58425841704700BFE6
:107AE0002CAB00202DE9F04387B0FFF7F1FF0646ED
:107AF000002840F0FC807F4DC5F81804BFF34F8F7D
:107B00006868AC6806AF47F8100D2040033005EBFD
:107B100080003946FFF7D2FE029B18B1D5F8182431
:107B2000002A5FD004EA0302991C013305EB8202AC
:107B3000234005EB8303D268DB68049302F0030360
:107B4000022B0392029162D1BDF80E306A484FEACF
:107B50009318B8F1500FC14628BF4FF0500969F390
:107B60008F1309F10801ADF80E3000F033FB074622
:107B7000002800F0A78000F05CFB03A90023082286
:107B8000384600F069FB029924EA01060136B60086
:107B9000B14535D95FFA89F97EB3F6B2A9EB06098A
:107BA000214003315FFA89F4B146544E05EB81015F
:107BB00008234A46384600F04FFB36B109F1080366
:107BC00022463146384600F047FB029B08F1030885
:107BD00003EB98030293D5F81834002B4BD1D5F85A
:107BE00010445BE02A689A4204D86A60304607B0C5
:107BF000BDE8F08304EA030088E740493446D7E74C
:107C00002140033108234A4605EB8101DAE7012BC5
:107C100058D1BDF80C303848C3F38311062928BF6A
:107C2000062161F3891302318900ADF80C3000F0B0
:107C3000D1FA0746002845D000F0FBFA00230822BD
:107C400003A9384600F008FB0026BDF80C20C2F35B
:107C50008312B31C96424FEA8303BCD202994A1C9A
:107C600021400331029205EB81010422384600F0E5
:107C7000F3FA0136E9E7384600F0DFFAFFF728FFAC
:107C800080F00100C6B2B1E7E3685B7923B12368F5
:107C900039461B6820469847E3681C68002CF3D1DE
:107CA000384600F0CAFA06A800F8114DFFF776F83A
:107CB000D5F818340BB9029B6B609DF80700FFF7ED
:107CC0009DF8DBE7D5F8104454B90D4B0D480E492B
:107CD000C01AC008000440F0020000F083F8CDE7AD
:107CE000236820469B689847E3681C68ECE70026F9
:107CF0007CE700BF2CAB00206833030038AB0020CA
:107D0000D032030028330300F82403002DE9F74F95
:107D10002F4C80460F46914601A9012218469B46EA
:107D2000D4F808A0FFF7E8FD00283DD0019D00260B
:107D3000A91C5E4506EB010240D100212548FFF752
:107D400021F980F3100B244B244A4FEA18499B1A5F
:107D5000B9EBD30F04D3224940F2A31001F03EFF48
:107D60006B1C03EA0A0304EB830349EA0B42DA6063
:107D700005EA0A030333012114F8232068F3C5023E
:107D800004F8232034F8232066F3891224F82320F2
:107D900054F8232067F39F2244F8232061F3010263
:107DA0006FF3820204F8232094F820341BB1FFF70C
:107DB00099FE0028FBD103B0BDE8F08F0AEA020269
:107DC00004EB820259F82630D3600136B1E700BFD8
:107DD0002CAB002048AF002068330300D0320300F2
:107DE0009324030000231A46FFF790BF13B502AC9B
:107DF000012344F8042D2246FFF788FF02B010BD8E
:107E000007B5CDE9002302236A46FFF77FFF03B0E1
:107E10005DF804FB1FB5CDE90123069B039301AA7E
:107E20000323FFF773FF05B05DF804FB1FB5CDE931
:107E30000023069B0293079B03936A460423FFF7E4
:107E400065FF05B05DF804FB30B5134AD2F8104465
:107E50000023214651B9C4682371D2F810445CB99B
:107E6000C2F81004C2681160184630BDC9680D79A7
:107E70009D420AD00968EDE7E468C16824680C6097
:107E8000D2F81024D2681060EEE701330A2BE0D15B
:107E90004FF0FF33E8E700BF2CAB002038B5094AAC
:107EA0000123D2F8104482F820341D4604B938BDAD
:107EB000E3685D71236820465B689847E3681C6847
:107EC000F4E700BF2CAB002010B5037A052B0C465D
:107ED0000FD0437A23B1084A08492046FFF740FAF9
:107EE00007492046FFF73CFA2046BDE81040FFF75F
:107EF00025BA002AF8D0F3E7432503008F1A0300C0
:107F00006525030073B5C38804460D4633B1144A92
:107F100000921449144A2846FFF722FA217A0529CB
:107F20001CD0637A4BB1A088FFF7BCFD0F4B104902
:107F300053F820202846FFF713FA227A0D4BA08829
:107F400053F822600021FFF791FD0B4903463246AA
:107F5000284602B0BDE87040FFF702BA02B070BD1B
:107F60004325030050250300482503001025030086
:107F70008F1A030074250300682503002DE9F043E0
:107F800085B01F460C9D002306460C46904695F88A
:107F90000C902B7329463846FFF7B4FFB8F1060F53
:107FA00009D8DFE808F00412181F283340003146D2
:107FB0002846FFF7D5F9002229463846FFF784FF07
:107FC00085F80C9005B0BDE8F0832268314628465C
:107FD000FFF7C6F9EFE7D4E9002331462846FFF75B
:107FE000BFF9E8E7A36800933146D4E900232846A7
:107FF000FFF7B6F9DFE7E3680193A3680093314622
:10800000D4E900232846FFF7ABF9D4E723690293AC
:10801000E3680193A36800933146D4E9002328461E
:10802000FFF79EF9C7E76369039323690293E36847
:108030000193A36800933146D4E900232846FFF753
:108040008FF9B8E708292DE9F84F80460E46174604
:108050001C4635D8002593F80C901D731946104620
:10806000FFF750FFDFF88CA0DFF88CB0AE4229D9C3
:1080700018F8052059462046FFF772F90135082DFA
:10808000F4D11A49DFF874B02046FFF769F94FF0D0
:10809000000A564524D918F80A507E2D17D92E22E9
:1080A00059462046FFF75CF90AF1010ABAF1080FB8
:1080B000EFD1012221463846FFF706FF84F80C90E5
:1080C000BDE8F88F51462046FFF74AF9D6E701F0A0
:1080D0005DFF2844427812F0970FE0D02A46DFE790
:1080E00003492046FFF73CF9DEE700BF3E250300C9
:1080F0003C2503003A2503003425030040250300F6
:108100002DE9F74F99469DF8303001938846174680
:10811000054618B92249B62001F060FDEA8895F8B5
:1081200005B00BFB02FBABF1040BCB4503D81C499C
:10813000C42001F053FD3E68B5F806A006EB090225
:108140005A4509F1040188BFABEB0906B1FBFAF40B
:108150003E600AFB141144B9AAEB0107B74228BFDD
:1081600037462EB903B0BDE8F08F2D68013CF2E729
:10817000019A043108EB0403681872B101463A46CB
:108180001846F61B01F026FFB2453C442D685746C1
:108190004FF0000128BF3746E3E73A461946F0E7BB
:1081A000D3250300FEF72ABFF8B546790146721EB3
:1081B0000546002393422D6803D30024A64202D82B
:1081C000F8BD0133F6E70F682846FEF783FF013458
:1081D0003946F3E72DE9F843CD1C068A0746FEF73A
:1081E0004BFF043E35440446B5FBF6F5F0B14FF4C1
:1081F0008073EDB28380C680013D076081464FF0F9
:108200000008A84512D23846FEF736FF064648B1A8
:1082100063790133637108F10108C9F80000076050
:108220008146EEE72046FFF7BFFF34462046BDE813
:10823000F88301210430FEF7C5BE10B501210446C4
:108240000430FEF7CAFE10F0FF0F04D12046BDE84F
:108250001040FFF7A9BF10BD30B585B0144604AA81
:10826000002542F8044D0095FFF74AFF039BA34207
:1082700003D00349F62001F0B1FC05B030BD00BFCA
:10828000D325030030B585B0144604AA012542F871
:10829000044D0095FFF734FF039BA34204D003492C
:1082A0004FF4807001F09AFC05B030BDD325030077
:1082B00082680023936082681361826853618268D8
:1082C000D3608268536082681360704738B50D468A
:1082D000044618B90849502001F080FC1DB9064930
:1082E000512001F07BFC25602B6863606A68934233
:1082F00004BF0023636038BD2C26030010B504467C
:1083000018B90B49632001F069FC23681BB90849BF
:10831000642001F063FC636843B1226891680B44F8
:1083200063605268934204BF0023636010BD00BFC6
:108330002C2603000D4930B5A1F594720225914217
:1083400001D800200EE08B1ADB1093FBF5F302EB53
:10835000C30452F83330834205D802D204F1080234
:10836000EDE7606830BD2146E9E700BFD027030094
:1083700008B5FFF7DFFF024B002808BF184608BD0D
:108380009526030010B5044618B90749A02001F04E
:1083900025FC064B187920B901221C601A7158710E
:1083A00010BD8520FCE700BF8A2B0300E8AF00204A
:1083B00008B50B4B1B791BB90A49B92001F00EFC1B
:1083C000094B1A68D2075FBFE02283F8002301221D
:1083D0001A604FF080430122C3F8182508BD00BF82
:1083E000E8AF00208A2B030000E100E008B5084B4D
:1083F0001B791BB90749F32001F0F0FB064B012262
:108400001A604FF08042D2F81834DB03FBD408BD69
:10841000E8AF00208A2B03000C00004007B5154B85
:108420001A687AB100221A601B680093009B4FF013
:1084300080430122C3F808230F4B587910B95A71B1
:108440001B6898470D4B1A6882B100221A601B689E
:108450000193019B4FF080430222C3F80823064B8F
:108460001B68012003B05DF804EB184703B05DF80A
:1084700004FB00BF00010040E8AF00200401004001
:1084800000F1804000F5C040002382B00360036823
:108490000193019B02B07047054B4FF0FF32072854
:1084A00043F8202084BF1B1883F84820704700BF82
:1084B000F0AF002002494FF4F37001F08FBB00BF12
:1084C000DD2B03001F2838B504460D4601D9FFF700
:1084D000F1FFA00000F1A040D0F8003723F44033B2
:1084E000C0F80037D0F8003743EA0543C0F800373A
:1084F00038BD000010B5164C94F8583033BBFF213E
:10850000E2180133202B82F83010F9D10021C8B2D3
:10851000FFF7C2FF01310C29F9D1042200210D48D7
:1085200001F0F2FD0C4BE02283F8062340221A6092
:108530004FF4BE70FFF7A4FF084B4FF00042C3F8A2
:108540000423012384F85830002010BD0820FCE7E4
:10855000F0AF002044B0002000E100E000600040E7
:10856000034B93F85800003018BF0120704700BF3C
:10857000F0AF00201F2870B504460D4604D94149CC
:108580004FF4987001F02AFB3F4E96F85830012BBB
:1085900004D03C4940F2311001F020FB25B93949A3
:1085A0004FF4997001F01AFB331993F9302001321E
:1085B00065D1AA78002A54D0002356F8231001313F
:1085C0004FEA830248D1311902F1804281F83030FC
:1085D000002102F5C04246F82310D2F810052B788E
:1085E000697820F498101B04090520F4F85001F470
:1085F000801103F44033C2F810050B432102D2F876
:10860000100501F4F8510B430343C2F810356B78A1
:10861000012B4FF0010528D11F2C01D9FFF74AFF8C
:108620004FF0A043A540C3F808551F2C01D9FFF710
:1086300041FF04F5E0724FF0A043032143F82210FC
:10864000E2081249012304F0070403FA04F48B5CE6
:108650001C438C54002003E00133082BADD10420CF
:1086600070BDFE2283F83020D1E71F2C01D9FFF71F
:1086700021FF4FF0A043A540C3F80C55D5E70820D3
:10868000EEE700BF202C0300F0AF002044B0002034
:108690001F2838B5054604D912494FF4BE7001F0C1
:1086A0009DFA114C621992F93020013204D10D4922
:1086B00040F27D1001F092FA631993F83030072BE5
:1086C00004D808494FF4BF7001F088FA1F2D01D972
:1086D000FFF7F0FE012303FA05F54FF0A043C3F8BE
:1086E000085538BD202C0300F0AF00201F2838B5F6
:1086F000054604D912494FF4C37001F06FFA114CCA
:10870000621992F93020013204D10D4940F28710EC
:1087100001F064FA631993F83030072B04D8084944
:108720004FF4C47001F05AFA1F2D01D9FFF7C2FEB1
:10873000012303FA05F54FF0A043C3F80C5538BDEB
:10874000202C0300F0AF00202DE9F04F87B000246B
:108750005B4A5C4E5C4D039401211368A2F5C04056
:10876000012B80B206D1D6F804330B4202D0FFF7BA
:1087700087FE0C430432AA424FEA4101EDD1534B2C
:108780001B68012B0AD14FF4BE70FFF779FE4FF042
:10879000A04344F00044D3F81035039314F0FF0FC6
:1087A0001AD04B4F00250126344210D0AB0003F104
:1087B000804303F5C043D3F81005D3F8101557F8DC
:1087C0002530C0F30420C1F3014103B198470135BE
:1087D000082D4FEA4606E7D1002C6EDA00224FF052
:1087E000FF33CDE904233A4F4FF0000A56464FF0CD
:1087F000A04907EB0A0393F95040631C46D0E4B24A
:10880000012224F0C00504F0070B02FA0BFBEB0871
:1088100006AAD11811F8042C12EA0B0F36D07A19D7
:10882000A40992F9302057F82280B8F1000F0AD13C
:10883000032C2BD10DF1100C1CF8030040EA0B00A7
:108840000CF8030001E0032CF4D01F2D03D9019193
:10885000FFF730FE019911F80C1C05F5E07311EAE1
:108860000B0F59F82330C3F3014320D0022B0DD155
:10887000032C05D121462846FFF724FE0136F6B227
:10888000B8F1000F02D021462846C0470AF1010A7C
:10889000BAF1040FADD186B14FF0A043039AD3F8DB
:1088A00010359A4209D00393049B05939CE7032B50
:1088B000ECD1032CE4D10221DDE707B0BDE8F08F55
:1088C0000061004000600040206100407C61004089
:1088D000F0AF002010B5054C22681AB904495120A8
:1088E00001F07CF92368BDE8104018474CB0002027
:1088F000792C030037B50D4630B90F49772001F0C8
:108900006DF9002003B030BD0C4B9842F9D102A89C
:10891000002300F8013DFEF741FA094B1C7914B918
:1089200001221D601A719DF80700FEF767FA002CFE
:10893000E7D01120E6E700BF792C030000200040BB
:108940004CB000200023435082B043580193019B58
:1089500002B0704770B5D0F8103105460C4653B1DF
:108960004FF48871FFF7EEFF63795A0703D5236848
:108970000BB101209847D5F814315BB14FF48A71DF
:108980002846FFF7DFFF63791B0703D523680BB188
:1089900002209847D5F81C315BB128464FF48E7100
:1089A000FFF7D0FF607910F0100002D1236803B107
:1089B0009847D5F8043163B14FF482712846FFF728
:1089C000C1FF0123237123681BB10320BDE8704060
:1089D000184770BD01490248FFF7BCBF54B00020E2
:1089E00000C0014001490248FFF7B4BF5CB000205D
:1089F0000010024001490248FFF7ACBF64B00020FC
:108A00000020024000F1804000F5E040002382B0E9
:108A1000036003680193019B02B07047F0B5514BAE
:108A2000514C1B6885B0DBB14FF4827094F82E2056
:108A3000FFF7E8FF12B194F82F30A3B163680293F7
:108A40002389ADF80C30E36800218DF80410002B69
:108A500044D12374236801A89847002384F82F3059
:108A600094F82E3003B3414B1B68EBB14FF4807088
:108A7000FFF7C8FF94F82D20638B91B28B4238D951
:108A80005B1A21899BB26383CB1A616801EB4301B6
:108A9000374BC3F82C16C3F830264FF48270FFF71B
:108AA000B1FF344B01221A60334B1B685BB14FF4AA
:108AB0008870FFF7A7FF002304A82374022300F89F
:108AC0000C3D236898472D4B1B6813B34FF48A70F5
:108AD000FFF798FF0023237405B0F0BD208B60835F
:108AE00063602081E160002AB4D1214B01221A6029
:108AF000B0E7D2D1E368012184F82F103BB1002107
:108B000061831B49C1F82C36C1F83026C5E7638361
:108B1000C3E766694FF000470125002EDCD0B6FAA6
:108B200086F227FA02F34632920026EA030602F1A1
:108B3000804303F5E0431B68002BEED01046FFF79F
:108B400061FFA2F58C72D30882F00402C2F38002A6
:108B50008DF808308DF804508DF80920236801A89D
:108B60009847DAE7047100406CB0002000710040C3
:108B7000007000400470004010710040147100400B
:108B800002494FF4F37001F029B800BFDD2B030058
:108B90001F2810B5044601D9FFF7F2FF012303FA9D
:108BA00004F44FF0A043C3F80C4510BD1F2810B5C6
:108BB000044601D9FFF7E4FF012303FA04F44FF060
:108BC000A043C3F8084510BD13B54FF04023D3F8B8
:108BD00018310BB3114B124C00221A601B68019321
:108BE000019B236823B90F494FF4277000F0F6FF6B
:108BF000E07FFF2803D0A37F5BB1FFF7C9FF00230D
:108C000063772372D4E90031074802B0BDE8104011
:108C10001847FFF7CBFFF2E702B010BD1841004044
:108C20009CB00020D62C0300A4B000202DE9F74F03
:108C30008146CDE900230C4619B97D49AD2000F0ED
:108C4000CDFF99F804607B4F242303FB06FB07EB61
:108C50000B0A9AF81C10002940F0E480D9F8005063
:108C600075492846FFF746FE8046002840F0DD8023
:108C7000009B47F80B30019BCAF80430237B207817
:108C8000012B00F2BD80FFF783FF94F800A0BAF13A
:108C90001F0F01D9FFF774FF0AF5E07A4FF0A043E8
:108CA000012243F82A2094F801A0BAF1FF0F00F046
:108CB000AA805046FFF76CFFBAF11F0FD34601D9C7
:108CC000FFF75EFF0AF5E07A4FF0A043032243F876
:108CD0002A20A378FF2B00F099801F2B9A4603D9F6
:108CE0000093FFF74DFF009B03F5E0734FF0A042A8
:108CF000042142F82310242303FB0673A27883F88F
:108D00002020E278DA77E078FF2817D02379002B4B
:108D10007FD0FFF73DFFE3781F2B03D90093FFF7C8
:108D20002FFF009B03F5E0734FF0A042032142F8B0
:108D30002310242303FB067322799A772378C5F83E
:108D40000835C5F80CB5C5F810A5A368C5F82435D5
:108D5000637B227B003318BF0123022A5CD0032AE5
:108D60005DD0012A01D143F00203C5F85435A3793F
:108D7000C5F8C03524237343FB5813B14022C5F80E
:108D800004230722C5F800257BB3D9F800306479A5
:108D90004FEA133AA31E012B4FFA8AF506D9631F37
:108DA000022B03D925496B2000F018FF002DACBF22
:108DB00005F16043224B4FEA4414B8BF0AF00F0A92
:108DC000E4B2AABF03F5614303F80A4083F8004305
:108DD000D9F800301B0B5AB2012103F01F0301FA2E
:108DE00003F35209174941F82230242303FB067686
:108DF0000023737701233377404603B0BDE8F08F3B
:108E0000FFF7D4FE41E74FF0FF3B62E74FF0FF3A38
:108E100071E7FFF7CBFE7EE743F00403A5E743F0DD
:108E20000603A2E74FF00808E6E74FF01108E3E772
:108E3000D62C03009CB00020C98B0200222D030019
:108E400014ED00E000E100E02DE9F341584F067910
:108E5000242303FB067380461B7F0D46144623B96B
:108E6000544940F2322000F0B9FE2B6833B96B68E8
:108E700023B1504940F2332000F0B0FEAB6833B963
:108E8000EB6823B14B494FF40D7000F0A7FE98F842
:108E900004302BB9EB68FF2B02D86B68FF2B04D989
:108EA000444940F2372000F099FE24237343FA1816
:108EB000517F002979D1FB5823B114F0140F04BF5E
:108EC0000123537795E80F004FF0240C0CFB067C30
:108ED0000CF10C0E8EE80F009CF81F00FF2804D048
:108EE0009CF81E30C3B1FFF761FE2A6822B102F080
:108EF0006043B3F1005F06D1AB6883B103F0604318
:108F0000B3F1005F0BD0242303FB067600237377B5
:108F1000102002B0BDE8F081FFF73AFEE5E7D8F88F
:108F200000306968C3F84425C3F84815D5E9021232
:108F3000C3F83415C3F838250022C3F81821D3F834
:108F400018210192019A14F0010218BF0122C3F8FE
:108F5000502514F0020218BF0122C3F84025220751
:108F60005CBF01221A6124227243BA5892B9D3F825
:108F70001821002AFBD0242303FB0676F07FFF286C
:108F800003D0B47F1CB1FFF703FE0020C1E7FFF759
:108F90000DFEFAE714F004004FF0400202D0C3F8CF
:108FA0000823F2E7C3F80423B3E71120B1E700BFB9
:108FB0009CB00020D62C03002DE9F7430024064680
:108FC0000F4600F5A0754FF48038A14604F150001B
:108FD0002B68800080B26BB1D6F8043308FA04F233
:108FE0001A4207D0C5F800902B680193019BD7E97E
:108FF000003198470134042C05F10405E6D103B093
:10900000BDE8F08301490248FFF7D6BFC0B0002099
:109010000080004001490248FFF7CEBFCCB00020DD
:10902000009000400023435082B043580193019BBD
:1090300002B07047F0B5504C236887B023B94F4950
:1090400040F2452000F0CAFD4D4AD2F824311546C1
:10905000A3B14FF492711046FFF7E4FFD2F8043148
:1090600063B9A368C2F808330223A360A368C2F8F7
:10907000043301231362536107B0F0BDD5F8043106
:10908000002B49D03F4F3E484FF48271FFF7CAFF93
:109090000FCF01AE0FC63B68336094F82E307BB122
:1090A000237B012B0CBFD5F83C25D5F84C2502922B
:1090B000022B334B0CBFD3F83C35D3F84C3503931C
:1090C0004FF4B0712E48FFF7ADFF4FF4AE712C484E
:1090D000FFF7A8FF94F8303013B194F82E303BB16D
:1090E000274B0022C3F80022A260274AC3F80823B6
:1090F000234AD2F8C434C2F8C4349A0736D50123BF
:109100008DF8003094F830300BB984F82F30D4E962
:10911000003168469847AFE74FF4A4711848FFF74D
:1091200081FF237B83B9174F0FCF01AE0FC63B687A
:10913000336094F83030002BDAD1C5F80032A360E8
:10914000114BC5F80833D3E74FF40073C5F800326C
:1091500040F20223A36003F1CE73C5F80833A3687D
:10916000C5F804330123AB602B6285E713F00403D9
:1091700018BF0223C4E700BFD8B00020712D030040
:1091800000300040E4B0002002029C0170B5C0B184
:109190004AB116880024B44203D305196D789D4264
:1091A00008D0A14201D800200BE0055D01352C4418
:1091B000A4B2F0E7A142F6D9A31C1380005D0138E8
:1091C00080B270BD37B502AC002324F8023D1346CF
:1091D00022460546FFF7DAFF10B1BDF80600284425
:1091E00003B030BD72DF704773DF704738B50122BE
:1091F00004460D46B0F83812D0F83402FFF7E2FF0B
:1092000000B1057004F13C0204F50D7104F1540045
:10921000BDE83840FFF7E6BFF8B5077804460D46CD
:10922000002F00F0058100F24A26A17007220021DC
:10923000304600F069FFE38813B1A378012B04D016
:10924000E3794BB1A378022B06D1636BA3B1012262
:1092500084F8512208209847334604F5147113F816
:10926000012F12B99942FAD117466B1E032B53D81E
:10927000DFE803F0050B0F1284F85132ECE7A37915
:109280001BB194F8243003B95FB9E3790BB1002F17
:1092900044D1237A002B43D1637A002B0CBF0025E5
:1092A0000425636BA570002B3CD0033D012D39D8FC
:1092B0006279002A36D094F85222002A32D184F8FA
:1092C0005422012284F853220720984704F13C05D8
:1092D00018220021284600F017FFE36A94F82420A2
:1092E0000121581E884288BF0B4684F83C1084F840
:1092F000513032B1884296BFA36A84F8521084F884
:109300005230A178002384F8503004291BD8DFE8BC
:1093100001F0770D223559000025C2E70225C0E78C
:109320000325BEE7002384F85332CFE7C4F8443264
:10933000C4E910630223012284F83C30802384F8BE
:109340003120A4F84830A378002B5CD1636B002B4C
:109350006AD1002067E0022384F8313062B107232C
:1093600084F83C302369A4F848300023C4F8443220
:10937000E36826646364E6E70323F1E763696364F3
:10938000A369A4F8483012B1062384F83C3063790D
:10939000B3B194F852329BB994F8543283B102239A
:1093A00084F8503004212046FFF720FF0028CAD15E
:1093B000052384F8313004F50D73C4F84432C2E754
:1093C0000323F6E7E3696364236AA4F8483012B123
:1093D000062384F83C30637983B194F852326BB938
:1093E00094F8543253B1022384F8503004212046BB
:1093F000FFF7FCFE0028A6D10623DAE70423D8E70E
:1094000084F831309FE72A46D4F8441204F154001E
:10941000FFF7E8FE38B994F8301094F85400FFF7DD
:10942000E3FE002892D0F8BD94F83100984790E709
:109430000820F8E710B50388112B0C460AD0262B1C
:109440001FD0102B05D1C37B012B02D18388A1F83B
:10945000483210BD002381F852328288B1F8483278
:109460009A42F6D10B79002BF3D101212046FFF768
:10947000D3FE0028EDD0A36B002BEAD0BDE810404E
:109480001847037A013B012BE3D889780523013182
:1094900091FBF3F303EB8303C91AC9B2E6E7704704
:1094A000034B1A8882420CBF18460020704700BF49
:1094B00028B10020024B9B6903B11847704700BFD9
:1094C0000CB1002013B50B46497A0F4C024669B91E
:1094D000D4E901101C7A002C18BF01465868FDF72A
:1094E000FBFB08B1FFF7E6FF02B010BD00211972C7
:1094F0006369002BF8D00121ADF806008DF8041047
:1095000001A89847F0E700BF0CB1002030B5838870
:109510000588B3F5FA7F24BF6FF4F9729C184A8866
:1095200038BF002495420CD84088904209D38A88DD
:10953000A24206D303F2F310904234BF0020012070
:1095400030BD0020FCE7000070B50388112B0146F8
:1095500048D002D8102B1ED070BD122B52D0502BE9
:10956000FAD12F4BC288DB899A42F5D1038A022BAC
:10957000F2D186883046FFF793FF05460028EBD0EE
:1095800001F1120000F050F830BB6868FDF7E8FB0D
:109590000028E1D009E0C37B012BDDD14FF6FF703D
:1095A000FFF77EFF054620B90420BDE87040FFF7B5
:1095B00081BF8E881B4A0680002303721368C5F89A
:1095C0000A300A30536843601031FFF79FFF144B95
:1095D0006872DB89002BBFD129463046BDE8704058
:1095E000FFF770BF8088FFF75BFF04460028B3D009
:1095F0004068FDF7B5FB08B1FFF75CFF4FF6FF735E
:109600002380A9E786883046FFF74AFF05460028F1
:10961000A2D008310A30FFF779FF6872DCE700BF9B
:109620000CB100203CB10020007800F00100704730
:1096300090DF7047A5DF7047B5DF70477FB5002327
:10964000ADF80810ADF80A106A4602A90646039361
:109650000093ADF80430FFF7EBFF0546F8B1114B6E
:10966000114CE41AE408FEF783FE240444F00104DC
:10967000034632460D492046FEF7C2FBBDF80020E6
:10968000BDF8023002B91BB109492046FEF7B8FB0C
:10969000BDF804201AB107492046FEF7A7FB28466B
:1096A00004B070BDD032030040330300CD2D030061
:1096B000172E0300562E030013B5034680880C4670
:1096C000A0B91A88232A00F0AF8011D8102A25D01B
:1096D000112A54D0A37A4BB1E1880020FFF7AAFFEA
:1096E000002840F0A7800123A072E37202B010BDF1
:1096F0003A2A4ED0552A68D0242AEBD11A7A0B691F
:109700004A73002BE6D04DF67A21ADF80400ADF88F
:109710000010ADF802008DF8042081E00A790A7388
:10972000DB7B012B13D0022B14D0E18823898B42E1
:1097300005D20020FFF77EFF70B90123E372217B81
:10974000637B8B42C6D20020FFF778FFC2E70B880D
:10975000E380EAE74B88FBE7112802D10123A372DB
:10976000EDE7FEF705FE3C4A3C4B3D499B1ADB0802
:109770001B04024643F00100FEF738FBDFE7F72346
:10978000CB8017230B8141F6FB338872C8728B8123
:10979000A0E75B89CA88934228BF1346172B0A6942
:1097A00038BF17230B8162B1C97A51B140F67721D6
:1097B000ADF80010ADF80200ADF80430694620465F
:1097C00090470023E372A37284E7DB88C988A07204
:1097D000172B38BF17238B4228BF0B462381FFF777
:1097E0002BFF60B1FEF7C4FD1B4A1C4B1D499B1AA1
:1097F000DB081B04024643F00100FEF7F7FAE27AA9
:10980000002A7FF467AF2369002B3FF463AF40F673
:109810007721ADF802202289ADF80010ADF80420C0
:1098200069462046984755E7197A237B994228BF15
:10983000194689E711283FF459AFFEF799FD064A0A
:10984000064B07499B1ADB081B04024643F0010044
:10985000FEF7CCFA4AE700BFD032030040330300E2
:10986000AC2E0300DD2E0300B0DF704766DF7047CB
:1098700010B5034600214088FFF7F8FF024608B9FB
:109880001A7210BD112801D10122F9E75B68BDE809
:109890001040184728B10378DE2B04D14180002006
:1098A00070470E20704708207047F0B5054685B018
:1098B0000C46F1B1E8B10B78DE2B1AD182884B88C7
:1098C0009A4204D10B7A13B10846FFF7D1FF2B88D7
:1098D000112B32D0512B0ED0012B0AD12B7A012B18
:1098E00007D1A9886288914203D123722046FFF7ED
:1098F000BFFF05B0F0BDAE886388B342F9D1AF7940
:10990000022FF6D1AD7B2B1F022BF2D800211022A3
:10991000684600F0F9FB052D14BF4FF4C073002317
:10992000694630468DF80070ADF80430FFF79CFFB3
:109930000028DED063689847DBE76388AA889A42EC
:1099400004BF4FF6FF736380D3E70000014B187824
:10995000704700BF44B1002007B508496846FEF7CC
:10996000B5FC019B13B903B05DF804FBD3E90020FB
:1099700090476846FEF7C2FCF3E700BF1C2F0300C8
:10998000FFF7EABF61DF704730B5134DADF5017DDC
:109990004FF4FA740DF1020103A8ADF80240FFF78D
:1099A000F1FF70B9294601A8FEF790FC029B002B3D
:1099B000F0D003A8D3E90021904701A8FEF79EFC50
:1099C000F4E7052804D0054A40F23911FCF791FF6D
:1099D0000DF5017D30BD00BF842F0300302F030043
:1099E000024B1B780BB1FFF7CFBF704745B100208A
:1099F00076DF70477FDF704786DF70478ADF70470A
:109A00008FDF7047B1DF704733DF704737B50388AA
:109A10001D2B044600F0AC801DD8132B7CD00AD837
:109A2000102B3DD0112B5DD0604B13B12046AFF30E
:109A3000008003B030BD142B00F08C801B2BF3D1C1
:109A4000037A012BF0D1FFF7DFFF0028ECD0584A52
:109A50004FF4CC716DE0502B52D00ED8212B00F07A
:109A600096803B2BE0D113218088FFF7C1FF0028AF
:109A7000DAD04F4A4FF4D0715BE0522B5CD045D323
:109A8000562BD1D18379002BCED14A4B1321188884
:109A9000FFF7AEFF0028C7D0454A40F2A71148E0C3
:109AA000444D818844482980FFF7F4FE20B1404AA4
:109AB0004FF49D71FCF71DFF00231A4619462888B4
:109AC000FFF7A0FF20B13A4A4FF4A171FCF711FF54
:109AD0003A4800F063FB3A4B002BA5D02046AFF389
:109AE0000080A1E7334B37484FF6FF721A8000F031
:109AF00055FB354B002B97D02046AFF3008093E702
:109B0000324B002B90D0AFF300808DE7304B002B11
:109B10008AD0AFF3008087E7264800231A468521C4
:109B20000088FFF767FF00283FF47EAF204A40F22D
:109B30008111FCF7DEFE77E71E4800231A4619461E
:109B40000088FFF75FFF00283FF46EAF184A40F22D
:109B50008711EEE7174800231A4619460088FFF7D9
:109B60004BFF00283FF460AF114A40F29111E0E74B
:109B7000184B0BB1AFF3008017490020FFF73EFFF1
:109B800000283FF451AF0A4A40F2C711D1E702A9B9
:109B9000002321F8043D8088FFF732FF00283FF4BE
:109BA00043AF034A40F2D111C3E700BF00000000F9
:109BB000C12F03009CB40020B4B30020F02F030099
:109BC0000000000000300300000000000000000062
:109BD0000000000000000000B098002038B50D46DD
:109BE0000446044800F0DAFA2A4621460248FCF707
:109BF00080FE38BD9C2F0300EFBEADDE0C4B1B7802
:109C0000062B10D10B4B1B681A070CD10A4B186896
:109C100000F0F003302B08D000F0E000A0F140038A
:109C2000584258417047002070470120704700BFDC
:109C3000E00F00F0E40F00F0E80F00F0094B1B7894
:109C4000062B0CD1084B1B681A0708D1074B186864
:109C500000F0F000A0F13003584258417047002056
:109C6000704700BFE00F00F0E40F00F0E80F00F0D5
:109C700008B5FFF7C3FF28B17D4B7E4A1B68C3F3CD
:109C800004231360FFF7DAFF10B17B4B7B4A1A60A5
:109C9000FFF7B4FF28B17A4B7A4A1B68C3F342330B
:109CA0001360FFF7CBFF20B1774AD36823F08073AE
:109CB000D360FFF7A3FF40B14FF080430022C3F809
:109CC0000C21C3F81021C3F83825FFF7B7FF10B1F6
:109CD0006E4B03221A60FFF7B1FF40B16C4B0522B7
:109CE0001A6001229A6700229A603F225A60694BEB
:109CF0001B78062B50D1684B1B6819074CD1674B5A
:109D00001B6803F0F003502B46D14FF08052644B98
:109D1000D2F80414C3F82015D2F80814C3F8241597
:109D2000D2F80C14C3F82815D2F81014C3F82C1567
:109D3000D2F81414C3F83015D2F81814C3F8341537
:109D4000D2F81C14C3F84015D2F82014C3F84415F7
:109D5000D2F82414C3F84815D2F82814C3F84C15C7
:109D6000D2F82C14C3F85015D2F83014C3F8541597
:109D7000D2F83414C3F86015D2F83814C3F8641557
:109D8000D2F83C14C3F86815D2F84014C3F86C1527
:109D9000D2F84424C3F87025FFF730FF28B1414BB7
:109DA000414A1B6803F04F031360FFF727FF48B1D8
:109DB0004FF08043D3F80024D20744BF6FF0010274
:109DC000C3F80024394B1B68062B08D1384B1B689D
:109DD000062B01BF374A136843F480631360364A89
:109DE000D2F8883043F47003C2F88830BFF34F8F45
:109DF000BFF36F8F4FF01023D3F80022002A03DB4C
:109E0000D3F80432002B2FDA2C4B0122C3F804259F
:109E1000D3F80024002AFBD04FF010221521C2F8FD
:109E20000012D3F80024002AFBD04FF01023152293
:109E3000C3F80422214B1A46D3F800140029FBD0A2
:109E40000021C3F80415D2F80034002BFBD0BFF377
:109E50004F8F19491A4BCA6802F4E0621343CB6072
:109E6000BFF34F8F00BFFDE7164B174A1A6008BDBE
:109E7000240300104035014074C007400DF0ADBA16
:109E8000440200103C050040F0ED00E0A005004059
:109E900010560040E00F00F0E40F00F0E80F00F073
:109EA00000C0004058020010E40E004030010010D5
:109EB000340100103C17004000ED00E000E00140DC
:109EC0000400FA05B89800200090D0030649074A1C
:109ED000074B9B1A03DD043BC858D050FBDCFFF74F
:109EE000C7FEFCF7ADF90000F4330300A89800208A
:109EF00078A20020FEE7FEE7FEE7FEE7FEE7FEE7CA
:109F0000FEE7FEE7FEE7FEE708B50021044603F0A2
:109F10002DFE044B1868C36B03B19847204606F02A
:109F200059FF00BF1430030070B50D4E0D4D761B68
:109F3000B61006D00024013455F8043B9847A642D9
:109F4000F9D1094E094D761B07F05AFDB61006D01F
:109F50000024013455F8043B9847A642F9D170BD5E
:109F600068A2002068A2002074A2002068A200203D
:109F7000044B054A1B685B6B002B08BF134693F824
:109F800028017047BC980020E89C0020044B054A3B
:109F90001B685B6B002B08BF1346D3F8EC007047BF
:109FA000BC980020E89C002082B049B15AB16BB146
:109FB00013780B601278101C18BF012002B0704794
:109FC00001A9002AF3D1104602B070476FF00100DA
:109FD000F4E700BF844641EA000313F003036DD1A8
:109FE000403A41D351F8043B40F8043B51F8043B5C
:109FF00040F8043B51F8043B40F8043B51F8043B63
:10A0000040F8043B51F8043B40F8043B51F8043B52
:10A0100040F8043B51F8043B40F8043B51F8043B42
:10A0200040F8043B51F8043B40F8043B51F8043B32
:10A0300040F8043B51F8043B40F8043B51F8043B22
:10A0400040F8043B51F8043B40F8043B51F8043B12
:10A0500040F8043B51F8043B40F8043B51F8043B02
:10A0600040F8043B403ABDD2303211D351F8043BA2
:10A0700040F8043B51F8043B40F8043B51F8043BE2
:10A0800040F8043B51F8043B40F8043B103AEDD251
:10A090000C3205D351F8043B40F8043B043AF9D2A2
:10A0A000043208D0D2071CBF11F8013B00F8013B75
:10A0B00001D30B8803806046704700BF082A13D382
:10A0C0008B078DD010F003038AD0C3F10403D21A9A
:10A0D000DB071CBF11F8013B00F8013B80D331F8CE
:10A0E000023B20F8023B7BE7043AD9D3013A11F84E
:10A0F000013B00F8013BF9D20B7803704B784370B9
:10A100008B78837060467047F0B4860743D0541E46
:10A11000002A3ED0CAB2034602E014F1FF3438D31D
:10A1200003F8012B9D07F8D1032C2BD9CDB245EABA
:10A1300005250F2C45EA054516D9A4F110073F095E
:10A1400003F1200606EB071603F1100242E904555D
:10A1500042E902551032B242F8D104F00F0401373F
:10A16000032C03EB07130DD91E462246043A032A9B
:10A1700046F8045BFAD8221F22F00302043213448B
:10A1800004F003042CB1C9B21C4403F8011B9C4227
:10A19000FBD1F0BC704714460346C5E70FB400B5C9
:10A1A000074983B004AB086853F8042B8168019316
:10A1B00001F0DEFE03B05DF804EB04B0704700BFB1
:10A1C000BC98002000290CBF022200224FF48063BB
:10A1D00000F000B82DE9F0435D4C256883B00446DB
:10A1E000884616461F4615B1AB6B002B7ED0022E5B
:10A1F00005D0012E00F2A980002FC0F2A680636E68
:10A20000DA0735D52146284604F078FD216B41B1A7
:10A2100004F14003994202D0284604F06DFE002369
:10A220002363B4F90C3000221806A261626061D485
:10A2300023F44A6323F00303022EA3811FD10025D8
:10A24000616E002004F1430243F00203A060C907DD
:10A250004FF00100A3812260C4E9042004D49B05CF
:10A2600002D4A06D04F07AFF284603B0BDE8F08365
:10A27000A3899B05C6D4A06D04F06EFFC2E701ABB5
:10A280006A462146284604F06BFFA3891843A08143
:10A29000002F36D1009F384604F0DAFF80460028B0
:10A2A00042D0A38943F08003A381AB6B7BB3009AB8
:10A2B000B4F90C30C4F80080BA421CBF43F4006308
:10A2C000A381012E04BF43F00103A3819BB213F0CD
:10A2D0000802C4E904871ED1A260656E15F001056D
:10A2E000BDD00025284603B0BDE8F083284604F021
:10A2F00061FD7CE72169284604F0FEFDB4F90C30CD
:10A3000096E7B8F1000FC6D0AB6B002BCFD1284633
:10A3100004F050FDCBE7DA0704D57F420022A761A5
:10A32000A260DAE7A760D8E7DDF80090B94504D16C
:10A33000B4F90C304FF0FF3582E7484604F088FF4F
:10A3400080460028F4D04F46ABE74FF0FF358BE74F
:10A35000BC9800200CB430B5214B00299DB01C687E
:10A3600038DB4FF4027302900690ADF8143021A848
:10A3700019D001390346209A0491079101904FF6B4
:10A38000FF7502A92046ADF8165000F009F9421CED
:10A3900001DA8B232360029B00221A701DB0BDE8F6
:10A3A000304002B0704703460491079101904FF688
:10A3B000FF75209AADF8165002A9204600F0F0F87B
:10A3C000431C04DB1DB0BDE8304002B070478B2356
:10A3D0002360F7E78B2323604FF0FF30F2E700BFE5
:10A3E000BC98002080EA0102844612F0030F4FD18E
:10A3F00011F0030F32D14DF8044D11F0040F51F854
:10A40000043B0BD0A3F101329A4312F0803F04BF0A
:10A410004CF8043B51F8043B16D100BF51F8044BF3
:10A42000A3F101329A4312F0803FA4F101320BD123
:10A430004CF8043BA24312F0803F04BF51F8043BA8
:10A440004CF8044BEAD023460CF8013B13F0FF0F05
:10A450004FEA3323F8D15DF8044B704711F0010F38
:10A4600006D011F8012B0CF8012B002A08BF704709
:10A4700011F0020FBFD031F8022B12F0FF0F16BF00
:10A480002CF8022B8CF8002012F47F4FB3D17047C8
:10A4900011F8012B0CF8012B002AF9D1704700BFED
:10A4A00000000000000000000000000000000000AC
:10A4B000000000000000000000000000000000009C
:10A4C00090F800F06DE9024520F007016FF0000CF4
:10A4D00010F0070491F820F040F049804FF000049C
:10A4E0006FF00700D1E9002391F840F000F1080077
:10A4F00082FA4CF2A4FA8CF283FA4CF3A2FA8CF3AF
:10A500004BBBD1E9022382FA4CF200F10800A4FA15
:10A510008CF283FA4CF3A2FA8CF3E3B9D1E9042369
:10A5200082FA4CF200F10800A4FA8CF283FA4CF3A0
:10A53000A2FA8CF37BB9D1E9062301F1200182FA5A
:10A540004CF200F10800A4FA8CF283FA4CF3A2FA60
:10A550008CF3002BC6D0002A04BF04301A4612BA6E
:10A56000B2FA82F2FDE8024500EBD2007047D1E971
:10A57000002304F00305C4F100004FEAC50514F000
:10A58000040F91F840F00CFA05F562EA05021CBFD1
:10A5900063EA050362464FF00004A9E700000000EB
:10A5A0002DE9F04FD7B00C460691934609930390DE
:10A5B00004F0C0FD036817931846FFF781FFA389D5
:10A5C00016901F0603D52369002B00F05587002342
:10A5D0005E469FED8F7B1093CDE92B331593CDE92C
:10A5E00019331B93189305932DAB2A93994633780F
:10A5F0008DED127B002B00F0CE82252B344602D14C
:10A600001CE0252B03D014F8013F002BF9D1A51B2A
:10A6100085B1DDE92B3201332A44072BC9F80060EC
:10A62000C9F80450CDE92B327CDC09F10809059BFF
:10A630002B4405932378002B00F0AD82002367782C
:10A64000079398468DF88B3004F1010B4FF0FF3AD9
:10A650002B250BF1010BA7F120035A2B00F2E48309
:10A66000DFE813F0A503E203E203A003E203E20341
:10A67000E2038103E203E203B503B003E2037201E4
:10A680005801E2033B03C600C600C600C600C60070
:10A69000C600C600C600C600E203E203E203E2030E
:10A6A000E203E203E2034003E2037701F002400326
:10A6B00040034003E203E203E203E203EB02E203AE
:10A6C000E2038400E203E203E203C202E203CE03F8
:10A6D000E203E203AC02E203E203E203E203E20389
:10A6E000E203E203E2034003E2037701DA004003FE
:10A6F00040034003C103DA005B00E2031E03E203F0
:10A70000060386002B035B00E203C2025D00290101
:10A71000E203E2033801E2035D0048F020089BF801
:10A72000007096E72AAA0699039805F06BFC80B999
:10A730000DF1B4097BE72AAA5946504605F062FCA0
:10A74000002801F0C5800A9B1BB10A99039804F008
:10A75000D3FB069B9B8913F0400F059B18BF4FF05E
:10A76000FF330593059857B0BDE8F08F48F0100807
:10A7700018F0200F00F07385099C073424F00703BC
:10A78000D3E9004503F10802099228F4806300220E
:10A7900000218DF88B10BAF1FF3F56A9049100F00B
:10A7A000A78454EA050123F080085BD1BAF1000FB9
:10A7B00040F09687002A40F01F8513F0010356AE43
:10A7C000089302D0302306F8013D00230A930F932B
:10A7D00014931193089B9DF88B205345B8BF5346A3
:10A7E0000493002A00F0C880049B01330493C3E063
:10A7F000A7F1300300221BF8017B02EB820203EB7E
:10A800004202A7F13003092BF5D9079223E700BFD5
:10A81000000000000000000043469E0640F1178241
:10A82000099C073424F00704D4E9000104F108026C
:10A83000099204460D46002871F1000205DA2D2226
:10A84000644265EB45058DF88B2056AABAF1FF3FAF
:10A85000049200F0E38654EA05014FF0010223F070
:10A860008008A3D0012A00F04784022A00F0EF827A
:10A8700056A900E03146E20842EA4572E80804F0D1
:10A88000070305461446303354EA050201F8013C3B
:10A8900001F1FF36EED118F0010F00F0E882302B05
:10A8A00000F0E582049A02393023521A06F8013C7E
:10A8B00008920E4689E743469E0640F1A682099C0F
:10A8C000073424F0070202F10801D2E9004509919A
:10A8D00001225DE7B64B159318F0200F00F074814C
:10A8E000099C073424F00703D3E9004503F108026B
:10A8F000099218F0010F09D054EA050306D030235D
:10A900008DF88D7048F002088DF88C3028F4806343
:10A9100002223DE79BF800702A2F0BF1010201F0A3
:10A92000EB82A7F13003092B93464FF0000A3FF664
:10A9300092AE1BF8017B0AEB8A0A03EB4A0AA7F1E5
:10A940003003092BF5D986E69BF8007048F004081F
:10A950007FE60998002301688DF88B301A468DF840
:10A96000F4100123011DCDE9083104930A929246A7
:10A970000F92149211923DAE18F002030B9302D085
:10A98000049B0233049318F084032C9C0E933FD154
:10A99000079B04995D1A002D3ADD102D2B9A29DDB5
:10A9A00049462046B14610232097039C069E04E0AA
:10A9B000103D102D01F1080118DD01327D4F1030DE
:10A9C000072ACDE92B20C1E90073F1DD2AAA31461F
:10A9D00020460C9305F016FB00287FF4B4AE103D22
:10A9E000102DDDE92B202DA90C9BE6DC209F4E4687
:10A9F0000446894601326F4B2C44072ACDE92B24AB
:10AA0000C9E9003500F37C859DF88B2009F1080920
:10AA100072B12B9A013201340DF18B000121072A0A
:10AA2000CDE92B24C9E9000100F3738309F108097A
:10AA30000B9B6BB12B9B0133023423A90222072B02
:10AA4000CDE92B34C9E9001200F36F8309F108093D
:10AA50000E9B802B00F07982089BAAEB0305002D4A
:10AA600035DD102D2B9A544B26DD49462046B14644
:10AA70004FF0100A069E1C4604E0103D102D01F117
:10AA8000080115DD01321030072ACDE92B20C1E97C
:10AA9000004AF2DD2AAA3146039805F0B3FA0028ED
:10AAA0007FF451AE103D102DDDE92B202DA9E9DCFE
:10AAB0004E4623468946044601322C44072ACDE9F6
:10AAC0002B24C9E9003500F33C8309F1080918F487
:10AAD000807F40F0DB812B9B089AC9F8006001332E
:10AAE0001444072B2C94C9F804202B9300F3A18263
:10AAF00009F1080918F0040F33D0079B049A9D1A36
:10AB0000002D2EDD102D2B9B21DD1026039FDDF85F
:10AB1000188004E0103D102D09F1080917DD0133FC
:10AB2000244A1034072BCDE92B34C9E90026F1DD86
:10AB30002AAA4146384605F065FA00287FF403AE9C
:10AB4000103D102DDDE92B340DF1B409E7DC0133A4
:10AB5000184A2C44072BCDE92B34C9E9002500F312
:10AB6000A583059B079A04998A42ACBF9B185B1882
:10AB70000593002C40F0258200232B930A9B1BB1E8
:10AB80000A99039804F0B8F90DF1B4095E463378D8
:10AB9000002B7FF432AD2C9B002B3FF4DAAD069CEA
:10ABA00003982AAA214605F02DFAA389D3E500BF10
:10ABB000383003006C3003007C300300AE4B15933B
:10ABC00018F0200F7FF48CAE099A18F0100F02F1E4
:10ABD000040340F0798318F0400F099A00F0708365
:10ABE00014880993002584E6099B1E6800258DF8CA
:10ABF0008B501C1D002E00F07384BAF1FF3F00F053
:10AC00005F8652462946304604F0DAFD0A90002855
:10AC100000F09A870A9B9B1B0893AA4623EAE373DA
:10AC200009940493CDF828A0CDF83CA0CDF850A00D
:10AC3000CDF844A09DF88B20D3E548F008089BF898
:10AC4000007006E548F010039E063FF5E9AD09994E
:10AC5000DD0601F1040200F151835C06099940F11F
:10AC60004A83B1F900400992E51720462946E2E5FA
:10AC7000099A18F0200F52F8043B099240F04583DE
:10AC800018F0100F40F07C8518F0400F40F02E8631
:10AC900018F4007F00F07485059A1A705E4676E716
:10ACA0009BF800706C2F03BF9BF8017048F02008E0
:10ACB0000BF1010B48F01008CBE409996F4B0C68BD
:10ACC000159347F630020431ADF88C2048F00203AA
:10ACD00009910025022278275AE548F080089BF860
:10ACE0000070B6E4099C073424F0070494ED007B5F
:10ACF00052EC171B22F000431D938DED1C7A083493
:10AD0000DDE91C014FF0FF325D4B09948DED127BA4
:10AD100006F0B8FC002840F0FF824FF0FF32584B9D
:10AD2000DDE91C0106F090FC002840F0F5820022CD
:10AD30000023DDE9120106F07DFC002840F0E386E7
:10AD40009DF88B204F4E504B0020032104910A9018
:10AD500028F08008472FD8BF1E46089182460F90E2
:10AD6000149011903DE5039F384604F0E3F94368E1
:10AD700018931846FFF7A4FB1B900446384604F0CE
:10AD8000D9F983681A93002C3FF4C9AC9BF8007082
:10AD9000002B3FF45EAC1B78002B3FF45AAC48F418
:10ADA000806856E448F001089BF8007051E49DF873
:10ADB0008B309BF80070002B7FF44BAC20238DF878
:10ADC0008B3046E48DF88B509BF8007041E4099B72
:10ADD0009BF800701A680792002A03F10403C0F27E
:10ADE0005A83099335E49BF80070682F03BF9BF8E2
:10ADF000017048F400780BF1010B48F0400828E49A
:10AE000048F010039E063FF55AAD099ADD0602F19F
:10AE1000040100F161825C06099A40F15A821488AB
:10AE2000099100250122B3E4002F3FF4B4AE0023C2
:10AE300001211A4604918DF8F4708DF88B300A9335
:10AE40009A460F931493119308913DAE94E515988B
:10AE500056AE230904F00F0143EA05732A091C4684
:10AE60001546435C06F8013D54EA0503F1D1049B05
:10AE70009B1B0893A9E400BF4C300300383003004B
:10AE8000FFFFEF7F2C30030028300300652F40F3D5
:10AE9000DC8000220023DDE9120106F0C1FB00285E
:10AEA00000F060812B9BAD4AC9F8002001330134CA
:10AEB0000122072BCDE92B34C9F8042000F33C8490
:10AEC00009F10809249B109A2C9C934280F2E98195
:10AED0002B9B179AC9F80020169AC9F80420013351
:10AEE0001444072BCDE92B3400F3EE8209F1080955
:10AEF000109B5D1E002D7FF7FDAD102D2B9A984BFA
:10AF000040F30384194610262346039FDDF818A05A
:10AF10000C4605E009F10809103D102D40F3F283BD
:10AF200001321033072ACDE92B23C9E90046F1DDB0
:10AF30002AAA5146384605F065F800287FF403AC8C
:10AF4000DDE92B230DF1B409E6E7079B049A9D1A6E
:10AF5000002D7FF781AD102D2B9A814B25DD4946C1
:10AF60002046B1461C46069E04E0103D102D01F11E
:10AF7000080116DD013210301023072ACDE92B20FD
:10AF80000C604B60F1DD2AAA3146039805F03AF8CF
:10AF900000287FF4D8AB103D102DDDE92B202DA922
:10AFA000E8DC4E4623468946044601322C44072AF3
:10AFB000CDE92B24C9E9003500F3B18309F1080973
:10AFC0004AE52AAA0699039805F01CF800283FF4E0
:10AFD000D3ADFFF7B8BB2AAA0699039805F012F87B
:10AFE00000287FF4B0AB249B2C9C0DF1B4091BB955
:10AFF000109A002A00F092842B9A1799C9F8001031
:10B000001699C9F8041001320C44072A2C942B928B
:10B0100000F3A78509F10809002BC0F22086109BD8
:10B0200001321C44072ACDE92B24C9E900637FF7CC
:10B030005FAD2AAA0699039804F0E4FF00287FF484
:10B0400082AB2C9C0DF1B40954E5109A2B9B012A7C
:10B0500004F1010403F1010509F1080740F30E8131
:10B060000123072DC9F80060CDE92B54C9F804303D
:10B0700000F31D83169B179A691C1C4407290B912A
:10B08000CDE92B14C7E9002300F31D8308370B9A81
:10B09000531C1D460895109D0E9300220023DDE9E8
:10B0A000120105F1FF3A07F1080906F0B9FA002884
:10B0B00040F0A780089DC7F804A001365444072D2E
:10B0C0003E602C942B9500F3EF810B9A07F110034F
:10B0D00002324F4608929946199A7A601444089AA7
:10B0E0002C9426AB072A2B923B607FF703ADA0E799
:10B0F000012A98467FF4B9AB002D08BF0A2C80F0D6
:10B10000938256AE3034012306F8014D0893FFF7C1
:10B110005CBB2AAA0699039804F074FF00287FF408
:10B1200012AB2C9C0DF1B40982E42AAA069903986B
:10B1300004F068FF00287FF406AB2C9C0DF1B409E5
:10B1400086E42AAA0699039804F05CFF00287FF49D
:10B15000FAAA2C9C0DF1B409B9E400BF68300300D1
:10B160007C300300249B002B40F37581DDE9102324
:10B170009342A8BF1346002B1D460DDD2B9BC9F83B
:10B18000006001332C44072B2C94C9F804502B93F6
:10B1900000F3BE8409F10809119B002DA8BF5B1BB9
:10B1A000002B1D4640F3D481102D2B9ABC4B40F34D
:10B1B000BB81184621464B461027B146DDF80CA04E
:10B1C000069C064604E00833103D102D40F3A7818D
:10B1D00001321031072ACDE92B21C3E90067F2DDE6
:10B1E0002AAA2146504604F00DFF00287FF4ABAA9E
:10B1F000DDE92B212DABE7E7CDF820A056AEFFF718
:10B20000E4BABAF1000F7FF767AFBAF1100FA44BA1
:10B2100040F34E86194622463B461026DDF80C9038
:10B22000069C0E9D0F4607E00833AAF1100ABAF1FA
:10B23000100F40F38D8201351032072DCDE92B52CE
:10B24000C3E90076F0DD2AAA2146484604F0DAFE7A
:10B2500000287FF478AADDE92B522DABE5E7099AA7
:10B2600018F0100F02F1040340D118F0400F099AB2
:10B2700038D0148809930025FFF787BA18F0010F1A
:10B280007FF4EEAE0122072DC9F80060CDE92B5402
:10B29000C9F8042000F308810233089309F110096A
:10B2A0001AE718F0010F7FF413AE23E42AAA0699D7
:10B2B000039804F0A7FE00287FF445AA2C9C50E4D4
:10B2C00018F4007F40F00D83146809930025FFF700
:10B2D00010BB980500F10F83146809910122002525
:10B2E000FFF756BA18F4007F40F0138314680993EF
:10B2F0000025FFF74ABA980500F103830C6809920C
:10B30000E51720462946FFF796BA059A1046D11749
:10B31000C3E900015E463AE4DDE9120102460B464C
:10B3200006F0B0F9002840F09985612F00F00784FD
:10B33000412F00F0F98248F4807327F02002BAF11F
:10B34000FF3F0E930492139B00F01F85472A00F0E5
:10B350001685002BC0F2E9839DED127BCDE90A0032
:10B360008DED1E7B662F00F0DD84462F00F0628598
:10B37000049B0398452B0CBF0AF10105554628AAEA
:10B3800025ABCDE90032022124AB2A469DED1E0BF0
:10B3900002F0FAFC672F064640F0958518F0010F81
:10B3A00040F0F784289B40469B1BDDF838801093C3
:10B3B000249B1193049B472B00F07183049B462B25
:10B3C00000F007840499119BFAB2412908BF0F329B
:10B3D00003F1FF3306BFD2B201210021002B2493D9
:10B3E000B8BF119B8DF89820BABFC3F101032D227D
:10B3F0002B22092B8DF8992000F3E584002940F0D9
:10B400006A8530228DF89A200DF19B02303313703B
:10B41000531C26AA9B1A109A1993012A13440893C5
:10B4200040F32885089B169A1344089300230F9332
:10B4300014931193089B20F4806023EAE37340F493
:10B44000807804930B9B002B40F03C839A469DF838
:10B450008B20FFF7C6B92B9A1249C9F800100132A8
:10B4600001340121072ACDE92B24C9F804103FF744
:10B47000B2AD09F10809BAE54021039803F0F8FEDE
:10B48000069B18601861002800F05385069A402337
:10B490005361FFF79CB8524207920993FFF756BADF
:10B4A0007C300300683003002AAA0699039804F050
:10B4B000A9FD00287FF447A9DDE92B340133089367
:10B4C0000DF1BC092DAF07E62AAA0699039804F0EE
:10B4D00099FD00287FF437A92C9C0DF1B40907E5EC
:10B4E0005346062B28BF0623B2460F961496119694
:10B4F0000A9632460493CDE90834A44EFFF771B999
:10B500002AAA0699039804F07DFD00287FF41BA960
:10B510009DF88B202C9C0DF1B409FFF779BA0C46ED
:10B5200031464E4699460B4601322C44072ACDE956
:10B530002B24C9E9003540F3D1812AAA0699039842
:10B5400004F060FD00287FF4FEA82C9C0DF1B409E6
:10B55000119B18F4806F33449A4640F01B81249B62
:10B56000109A934249DB18F0010F46D1109AB51892
:10B57000A5EB0A05D31A9D42A8BF1D46002D0DDD7F
:10B580002B9AC9F800A001322C44072A2C94C9F840
:10B5900004502B9200F33C8309F10809002DACBF45
:10B5A0005D1B1D46002D7FF7A5AA102D2B9A784B09
:10B5B00040F3AB80194610262346039FDDF818A000
:10B5C0000C4605E009F10809103D102D40F39A8062
:10B5D00001321033072ACDE92B23C9E90046F1DDFA
:10B5E0002AAA5146384604F00DFD00287FF4ABA886
:10B5F000DDE92B230DF1B409E6E72B9A1799C9F879
:10B6000000101699C9F8041001320C44072A2C9432
:10B610002B9200F3B58209F10809A7E7002D08BFB6
:10B620000A2C9846FFF46DAD08F480630022CDF833
:10B6300020900A97CDF82C8056AE9146DDF86880B0
:10B640001F460AE00023204629460A2206F058F841
:10B6500004460D4654EA050346D00A22002320463C
:10B66000294606F04DF8303206F8012C09F101099F
:10B67000013E002FE6D098F800309945E2D1B9F1AB
:10B68000FF0FDFD0002D08BF0A2CDBD31B9B1899BE
:10B69000F61A1A46304604F083FC98F80130002B65
:10B6A00000F0898308F101084FF00009CAE72AAACF
:10B6B0000699039804F0A6FC00287FF444A8DDE96D
:10B6C0002B542DAFD6E42AAA0699039804F09AFCCD
:10B6D00000287FF438A8DDE92B342DAF0B93D6E496
:10B6E000012A7FF4C2A80CE5049BCDF840909B1B77
:10B6F000DDF82090CDF868800A9FDDF82C80089353
:10B70000FFF763B821461C460B4601322C44072A3A
:10B71000CDE92B24C9E900357FF7EAA989E42AAAF3
:10B720000699039804F06EFC00287FF40CA82C9C6A
:10B730000DF1B409FFF790B92AAA0699039804F00D
:10B7400061FC00287EF4FFAF0DF1B409FFF7BABB2E
:10B7500014463A461F4613462A460132089207F11C
:10B760000802C7E9003A089B2B935444072B2C94FA
:10B770003FF79AAE0133089302F108091746ABE48C
:10B78000059A1A605E46FFF702BA00BF60300300F8
:10B790007C300300109BCDF82CB0F3180893149B59
:10B7A000CDF838804A460C96C24FDDF86C90DDF833
:10B7B0006880DDF818B056462146DDF80CA0002B55
:10B7C0005ED00F9B002B5FD1149B013B08F1FF382B
:10B7D00014932B9B1898106001334944072B2C912C
:10B7E000C2F804902B9353DC0832089898F8003084
:10B7F000851B9D42A8BF1D46002D0BDD2B9B1660AF
:10B8000001332944072B2C9155602B934BDC98F87E
:10B8100000300832002DACBF5D1B1D46002D2BDD16
:10B82000102D2B981CDD102404E0103D102D02F18A
:10B83000080215DD013010310728CDE92B01C2E9DE
:10B840000074F2DD2AAA5946504604F0DBFB0028BA
:10B850007EF479AF103D102DDDE92B012DAAE9DC36
:10B86000013029440728CDE92B01C2E900753EF7D4
:10B8700062AF98F8003008321E44149B002BA0D110
:10B880000F9B002B00F0FB800F9B013B0F93A0E769
:10B890002AAA5946504604F0B5FB00287EF453AF5F
:10B8A0002C992DAAA1E72AAA5946504604F0AAFBD2
:10B8B00000287EF448AF98F800302C992DAAA9E70B
:10B8C0003046FEF7FDFDAA4603460890FFF7A6B9ED
:10B8D00098F800302C992DAA1E44CEE709F10809EA
:10B8E00036E6147809930025FFF703B8059A1A8005
:10B8F0005E46FFF74CB91478099100250122FEF746
:10B9000047BF91F900400992E51720462946FEF706
:10B9100092BF147809930025FEF737BF18F0010F86
:10B920003FF4E8A8FFF768BB30238DF88C3058232C
:10B93000BAF1630F8DF88D3048F0020400F3B68140
:10B9400048F481730E9327F0200304930022139B85
:10B950000A92A0463DAE002BC0F2E8809DED127B1E
:10B960008DED1E7B00230B93612F00F06081412F32
:10B970007FF4F8AC24A89DED1E0B04F087FA00229A
:10B980004FF07F5351EC100B05F0E2FB0022002337
:10B99000CDE90C0105F044FE002840F04382464BFF
:10B9A00008930AF1FF34CDE90F9B1197CDF850A011
:10B9B000B1462196CDF88080DDF820A0DDE90C6746
:10B9C00003E005F02DFE20BBA94600223B4B30468C
:10B9D000394605F0BDFB0F46064605F069FE804678
:10B9E00005F04CFB02460B463046394605F0F8F9A7
:10B9F0004D461AF808C005F801CBB4F1FF3FA34645
:10BA000006460F464FF000024FF0000304F1FF34EA
:10BA1000D7D1304639460022294B119FDDF850A07E
:10BA2000CDF844904446DDF83C90DDF88080CDF8B8
:10BA30003CB0219EDDF840B0CDE90C0105F018FEC8
:10BA4000002840F0AA80DDE90C0100221C4B05F023
:10BA5000E7FD18B12346DB0700F19F800F9B002B09
:10BA600007DB0F9B01332B44302205F8012BAB423F
:10BA7000FBD1AB1B40461093DDF8388098E4B2460A
:10BA8000109B0C9ECDF86880F3189A459146DDF81E
:10BA90002CB0DDF838800C4628BF9A465FE5119B34
:10BAA000DA1C01DB534514DD023F27F02003049329
:10BAB00088E400BF7C3003004C30030000003040BD
:10BAC0000000E03F2D228DF88B204FF0000AFEF79A
:10BAD0008BBE119B10998B42C0F29080C20740F13F
