:020000022000DC
:10600000000001208DB90200B5B90200057A020036
:10601000B9B90200BBB90200BDB90200000000001E
:10602000000000000000000000000000BFB90200F6
:10603000C1B9020000000000C3B90200C5B90200E6
:10604000A5960200C7B902005D9B020039A50200B7
:10605000799E0200C7B90200D1990200CD9C0200CE
:1060600009A5020019A50200C7B90200C7B90200BC
:10607000C7B90200C7B90200C7B90200C7B9020018
:10608000C7B9020051750200C7B90200C7B90200C2
:10609000ED750200C7B9020041B40200C7B90200A1
:1060A000C7B90200C7B90200C7B90200C7B90200E8
:1060B000859C0200C7B9020000000000000000003B
:1060C000C7B90200959C0200A59C0200C7B9020056
:1060D000C7B90200C7B90200C7B90200000000003A
:1060E00000000000000000000000000000000000B0
:1060F00000000000000000000000000000000000A0
:10610000000000000000000000000000000000008F
:10611000000000000000000000000000000000007F
:10612000000000000000000000000000000000006F
:10613000000000000000000000000000000000005F
:10614000000000000000000000000000000000004F
:10615000000000000000000000000000000000003F
:10616000000000000000000000000000000000002F
:10617000000000000000000000000000000000001F
:10618000000000000000000000000000000000000F
:1061900000000000000000000000000000000000FF
:1061A00000000000000000000000000000000000EF
:1061B00000000000000000000000000000000000DF
:1061C00000000000000000000000000000000000CF
:1061D00000000000000000000000000000000000BF
:1061E00000000000000000000000000000000000AF
:1061F000000000000000000000000000000000009F
:1062000010B5054C237833B9044B13B10448AFF3F0
:1062100000800123237010BD7CA20020000000003C
:106220006C60030008B5034B1BB103490348AFF38F
:10623000008008BD0000000080A200206C60030008
:10624000154B002B08BF134B9D46A3F5803A002148
:106250008B460F461348144A121A05F0E7FC0F4B01
:10626000002B00D098470E4B002B00D09847002001
:10627000002104000D000D48002802D00C4809F050
:1062800089FA05F0B1FB2000290000F0D5F805F0EF
:106290009BFB00BF00000800000001200000000080
:1062A000000000007CA2002088B5002095F70200C5
:1062B0006509030038B5054D044645F001054FF466
:1062C0007A40A847013CFAD138BD00BF50440300D2
:1062D00000B510EE100A9BB08DED062ACDED052A13
:1062E000CDED071ACDED090A8DED081A0DF086FBEC
:1062F0002C4ACDE9000110210AA805F0BDFD9DED55
:10630000081A11EE100A0DF079FBDDED090ACDE94E
:10631000020110EE900A0DF071FB234ACDE9000155
:1063200010210EA805F0A8FD00210AA800F038FAF7
:1063300001210EA800F034FA4FF47A70FFF7BAFF8B
:10634000DDED071A11EE900A0DF058FB174ACDE962
:106350000001102112A805F08FFDDDED052A12EED7
:10636000900A0DF04BFB9DED062ACDE9020112EEDD
:10637000100A0DF043FB0E4ACDE90001102116A8CA
:1063800005F07AFD002112A800F00AFA012116A8F2
:1063900000F006FA4FF47A70FFF78CFF1BB05DF83F
:1063A00004FB00BF56440300634403007144030030
:1063B0007E44030000B591B01A4A8DED030A102106
:1063C00008A805F059FD184A10210CA805F054FD45
:1063D000002108A800F0E4F901210CA800F0E0F980
:1063E0004FF47A70FFF766FF9DED030A10EE100A76
:1063F0000DF004FBCDE9000110210C4A0DEB01006A
:1064000005F03AFD002104A800F0CAF9012108486E
:1064100000F0C6F94FF47A70FFF74CFF11B05DF849
:1064200004FB00BF8C4403009A440300A74403000C
:106430000C520300000000002DE9F0432DED068B07
:106440004FF400419BB0002002F088F918B17A4A5D
:10645000492101F02AF8794C02F0AEF8784805F0AD
:106460002FFC94E80F000EAD103485E80F0094E87F
:106470000F0012AE86E80F0000231A463146284668
:1064800001F0F8FC18B16C4A5B2101F00EF82846C7
:1064900000F00EF96B4805F013FC4FF47A70FFF72B
:1064A00009FF694B0FCB16AC84E80F0013221423AD
:1064B00021466648CDE9162302F0FCFF044618B1D8
:1064C0005D4A682100F0F1FF6048614D00F064FC16
:1064D000604805F0F5FB5D4800F0A8FE21465E48E7
:1064E0005E4C05F0EDFB52A7D7E9006700F0BCFD5C
:1064F00000F0A2FE00F0C6FCB0EE408AF0EE608A2A
:10650000B0EE419A00F0CEFDF0EE409AB0EE60AAF7
:10651000F0EE41AA00F06EFD20468DED0B0ACDEDA8
:106520000C0A8DED0D1A05F0CBFB284605F0C8FBD3
:1065300018EE100A0DF062FA804619EE100A89462C
:106540000DF05CFACDE9020118EE900A0DF056FA52
:1065500042464B46CDE90001414805F0B1FB19EE3A
:10656000900A0DF04BFA80461AEE900A89460DF01B
:1065700045FACDE902011AEE100A0DF03FFA424643
:106580004B46CDE90001374805F09AFB0B980DF01A
:1065900035FA80460D9889460DF030FACDE90201B2
:1065A0000C980DF02BFA4246CDE900014B462E48DF
:1065B00005F086FB2D4805F083FBF0EE6A2AB0EE6D
:1065C0004A2AF0EE691AB0EE491AF0EE680AB0EE07
:1065D000480AFFF77DFEF0EE680AB0EE480A0CF0BC
:1065E0009BF910EE100A0DF009FA32463B460DF009
:1065F0005DFA0DF033FDDFED1E7A00EE100AB4EE09
:10660000E70AF1EE10FA01DDFFF7D4FE6420FFF790
:1066100051FE00F035FE10EE100A0DF0EFF90246C3
:106620000B46144805F04CFB6420FFF743FE61E77E
:10663000713D0AD7A3904C40B844030014440300B2
:10664000BF440300D0440300344403001046030059
:1066500048450300E5440300FA44030014450300E1
:106660007C450300A4450300CC45030039520300D8
:1066700000003442F44503001FB5002200910223BC
:1066800069460430CDE90132039203F035FD05B0CF
:106690005DF804FB38B5054D0A2445F001054FF4BB
:1066A0007A40A847013CFAD138BD00BF304603000C
:1066B00073B502AC0E2324F8043D374E21463060FA
:1066C000FFF7DAFF0546C0B1344A182100F0EDFEAD
:1066D000284602B070BD314A2221F7E72F4A2C210B
:1066E000F4E72E4A3621F1E72C4A4021EEE72B4A07
:1066F0004A21EBE7294A5421E8E7FFF7CBFF0223C1
:1067000021463068ADF80430FFF7B6FF0546002893
:10671000E1D1FFF7BFFF4FF4804321463068ADF869
:106720000430FFF7A9FF05460028D7D1FFF7B2FFD5
:1067300048F2010321463068ADF80430FFF79CFFB2
:1067400005460028CDD1FFF7A5FF4FF400432146B1
:106750003068ADF80430FFF78FFF05460028C3D13D
:10676000FFF798FF44F2030321463068ADF8043088
:10677000FFF782FF05460028B9D1FFF78BFF4023C2
:1067800021463068ADF80430FFF776FF0546002853
:10679000B0D1FFF77FFF9BE7D8A200203646030069
:1067A0002DE9F34107460C4605F02AFC1028064661
:1067B0003CD85CBB02A9202321F8043D1F4B18687C
:1067C000FFF75AFF0446C8B9DFF870800025B542CC
:1067D00038BF7B5DD8F8000028BF20239A0862F0FC
:1067E0007F029B0101A98DF804208DF80530FFF789
:1067F00043FF0446F0B1124A8E2101E0104A6D2198
:1068000000F053FE204602B0BDE8F081012C0FD10C
:1068100002A9302321F8043D084B1868FFF72CFF2C
:1068200004460028D0D0064A7521E9E70924E9E7A3
:106830000B24E7E70135102DC9D1E3E7D8A20020EA
:106840003646030038B5054D044645F001054FF4C2
:106850007A40A847013CFAD138BD00BF5047030039
:106860007FB505460E46144672B602F0ADF901F04A
:10687000CFFF0028FBD13E4805F022FA41F2010388
:106880009D4264D006D8012D12D03146394805F01A
:1068900017FA10E044F201039D425AD044F2020379
:1068A0009D42F2D122886168334805F009FA02E07E
:1068B000324805F005FA02F097FF08B902F05EFFD2
:1068C0000023ADF80C308DF80E3003A901231920F8
:1068D0008DF80D3002F092FF03A9182002F08EFF10
:1068E00003A9172002F08AFF192003F043F81820AB
:1068F00003F040F8172003F03DF84FF4FA70FFF76B
:10690000A1FF192003F008F8182003F005F817205C
:1069100003F002F83220FFF795FF192003F02AF860
:10692000182003F027F8172003F024F84FF4FA702A
:10693000FFF788FF192002F0EFFF182002F0ECFFAC
:10694000172002F0E9FFFA20FFF77CFFCCE70C48A4
:10695000AFE7A568284602F09BFC236801960093E8
:10696000024663680748294605F0AAF9A3E700BF75
:106970008F4603002C470300E7460300A8460300A8
:10698000C54603000247030007B502F02DFF08B912
:1069900002F0F4FE0023ADF804308DF8063001A9B2
:1069A000012319208DF8053002F028FF01A91820D5
:1069B00002F024FF01A9172002F020FF192002F0A5
:1069C000D9FF182002F0D6FF172002F0D3FF4FF4B2
:1069D000FA70FFF737FF192002F09EFF182002F02F
:1069E0009BFF172002F098FF3220FFF72BFF1920A2
:1069F00002F0C0FF182002F0BDFF172002F0BAFF1E
:106A00004FF4FA70FFF71EFF192002F085FF1820DF
:106A100002F082FF172002F07FFFFA20FFF712FF3B
:106A2000CCE770477FB5400003AB8DF80C108DF8B4
:106A3000150000210B480493009102238DF80D20CE
:106A40008DF8143004AA012340688DF8161002F066
:106A50009DFD18B1044A392100F027FD07B05DF80B
:106A600004FB00BF38A700206847030000B589B0C9
:106A70000F238DF80E300DF10E030493012398407F
:106A80008DF81500184300218DF81D000E48009167
:106A90000DF10F028DF814308DF8163006928DF836
:106AA0001C3004AA022340688DF80F108DF81E10C8
:106AB00002F06CFD18B1054A2F2100F0F6FC9DF89C
:106AC0000F0009B05DF804FB38A7002068470300F9
:106AD00000B589B008AB069203F8111D0493012399
:106AE00098408DF8150040F0010000218DF81D0040
:106AF0000B488DF814308DF81630009106238DF870
:106B00001C3004AA022340688DF81E1002F03EFDDE
:106B100018B1044A252100F0C8FC09B05DF804FB57
:106B200038A7002068470300084B5B7A012B07D089
:106B300002D3022B07D07047054B064A1A607047F4
:106B4000034B054AFAE7024B044AF7E738A700204F
:106B500018A70020295C0F3C295C8F3C295C8F3DE5
:106B60000A4B1B7E032B06D8DFE803F0020C060954
:106B7000074B084A1A607047054B074AFAE7044B6F
:106B8000064AF7E7024B064AF4E700BF38A70020A1
:106B900004A7002040DA7F3840DAFF3840DA7F3936
:106BA000B0E33F3A0A4B93F82130032B06D8DFE8D5
:106BB00003F00206090C074B074A1A607047054BA1
:106BC000064AFAE7034B064AF7E7024B054AF4E7A1
:106BD00038A7002030A70020F7CC1239240B9839B1
:106BE0009F71E139240B183A014B5878FFF73EBFEB
:106BF00038A70020014B9878FFF738BF38A700204E
:106C000010B5284C237A13B1A27A5201D3B2E27A9A
:106C1000617A607802F0030242EAC1021A43D2B2FA
:106C20001021FFF7FFFE002211216078FFF7FAFE26
:106C3000227B637B002A18BF80222BB1A37B03F049
:106C40000F0343F040031A4312216078FFF7EAFE76
:106C5000627D237D002A18BF20220BB142F0100272
:106C6000E37C13B142F00802D2B2A37D13B142F02B
:106C70000202D2B21E216078FFF7D4FEE27B237CB1
:106C8000002A18BF20220BB142F01002637C13B11E
:106C900042F00802D2B260781321BDE81040FFF73D
:106CA000C1BE00BF38A7002010B51B4C227FE37E79
:106CB000002A18BF20220BB142F01002A37E13B1AC
:106CC00042F00802D2B21F216078FFF7ABFEE27DEE
:106CD00012B1627E5201D2B2237E607842EAC302D0
:106CE00094F91D30D2B2002BA2BF42F0040203F08F
:106CF00003031A432021FFF795FEA27F2AB1E27F0A
:106D0000520102F0600242F0800260782121BDE869
:106D10001040FFF787BE00BF38A7002010B51D4CFC
:106D200094F8243094F8221094F82320A0785B0182
:106D30008900002A01F01C0103F0600343EA01030B
:106D400018BF80221A432021FFF76CFE94F82120FF
:106D5000A0782121FFF766FE94F8263094F82720CA
:106D6000A078002B18BF202302F003021A4322212F
:106D7000FFF758FE94F82520A078920002F00C024C
:106D80002321FFF74FFEA07800222421BDE8104008
:106D9000FFF748BE38A70020324B13B558600620D5
:106DA0005881587646F60122FF201A8058771C2217
:106DB0004FF48074072001219A705C82002258846D
:106DC00040F2011440F2033019725A729A81DA814A
:106DD0001A829976D97619771A769A77DA7783F8BC
:106DE000201083F821209884DA8483F828109C826C
:106DF0001D49DC821D4B0A801A804A805A808A8095
:106E00009A801B4B1A701B4A92E803006B4683E87A
:106E10000300194A1948194603F04CFA20B1184AE0
:106E20004FF4C67100F041FBFFF77EFEFFF7BAFE9C
:106E3000FFF796FEFFF7D8FE0446FFF7DBFE40EAB9
:106E4000042000B246F63D03984208D1FFF7D8FE71
:106E5000FFF72AFFFFF762FF002002B010BD4FF0DE
:106E6000FF30FAE738A7002010A70020FCA600207A
:106E700008A7002058470300236A02006047030068
:106E800068470300F0B5264B264C5878264D274E10
:106E90008BB005AA2821FFF71BFE9DF815309DF841
:106EA00014009DF816109DF81920247840EA03205C
:106EB0009DF8173041EA03219DF8183043EA022378
:106EC0001B4A00B209B21BB22880318013804CB13A
:106ED000184C2788C01B28806088091A3180A18837
:106EE0005B1A1380144BD3ED007AB6F9003000EE34
:106EF000903AB2F9003001EE103AB5F9003000EEE8
:106F0000103AF8EEE00AB8EEC11AB8EEC00A60EE28
:106F1000A70A20EE270A21EE271A0BB0F0BD00BF0A
:106F200038A7002008A700200AA700200CA70020EF
:106F30000EA70020FCA6002004A70020F0B5264BD9
:106F4000264C5878264D274E8BB005AA1821FFF7FE
:106F5000BFFD9DF815309DF814009DF816109DF8A2
:106F60001920247840EA03209DF8173041EA0321D4
:106F70009DF8183043EA02231B4A00B209B21BB243
:106F80002880318013804CB1184C2788C01B288082
:106F90006088091A3180A1885B1A1380144BD3EDE5
:106FA000007AB6F9003000EE903AB2F9003001EE06
:106FB000103AB5F9003000EE103AF8EEE00AB8EEFB
:106FC000C11AB8EEC00A60EEA70A20EE270A21EE29
:106FD000271A0BB0F0BD00BF38A7002008A700207B
:106FE0001CA700201EA7002020A7002010A700201B
:106FF00018A7002000B51A4B8BB005AA5878282195
:10700000FFF766FD174B9DF81720D3ED007A9DF82A
:10701000163043EA02231BB29DF8192000EE903A85
:107020009DF8183043EA02231BB201EE103A9DF896
:1070300015209DF8143043EA02231BB200EE103AEB
:10704000F8EEE00AB8EEC11AB8EEC00A60EEA70A80
:1070500020EE270A21EE271A0BB05DF804FB00BFD3
:1070600038A7002030A7002010B50B4803F0F6F930
:10707000044670B9094B084800229A605A601A60A9
:1070800003F006FA044803F0CDF9054B20461C60D6
:1070900010BD0820FCE700BF6047030024A70020C4
:1070A00034A7002000B52DED028B00218BB02D48B8
:1070B00003F004FA2C4A9FED2D7A13681060C31A6E
:1070C00007EE903AF8EE677A87EE878AFFF736FF89
:1070D000274BF6EE007AB4EEE71AF1EE10FA06DC72
:1070E000BEEE007AB4EEC71AF1EE10FA05D593EDB4
:1070F000027AA8EE017A83ED027AB4EEE70AF1EEA5
:1071000010FA06DCBEEE007AB4EEC70AF1EE10FA11
:1071100005D593ED007AA8EE007A83ED007AF4EEBF
:10712000E70AF1EE10FA06DCFEEE007AF4EEE70A6A
:10713000F1EE10FA05D5D3ED017AE8EE207AC3ED31
:10714000017A93E807000AAB03E907009DED070AFF
:10715000DDED080A9DED091A0BB0BDEC028B5DF860
:1071600004FB00BF6047030034A7002000247449DB
:1071700024A700207FB5C1F307238DF80C008DF8FC
:107180000D308DF80E1003AB00210B4804930091D5
:1071900048F60303ADF8143004AA012300688DF803
:1071A000161002F0F3F918B1044A1E2100F07DF91F
:1071B00007B05DF804FB00BFD4B40020F94703001A
:1071C00000B58BB00DF10F030693012398408DF8A5
:1071D0001D0040F001008DF80F108DF825000021F2
:1071E00010488DF81C308DF81E3000910DF11603FB
:1071F000089306AA02230068ADF816108DF8243013
:107200008DF8261002F0C2F918B1074A0F2100F0DC
:107210004CF9BDF81630D8B21B0A43EA00200BB077
:107220005DF804FBD4B40020F9470300014B18605B
:10723000704700BFD4B4002010B501214420FFF7EF
:10724000BFFF044624F4C0640146A4B2094804F018
:1072500037FD2146084844F4806404F031FD21469E
:10726000064804F02DFD21460120BDE81040FFF73F
:1072700081BF00BFBD470300CD470300E3470300C4
:1072800010B52DED028B01214420FFF799FF030675
:10729000F9D500214420FFF793FFC0F30F3300EE30
:1072A000903AB0EE000AF8EE600A04460BF036FBA6
:1072B000C4F30B0407EE904A10EE100AB8EEE78A0A
:1072C0000CF09CFB06A3D3E900230CF0EFFB0CF0C1
:1072D000C5FE07EE900A28EE270ABDEC028B10BD12
:1072E0007B14AE47E17A843F0369C1688B429DBF3E
:1072F0008268D21802F1FF3203F1FF3394BF501AB3
:10730000581A70472DE9F041D0E902670446F61B90
:107310004068964288461546384405D904F0ECFB8F
:107320003D44E560BDE8F0813246AD1B04F0E4FB6E
:107330002A4608EB0601606804F0DEFBF1E72DE960
:10734000F843C5680646894617464FF00008346979
:10735000B3687068A54228BFE418013C621B5C1B3F
:10736000BC4228BF3C46944228BF144649462844A4
:10737000224604F0C1FBB3682544AB4208BF002598
:107380003F1BA044A144F560E1D14046BDE8F8832D
:1073900010B5114C114AA2610223C4E90433104B09
:1073A000E361A2644FF400730E4A2362E264002397
:1073B00010220D49A362E01D6362E362A365636569
:1073C000E365226504F0A0FD0849204604F09CFD19
:1073D0002023A37110BD00BFD8B400204E48030085
:1073E00074A7002064A70020574803005B480300EF
:1073F000F8B5184C182300FB033503FB0040254467
:10740000C46A012C0F46164611D003D3022C1BD0A0
:1074100000240AE02846FFF767FF864205D8324677
:1074200039462846FFF76EFF34462046F8BD284609
:10743000FFF75AFF8642344628BF044622463946A3
:107440002846FFF75FFFF0E72846BDE8F840FFF762
:1074500076BF00BFD8B4002073B50D4B1B7804462F
:107460000D4616460BB9FFF793FF02A8002300F85C
:10747000013D00F06FFA324629462046FFF7B8FF7B
:1074800004469DF8070000F095FA204602B070BD52
:10749000D8B40020FFF77CBF10B511461C461A4631
:1074A0000020FFF7D9FF204610BD00B583B0029041
:1074B0000091019244F2010071466A46FFF7D0F94B
:1074C00003B000BD094A537891780133DBB2994289
:1074D00008BF0023117899421FBF0370507818230A
:1074E00003FB002014BF04300020704774A9002063
:1074F00073B5054602A8002400F8014D0E4600F0C1
:1075000029FA0DF10600FFF7DDFF90B106700A4B76
:107510009DF8062045605A709DF8070000F04AFA71
:1075200024B9064B4FF48012C3F80021204602B064
:1075300070BD0424F0E700BF74A9002000E100E062
:10754000024B4FF43C6043F00103184770480300BE
:10755000F8B51F491F4B0025C1F84051C1F84451EF
:10756000C1F84851C1F84C51C1F80051C1F804515B
:107570001B684BB3D1F8044517490968641A24F015
:107580007F442F461A68A24209D8A41A15441A7CCF
:10759000DE691AB11F74D3E905209047AEB90F4BCD
:1075A0000F4A197813788B4205D10133DBB2022BD5
:1075B00008BF0023137012780A4B43F822500A4B7D
:1075C0004FF48012C3F80021F8BD3346DAE700BF5C
:1075D0000010014094AA002090AA00208CAA00204C
:1075E0008DAA002084AA002000E100E02DE9F74FD9
:1075F0009C4A9D49137809789C4D99423CD00133AF
:10760000DBB2022B08BF0023137099491278994B03
:107610000F6853F822003B1823F07F4300220B60D1
:107620002B6816461446944613B942B12B6006E007
:10763000196881420ED902B12B60091A19604FF006
:1076400001082B68DFF834A200930027BEB9DFF8E9
:1076500034B260E0401A0C44D968C3F800C0D3F8D3
:107660001CE031B13A1922F07F42C3E90121DE6109
:107670001E4601227346D7E70026B046E1E73446AE
:10768000F6697B4A63681268DFF8FCC1A068991A42
:1076900021F07F41614500F2A58001442160012273
:1076A00022742A680023C4E90133E361002A40F010
:1076B000A2802C60CAE75A1C9BF80210D2B29142F9
:1076C0008BF8002004BF00228BF80020182202FB58
:1076D00003B32A6819799C68022974D003297ED0E3
:1076E000012918D1217CB1B9DA6862601A69A260F7
:1076F0005A69E2609B69A3615F4B1B78002BC0D085
:107700006160BEE79C4200F090809946DB69002BE7
:10771000F8D1002323749BF800309BF801209A4293
:10772000C9D12B682FB9009A934202D1B8F1000F4A
:1077300043D0002B41D0D3F800A0504D4C4BD5F88E
:1077400004751C68DFF844813E1B98F8003026F071
:107750007F4603369BB94FF48033C5F84433C5F8F0
:107760000433474B4FF400324FF00109C3F8802136
:107770001A60C5F80090FFF7E3FE88F80090B24564
:107780002CBF5444A41924F07F44C5F84045D5F8D3
:107790000435DB1B23F07F43E41B033324F07F44D9
:1077A000A3420AD9D5F80435C5F84035FFF7C8FE1D
:1077B000334B4FF40032C3F800212F4B00221A70D4
:1077C00003B0BDE8F08F13469146A0E71174D2696B
:1077D0000123002AFAD1002B9DD02A609BE70023C9
:1077E0001946F6E7D31A23F07F43834234BFC31A06
:1077F0000023236053E721681368994213D8591A6C
:107800001160E26155E7091AD8691A4638B1034692
:1078100018688842F7D3401A18601846134621604A
:10782000E061DC6112E71346F2E74C450DD1D36904
:107830002B6053B90E4801920121CAF80810036069
:107840000D4B1970FFF77CFE019AE1692368C9F8B6
:107850001C1011B1086803440B602B689A4218BFD2
:10786000012756E78CAA00208DAA002094AA0020A8
:1078700090AA002084AA002080AA002000100140C5
:1078800000E100E074A90020FEFF7F0081AA002033
:107890002DE9F7431D4FBB7805460E4690469BB336
:1078A00090B304292ED9436973B3437C02A8002402
:1078B000012B00F8014D0CBF8946A14600F04AF8A3
:1078C0000DF10600FFF7FEFDD0B101230370104B50
:1078D0004560D3F80435C0E90498C0E902369DF844
:1078E00006307B709DF8070000F064F824B9094B5E
:1078F0004FF48012C3F80021204603B0BDE8F083A6
:107900000424EFE70724F7E70824F5E774A900202B
:107910000010014000E100E0064A92783AB130B12F
:10792000426922B1002202740221FFF7E1BD082062
:10793000704700BF74A90020EFF30583C3F3080369
:107940002BB9EFF31480C04300F001007047012011
:107950007047000070B50446FFF7EEFF012803D022
:107960001049432003F09AFEEFF3108672B60E4AD8
:107970009068012398B993600C4B0D4DD3F880109B
:1079800029401160C3F88050D3F8841051604FF043
:10799000FF32C3F88420207006B962B670BD237030
:1079A000FAE700BF7648030050B5002000E100E090
:1079B000FC06FFBD10B50446FFF7BEFF012803D04B
:1079C0000949512003F06AFE084B9A685AB154B92C
:1079D000EFF3108172B6064A18681060586850605C
:1079E0009C6001B962B610BD7648030050B5002016
:1079F00000E100E0024B1B680021986804F074B9B4
:107A0000BC9800201EF0040F1CBFEFF309800AE0B1
:107A1000EFF308800549064A884201D8904202D80F
:107A20008D464FF00000034B184700000000012076
:107A300000E00020397A02002DE9F347054601F005
:107A4000C3F800F0E5FE0028FBD12F4B2F4C9F6AB6
:107A50002F4BE41AE408240444F00104002D4ED016
:107A6000AA692C49204601F057F8EB680193AB68EE
:107A700000932949D5E90023204601F06DF8EB6910
:107A800000932649D5E90423204601F059F81E4BFE
:107A9000DB6A980703D52249204601F039F8DFF860
:107AA0009490DFF894A000264FF0010808FA06F33E
:107AB0003B4206D059F826201AB15146204601F023
:107AC0002BF801361A2EF1D1390605D50E4B154982
:107AD0005A6B204601F020F83A0405D50A4B1249AA
:107AE0009A6B204601F018F8104B1B68DB0700D595
:107AF00000BE2846FEF748FF02B0BDE8F0870C49FB
:107B0000204601F005F8C2E700ED00E0E860030060
:107B100080600300CB480300E048030015490300E0
:107B200070490300BF490300DF490300F0ED00E0A6
:107B30003D490300FC490300B449030050E8002F0D
:107B40000B4640E8003C9CF0000FF7D11046704710
:107B500050E8003F43EA010240E8002C9CF0000F8F
:107B6000F6D11046704750E8002F02EA010340E8C2
:107B7000003C9CF0000FF6D11046704750E8003FE3
:107B800003EB010240E8002C9CF0000FF6D11046F8
:107B9000704750E8003FA3EB010240E8002C9CF046
:107BA000000FF6D1104670470121FFF7D1BF002129
:107BB000FFF7D9BF10B50446002834D003681BB9BD
:107BC0001A49FF2003F06AFD636823B917494FF48F
:107BD000807003F063FDA36823B9144940F20110DB
:107BE00003F05CFDE36823B910494FF4817003F0A2
:107BF00055FD238A23B90D4940F2031003F04EFDD1
:107C0000D4E9012321689B1ADBB20A60013BDBB295
:107C1000FF2B226802D10020107110BD1168481C92
:107C200010600B70F2E70E20F7E700BF244F03004F
:107C300037B5054620B914494FF4927003F02EFD74
:107C400002A8002400F8014DFFF784FE2A68696845
:107C500013688B4210D9591E116013F8014C2A8AFF
:107C6000EB6802FB04342A68AB6811685B1A11796F
:107C7000DBB2994238BF13719DF80700FFF79AFEF7
:107C8000204603B030BD00BF244F030037B50C467B
:107C9000054620B9104940F2471003F0FFFC24B913
:107CA0000D494FF4A47003F0F9FC02A8002300F87A
:107CB000013DFFF74FFE2A681368591C1160EA68FE
:107CC000A41A2A8AB4FBF2F41C709DF80700FFF78F
:107CD00071FE03B030BD00BF244F030038B5084C1F
:107CE00004F108030546002818BF1C4623682BB181
:107CF0001A6822605B6828469847F7E738BD00BFDE
:107D0000A0AA002020B9054B01225A70FFF7E6BF58
:107D1000012802D1014A9070F8E7704798AA002024
:107D200020B9034B01225A70FFF7D8BF704700BF3C
:107D300098AA002038B50B4C237883B90A486360B1
:107D4000A3602361E36001F061FC054603F05EFB84
:107D500008B901F071FC01232370284638BD852540
:107D6000FBE700BF98AA0020057D020013B5154C63
:107D7000237823B914494FF4857003F08FFCE3682E
:107D800023B9114940F20B1003F088FC02A800232C
:107D900000F8013DFFF7DEFDE368013BE360E368C7
:107DA00053B903F033FB18B10749792003F076FC8F
:107DB00001F060FC0023A3709DF80700FFF7FAFDB7
:107DC00002B010BD98AA0020744F0300012813B51B
:107DD00009D003D303281BD002B010BD134B0122DE
:107DE000C3F88020F8E702A80023114C00F8013DF9
:107DF000FFF7B0FD23780BB9FFF79CFFE3689DF810
:107E000007000133E3600123A370FFF7D3FDE3E72D
:107E1000074B1B7823B9074940F2452003F03EFC8D
:107E200001F00AFCFFF7A2FFD6E700BF00E100E087
:107E300098AA0020744F03007FB503788DF80430B2
:107E40004368029383688DF80C30C3680493036918
:107E50008DF81430054A064B01A853F8213052F82A
:107E60002110984707B05DF804FB00BFACAA0020C2
:107E7000B8AA0020F0B50646944616F8047B194AC5
:107E800042F827C0184A42F82730184B0C460FCB4F
:107E900085B06D4685E80F0023788DF80030637853
:107EA0008DF80130A3788DF80230E3788DF8033037
:107EB00023798DF8053063798DF80630A368029335
:107EC000237B8DF80C30BCF1000F637B8DF80D30F7
:107ED000074A3B4608BF00222946304601F0FEFF14
:107EE00005B0F0BDB8AA0020ACAA0020CC4F03001A
:107EF000397E02001FB503788DF8003003798DF8C4
:107F0000043043798DF8053083688DF80630C368F6
:107F10008DF807300369029343690393054A064BC2
:107F2000684653F8213052F82110984705B05DF8A3
:107F300004FB00BFC4AA0020CCAA002002494FF4D1
:107F4000F37003F0ABBB00BFE64F03001F2810B572
:107F5000044601D9FFF7F2FF012303FA04F44FF0BE
:107F6000A043C3F8084510BD024B4FF4807043F0A6
:107F700001031847E04F03002DE9F14F924690F8B6
:107F80000080364A42F828A0354A42F828304B7B18
:107F900081460C467BB30B684FF0A04503F5E073B8
:107FA00040F20C6245F823204B6803F5E07300268D
:107FB00045F823200868FFF7C9FF6068FFF7C6FF90
:107FC000236803F5E07340F20D6245F823206368EF
:107FD00003F5E0734FF0010B45F82320FFF7C4FFD2
:107FE00067681F2F01D9FFF7A9FFD5F81035FB40AF
:107FF000DB070ED506BBBAF1000F1A4A434608BF8D
:108000000022214609F1040001B0BDE8F04F02F062
:108010003FBB27681F2F01D9FFF790FF0BFA07F727
:10802000C5F80C75FFF7A0FF01362068FFF78EFF3B
:10803000FFF79AFF092ED3D165681F2D01D9FFF7ED
:108040007DFF4FF0A0420123AB40C2F80C35FFF793
:108050008BFF6068FFF77AFFCDE700BFCCAA002056
:10806000C4AA0020F57E020010B5044618B90649DE
:10807000312003F013FBA2682AB1636921682069EB
:1080800098470023A36010BD295003000EB433B5F8
:10809000059D044618B91249422003F0FFFA6369AE
:1080A0001BB90F49432003F0F9FA23681BB90C49A7
:1080B000442003F0F3FA63681BB90949452003F033
:1080C000EDFA3DB102AA06AB42F8043D294620462E
:1080D00000F06EF802B0BDE8304003B0704700BF5A
:1080E00029500300826830B40468551C8560A1548F
:1080F000D0E901329A4202D330BCFFF7B5BF30BCA1
:10810000704700002DE9F84F9946DDE90A4317460C
:10811000824688460A460126BA420FD24E4538BFEB
:108120004E4613F0010B01D164B900240125B9F1C9
:10813000010F1AD909F1FF397D43F8E7B2FBF7F2D5
:108140000136E9E79B070ED5B9F1000F0CBF3025CA
:108150002025A642EAD2013C29465046FFF7C2FF3D
:10816000002CF6D1E1E72025F3E7B8FBF5F39F42B9
:10817000E2D9DFF83890B8FBF5F3504619F8031050
:1081800005FB1388FFF7AEFFB5FBF7F5002DF2D125
:10819000BBF1000F02D00CB1A64201D3BDE8F88FAD
:1081A00020215046013CFFF79DFFF4E76F5003008C
:1081B0002DE9F74F0E469046054620B9AC494FF4DD
:1081C000A27003F06BFA6B6923B9A9494FF4A3704D
:1081D00003F064FA2B6823B9A54940F2471003F075
:1081E0005DFA6B6823B9A2494FF4A47003F056FA04
:1081F000002E00F03A8116F8011B002958D02529DD
:1082000040F0D180002702E047F0010716463246D1
:1082100012F8013B2D2BF7D0302B04D02B2B05D19E
:1082200047F00407F2E747F00207EFE700242A2BA4
:1082300006F101021BD1D8F80030191DC8F8001052
:108240001B6816461C4433782E2B1CD101364FF088
:10825000000A314611F8012BA2F13000092814D888
:108260000A2303FB0A23A3F1300A0E46F1E712F8B2
:10827000013CA3F130010929E5D80A2101FB0434AE
:10828000303C1646D3E74FF0000A324612F8011B85
:1082900001F0FB0068281646F8D0692916D054D89A
:1082A000582970D00ED825297DD03378002BA2D143
:1082B0002B7B002B00F0D980284603B0BDE8F04F9F
:1082C000FFF7D2BE632968D06429EED1D8F8002028
:1082D000111DC8F80010D2F8009089EAE972A2EBEB
:1082E000E9724FF0010B092A61DCD34538BFD34650
:1082F0002CB1B9F1000F01DB790700D5013CBA07B9
:1083000002D5BAF1000F04D0FB0702D4002C54D1DF
:108310000024B9F1000F58DAC9F100092D212846CF
:10832000FFF7E0FE07F00302022A05D1BAF1000FC1
:1083300002D1002C4DD10024CDE9004753460A223A
:1083400049462846FFF7DEFEAFE7732954D016D81A
:108350007029AAD1D8F800301A1DC8F800203021A1
:1083600028461C68FFF7BEFE78212846FFF7BAFEB4
:1083700000220823CDE9003221461022E1E77529C9
:108380002FD0782991D1D8F800100A1DC8F8002004
:10839000CDE90047534610222CE0D8F800301A1DD2
:1083A000C8F8002019782846FFF79CFE7DE70A23CD
:1083B0000BF1010B92FBF3F295E7A345A9D2202123
:1083C0002846013CFFF78EFEA0E77807AAD52B21AF
:1083D000A5E7A345B0D230212846013CFFF782FE35
:1083E000A7E7D8F80010CDE900470A1DC8F800201B
:1083F00053460A220968A4E7D8F800301A1DC8F8C5
:108400000020F907D3F8009012D54F46A7EB090BCF
:1084100017F8011B41B9A345BFF447AF20212846F7
:10842000013CFFF75FFEF6E72846FFF75BFEEDE74E
:10843000B9F1000F17D0484603F0E2FD0746BC42F1
:1084400000D954B909F1FF3919F8011F00293FF487
:108450002CAF2846FFF746FEF6E720212846013CD0
:10846000FFF740FEEBE74F46E9E703B0BDE8F08FCA
:108470007F5003007047000007B5044B0093044A87
:10848000402300F032F803B05DF804FB958402004D
:10849000D5AA00202DE9F84389461446B2B10F4B06
:1084A0000F4E0325002743F00108224609EB070180
:1084B0000020FEF79DFF0744241A48B933782BB1FA
:1084C0004FF47A40C047013D02D13570BDE8F883D2
:1084D00001233370002CE8D1F8E700BFE05003001F
:1084E000D4AA00207047FEF7D5BFF0B595B01C4662
:1084F000164608460D4600F032FD1A9B0D93CDE955
:10850000086400242346082205A928460A948DF809
:108510002C400C9400F04CFD079B0293BDF81830E2
:10852000ADF80C30BDF81A30ADF80E309DF81430AF
:108530008DF8114003F00302012A1DD1BDF814404B
:10854000059EC3F3C203C4F383148DF81030A20058
:1085500008230EA9284600F02BFDC6F3952608AB8C
:108560000093224602AB0EA9304600F09DFB284640
:1085700000F0F9FC15B0F0BD022AF8D1BDF81640A4
:10858000C3F3C203A4098DF810300827082C26462F
:1085900028BF08263B4632460EA9284600F008FDB3
:1085A000A41B08AB02AA31460EA8374400F0E0FB3A
:1085B000002CEBD1DBE7000008B5FFF794FF0421A6
:1085C000064800F0D7FA002803DA0549412003F0F5
:1085D00065F8044B01225A7108BD00BFA061030079
:1085E000F4500300A8980020037813F0040216D07A
:1085F00003F00303012B03D0022B09D001207047A5
:108600000A6800880232C0F3831002440A60F5E76A
:108610000B684288023303EB92130B60EEE71046BF
:10862000704700002DE9F04F89B00646871C08A866
:10863000484C009200230D4600F8113DFFF78AF9DF
:1086400023682B60D4E901231344226801339B1A69
:1086500004F21C4804F5836B04F21449BB421AD39C
:10866000009A0023002A6DD0012262F3010343F037
:10867000040366F389132168A2689DF80F000A407D
:1086800003320F4444F822302760FFF793F90120AA
:1086900009B0BDE8F08F01214046FFF76FFA584658
:1086A000FFF782FA0DF1200A4846FFF77DFA60686D
:1086B0004AF8100DA5682840033004EB80005146AD
:1086C000FFF792FF02460498002AF4D105EA00035E
:1086D00004EB8303811CDB6805930130054004EB48
:1086E000850503F00303012B0491ED6823D0022BD1
:1086F00008D0194901924FF4BF7002F0CFFF019AE0
:10870000154607E0BDF816309B0903332D0C01EB2D
:10871000930304934846FFF74AFA08B1049B636049
:1087200029464046FFF72AFAD4E901231344226878
:1087300001339B1A92E7BDF81430C3F383132D0C59
:108740000B44E6E7022262F3010343F0040366F3FD
:108750009F5390E7E8AB0020635103000B4B0C489C
:10876000FF2210B59A600022C3F81824C3E9002242
:10877000C3F81424012283F8202400F0A9FB044646
:1087800010B9044800F02AFC204610BDE8AB0020D8
:1087900018610300BC51030030B50A4C71B10A4A9C
:1087A0000A49121BD20800239A4201D1002030BD91
:1087B00031F82350854202D00133F5E7034654F8DF
:1087C0003300F4E780600300186103007CA20020FE
:1087D000094B013903EBC000032909D8DFE801F098
:1087E0000A020406042070470079704740797047F8
:1087F000002070470220704780600300034BD3E9DC
:108800000030C31A58425841704700BFE8AB0020FF
:108810002DE9F04387B0FFF7F1FF0646002840F04E
:10882000FC807F4DC5F81804BFF34F8F6868AC68B3
:1088300006AF47F8100D2040033005EB80003946A5
:10884000FFF7D2FE029B18B1D5F81824002A5FD09A
:1088500004EA0302991C013305EB8202234005EB75
:108860008303D268DB68049302F00303022B0392B4
:10887000029162D1BDF80E306A484FEA9318B8F100
:10888000500FC14628BF4FF0500969F38F1309F10B
:108890000801ADF80E3000F033FB0746002800F069
:1088A000A78000F05CFB03A900230822384600F0F3
:1088B00069FB029924EA01060136B600B14535D9B3
:1088C0005FFA89F97EB3F6B2A9EB060921400331BC
:1088D0005FFA89F4B146544E05EB810108234A46FC
:1088E000384600F04FFB36B109F108032246314605
:1088F000384600F047FB029B08F1030803EB98039E
:108900000293D5F81834002B4BD1D5F810445BE016
:108910002A689A4204D86A60304607B0BDE8F083FE
:1089200004EA030088E740493446D7E72140033191
:1089300008234A4605EB8101DAE7012B58D1BDF83F
:108940000C303848C3F38311062928BF062161F390
:10895000891302318900ADF80C3000F0D1FA0746D6
:10896000002845D000F0FBFA0023082203A938466E
:1089700000F008FB0026BDF80C20C2F38312B31CE4
:1089800096424FEA8303BCD202994A1C214003312C
:10899000029205EB81010422384600F0F3FA013619
:1089A000E9E7384600F0DFFAFFF728FF80F0010022
:1089B000C6B2B1E7E3685B7923B1236839461B6827
:1089C00020469847E3681C68002CF3D1384600F035
:1089D000CAFA06A800F8114DFEF7BCFFD5F8183406
:1089E0000BB9029B6B609DF80700FEF7E3FFDBE726
:1089F000D5F8104454B90D4B0D480E49C01AC008A3
:108A0000000440F0020000F083F8CDE72368204620
:108A10009B689847E3681C68ECE700267CE700BF8A
:108A2000E8AB002018610300F4AB00208060030075
:108A3000D8600300C85103002DE9F74F2F4C804642
:108A40000F46914601A9012218469B46D4F808A07A
:108A5000FFF7E8FD00283DD0019D0026A91C5E45DA
:108A600006EB010240D100212548FFF767F880F3AB
:108A7000100B244B244A4FEA18499B1AB9EBD30F29
:108A800004D3224940F2A31002F008FE6B1C03EA53
:108A90000A0304EB830349EA0B42DA6005EA0A039E
:108AA0000333012114F8232068F3C50204F82320BE
:108AB00034F8232066F3891224F8232054F8232065
:108AC00067F39F2244F8232061F301026FF38202CF
:108AD00004F8232094F820341BB1FFF799FE0028F6
:108AE000FBD103B0BDE8F08F0AEA020204EB820278
:108AF00059F82630D3600136B1E700BFE8AB00205B
:108B000004B000201861030080600300635103007B
:108B100000231A46FFF790BF13B502AC012344F8B7
:108B2000042D2246FFF788FF02B010BD07B5CDE93E
:108B3000002302236A46FFF77FFF03B05DF804FBC2
:108B40001FB5CDE90123069B039301AA0323FFF779
:108B500073FF05B05DF804FB1FB5CDE90023069B4C
:108B60000293079B03936A460423FFF765FF05B052
:108B70005DF804FB30B5134AD2F8104400232146B7
:108B800051B9C4682371D2F810445CB9C2F810041A
:108B9000C2681160184630BDC9680D799D420AD07F
:108BA0000968EDE7E468C16824680C60D2F8102415
:108BB000D2681060EEE701330A2BE0D14FF0FF33AB
:108BC000E8E700BFE8AB002038B5094A0123D2F836
:108BD000104482F820341D4604B938BDE3685D7145
:108BE000236820465B689847E3681C68F4E700BF89
:108BF000E8AB002010B5037A052B0C460FD0437A62
:108C000023B1084A08492046FFF740FA07492046A1
:108C1000FFF73CFA2046BDE81040FFF725BA002ACE
:108C2000F8D0F3E713520300185203003852030040
:108C300073B5C38804460D4633B1144A00921449F3
:108C4000144A2846FFF722FA217A05291CD0637AB4
:108C50004BB1A088FFF7BCFD0F4B104953F8202003
:108C60002846FFF713FA227A0D4BA08853F82260AA
:108C70000021FFF791FD0B4903463246284602B01A
:108C8000BDE87040FFF702BA02B070BD1352030096
:108C9000235203001B520300E0510300185203004B
:108CA000485203003B5203002DE9F04385B01F46B4
:108CB0000C9D002306460C46904695F80C902B73AD
:108CC00029463846FFF7B4FFB8F1060F09D8DFE8A8
:108CD00008F00412181F2833400031462846FFF7D9
:108CE000D5F9002229463846FFF784FF85F80C9015
:108CF00005B0BDE8F083226831462846FFF7C6F983
:108D0000EFE7D4E9002331462846FFF7BFF9E8E74B
:108D1000A36800933146D4E900232846FFF7B6F94B
:108D2000DFE7E3680193A36800933146D4E90023A9
:108D30002846FFF7ABF9D4E723690293E368019370
:108D4000A36800933146D4E900232846FFF79EF933
:108D5000C7E76369039323690293E3680193A368F8
:108D600000933146D4E900232846FFF78FF9B8E78E
:108D700008292DE9F84F80460E4617461C4635D87F
:108D8000002593F80C901D7319461046FFF750FF0D
:108D9000DFF88CA0DFF88CB0AE4229D918F8052096
:108DA00059462046FFF772F90135082DF4D11A49CA
:108DB000DFF874B02046FFF769F94FF0000A564516
:108DC00024D918F80A507E2D17D92E22594620464C
:108DD000FFF75CF90AF1010ABAF1080FEFD101229D
:108DE00021463846FFF706FF84F80C90BDE8F88F5F
:108DF00051462046FFF74AF9D6E702F027FE2844FD
:108E0000427812F0970FE0D02A46DFE70349204668
:108E1000FFF73CF9DEE700BF0E5203000C520300DF
:108E20000A52030004520300105203002DE9F74FC9
:108E300099469DF83030019388461746054618B983
:108E40002249B62002F02AFCEA8895F805B00BFB0F
:108E500002FBABF1040BCB4503D81C49C42002F044
:108E60001DFC3E68B5F806A006EB09025A4509F15B
:108E7000040188BFABEB0906B1FBFAF43E600AFBC4
:108E8000141144B9AAEB0107B74228BF37462EB9DF
:108E900003B0BDE8F08F2D68013CF2E7019A043180
:108EA00008EB0403681872B101463A461846F61BEF
:108EB00002F022FEB2453C442D6857464FF00001B7
:108EC00028BF3746E3E73A461946F0E7A7520300C2
:108ED000FEF770BEF8B546790146721E05460023BE
:108EE00093422D6803D30024A64202D8F8BD013373
:108EF000F6E70F682846FEF7C9FE01343946F3E766
:108F00002DE9F843CD1C068A0746FEF791FE043E84
:108F100035440446B5FBF6F5F0B14FF48073EDB27D
:108F20008380C680013D076081464FF00008A84558
:108F300012D23846FEF77CFE064648B1637901330B
:108F4000637108F10108C9F8000007608146EEE787
:108F50002046FFF7BFFF34462046BDE8F8830121D5
:108F60000430FEF70BBE10B5012104460430FEF7B5
:108F700010FE10F0FF0F04D12046BDE81040FFF7AF
:108F8000A9BF10BD30B585B0144604AA002542F82B
:108F9000044D0095FFF74AFF039BA34203D003490A
:108FA000F62002F07BFB05B030BD00BFA7520300E6
:108FB00030B585B0144604AA012542F8044D009549
:108FC000FFF734FF039BA34204D003494FF48070A2
:108FD00002F064FB05B030BDA75203008268002395
:108FE000936082681361826853618268D36082688B
:108FF0005360826813607047026813685268934236
:1090000091BFD01A80680130801888BFC01A70479D
:1090100038B50C46054618B90449772002F03EFBE6
:10902000AB68A3428CBF601C002038BD0053030016
:1090300038B5044618B907498A2002F02FFB236887
:1090400020461D685968FFF7E3FF431B584258410B
:1090500038BD00BF005303002DE9F3410D4604461F
:1090600018B92E49952002F019FB1DB92B499620FD
:1090700002F014FB02A8002300F8013DFEF76AFC91
:109080002046FFF7D5FF804610B1237C002B3BD153
:10909000276820467E687968FFF7BAFF7860B8F1E4
:1090A000000F05D0276820463968FFF7B1FF386008
:1090B000E2686068531E072B20D8DFE803F0041035
:1090C0001F141F1F1F182B7883552046FFF794FF8E
:1090D00023689A68824200D29860002415E02B88A9
:1090E00020F81630F1E72B6840F82630EDE7D5E997
:1090F000002300EBC600C0E90023E6E7294606FB93
:10910000020002F0F9FCE0E704249DF80700FEF7F6
:1091100051FC204602B0BDE8F08100BF00530300BF
:1091200010B5044620B9064940F20A2002F0B6FA0A
:10913000236818685B68C31A5842584110BD00BFC5
:10914000005303002DE9F3410C469046054618B93B
:109150002549D92002F0A2FA1CB92349DA2002F0ED
:109160009DFA02A8002300F8013DFEF7F3FB284614
:10917000FFF7D6FF002834D12F683E68B8F1000F02
:1091800004D139682846FFF743FF3860EA68696808
:10919000531E072B1FD8DFE803F0040F1E131E1EFB
:1091A0001E178B5D237000249DF80700FEF702FC5C
:1091B000204602B0BDE8F08131F816302380F2E796
:1091C00051F826302360EEE701EBC601D1E9002318
:1091D000C4E90023E7E706FB0211204602F08CFCFD
:1091E000E1E70524E0E700BF0053030038B50D4672
:1091F000044618B90849502002F050FA1DB9064932
:10920000512002F04BFA25602B6863606A68934234
:1092100004BF0023636038BD4E53030010B50446FD
:1092200018B90B49632002F039FA23681BB90849C1
:10923000642002F033FA636843B1226891680B44FA
:1092400063605268934204BF0023636010BD00BF97
:109250004E5303000D4930B5A1F594720225914299
:1092600001D800200EE08B1ADB1093FBF5F302EB24
:10927000C30452F83330834205D802D204F1080205
:10928000EDE7606830BD2146E9E700BFF454030014
:1092900008B5FFF7DFFF024B002808BF184608BDDE
:1092A000B7530300C0B2002348700B707047000032
:1092B00070B50D46044618B90849712002F0EEF960
:1092C00023681A6812683AB11A681B6851681B68EB
:1092D0002846BDE87040184770BD00BFAE58030077
:1092E000F0B5044687B018B92D49372002F0D6F9F9
:1092F0002368187E1A68C0B207B296684FEAC70C96
:1093000006EB0C0256F8376051791779927912F012
:10931000010F4FEA510501F0010139D0002937D181
:10932000D3F800E09EF80CE00130704530DAD3F855
:1093300000E00CF10800DEF808C084449CF805C089
:10934000B5EB5C0F24D11A6891680A1851F800C077
:10935000187E517992F804E09279013011F0010FF2
:109360004FEA4212C0B20CBF0321022102F02002D8
:1093700018768DF8041004F10C0001A98DF8055041
:10938000CDE9027ECDE9046C01F0DEFA07B0F0BD54
:1093900052014FF0000C02F02002E646E9E700BF60
:1093A000AE5803002DE9F74F0E46044618B9294977
:1093B000872002F073F92568DFF89CB04FF00008B1
:1093C00002A800F8018DFEF7C5FA16B923681B68DC
:1093D00043B9002229466068FFF7B4FE90B3C5F890
:1093E000008000269DF80700FEF7E4FA7EB32B68A4
:1093F0001B694BBB2F1D10223946686902F04AFBDE
:10940000A8B104F10C0A504604F1080901F040FA31
:1094100023465A4639464846FEF7AEFD18B10D4977
:10942000B42002F03BF9504601F0E8F96F6185F88D
:1094300018802046FFF754FF014640B12046FFF751
:1094400037FFBDE70126CDE72B681F69D3E703B0DF
:10945000BDE8F08FAE5803005D94020038B50C46AD
:10946000054618B91249D22002F018F923681B6882
:109470001BB90F49D82002F011F9297871B9226877
:10948000137E10680133007BDBB2984207D9137654
:109490002046FFF725FF014608B938BD03212046C5
:1094A000FFF706FF20460121BDE83840FFF77ABFED
:1094B000AE580300F8B50E46044620B919494FF4DA
:1094C000847002F0EBF8636823B9164940F2091082
:1094D00002F0E4F863689B6823B912494FF4857081
:1094E00002F0DCF826B90F4940F20B1002F0D6F872
:1094F00023460D4A314604F10800FEF73DFD0746BC
:1095000070B904F10C0001F079F923681F6096E846
:109510000F002568043585E80F0023681A1D5A617D
:109520003846F8BDAE5803005D94020037B50546D5
:10953000019120B9144940F22D1002F0AFF8019BBF
:1095400023B911494FF4977002F0A8F8019B9B686A
:1095500023B90D4940F22F1002F0A0F8019B1B7BAC
:1095600023B909494FF4987002F098F801A9686886
:10957000FFF772FD044618B901462846FFF712FFAF
:10958000204603B030BD00BFAE5803002DE9F041C6
:1095900086B0884617461E460C9C054620B91949D8
:1095A00040F24F1002F07AF827B916494FF4A8702C
:1095B00002F074F826B9134940F2511002F06EF827
:1095C0000023ADF8003001238DF8003001A90E4BC7
:1095D00001932846CDF808D003978DF81060CDF898
:1095E0001480FFF7A3FF20B106B0BDE8F08104B1FD
:1095F000A0479DF80030002BF9D19DF80100C0B2C2
:10960000F2E700BFAE580300A592020010B5044671
:1096100018B90749A02002F041F8064B187920B983
:1096200001221C601A71587110BD8520FCE700BF33
:1096300002590300A4B0002008B50B4B1B791BB9DD
:109640000A49B92002F02AF8094B1A68D2075FBF0D
:10965000E02283F8002301221A604FF080430122A8
:10966000C3F8182508BD00BFA4B0002002590300AC
:1096700000E100E008B5084B1B791BB90749F3204E
:1096800002F00CF8064B01221A604FF08042D2F82B
:109690001834DB03FBD408BDA4B00020025903003A
:1096A0000C00004007B5154B1A687AB100221A6009
:1096B0001B680093009B4FF080430122C3F80823EE
:1096C0000F4B587910B95A711B6898470D4B1A689F
:1096D00082B100221A601B680193019B4FF0804306
:1096E0000222C3F80823064B1B68012003B05DF873
:1096F00004EB184703B05DF804FB00BF0001004015
:10970000A4B000200401004000F1804000F5C040FA
:10971000002382B0036003680193019B02B070478D
:10972000054B4FF0FF32072843F8202084BF1B1859
:1097300083F84820704700BFACB0002002494FF4C6
:10974000F37001F0ABBF00BFE64F03001F2838B530
:1097500004460D4601D9FFF7F1FFA00000F1A0403B
:10976000D0F8003723F44033C0F80037D0F8003782
:1097700043EA0543C0F8003738BD000010B5164C69
:1097800094F8583033BBFF21E2180133202B82F8C4
:109790003010F9D10021C8B2FFF7C2FF01310C2906
:1097A000F9D1042200210D4802F040FA0C4BE022CE
:1097B00083F8062340221A604FF4BE70FFF7A4FF1F
:1097C000084B4FF00042C3F80423012384F85830BB
:1097D000002010BD0820FCE7ACB0002000B1002044
:1097E00000E100E000600040034B93F858000030B7
:1097F00018BF0120704700BFACB000201F2870B513
:1098000004460D4604D941494FF4987001F046FFD3
:109810003F4E96F85830012B04D03C4940F23110AD
:1098200001F03CFF25B939494FF4997001F036FF3A
:10983000331993F93020013265D1AA78002A54D027
:10984000002356F8231001314FEA830248D1311921
:1098500002F1804281F83030002102F5C04246F822
:109860002310D2F810052B78697820F498101B0487
:10987000090520F4F85001F4801103F44033C2F8D4
:1098800010050B432102D2F8100501F4F8510B43E7
:109890000343C2F810356B78012B4FF0010528D136
:1098A0001F2C01D9FFF74AFF4FF0A043A540C3F892
:1098B00008551F2C01D9FFF741FF04F5E0724FF066
:1098C000A043032143F82210E2081249012304F0C7
:1098D000070403FA04F48B5C1C438C54002003E05F
:1098E0000133082BADD1042070BDFE2283F8302057
:1098F000D1E71F2C01D9FFF721FF4FF0A043A5406E
:10990000C3F80C55D5E70820EEE700BF5559030012
:10991000ACB0002000B100201F2838B5054604D99E
:1099200012494FF4BE7001F0B9FE114C621992F960
:109930003020013204D10D4940F27D1001F0AEFE1D
:10994000631993F83030072B04D808494FF4BF70DF
:1099500001F0A4FE1F2D01D9FFF7F0FE012303FA49
:1099600005F54FF0A043C3F8085538BD555903001D
:10997000ACB000201F2838B5054604D912494FF471
:10998000C37001F08BFE114C621992F93020013244
:1099900004D10D4940F2871001F080FE631993F85D
:1099A0003030072B04D808494FF4C47001F076FE1C
:1099B0001F2D01D9FFF7C2FE012303FA05F54FF071
:1099C000A043C3F80C5538BD55590300ACB0002076
:1099D0002DE9F04F87B000245B4A5C4E5C4D039448
:1099E00001211368A2F5C040012B80B206D1D6F840
:1099F00004330B4202D0FFF787FE0C430432AA4225
:109A00004FEA4101EDD1534B1B68012B0AD14FF4B2
:109A1000BE70FFF779FE4FF0A04344F00044D3F846
:109A20001035039314F0FF0F1AD04B4F0025012679
:109A3000344210D0AB0003F1804303F5C043D3F8A8
:109A40001005D3F8101557F82530C0F30420C1F3E2
:109A5000014103B198470135082D4FEA4606E7D189
:109A6000002C6EDA00224FF0FF33CDE904233A4F89
:109A70004FF0000A56464FF0A04907EB0A0393F94E
:109A80005040631C46D0E4B2012224F0C00504F02B
:109A9000070B02FA0BFBEB0806AAD11811F8042CED
:109AA00012EA0B0F36D07A19A40992F9302057F830
:109AB0002280B8F1000F0AD1032C2BD10DF1100C2C
:109AC0001CF8030040EA0B000CF8030001E0032C33
:109AD000F4D01F2D03D90191FFF730FE019911F841
:109AE0000C1C05F5E07311EA0B0F59F82330C3F392
:109AF000014320D0022B0DD1032C05D1214628464D
:109B0000FFF724FE0136F6B2B8F1000F02D021466D
:109B10002846C0470AF1010ABAF1040FADD186B157
:109B20004FF0A043039AD3F810359A4209D003931B
:109B3000049B05939CE7032BECD1032CE4D1022179
:109B4000DDE707B0BDE8F08F006100400060004035
:109B5000206100407C610040ACB0002010B5054C95
:109B600022681AB90449512001F098FD2368BDE824
:109B70001040184708B10020AE59030037B50D4614
:109B800030B90F49772001F089FD002003B030BDC6
:109B90000C4B9842F9D102A8002300F8013DFDF7D3
:109BA000D9FE094B1C7914B901221D601A719DF868
:109BB0000700FDF7FFFE002CE7D01120E6E700BF0D
:109BC000AE5903000020004008B1002018B9064932
:109BD0009B2001F063BD054B984201BF044B00225E
:109BE0001A601A71704700BFAE5903000020004090
:109BF00008B100200023435082B043580193019BD9
:109C000002B0704770B5D0F8103105460C4653B11C
:109C10004FF48871FFF7EEFF63795A0703D5236885
:109C20000BB101209847D5F814315BB14FF48A711C
:109C30002846FFF7DFFF63791B0703D523680BB1C5
:109C400002209847D5F81C315BB128464FF48E713D
:109C5000FFF7D0FF607910F0100002D1236803B144
:109C60009847D5F8043163B14FF482712846FFF765
:109C7000C1FF0123237123681BB10320BDE870409D
:109C8000184770BD01490248FFF7BCBF10B1002062
:109C900000C0014001490248FFF7B4BF18B10020DD
:109CA0000010024001490248FFF7ACBF20B100207C
:109CB0000020024000F1804000F5E040002382B027
:109CC000036003680193019B02B07047F0B5514BEC
:109CD000514C1B6885B0DBB14FF4827094F82E2094
:109CE000FFF7E8FF12B194F82F30A3B16368029335
:109CF0002389ADF80C30E36800218DF80410002BA7
:109D000044D12374236801A89847002384F82F3096
:109D100094F82E3003B3414B1B68EBB14FF48070C5
:109D2000FFF7C8FF94F82D20638B91B28B4238D98E
:109D30005B1A21899BB26383CB1A616801EB4301F3
:109D4000374BC3F82C16C3F830264FF48270FFF758
:109D5000B1FF344B01221A60334B1B685BB14FF4E7
:109D60008870FFF7A7FF002304A82374022300F8DC
:109D70000C3D236898472D4B1B6813B34FF48A7032
:109D8000FFF798FF0023237405B0F0BD208B60839C
:109D900063602081E160002AB4D1214B01221A6066
:109DA000B0E7D2D1E368012184F82F103BB1002144
:109DB00061831B49C1F82C36C1F83026C5E763839F
:109DC000C3E766694FF000470125002EDCD0B6FAE4
:109DD00086F227FA02F34632920026EA030602F1DF
:109DE000804303F5E0431B68002BEED01046FFF7DD
:109DF00061FFA2F58C72D30882F00402C2F38002E4
:109E00008DF808308DF804508DF80920236801A8DA
:109E10009847DAE70471004028B100200071004043
:109E20000070004004700040107100401471004048
:109E300002494FF4F37001F031BC00BFE64F03005C
:109E40001F2810B5044601D9FFF7F2FF012303FADA
:109E500004F44FF0A043C3F80C4510BD1F2810B503
:109E6000044601D9FFF7E4FF012303FA04F44FF09D
:109E7000A043C3F8084510BD13B54FF04023D3F8F5
:109E800018310BB3114B124C00221A601B6801935E
:109E9000019B236823B90F494FF4277001F0FEFBA3
:109EA000E07FFF2803D0A37F5BB1FFF7C9FF00234A
:109EB00063772372D4E90031074802B0BDE810404F
:109EC0001847FFF7CBFFF2E702B010BD1841004082
:109ED00058B100200B5A030060B100202DE9F74F64
:109EE0008146CDE900230C4619B97D49AD2001F02A
:109EF000D5FB99F804607B4F242303FB06FB07EB9B
:109F00000B0A9AF81C10002940F0E480D9F80050A0
:109F100075492846FFF732FE8046002840F0DD8074
:109F2000009B47F80B30019BCAF80430237B207854
:109F3000012B00F2BD80FFF783FF94F800A0BAF177
:109F40001F0F01D9FFF774FF0AF5E07A4FF0A04325
:109F5000012243F82A2094F801A0BAF1FF0F00F083
:109F6000AA805046FFF76CFFBAF11F0FD34601D904
:109F7000FFF75EFF0AF5E07A4FF0A043032243F8B3
:109F80002A20A378FF2B00F099801F2B9A4603D933
:109F90000093FFF74DFF009B03F5E0734FF0A042E5
:109FA000042142F82310242303FB0673A27883F8CC
:109FB0002020E278DA77E078FF2817D02379002B89
:109FC0007FD0FFF73DFFE3781F2B03D90093FFF706
:109FD0002FFF009B03F5E0734FF0A042032142F8EE
:109FE0002310242303FB067322799A772378C5F87C
:109FF0000835C5F80CB5C5F810A5A368C5F8243513
:10A00000637B227B003318BF0123022A5CD0032A22
:10A010005DD0012A01D143F00203C5F85435A3797C
:10A02000C5F8C03524237343FB5813B14022C5F84B
:10A0300004230722C5F800257BB3D9F800306479E2
:10A040004FEA133AA31E012B4FFA8AF506D9631F74
:10A05000022B03D925496B2001F020FB002DACBF5A
:10A0600005F16043224B4FEA4414B8BF0AF00F0ACF
:10A07000E4B2AABF03F5614303F80A4083F8004342
:10A08000D9F800301B0B5AB2012103F01F0301FA6B
:10A0900003F35209174941F82230242303FB0676C3
:10A0A0000023737701233377404603B0BDE8F08F78
:10A0B000FFF7D4FE41E74FF0FF3B62E74FF0FF3A76
:10A0C00071E7FFF7CBFE7EE743F00403A5E743F01B
:10A0D0000603A2E74FF00808E6E74FF01108E3E7B0
:10A0E0000B5A030058B10020799E0200575A030012
:10A0F00014ED00E000E100E02DE9F341584F06794E
:10A10000242303FB067380461B7F0D46144623B9A8
:10A11000544940F2322001F0C1FA2B6833B96B6820
:10A1200023B1504940F2332001F0B8FAAB6833B99B
:10A13000EB6823B14B494FF40D7001F0AFFA98F87A
:10A1400004302BB9EB68FF2B02D86B68FF2B04D9C6
:10A15000444940F2372001F0A1FA24237343FA184E
:10A16000517F002979D1FB5823B114F0140F04BF9B
:10A170000123537795E80F004FF0240C0CFB067C6D
:10A180000CF10C0E8EE80F009CF81F00FF2804D085
:10A190009CF81E30C3B1FFF761FE2A6822B102F0BD
:10A1A0006043B3F1005F06D1AB6883B103F0604355
:10A1B000B3F1005F0BD0242303FB067600237377F3
:10A1C000102002B0BDE8F081FFF73AFEE5E7D8F8CD
:10A1D00000306968C3F84425C3F84815D5E9021270
:10A1E000C3F83415C3F838250022C3F81821D3F872
:10A1F00018210192019A14F0010218BF0122C3F83C
:10A20000502514F0020218BF0122C3F8402522078E
:10A210005CBF01221A6124227243BA5892B9D3F862
:10A220001821002AFBD0242303FB0676F07FFF28A9
:10A2300003D0B47F1CB1FFF703FE0020C1E7FFF796
:10A240000DFEFAE714F004004FF0400202D0C3F80C
:10A250000823F2E7C3F80423B3E71120B1E700BFF6
:10A2600058B100200B5A03002DE9F743002406469D
:10A270000F4600F5A0754FF48038A14604F1500058
:10A280002B68800080B26BB1D6F8043308FA04F270
:10A290001A4207D0C5F800902B680193019BD7E9BB
:10A2A000003198470134042C05F10405E6D103B0D0
:10A2B000BDE8F0832DE9F347544B07791546026852
:10A2C0009A4204460E4603D15149482001F0E6F96E
:10A2D0001EB94F494A2001F0E1F91DB94C494B2004
:10A2E00001F0DCF94B4A0C2303FB072390461B7A51
:10A2F000002B40F089802368444A93420FD002F536
:10A30000805293420BD002F58052934207D002F55F
:10A310008032934203D002F58052934202D1B37847
:10A32000032B03D93A495F2001F0B8F90C237B4392
:10A3300008EB030248F80350736853600022154687
:10A3400060792168D3B2984202F1010254D8F578BD
:10A35000AB1E4FEA113A012B4FFA8AF906D96B1F4F
:10A36000022B03D92C496B2001F098F9B9F1000FA9
:10A37000AEBF09F160430AF00F03284A28484FEAAC
:10A380004515EDB2AABF03F56143D55483F80053D8
:10A3900023681B0B59B24909012203F01F0302FA7B
:10A3A00003F340F8213020687378D0F8041503F0E7
:10A3B000030321F003010B43C0F804352068B37890
:10A3C000D0F8081503F0030321F003010B43C0F894
:10A3D000083520683378D0F8101503F00F0321F00A
:10A3E0000F010B43C0F810350C2303FB0787002037
:10A3F0003A7202B0BDE8F0879B0003F5A073CD5020
:10A40000CB580193019B9BE70820F2E700800040B6
:10A41000A05A03007CB10020575A030014ED00E05D
:10A4200000E100E038B50B4C02790C2101FB02423F
:10A430000546127A012A03D007498F2001F02EF930
:10A440002B6801221A602B790C2202FB03430222A3
:10A450001A7238BD7CB10020A05A030038B50A4CEE
:10A4600002790C2101FB02420546127A1AB907490A
:10A470009F2001F013F92B790C2202FB0343187A79
:10A48000831E5842584138BD7CB10020A05A0300B9
:10A4900010B5084A03790C2101FB032304461B7AFB
:10A4A0001BB90549B32001F0F9F823680122DA60ED
:10A4B00010BD00BF7CB10020A05A030038B5104A7F
:10A4C00003790C460C2101FB032305461B7A1BB9BB
:10A4D0000C49C22001F0E2F86B79A34203D8094984
:10A4E000C32001F0DBF804F110039B00DBB22A6803
:10A4F0000121D15004F5A8742B6853F8240038BD0D
:10A500007CB10020A05A030001490248FFF7ACBE0D
:10A510007CB100200080004001490248FFF7A4BE42
:10A5200088B10020009000400023435082B043587F
:10A530000193019B02B07047F0B5504C236887B07F
:10A5400023B94F4940F2452001F0A8F84D4AD2F80E
:10A5500024311546A3B14FF492711046FFF7E4FF82
:10A56000D2F8043163B9A368C2F808330223A360A8
:10A57000A368C2F8043301231362536107B0F0BD2E
:10A58000D5F80431002B49D03F4F3E484FF482713B
:10A59000FFF7CAFF0FCF01AE0FC63B68336094F8D8
:10A5A0002E307BB1237B012B0CBFD5F83C25D5F891
:10A5B0004C250292022B334B0CBFD3F83C35D3F819
:10A5C0004C3503934FF4B0712E48FFF7ADFF4FF4B5
:10A5D000AE712C48FFF7A8FF94F8303013B194F80F
:10A5E0002E303BB1274B0022C3F80022A260274A3D
:10A5F000C3F80823234AD2F8C434C2F8C4349A07F3
:10A6000036D501238DF8003094F830300BB984F83A
:10A610002F30D4E9003168469847AFE74FF4A47172
:10A620001848FFF781FF237B83B9174F0FCF01AE87
:10A630000FC63B68336094F83030002BDAD1C5F890
:10A640000032A360114BC5F80833D3E74FF4007311
:10A65000C5F8003240F20223A36003F1CE73C5F8BF
:10A660000833A368C5F804330123AB602B6285E788
:10A6700013F0040318BF0223C4E700BF94B1002005
:10A68000F35A030000300040A0B1002002029C01F8
:10A690002DE9F74F8046934601930C4619B950496E
:10A6A000A92000F0FBFFD4E900239A4203D14C49D2
:10A6B000AA2000F0F3FF98F804704A4E342303FBFD
:10A6C00007FA06EB0A0999F82D20002A40F083804A
:10A6D0004549D8F80000FFF751FA054600287CD11B
:10A6E00046F80AB0019BC9F80800C9F8043089F897
:10A6F000300089F82F00637B89F83230D4F800905D
:10A70000B9F11F0F04D939494FF4F37000F0C6FFB7
:10A710004FF0A04309F5E07940F20C6243F829209C
:10A72000D4F804A0BAF11F0F994604D92F494FF469
:10A73000F37000F0B3FF0AF5E07A40F20C6349F8D9
:10A740002A30D4E90012D8F80030C3F80815C3F84D
:10A750000C25A268C3F8242534237B43F35883B324
:10A76000D8F80030247B4FEA133AA31E012B4FFA8E
:10A770008AF906D9631F022B03D91D496B2000F00B
:10A780008DFFB9F1000FACBF09F16043194B4FEADF
:10A790004414B8BF0AF00F0AE4B2AABF03F561433C
:10A7A00003F80A4083F80043D8F800301B0B5AB274
:10A7B000012103F01F0301FA03F352090E4941F886
:10A7C0002230342303FB0766012386F82D30284608
:10A7D00003B0BDE8F08F0825F9E71125F7E700BFC2
:10A7E000F35A030094B1002039A50200E64F03009C
:10A7F000575A030014ED00E000E100E070B50D4D84
:10A800000479342202FB0452064692F82D20012AD4
:10A8100004D0094940F2111000F040FF33680622CD
:10A82000C3F80025342303FB0454022384F82D309D
:10A8300070BD00BF94B10020F35A030070B5114DF4
:10A840000479342202FB0452064692F82D2022B9E4
:10A850000D494FF48E7000F021FF3422336802FB63
:10A8600004540021094AA160C3F80823D3F8002248
:10A8700022F4BC52C3F80022C3F80015012384F867
:10A880002D3070BD94B10020F35A030002029C01E8
:10A89000F8B5294D0479342303FB0453064693F895
:10A8A0002D301BB92549F82000F0F8FE342363430E
:10A8B000EB5863B133681B0B5AB20121520903F004
:10A8C0001F0301FA03F320321D4941F822303046BC
:10A8D000FFF7B4FF3068FFF779F9342303FB045323
:10A8E00093F8323003BB3368D3F808751F2F04D9AF
:10A8F00014494FF4F37000F0D1FE4FF0A04307F578
:10A90000E077022243F827203268D2F80C751F2F17
:10A910001E4604D90B494FF4F37000F0BFFE07F553
:10A92000E077022346F82730342303FB0454002346
:10A9300084F82D30F8BD00BF94B10020F35A030015
:10A9400000E100E0E64F03002DE9F84303790446F7
:10A950000D4690462BB94B68FF2B02D88B68FF2B16
:10A9600004D9B6494FF4F87000F098FE2779B44E38
:10A9700034237B43F3583BB92B78022B04D1AF49E6
:10A980004FF4FB7000F08AFE34237B43F3583BB94D
:10A990002B78032B04D1A94940F2F71000F07EFE7A
:10A9A000EB6803F06043B3F1005F03D01022104660
:10A9B000BDE8F8832468A34BC4F808334FF0340C87
:10A9C0000CFB076C9CF82F302BB1DCF80830C4F876
:10A9D00004331122EBE718F0140F0CBF01230023FE
:10A9E0008CF82F30A946B9E80F000CF10C0EAEE838
:10A9F0000F00D9F80030CEF80030C8F300138CF8FF
:10AA000030306B78C4F888354FF482712046FFF7F8
:10AA10008BFD4FF49271FFF787FD18F0010318BF0B
:10AA20000123C4F8503518F0020318BF0123C4F8FD
:10AA300040352B78032B00F2E080DFE803F0A0C85C
:10AA4000810218F0100F04D07C4940F2711000F020
:10AA500025FE18F0080F04D078494FF4B97000F0C3
:10AA60001DFE18F0040F04D0744940F2731000F07A
:10AA700015FE2B6903F06043B3F1005F96D14FF4EC
:10AA80008073C4F800326B68EA68C4F84425204635
:10AA9000C4F848354FF4A871FFF746FD4FF4B07184
:10AAA000FFF742FD4FF4A471FFF73EFD012323623F
:10AAB000A360D4F85031002BFBD04FF4A87120468E
:10AAC000FFF732FDAB682A69C4F84425C4F848355D
:10AAD000342303FB07635C4A9A604FF482730821B6
:10AAE000002218F0080F04D1287803281CBF012089
:10AAF00060503421794370187158002940F08280E9
:10AB0000012523441968002900F089803421D4F8F4
:10AB1000C434C4F8C43401FB0766002186F82F1042
:10AB2000002B3FF444AF13F0020F48F2012208BF9C
:10AB3000032213F0040F48F2022318BF1A4636E727
:10AB40006B68EA68C4F84425C4F848352B6903F0FB
:10AB50006042B2F1005F7FF429AFAA68C4F83435CF
:10AB60004FF48453C4F83825C4F80032342303FB6F
:10AB7000076340F202229A6001232362ADE76B680B
:10AB8000EA68C4F8442518F0200FC4F848354FF09F
:10AB9000340310D003FB07634FF48072C4F8002223
:10ABA000294A9A604FF4A471FFF7BEFC4FF4A473D6
:10ABB0000122226293E74FF4007203FB0763C4F89B
:10ABC000002240F202229A604FF48273F0E76B6831
:10ABD000EA68C4F83425C4F838354FF48053C4F813
:10ABE0000032342303FB076340F202229A60012300
:10ABF000236200214FF4827372E74FF482730821BD
:10AC000007226EE718F0040F1CBF4FF40073836037
:10AC1000342303FB0766B368C4F80433C7E6D4F8EB
:10AC2000241100293FF46EAF4FF492712046FFF7D4
:10AC30007BFC25624FF48273656162E7F35A03007F
:10AC400094B1002002029C010002040070B5C0B162
:10AC50004AB116880024B44203D305196D789D4289
:10AC600008D0A14201D800200BE0055D01352C443D
:10AC7000A4B2F0E7A142F6D9A31C1380005D01380D
:10AC800080B270BD37B502AC002324F8023D1346F4
:10AC900022460546FFF7DAFF10B1BDF8060028444A
:10ACA00003B030BD72DF704773DF704738B50122E3
:10ACB00004460D46B0F83812D0F83402FFF7E2FF30
:10ACC00000B1057004F13C0204F50D7104F154006B
:10ACD000BDE83840FFF7E6BFF8B5077804460D46F3
:10ACE000002F00F0058100F24A26A1700722002102
:10ACF000304600F09BFFE38813B1A378012B04D00A
:10AD0000E3794BB1A378022B06D1636BA3B1012287
:10AD100084F8512208209847334604F5147113F83B
:10AD2000012F12B99942FAD117466B1E032B53D843
:10AD3000DFE803F0050B0F1284F85132ECE7A3793A
:10AD40001BB194F8243003B95FB9E3790BB1002F3C
:10AD500044D1237A002B43D1637A002B0CBF00250A
:10AD60000425636BA570002B3CD0033D012D39D821
:10AD70006279002A36D094F85222002A32D184F81F
:10AD80005422012284F853220720984704F13C05FD
:10AD900018220021284600F049FFE36A94F8242095
:10ADA0000121581E884288BF0B4684F83C1084F865
:10ADB000513032B1884296BFA36A84F8521084F8A9
:10ADC0005230A178002384F8503004291BD8DFE8E2
:10ADD00001F0770D223559000025C2E70225C0E7B2
:10ADE0000325BEE7002384F85332CFE7C4F844328A
:10ADF000C4E910630223012284F83C30802384F8E4
:10AE00003120A4F84830A378002B5CD1636B002B71
:10AE10006AD1002067E0022384F8313062B1072351
:10AE200084F83C302369A4F848300023C4F8443245
:10AE3000E36826646364E6E70323F1E76369636418
:10AE4000A369A4F8483012B1062384F83C30637932
:10AE5000B3B194F852329BB994F8543283B10223BF
:10AE600084F8503004212046FFF720FF0028CAD183
:10AE7000052384F8313004F50D73C4F84432C2E779
:10AE80000323F6E7E3696364236AA4F8483012B148
:10AE9000062384F83C30637983B194F852326BB95D
:10AEA00094F8543253B1022384F8503004212046E0
:10AEB000FFF7FCFE0028A6D10623DAE70423D8E733
:10AEC00084F831309FE72A46D4F8441204F1540044
:10AED000FFF7E8FE38B994F8301094F85400FFF703
:10AEE000E3FE002892D0F8BD94F83100984790E72F
:10AEF0000820F8E710B50388112B0C460AD0262B42
:10AF00001FD0102B05D1C37B012B02D18388A1F860
:10AF1000483210BD002381F852328288B1F848329D
:10AF20009A42F6D10B79002BF3D101212046FFF78D
:10AF3000D3FE0028EDD0A36B002BEAD0BDE8104073
:10AF40001847037A013B012BE3D8897805230131A7
:10AF500091FBF3F303EB8303C91AC9B2E6E7704729
:10AF6000034B1A8882420CBF18460020704700BF6E
:10AF7000E4B10020024B9B6903B11847704700BF42
:10AF8000C8B1002013B50B46497A0F4C024669B987
:10AF9000D4E901101C7A002C18BF01465868FCF750
:10AFA00077FC08B1FFF7E6FF02B010BD002119726F
:10AFB0006369002BF8D00121ADF806008DF804106C
:10AFC00001A89847F0E700BFC8B1002030B58388DA
:10AFD0000588B3F5FA7F24BF6FF4F9729C184A888C
:10AFE00038BF002495420CD84088904209D38A8803
:10AFF000A24206D303F2F310904234BF0020012096
:10B0000030BD0020FCE7000070B50388112B01461D
:10B0100048D002D8102B1ED070BD122B52D0502B0E
:10B02000FAD12F4BC288DB899A42F5D1038A022BD1
:10B03000F2D186883046FFF793FF05460028EBD013
:10B0400001F1120000F050F830BB6868FCF764FCB6
:10B050000028E1D009E0C37B012BDDD14FF6FF7062
:10B06000FFF77EFF054620B90420BDE87040FFF7DA
:10B0700081BF8E881B4A0680002303721368C5F8BF
:10B080000A300A30536843601031FFF79FFF144BBA
:10B090006872DB89002BBFD129463046BDE870407D
:10B0A000FFF770BF8088FFF75BFF04460028B3D02E
:10B0B0004068FCF731FC08B1FFF75CFF4FF6FF7307
:10B0C0002380A9E786883046FFF74AFF0546002817
:10B0D000A2D008310A30FFF779FF6872DCE700BFC1
:10B0E000C8B10020F8B10020007800F001007047DE
:10B0F00090DF7047A5DF7047B5DF70477FB500234D
:10B10000ADF80810ADF80A106A4602A90646039386
:10B110000093ADF80430FFF7EBFF0546F8B1114B93
:10B12000114CE41AE408FEF7B3F8240444F00104D7
:10B13000034632460D492046FDF7F8FCBDF80020D5
:10B14000BDF8023002B91BB109492046FDF7EEFCFB
:10B15000BDF804201AB107492046FDF7DDFC28465A
:10B1600004B070BD80600300F06003004F5B03001B
:10B17000995B0300D85B030013B5034680880C4637
:10B18000A0B91A88232A00F0AF8011D8102A25D040
:10B19000112A54D0A37A4BB1E1880020FFF7AAFF0F
:10B1A000002840F0A7800123A072E37202B010BD16
:10B1B0003A2A4ED0552A68D0242AEBD11A7A0B6944
:10B1C0004A73002BE6D04DF67A21ADF80400ADF8B5
:10B1D0000010ADF802008DF8042081E00A790A73AE
:10B1E000DB7B012B13D0022B14D0E18823898B4207
:10B1F00005D20020FFF77EFF70B90123E372217BA7
:10B20000637B8B42C6D20020FFF778FFC2E70B8832
:10B21000E380EAE74B88FBE7112802D10123A37200
:10B22000EDE7FEF735F83C4A3C4B3D499B1ADB08FD
:10B230001B04024643F00100FDF76EFCDFE7F72335
:10B24000CB8017230B8141F6FB338872C8728B8148
:10B25000A0E75B89CA88934228BF1346172B0A6967
:10B2600038BF17230B8162B1C97A51B140F67721FB
:10B27000ADF80010ADF80200ADF804306946204684
:10B2800090470023E372A37284E7DB88C988A07229
:10B29000172B38BF17238B4228BF0B462381FFF79C
:10B2A0002BFF60B1FDF7F4FF1B4A1C4B1D499B1A95
:10B2B000DB081B04024643F00100FDF72DFCE27A97
:10B2C000002A7FF467AF2369002B3FF463AF40F699
:10B2D0007721ADF802202289ADF80010ADF80420E6
:10B2E00069462046984755E7197A237B994228BF3B
:10B2F000194689E711283FF459AFFDF7C9FF064AFF
:10B30000064B07499B1ADB081B04024643F0010069
:10B31000FDF702FC4AE700BF80600300F060030015
:10B320002E5C03005F5C0300B0DF704766DF704790
:10B3300010B5034600214088FFF7F8FF024608B920
:10B340001A7210BD112801D10122F9E75B68BDE82E
:10B350001040184728B10378DE2B04D1418000202B
:10B3600070470E20704708207047F0B5054685B03D
:10B370000C46F1B1E8B10B78DE2B1AD182884B88EC
:10B380009A4204D10B7A13B10846FFF7D1FF2B88FC
:10B39000112B32D0512B0ED0012B0AD12B7A012B3D
:10B3A00007D1A9886288914203D123722046FFF712
:10B3B000BFFF05B0F0BDAE886388B342F9D1AF7965
:10B3C000022FF6D1AD7B2B1F022BF2D800211022C9
:10B3D000684600F02BFC052D14BF4FF4C07300230A
:10B3E000694630468DF80070ADF80430FFF79CFFD9
:10B3F0000028DED063689847DBE76388AA889A4212
:10B4000004BF4FF6FF736380D3E70000014B187849
:10B41000704700BF00B2002007B508496846FDF735
:10B42000E5FE019B13B903B05DF804FBD3E90020EE
:10B4300090476846FDF7F2FEF3E700BF9C5C03000F
:10B44000FFF7EABF61DF704730B5134DADF5017D01
:10B450004FF4FA740DF1020103A8ADF80240FFF7B2
:10B46000F1FF70B9294601A8FDF7C0FE029B002B31
:10B47000F0D003A8D3E90021904701A8FDF7CEFE44
:10B48000F4E7052804D0054A40F23911FCF70DF81D
:10B490000DF5017D30BD00BF045D0300B05C03000D
:10B4A000024B1B780BB1FFF7CFBF704701B20020F2
:10B4B00076DF70477FDF704786DF70478ADF70472F
:10B4C0008FDF7047B1DF704733DF704737B50388D0
:10B4D0001D2B044600F0AC801DD8132B7CD00AD85D
:10B4E000102B3DD0112B5DD0604B13B12046AFF334
:10B4F000008003B030BD142B00F08C801B2BF3D1E7
:10B50000037A012BF0D1FFF7DFFF0028ECD0584A77
:10B510004FF4CC716DE0502B52D00ED8212B00F09F
:10B5200096803B2BE0D113218088FFF7C1FF0028D4
:10B53000DAD04F4A4FF4D0715BE0522B5CD045D348
:10B54000562BD1D18379002BCED14A4B13211888A9
:10B55000FFF7AEFF0028C7D0454A40F2A71148E0E8
:10B56000444D818844482980FFF7F4FE20B1404AC9
:10B570004FF49D71FBF799FF00231A46194628885E
:10B58000FFF7A0FF20B13A4A4FF4A171FBF78DFFFE
:10B590003A4800F095FB3A4B002BA5D02046AFF37C
:10B5A0000080A1E7334B37484FF6FF721A8000F056
:10B5B00087FB354B002B97D02046AFF3008093E7F5
:10B5C000324B002B90D0AFF300808DE7304B002B37
:10B5D0008AD0AFF3008087E7264800231A468521EA
:10B5E0000088FFF767FF00283FF47EAF204A40F253
:10B5F0008111FBF75AFF77E71E4800231A461946C8
:10B600000088FFF75FFF00283FF46EAF184A40F252
:10B610008711EEE7174800231A4619460088FFF7FE
:10B620004BFF00283FF460AF114A40F29111E0E770
:10B63000184B0BB1AFF3008017490020FFF73EFF16
:10B6400000283FF451AF0A4A40F2C711D1E702A9DE
:10B65000002321F8043D8088FFF732FF00283FF4E3
:10B6600043AF034A40F2D111C3E700BF000000001E
:10B67000415D03005CB5002070B40020705D0300E4
:10B6800000000000805D03000000000000000000DA
:10B690000000000000000000B098002038B50D4602
:10B6A0000446044800F00CFB2A4621460248FBF7FA
:10B6B000FCFE38BD1C5D0300EFBEADDE0C4B1B78FD
:10B6C000062B10D10B4B1B681A070CD10A4B1868BC
:10B6D00000F0F003302B08D000F0E000A0F14003B0
:10B6E000584258417047002070470120704700BF02
:10B6F000E00F00F0E40F00F0E80F00F0094B1B78BA
:10B70000062B0CD1084B1B681A0708D1074B186889
:10B7100000F0F000A0F1300358425841704700207B
:10B72000704700BFE00F00F0E40F00F0E80F00F0FA
:10B7300008B5FFF7C3FF28B17D4B7E4A1B68C3F3F2
:10B7400004231360FFF7DAFF10B17B4B7B4A1A60CA
:10B75000FFF7B4FF28B17A4B7A4A1B68C3F3423330
:10B760001360FFF7CBFF20B1774AD36823F08073D3
:10B77000D360FFF7A3FF40B14FF080430022C3F82E
:10B780000C21C3F81021C3F83825FFF7B7FF10B11B
:10B790006E4B03221A60FFF7B1FF40B16C4B0522DC
:10B7A0001A6001229A6700229A603F225A60694B10
:10B7B0001B78062B50D1684B1B6819074CD1674B7F
:10B7C0001B6803F0F003502B46D14FF08052644BBE
:10B7D000D2F80414C3F82015D2F80814C3F82415BD
:10B7E000D2F80C14C3F82815D2F81014C3F82C158D
:10B7F000D2F81414C3F83015D2F81814C3F834155D
:10B80000D2F81C14C3F84015D2F82014C3F844151C
:10B81000D2F82414C3F84815D2F82814C3F84C15EC
:10B82000D2F82C14C3F85015D2F83014C3F85415BC
:10B83000D2F83414C3F86015D2F83814C3F864157C
:10B84000D2F83C14C3F86815D2F84014C3F86C154C
:10B85000D2F84424C3F87025FFF730FF28B1414BDC
:10B86000414A1B6803F04F031360FFF727FF48B1FD
:10B870004FF08043D3F80024D20744BF6FF0010299
:10B88000C3F80024394B1B68062B08D1384B1B68C2
:10B89000062B01BF374A136843F480631360364AAE
:10B8A000D2F8883043F47003C2F88830BFF34F8F6A
:10B8B000BFF36F8F4FF01023D3F80022002A03DB71
:10B8C000D3F80432002B2FDA2C4B0122C3F80425C5
:10B8D000D3F80024002AFBD04FF010221521C2F823
:10B8E0000012D3F80024002AFBD04FF010231522B9
:10B8F000C3F80422214B1A46D3F800140029FBD0C8
:10B900000021C3F80415D2F80034002BFBD0BFF39C
:10B910004F8F19491A4BCA6802F4E0621343CB6097
:10B92000BFF34F8F00BFFDE7164B174A1A6008BDE3
:10B93000240300104035014074C007400DF0ADBA3B
:10B94000440200103C050040F0ED00E0A00500407E
:10B9500010560040E00F00F0E40F00F0E80F00F098
:10B9600000C0004058020010E40E004030010010FA
:10B97000340100103C17004000ED00E000E0014001
:10B980000400FA05B89800200090D0030649074A41
:10B99000074B9B1A03DD043BC858D050FBDCFFF774
:10B9A000C7FEFAF74DFC0000B8610300A89800201C
:10B9B0007CA20020FEE7FEE7FEE7FEE7FEE7FEE7EB
:10B9C000FEE7FEE7FEE7FEE708B50021044603F0C8
:10B9D0006DFE044B1868C36B03B19847204606F010
:10B9E00099FF00BF945D030070B50D4E0D4D761BA1
:10B9F000B61006D00024013455F8043B9847A642FF
:10BA0000F9D1094E094D761B08F0F8FCB61006D0A6
:10BA10000024013455F8043B9847A642F9D170BD83
:10BA20006CA200206CA2002078A200206CA2002052
:10BA3000044B054A1B685B6B002B08BF134693F849
:10BA400028017047BC980020E89C0020044B054A60
:10BA50001B685B6B002B08BF1346D3F8EC007047E4
:10BA6000BC980020E89C002082B049B15AB16BB16B
:10BA700013780B601278101C18BF012002B07047B9
:10BA800001A9002AF3D1104602B070476FF00100FF
:10BA9000F4E700BF032A70B414D940EA0105AD07EA
:10BAA00004460B4622D11D682668AE421946204640
:10BAB00003F1040304F1040418D1043A032A2046D4
:10BAC0001946F0D8541E72B102780B789A4208BF1A
:10BAD000641806D00CE010F8012F11F8013F9A42CB
