:10000000000001201952000041520000DD110000E3
:100010004552000047520000495200000000000015
:100020000000000000000000000000004B52000033
:100030004D520000000000004F52000051520000DD
:10004000413500005352000095410000014C000072
:10005000A147000053520000B53E0000C543000018
:10006000D9480000F14800005352000053520000EC
:1000700053520000535200005352000053520000EC
:1000800053520000B91000005352000053520000B8
:10009000F910000053520000535200005352000068
:1000A00053520000535200005352000053520000BC
:1000B000E942000053520000000000000000000070
:1000C0005352000001430000194300005352000046
:1000D0005352000053520000535200000000000031
:1000E0000000000000000000000000000000000010
:1000F0000000000000000000000000000000000000
:1001000000000000000000000000000000000000EF
:1001100000000000000000000000000000000000DF
:1001200000000000000000000000000000000000CF
:1001300000000000000000000000000000000000BF
:1001400000000000000000000000000000000000AF
:10015000000000000000000000000000000000009F
:10016000000000000000000000000000000000008F
:10017000000000000000000000000000000000007F
:10018000000000000000000000000000000000006F
:10019000000000000000000000000000000000005F
:1001A000000000000000000000000000000000004F
:1001B000000000000000000000000000000000003F
:1001C000000000000000000000000000000000002F
:1001D000000000000000000000000000000000001F
:1001E000000000000000000000000000000000000F
:1001F00000000000000000000000000000000000FF
:1002000010B5054C237833B9044B13B10448AFF350
:1002100000800123237010BD680A00200000000048
:10022000CCCE000008B5034B1BB103490348AFF324
:10023000008008BD000000006C0A0020CCCE000049
:10024000154B002B08BF134B9D46A3F5803A0021A8
:100250008B460F461348144A121A05F0FBF80F4B51
:10026000002B00D098470E4B002B00D09847002061
:10027000002104000D000D48002802D00C4807F0B2
:1002800061F904F0F7FF2000290000F013F804F0F2
:10029000E1FF00BF00000800000001200000000096
:1002A00000000000680A0020A41900204575000025
:1002B0001587000000B587B0002305934FF4004177
:1002C000002001F0DDFF0590059B0493049B002BAB
:1002D00004D0134A1A21049800F015FB01F066FFC0
:1002E000104805F001F94FF0A0430393039B03F579
:1002F000A1530293039B03F5A15310330193039B76
:1003000003F5E05300930299074805F0EDF80199D1
:10031000054805F0E9F80099034805F0E5F8FEE71F
:1003200014B200001CB2000030B2000000B585B06D
:100330000190019B002B0AD0074B43F0010303936C
:10034000019B9B010293039B0298984700E000BF2A
:1003500005B05DF804FB00BFC0B2000000B583B07B
:100360000190019B002B0AD04FF47A70FFF7DEFF5B
:10037000019B013B0193019B002BF5D100E000BFE5
:1003800003B05DF804FB000010B58EB00590049139
:10039000039272B602F0E0FC00BF02F0A5FA034639
:1003A000002BFAD1534805F09FF8059B44F2010257
:1003B00093420ED044F20202934221D1039B089350
:1003C000089B5968089B1B881A464B4805F08CF817
:1003D0001BE0039B0793079B9C68079B9B68184641
:1003E00003F036F8079B5968079B1B68049A019233
:1003F00000930B4602462146404805F075F804E09C
:1004000004993F4805F070F800BF03F083FC0346F1
:1004100083F00103DBB2002B01D003F029FC06AB13
:1004200000210A461A800A469A7001238DF8193075
:1004300000230D930CE0334A0D9B13441B781A469E
:1004400006AB1946104603F071FC0D9B01330D936A
:100450000D9B022BEFDD00230C9309E0294A0C9B36
:1004600013441B78184603F0F7FC0C9B01330C93E4
:100470000C9B022BF2DD4FF4FA70FFF76FFF0023A5
:100480000B9309E01F4A0B9B13441B78184603F09B
:10049000B5FC0B9B01330B930B9B022BF2DD32203F
:1004A000FFF75CFF00230A9309E0164A0A9B1344F6
:1004B0001B78184603F0D0FC0A9B01330A930A9B71
:1004C000022BF2DD4FF4FA70FFF748FF0023099387
:1004D00009E00C4A099B13441B78184603F08EFC74
:1004E000099B01330993099B022BF2DDFA20FFF7E8
:1004F00035FFB0E738B2000054B2000070B200001F
:100500009CB2000034B2000000B589B0019003F045
:1005100001FC034683F00103DBB2002B01D003F0A2
:10052000A7FB02AB00210A461A800A469A700123F3
:100530008DF80930002307930CE02F4A079B1344E2
:100540001B781A4602AB1946104603F0EFFB079BD7
:1005500001330793079B022BEFDD0023069309E08D
:10056000254A069B13441B78184603F075FC069B2E
:1005700001330693069B022BF2DD4FF4FA70FFF76E
:10058000EDFE0023059309E01B4A059B13441B78ED
:10059000184603F033FC059B01330593059B022BA2
:1005A000F2DD3220FFF7DAFE0023049309E0124A5D
:1005B000049B13441B78184603F04EFC049B013344
:1005C0000493049B022BF2DD4FF4FA70FFF7C6FE92
:1005D0000023039309E0084A039B13441B78184641
:1005E00003F00CFC039B01330393039B022BF2DD0E
:1005F000FA20FFF7B3FEB0E734B2000000B583B0D5
:100600001F4B0193019B02221A61019B02225A6136
:10061000019B1C4A9A61019B1B4ADA61019B4FF4C2
:1006200000721A62019B00229A62019B00225A62A8
:10063000019B0022DA62019B124A9A64019B134AD1
:10064000DA64019B10221A65019B00229A65019BC6
:1006500000225A65019B0022DA65019B07330C4991
:10066000184605F01DF8019B0A49184605F018F8D0
:10067000019B20229A7100BF03B05DF804FB00BF0C
:1006800004190020C8B20000A40E0020A41000200D
:10069000D4B20000D8B2000000B589B00390029136
:1006A000019200230693039BDB680593039B1B6960
:1006B0000493049A059B9A4205D9049A059BD31A80
:1006C000013B079307E0039B9A680499059BCB1AAB
:1006D0001344013B0793039B9A68059BD31A079A1F
:1006E000934228BF13460793079A019B934228BF62
:1006F00013460793039B5A68059B1344079A029974
:10070000184604F00DFE069A079B13440693029ABE
:10071000079B13440293019A079BD31A0193059AEE
:10072000079B13440593039B9B68059A9A4201D14A
:1007300000230593039B059ADA60019B002BB5D13A
:10074000069B184609B05DF804FB00B589B003901C
:1007500002910192039BDB680793039B9A68079BB6
:10076000D31A0693069A019B9A420ED9039B5A68A4
:10077000079B1344019A0299184604F0D1FD079A89
:10078000019B1A44039BDA601AE0069B0593039BC6
:100790005A68079B1344059A0299184604F0C0FD55
:1007A000019A069BD31A0593039B5868029A069BED
:1007B0001344059A194604F0B3FD039B059ADA60C9
:1007C00000BF09B05DF804FB86B00190019B1B6976
:1007D0000493019BDB680393049A039B9A4208D815
:1007E000019B9A68039BD21A049B1344013B059317
:1007F00004E0049A039BD31A013B0593059B18461A
:1008000006B0704700B589B0039002910192029B37
:100810000693039B5A1C13465B001344DB001F4ADC
:1008200013440593059B5B69012B17D0012B02D361
:10083000022B23D029E00598FFF7C6FF0490049A05
:10084000019B9A4202D20023079321E0019B079368
:10085000019A06990598FFF778FF19E00598FFF7C8
:10086000B3FF0490019A049B934228BF1346079359
:10087000079A06990598FFF768FF09E0019A06991B
:100880000598FFF709FF079002E00023079300BFD8
:10089000079B184609B05DF804FB00BF041900204F
:1008A00000B587B00390029101920B4B1B78002B8F
:1008B00001D1FFF7A3FE002000F03CFC019A029951
:1008C0000398FFF79FFF0590002000F047FC059B71
:1008D000184607B05DF804FB0419002008B5FFF7BF
:1008E0008DFE00BF08BD00B585B003900291019256
:1008F0000093009A01990020FFF7D2FF009B184651
:1009000005B05DF804FB00B583B002900091019240
:1009100044F2010071466A46FFF736FD03B000BDA0
:1009200000BF000082B003468DF807309DF8073005
:1009300003F01F0205499DF907305B09012000FA09
:1009400002F241F8232000BF02B0704700E100E04E
:1009500082B003468DF807309DF8073003F01F0280
:1009600006499DF907305B09012000FA02F2403385
:1009700041F8232000BF02B0704700BF00E100E053
:1009800082B003468DF807309DF8073003F01F0250
:1009900006499DF907305B09012000FA02F2603335
:1009A00041F8232000BF02B0704700BF00E100E023
:1009B00000B585B00190019B002B0AD0074B43F096
:1009C00001030393019B9B010293039B02989847A9
:1009D00000E000BF05B05DF804FB00BFE0B200001E
:1009E00008B50D4B4FF48032C3F844230A4B4FF443
:1009F0008032C3F804231120FFF7C2FF1120FFF754
:100A000091FF054B01221A602F20FFF7D1FF034B06
:100A100001221A7000BF08BD00100140D211002051
:100A2000024BD3F804351846704700BF0010014050
:100A300082B001900091019A009BD31A23F07F436A
:100A4000184602B07047000082B00190034A019B33
:100A5000C2F8403500BF02B0704700BF001001402F
:100A600086B00190284B1B68002B03D1264A019BBE
:100A7000136045E0019B1A68234B1B681B689A4270
:100A800010D8214B1B681968019B1A681E4B1B6804
:100A90008A1A1A601C4B1A68019BDA611A4A019B78
:100AA00013602DE0019B1B680393174B1B68059394
:100AB000154B1B68049309E0049B1B68039AD31A27
:100AC0000393049B0593049BDB690493049B002B15
:100AD00004D0049B1B68039A9A42EDD8049B002B18
:100AE00005D0049B1A68039BD21A049B1A60019BD1
:100AF000039A1A60019B049ADA61059B019ADA61F4
:100B000000BF06B0704700BFC011002000B587B01D
:100B100001902A4B1B680393284B1B680593059B88
:100B2000049308E0049A019B9A4208D0049B059321
:100B3000049BDB690493049B002BF3D100E000BF0E
:100B4000049B002B01D1002333E0059A049B9A42B9
:100B500014D11A4B1B68DB69184A1360174B1B68CA
:100B6000002B0BD1164B01229A60164B00221A6003
:100B7000154B01221A702F20FFF71AFF049B1B68E8
:100B80000293049BDA69059BDA61059BDB69049398
:100B9000049B002B05D0049B1A68029B1A44049BFB
:100BA0001A60064B1B68039A9A4214BF0123002364
:100BB000DBB2184607B05DF804FB00BFC01100208F
:100BC00000100140C4110020D311002008B51120ED
:100BD000FFF7BEFE00BF08BD08B51420FFF7B8FE42
:100BE00000BF08BD00B583B00190019B5B69019A0D
:100BF00092691046984700BF03B05DF804FB0000FF
:100C000000B585B02B4B1B68002B4ED00023019301
:100C1000FFF706FF0246284B1B6819461046FFF7F0
:100C200007FF0290234B1B6803931DE0039B1B6887
:100C3000029A9A421CD3039B1B68029AD31A02930E
:100C4000039B1B68019A13440193039B0093039B2E
:100C5000DB690393009B1B7C002B05D0009B0022CB
:100C60001A740098FFF7BEFF039B002BDED100E053
:100C700000BF124B1A78124B1B789A420CD1104BC2
:100C80001B780133DAB20E4B1A700D4B1B78022B16
:100C900002D10B4B00221A70094B1B781946094AE6
:100CA000019B42F82130FFF797FF00BF05B05DF8C8
:100CB00004FB00BFC0110020C4110020D01100208F
:100CC000D1110020C811002082B00190184B1A7871
:100CD000184B1B789A4223D0154B1B780133DAB29C
:100CE000134B1A70124B1B78022B02D1104B0022AF
:100CF0001A700F4B1B781A460F4B53F82220019B9A
:100D00001A60019B1A680D4B1B6813440B4A136051
:100D10000A4B1B6823F07F43084A1360012303E05A
:100D2000019B00221A600023184602B0704700BFE2
:100D3000D0110020D1110020C8110020C4110020C2
:100D400088B00390029101920023079338E0204B72
:100D50001B680693069B1B68039A9A4206D2069B61
:100D60001A68039BD21A069B1A602DE0069B1B682B
:100D7000039AD31A0393069B1B68079A134407939D
:100D8000069B00221A60124B1B680593069BDB69C9
:100D90000F4A1360069BDB68002B11D0029A079B59
:100DA000134423F07F42069B5A60069BDA68069B39
:100DB0009A60019B1A68069BDA61019B059A1A608A
:100DC000034B1B68002BC2D100BF08B0704700BFA7
:100DD000C011002000B589B0019000238DF81F30AC
:100DE000664B1B680593AAE0019B002B05D0019B75
:100DF0000693069BDB69019361E0614B1B781A4601
:100E000013465B001344DB005D4A13440433049330
:100E10005B4B1B780133DAB2594B1A70584B1A7876
:100E2000574B9B789A4202D1554B00221A70049B73
:100E30005B680693049B1B78022B04D0032B1BD00A
:100E4000012B1FD01DE0049B5B681846FFF75EFE78
:100E50000346002B02D001238DF81F30069B002291
:100E60001A746CE0454B1B680393039B00221A74B1
:100E7000039BDB69414A1360404B1B68002BF1D197
:100E80005DE05CE000BF069B1B7C002B00D056E0C1
:100E9000049B9A68069B5A60049BDA68069B9A60DA
:100EA000049B1A69069BDA60049B5A69069B9A6147
:100EB000344B1B78002B02D0069B00225A60069B05
:100EC0005A68314B1B68D31A23F07F432F4A934251
:100ED0000ED8069B5A682C4B1B6819461046FFF724
:100EE000A7FD0246069B9B681A44069B1A6017E002
:100EF000254B1A68069B5B6819461046FFF798FD5C
:100F00000290069B9B68029A9A4206D2069B9A68B8
:100F1000029BD21A069B1A6002E0069B00221A600E
:100F2000069B00225A60069B00229A60069B0122C3
:100F30001A74069B0022DA610698FFF791FD019B67
:100F4000002B7FF451AF0E4B1A780D4B5B789A4211
:100F50007FF44AAF9DF81F30002B04D1074B1B686C
:100F6000059A9A4201D0012300E0002303F0010317
:100F7000DBB2184609B05DF804FB00BFC0110020C9
:100F8000B4100020D3110020C4110020FEFF7F0008
:100F900010B588B00190254B1B68002B43D0234B24
:100FA0001B681B680793FFF73BFD0690204B1B68EF
:100FB000059305990698FFF73BFD03460333049319
:100FC0001C4B1B7883F00103DBB2002B01D0FFF731
:100FD00007FD049A079B934238BF1346059A1344B2
:100FE0000593059B23F07F4305930598FFF72CFDA0
:100FF000FFF716FD039006990398FFF719FD0346C6
:10100000DC1C06990598FFF713FD03469C420AD99C
:10101000FFF706FD03461846FFF716FD2F20FFF7E2
:10102000C7FCFFF7D3FD00BF08B010BDC011002002
:10103000C4110020D211002000B587B00023019315
:1010400000238DF81730194B1B680493184B1B684D
:1010500003936B461846FFF737FE03468DF80B30B7
:101060009DF80B30002B08D0009B01AA049918466C
:10107000FFF766FE01238DF81730019B1846FFF736
:10108000A9FE0346002B02D001238DF817309DF8EE
:101090001730002B02D00398FFF77AFF054B002290
:1010A0001A7000BF07B05DF804FB00BFC411002038
:1010B000C0110020D311002008B50E4B0022C3F848
:1010C00040210C4B0022C3F844210A4B0022C3F8F4
:1010D0004821084B0022C3F84C21064B0022C3F8DC
:1010E0000021044B0022C3F80421FFF789FD00BF53
:1010F00008BD00BF0010014008B5FFF79DFF00BF0D
:1011000008BD000072B6034B1B680133014A13602F
:1011100000BF7047D4110020054B1B68013B044AF7
:101120001360034B1B68002B00D162B600BF7047F1
:10113000D411002000B583B0019000F025F80346DB
:10114000012B03D00449432000F03CF9FFF7DAFFFC
:1011500000BF03B05DF804FBE8B2000000B583B047
:1011600003468DF8073000F00FF80346012B03D03B
:101170000449512000F026F9FFF7CEFF00BF03B06D
:101180005DF804FBE8B2000084B0EFF3058301933F
:10119000019BC3F308030393039B002B0DD1EFF3D3
:1011A00014830093009B0293029B03F00103002B26
:1011B0000CBF01230023DBB200E00123184604B07A
:1011C0007047000008B5044B1B689B680021184657
:1011D00004F09EF900BF08BDAC0000201EF0040F13
:1011E0001CBFEFF309800AE0EFF308800549064AC7
:1011F000884201D8904202D88D464FF00000034B40
:10120000184700000000012000E000201512000037
:1012100000BF00BF10B588B0039001F09DFD00BF76
:1012200001F062FB0346002BFAD1039B0693584B57
:101230009B6A0593069B002B35D0564A564BD31A12
:10124000DB081B0443F00100069B9B691A465349C7
:1012500001F0FCFA4F4A504BD31ADB081B0443F051
:101260000100069B1968069B5C68069B9B68069AB2
:10127000D2680192009323460A46494901F00DFBCA
:10128000444A454BD31ADB081B0443F00100069B7C
:101290001A69069B5969069BDB6900930B46414915
:1012A00001F0E5FA0AE03B4A3B4BD31ADB081B048A
:1012B00043F001033C49184601F0BAFA344BDB6AAB
:1012C00003F00203002B0AD0324A334BD31ADB0857
:1012D0001B0443F001033549184601F0A9FA002325
:1012E000079320E00122079B02FA03F31A46059BAD
:1012F0001340002B14D02E4A079B52F82330002BAA
:101300000ED0244A244BD31ADB081B0443F00100FF
:10131000274A079B52F823301A46264901F096FACD
:10132000079B01330793079B192BDBD9059B03F020
:101330008003002B0CD0174A174BD31ADB081B0471
:1013400043F00100124B5B6B1A461B4901F07EFA19
:10135000059B03F40043002B0CD00E4A0E4BD31A0E
:10136000DB081B0443F00100094B9B6B1A46134931
:1013700001F06CFA124B1B6803F00103002B00D044
:1013800000BE0398FFF7C0F800BF08B010BD00BF53
:1013900000ED00E038CF0000D0CE00004CB30000DC
:1013A00064B300009CB30000C4B30000F8B30000B5
:1013B000000000203CB4000048B4000068B4000005
:1013C000F0ED00E000B585B003460091ADF80630C1
:1013D000BDF80630ADF80830009B039302AB1A4607
:1013E000002144F20200FEF7CFFF00BF05B05DF818
:1013F00004FB10B487B001900091019B009A53E860
:10140000004F104643E8000191F0000FF7D105941A
:1014100004900391059B184607B05DF8044B704794
:1014200010B487B001900091019B009A53E8004FDF
:1014300044EA020043E8000191F0000FF6D1059460
:1014400004900391049B184607B05DF8044B704765
:1014500010B487B001900091019B009A53E8004FAF
:1014600004EA020043E8000191F0000FF6D1059470
:1014700004900391059B184607B05DF8044B704734
:1014800010B487B001900091019B009A53E8004F7F
:1014900004EB020043E8000191F0000FF6D105943F
:1014A00004900391049B184607B05DF8044B704705
:1014B00010B487B001900091019B009A53E8004F4F
:1014C000A4EB020043E8000191F0000FF6D105946F
:1014D00004900391049B184607B05DF8044B7047D5
:1014E00000B583B0019001210198FFF799FF0346F1
:1014F000184603B05DF804FB00B583B001900021ED
:101500000198FFF7A5FF0346184603B05DF804FBFA
:1015100000B583B001900B468DF80330019B002B82
:1015200003D10849E820FFF74DFF019BDA689DF8D9
:1015300003300199098A01FB03F31344184603B0F1
:101540005DF804FB58B9000000B583B0019000912C
:10155000019B002B03D10849F520FFF733FF009BC7
:10156000019AD2689B1A019A128AB3FBF2F3DBB29A
:10157000184603B05DF804FB58B9000000B585B00B
:101580000190019B002B01D10E234DE0019B1B68B4
:10159000002B03D12649FF20FFF714FF019B5B6856
:1015A000002B04D122494FF48070FFF70BFF019B01
:1015B0009B68002B04D11E4940F20110FFF702FF87
:1015C000019BDB68002B04D119494FF48170FFF7B0
:1015D000F9FE019B1B8A002B04D1154940F2031030
:1015E000FFF7F0FE019B9B681A46019B5B68D31ACC
:1015F0008DF80F30019B1B68019A52681A6007E052
:10160000019B1A681368591C11609DF80F201A700D
:101610009DF80F305A1E8DF80F20002BF0D1019B42
:101620001B6800221A710023184605B05DF804FB00
:1016300058B9000000B585B00190019B002B04D182
:101640001C494FF49270FFF7BDFE00230393002066
:10165000FFF770FD019B1B681A68019B5B689A424B
:1016600020D9019B1B681A68013A1A601B681B7815
:1016700019460198FFF74CFF0390019B9B681A469F
:10168000019B1B681B68D31A8DF80B30019B1B68EC
:101690001B799DF80B209A4204D9019B1B689DF889
:1016A0000B201A710020FFF759FD039B184605B067
:1016B0005DF804FB58B9000010B584B001900091AA
:1016C000019B002B04D1114940F24710FFF77AFE2D
:1016D000009B002B04D10D494FF4A470FFF772FE5C
:1016E000009B03930020FFF725FD019B1B681C68EE
:1016F000621C1A6003990198FFF726FF03462370C6
:101700000020FFF72BFD00BF04B010BD58B900004A
:1017100000B583B00190019B002B03D10C4931200F
:10172000FFF750FE019B9B68002B0CD0019B5B696F
:10173000019A1069019A1168019A92689847019B71
:1017400000229A6000E000BF03B05DF804FB00BF18
:1017500000BA00000EB400B584B00190019B002BCC
:1017600003D118494220FFF72DFE019B5B69002B36
:1017700003D114494320FFF725FE019B1B68002B72
:1017800003D110494420FFF71DFE019B5B68002B2D
:1017900003D10C494520FFF715FE059B002B0AD00D
:1017A0000023039306AB039303AB1A4605990198F4
:1017B00000F0B0F900E000BF04B05DF804EB03B046
:1017C000704700BF00BA000000B583B001900B461F
:1017D0008DF80330019B1A68019B9B68581C019986
:1017E000886013449DF803201A70019B9A68019B3E
:1017F0005B689A4202D30198FFF78AFF00BF03B0EB
:101800005DF804FB00B587B003900291019200934C
:1018100000230593009B03F00103002B24D00BE071
:10182000029B01330293059B013305939DF813300E
:1018300019460398FFF7C8FF029B1B788DF81330F9
:101840009DF81330002BEBD106E0019B013B019387
:1018500020210398FFF7B8FF019A059B9A422ED9E1
:10186000019B002BF1D12AE0029B002B0BD00298A8
:1018700003F086FF059006E0019B013B01932021C8
:101880000398FFF7A1FF019A059B9A420FD9019B8C
:10189000002BF1D10BE0029B01330293059B013336
:1018A00005939DF8133019460398FFF78DFF029BAF
:1018B0001B788DF813309DF81330002BEBD100BF4F
:1018C00007B05DF804FB000000B589B003900291F9
:1018D00001920093029B07930123069307E0079A66
:1018E000019BB2FBF3F30793069B01330693079A20
:1018F000019B9A42F3D2009A069B9A4201D9009B1F
:1019000006930B9B03F00103002B22D10A9B002BB3
:101910001FD00B9B03F00203002B06D0009B002B73
:1019200003D130238DF8173002E020238DF81730D3
:1019300008E00A9B013B0A939DF81730194603986B
:10194000FFF742FF0A9B002B03D0069A0A9B9A429C
:10195000EFD301230793009B012B03D9009B013B8D
:10196000009309E0029A079BB2FBF3F30493049AF5
:10197000019B9A4200D205E0079B019A02FB03F308
:101980000793E8E7029A079BB2FBF3F30493049BE7
:10199000079A02FB03F3029AD31A0293154A049B97
:1019A00013441B7819460398FFF70EFF079A019B13
:1019B000B2FBF3F30793079B002BE3D10B9B03F0E0
:1019C0000103002B11D00A9B002B0ED006E00A9BCE
:1019D000013B0A9320210398FFF7F6FE0A9B002B98
:1019E00003D0069A0A9B9A42F1D300BF09B05DF872
:1019F00004FB00BF98BA000000B589B005900491BF
:101A000003920293049B002BB8BF5B420693012311
:101A1000079307E0039B069A92FBF3F30693079B59
:101A200001330793039B069A9A42F3DA029A079BC3
:101A30009A4201D9029B07930A9B002B0AD0049B70
:101A4000002B04DB0B9B03F00403002B02D00A9B4A
:101A5000013B0A930B9B03F00203002B02D0029B75
:101A6000002B16D00B9B03F00103002B11D10A9B16
:101A7000002B0ED006E00A9B013B0A93202105981B
:101A8000FFF7A2FE0A9B002B03D0079A0A9B9A42FB
:101A9000F1D3049B002B07DA049B5B4204932D21B6
:101AA0000598FFF791FE08E00B9B03F00403002B61
:101AB00003D02B210598FFF787FE0B9B03F0020351
:101AC000002B19D00B9B03F00103002B14D1029BB8
:101AD000002B11D10A9B002B0ED006E00A9B013B84
:101AE0000A9330210598FFF76FFE0A9B002B03D065
:101AF000079A0A9B9A42F1D304990B9B01930A9B84
:101B00000093029B039A0598FFF7DEFE00BF09B021
:101B10005DF804FB00B58FB0059004910392059B1E
:101B2000002B04D1C8494FF4A270FFF74BFC059B72
:101B30005B69002B04D1C4494FF4A370FFF742FC4A
:101B4000059B1B68002B04D1BF4940F24710FFF7EB
:101B500039FC059B5B68002B04D1BB494FF4A47092
:101B6000FFF730FC049B002B00F0ED81049B1B78F9
:101B70008DF83730049B013304939DF83730002BE8
:101B800000F0D8819DF83730252B40F0C781002325
:101B90000A9301230C93049B1B788DF837309DF832
:101BA00037302D2B04D0302B0AD02B2B10D017E040
:101BB0000A9B43F001030A93049B0133049312E050
:101BC0000A9B43F002030A93049B013304930AE047
:101BD0000A9B43F004030A93049B0133049302E03D
:101BE00000230C9300BF0C9B002BD4D1002309933E
:101BF0009DF837302A2B0CD1039B1B68191D039AC3
:101C000011601B68099A13440993049B01330493E0
:101C10001AE0049B1B788DF837309DF837302F2B56
:101C200012D99DF83730392B0ED8049B0133049319
:101C3000099A13469B0013445B001A469DF83730FF
:101C40001344303B0993D3E700230B93049B1B7889
:101C50008DF837309DF837302E2B1DD1049B013382
:101C60000493049B1B788DF837309DF837302F2B69
:101C700012D99DF83730392B0ED8049B01330493C9
:101C80000B9A13469B0013445B001A469DF83730AD
:101C90001344303B0B93E4E7049B1B788DF83730FB
:101CA0009DF837306C2B03D09DF83730682B07D167
:101CB000049B01330493049B1B788DF83730EFE7C6
:101CC0009DF83730253B532B00F2238101A252F8B7
:101CD00023F000BF091F0000131F0000131F0000A6
:101CE000131F0000131F0000131F0000131F00002C
:101CF000131F0000131F0000131F0000131F00001C
:101D0000131F0000131F0000131F0000131F00000B
:101D1000131F0000131F0000131F0000131F0000FB
:101D2000131F0000131F0000131F0000131F0000EB
:101D3000131F0000131F0000131F0000131F0000DB
:101D4000131F0000131F0000131F0000131F0000CB
:101D5000131F0000131F0000131F0000131F0000BB
:101D6000131F0000131F0000131F0000131F0000AB
:101D7000131F0000131F0000131F0000131F00009B
:101D8000131F0000131F0000131F0000131F00008B
:101D9000131F0000131F0000131F0000131F00007B
:101DA000951E0000131F0000131F0000131F0000EA
:101DB000131F0000131F0000131F0000131F00005B
:101DC000131F0000131F0000131F0000251E00003A
:101DD0004D1E0000131F0000131F0000131F000002
:101DE000131F00004D1E0000131F0000131F0000F2
:101DF000131F0000131F0000131F0000131F00001B
:101E0000D51E0000131F0000131F0000B91E0000A4
:101E1000131F0000711E0000131F0000131F00009D
:101E2000951E0000039B1B68191D039A11601B6817
:101E30000C930C9B8DF81F309DF81F3019460598A8
:101E4000FFF7C2FC66E000BF48BA0000039B1B68B6
:101E5000191D039A11601B680C930A9B0193099B3F
:101E600000930B9B0A220C990598FFF7C5FD51E0E2
:101E7000039B1B68191D039A11601B680C930C9936
:101E80000A9B0193099B00930B9B0A220598FFF77D
:101E90001BFD3FE0039B1B68191D039A11601B6823
:101EA0000C930C990A9B0193099B00930B9B1022A6
:101EB0000598FFF709FD2DE0039B1B68191D039A88
:101EC00011601B6808930A9B099A08990598FFF707
:101ED00099FC1FE0039B1B68191D039A11601B6886
:101EE0000C9330210598FFF76FFC78210598FFF7D8
:101EF0006BFC0C9900230193082300930823102204
:101F00000598FFF7E1FC05E025210598FFF75CFC4B
:101F100000E000BF049B0133049305E09DF83730D7
:101F200019460598FFF750FC049B1B78002B7FF4A3
:101F30001DAE00E000BF059B1B7B002B04D0059865
:101F4000FFF7E6FB00E000BF0FB05DF804FB00BF49
:101F500000B585B00190019B002B0AD0074B43F0E0
:101F600001030393019B9B010293039B02989847F3
:101F700000E000BF05B05DF804FB00BF70BC0000CE
:101F800000B583B00190019B002B0AD04FF47A700A
:101F9000FFF7DEFF019B013B0193019B002BF5D175
:101FA00000E000BF03B05DF804FB08B5FEF796FC47
:101FB00000BF08BD00B589B0039002910192019B5A
:101FC000002B33D00023079303230693029A079B29
:101FD0001344019A19460020FEF714FC0590079A55
:101FE000059B13440793019A059BD31A0193059B04
:101FF000002B13D10F4B1B7883F00103DBB2002BB6
:1020000013D10120FFF7BCFF069B013B0693069B03
:10201000002B03D1074B00221A7007E0054B012269
:102020001A70019B002BD1D100E000BF00BF09B0A6
:102030005DF804FBD811002000B585B00390029133
:10204000054B00934023054A0299039800F012F8CB
:1020500000BF05B05DF804FBB51F0000DC110020D7
:1020600082B0019000BF02B0704782B0019000BF03
:1020700002B0704700B5A1B005900491039202939D
:10208000049801F0CEF8039B1593029B169300234E
:10209000179300238DF8603000231993229B1A9325
:1020A00000231F930FA91F9B0822049801F092F9A7
:1020B00008231F93119B1293BDF84030ADF84C30AC
:1020C000BDF84230ADF84E3000238DF851309DF808
:1020D0003C3003F00303DBB2012B26D10F9BC3F38B
:1020E00095231C939DF83C30C3F3C203DBB28DF8FB
:1020F0005030BDF83C30C3F38313DBB21B931B9B02
:102100009A0009A91F9B049801F064F91B9B9B008E
:102110001F9A13441F9312AA09A915AB00931346E3
:102120001B9A1C9800F0C4FE2FE09DF83C3003F091
:102130000303DBB2022B28D1BDF83E30C3F3891371
:102140009BB21E939DF83C30C3F3C203DBB28DF803
:1021500050301E9B082B28BF08231D9307A91F9BE7
:102160001D9A049801F036F91F9A1D9B13441F9382
:102170001E9A1D9BD31A1E9315AB12AA07A81D9970
:1021800000F038FF1E9B002BE3D1049801F058F8B3
:1021900000BF21B05DF804FB82B00190019BDB68B9
:1021A00001225A7100BF02B07047000000B583B031
:1021B0004FF0FF330193FFF7F8FE0421084800F0C9
:1021C00093FD0190019B002B03DA06494120FFF7A4
:1021D000F9F80348FFF7E0FF00BF03B05DF804FB28
:1021E0008CCF000088BC000000B583B00190009146
:1021F000019B1B681B6800990198984700BF03B0BA
:102200005DF804FB00B583B00190019B1B685B681F
:102210000198984700BF03B05DF804FB00B583B098
:102220000190019B1B689B680198984700BF03B011
:102230005DF804FB82B001900B468DF80330019BE2
:10224000DB689DF803201A7100BF02B0704782B0AE
:102250000190019BDB681B79184602B0704782B081
:102260000190019BDB6801225A7100BF02B07047E8
:1022700082B00190019BDB685B79184602B0704721
:1022800000B585B001900091154BFF229A60144B68
:1022900000221A60124B00225A60114B0022C3F830
:1022A00018240F4B0022C3F814240D4B012283F88D
:1022B00020240C4800F01AFF0390039B002B01D050
:1022C000039B08E0084801F0A5F8084A084BD31A18
:1022D000DB0802930023184605B05DF804FB00BF3D
:1022E0008413002050CF0000E8BC000050CF000055
:1022F000D0CE0000024A034BD31ADB0818467047C1
:1023000050CF0000D0CE000000B587B001900B4642
:102310008DF803309DF80330002B1FD0FFF7EAFF44
:1023200004900023059313E0059B9B000E4A134481
:102330000393039B1B881A46019B1B689A4204D196
:10234000019B059A1A60002309E0059B0133059360
:10235000059A049B9A42E7D3052300E00023184620
:1023600007B05DF804FB00BF680A002000B585B027
:1023700001900B468DF803309DF8032001AB114608
:102380001846FFF7C1FF0346002B07D1019BDB0076
:10239000054A13440393039B1B6800E0002318467F
:1023A00005B05DF804FB00BFD0CE000084B0019002
:1023B0000B468DF80330019BDB00174A1344029350
:1023C0009DF80330013B032B1CD801A252F823F0E7
:1023D000E1230000E9230000F1230000FB230000BB
:1023E00002238DF80F3011E004238DF80F300DE03B
:1023F000029B1B798DF80F3008E0029B5B798DF80A
:102400000F3003E000238DF80F3000BF9DF80F3030
:10241000184604B0704700BFD0CE000084B00190D1
:10242000009100238DF80F30019B1B7803F004030B
:10243000DBB2002B24D0019B1B78C3F30103DBB27A
:10244000012B02D0022B0CD017E0009B1B68019AD5
:102450001288C2F38312D2B213449A1C009B1A60F2
:102460000BE0009B1B68019A5288C2F3891292B25A
:1024700013449A1C009B1A6000BF01238DF80F3093
:102480009DF80F30184604B07047000000B58BB0BF
:102490000023ADF826303E48FFF722F83D48FFF70D
:1024A0001FF83D4B5B6804933B4B9B680693049A73
:1024B000069B134002339B00374A134404330893AE
:1024C00004AB19460898FFF7A9FF0346002B09D073
:1024D000049A069B134002339B002F4A1344043393
:1024E0000893EDE700BF0023079311E0049B5A1CFB
:1024F0000492069A1340079A920001A90A442649B9
:1025000002339B000B445B681360079B0133079306
:10251000079B012BEAD99DF80430C3F30103DBB21A
:10252000012B10D0022B1CD1BDF80A30ADF826309B
:10253000BDF80630C3F389139BB203339A08049B9A
:102540001344049313E0BDF80A30ADF82630BDF80B
:102550000430C3F38313DBB21A46049B1344049381
:1025600005E00E494FF4BF70FEF72CFF00BF09488D
:10257000FEF7C2FF0590059B002B02D0049B064A84
:102580005360BDF8263018460BB05DF804FB00BF61
:102590009C1700209817002084130020F8BC00002E
:1025A00000B585B000210748FEF723FF0390039B89
:1025B0000293029B83F310030193019B184605B01D
:1025C0005DF804FBA017002000B589B003900291CC
:1025D00001920093039B1B0C0793FFF7E1FF06900A
:1025E000FFF788FE0246079B934204D3214940F23D
:1025F000A310FEF7E7FE069B1904009B5A1C0A9BDA
:102600001340079A0A431C4902339B000B445A604B
:10261000009A0A9B134002339B00174A1344043369
:102620000593039B03F00703D9B2059A137861F36E
:10263000C5031370019B03F00F03D9B2059A1388E9
:1026400061F389131380029BC3F31501059A136884
:1026500061F39F231360059A1378012161F301034D
:102660001370059A13786FF38203137000BF09B0DB
:102670005DF804FBF8BC00008413002000B58BB0AB
:102680000390029113468DF80730039B02330893A1
:1026900001238DF81F300020FEF74CFD3E4B1A68D9
:1026A000029B1A603C4B9A683B4B59683A4B1B683B
:1026B000CB1A13440133099314E001213748FEF784
:1026C000DFFEFFF7E3FE059005993448FEF7D8FEDC
:1026D000314B9A68304B59682F4B1B68CB1A134407
:1026E00001330993089A099B9A42E6D89DF81F3056
:1026F000002B48D0002304939DF80730002B17D0FF
:102700009DF81030012262F301038DF810309DF81E
:10271000103043F004038DF81030039B03F00F03D7
:10272000DAB2BDF8103062F38913ADF8103016E05C
:102730009DF81030022262F301038DF810309DF8ED
:10274000103043F004038DF81030039BC3F30903EA
:102750009AB2BDF8123062F38F13ADF812300E4BFF
:102760001A680D4B9B68134002339B000A4A1344BE
:1027700004330693049A069B1A60074B1A68089B59
:102780001344054A13600020FEF7E8FC9DF81F3053
:1027900018460BB05DF804FB84130020A01700203E
:1027A00000B58BB005900491039202931F4B9B6878
:1027B000079306AB012219460298FFF75FFF034615
:1027C000002B24D0069B023309930023089311E0C9
:1027D000089B9B00039A1A44099B591C099107996D
:1027E0000B401268114902339B000B445A60089B4E
:1027F00001330893089A029B9A42E9D3069A079BF1
:1028000000931346029A04990598FFF7DDFE074BE3
:1028100093F82034002B05D000BF00F065F8034684
:10282000002BFAD100BF0BB05DF804FB841300202D
:1028300000B583B001900091002300220099019817
:10284000FFF7AEFF00BF03B05DF804FB00B587B033
:10285000039002910192019B059305AA012302991D
:102860000398FFF79DFF00BF07B05DF804FB00B5BC
:1028700089B00390029101920093019B0593009B04
:1028800006930A9B079305AA032302990398FFF76F
:1028900087FF00BF09B05DF804FB00B589B0039065
:1028A000029101920093019B0493009B05930A9B64
:1028B00006930B9B079304AA042302990398FFF73E
:1028C0006FFF00BF09B05DF804FB0000054B5A68BC
:1028D000044B1B689A420CBF01230023DBB218464D
:1028E000704700BF8413002000B599B0FFF7EEFFDA
:1028F0000346002B01D00023B5E19A4B0022C3F818
:102900001824BFF34F8F974B5B680493954B9B68DC
:102910001093049A109B134002339B00914A134476
:1029200004331193002317930023169300230F936E
:1029300004AB19461198FFF771FD0346002B19D01F
:10294000884BD3F81834002B14D1864B1A68049B9B
:102950009A4205D8834B1B68824A5360002382E168
:10296000049A109B134002339B007E4A13440433A5
:102970001193DDE70023159311E0049B5A1C049288
:10298000109A1340159A920001A90A44754902331E
:102990009B000B445B681360159B01331593159BDB
:1029A000012BEAD99DF8043003F00303DBB2022BBC
:1029B00040F09C80BDF80630C3F389139BB20D93A1
:1029C000BDF80630C3F389139BB2502B28BF5023A8
:1029D0009BB20C930C9BC3F309039AB2BDF806306B
:1029E00062F38F13ADF806300C9B08330B939DF800
:1029F0000430C3F3C203DBB20F930B995A4800F0C3
:102A000080FB1790179B002B00F0D080179800F0E8
:102A100008FC01A9169B0822179800F0BDFC169B24
:102A200008331693049BDA43109B134001339B0039
:102A30000A930C9A0A9B9A4242D90A9B002B08D00F
:102A4000049A109B134002339B00464A13440433FC
:102A500000E0464B08930A9B002B02D00A9BDBB296
:102A600001E00C9BDBB28DF81F300A9B002B01D0DC
:102A70003E4B00E0002306930A9B002B06D00C9BE4
:102A8000DAB20A9BDBB2D31ADBB200E000238DF886
:102A900017309DF81F20169B0899179800F07CFCB2
:102AA0009DF81F30169A13441693069B002B16D0E0
:102AB0009DF81720169B0699179800F06DFC0EE004
:102AC000049A109B134002339B00264A134404339C
:102AD0000993169B0C9A0999179800F05DFC0D9BC1
:102AE00003339A08049B134404935FE09DF8043079
:102AF00003F00303DBB2012B58D1BDF80430C3F35C
:102B00008313DBB2062B28BF0623DAB2BDF80430EC
:102B100062F38913ADF80430BDF80430C3F38313B6
:102B2000DBB202330E939DF80430C3F3C203DBB271
:102B30000F930E9B9B0019460B4800F0E2FA17908A
:102B4000179B002B32D0179800F06BFB01A9169B46
:102B50000822179800F020FC169B083316930023D8
:102B600015931AE08413002050CF0000901300202A
:102B7000049B5A1C0492109A134002339B003C4A57
:102B80001344191D169B0422179800F005FC169B90
:102B900004331693159B01331593BDF80430C3F32A
:102BA0008313DBB21A46159B9342E1D3179B002B8C
:102BB00039D02F4BD3F8103414932D4BD3F818344D
:102BC000002B1BD0179800F03BFB46E000238DF84C
:102BD0004F301498FFF74CFB0346002B02D0012323
:102BE0008DF84F309DF84F30002B03D01799149873
:102BF000FFF7FAFA149BDB681B681493149B002BF5
:102C0000E4D1179800F01CFB0020FEF793FA184B54
:102C1000D3F81834002B02D1049B154A53600020CE
:102C2000FEF79CFA19E0124BD3F81034129306E029
:102C30001298FFF7F3FA129BDB681B681293129B42
:102C4000002BF5D10B4A0C4BD31ADB081B0443F0C5
:102C500002030A491846FFF7EBFDFFF737FE03466C
:102C600083F00103DBB2184619B05DF804FB00BF26
:102C70008413002028CF0000D0CE000050BD0000FB
:102C800000B585B00023039323E0164BD3F810342E
:102C9000029301238DF807300FE00298FFF7D7FA6F
:102CA00003461A46039B934203D100238DF8073055
:102CB00006E0029BDB681B680293029B002BECD1B1
:102CC0009DF80730002B01D0039B07E0039B0133E5
:102CD0000393039B092BD8DD4FF0FF33184605B053
:102CE0005DF804FB8413002000B585B001900B460D
:102CF0008DF80330FFF7C4FF0390039BB3F1FF3F50
:102D000001D1039B22E0039BDBB219460198FFF738
:102D100091FA104BD3F81034002B08D10D4A019BC7
:102D2000C2F81034019BDB6800221A600DE0094BE9
:102D3000D3F81034DA68019BDB6812681A60054B1F
:102D4000D3F81034DB68019A1A60039B184605B06B
:102D50005DF804FB8413002000B583B00C4BD3F85E
:102D6000103401930A4B012283F8202409E00198D2
:102D7000FFF775FA0198FFF745FA019BDB681B68BE
:102D80000193019B002BF2D100BF03B05DF804FB5F
:102D90008413002082B00190009100BF02B0704700
:102DA00010B584B003900291039BDB88002B0AD0FE
:102DB000039BDB881A461F4B009313461E4A1F498C
:102DC0000298FEF7C7FC039B1B7A052B2ED0039BB2
:102DD0005B7A002B12D0039B9B881A46039B1B7ABD
:102DE00019461046FFF7E2FA03461A46144B53F809
:102DF00022301A4613490298FEF7ACFC039B1B686D
:102E000019460298FFF7C6FF039B1B7A1A460E4B22
:102E100053F82240039B9B8800211846FFF7A6FA2F
:102E20000346224609490298FEF794FC00BF04B00D
:102E300010BD00BF84BD000094BD0000CCBD0000EB
:102E400084000020E4BD000070000020E8BD000008
:102E500000B585B00390029113468DF80730039BAF
:102E60001B7A052B0FD0039B5B7A002B06D00D4BF2
:102E70001B681A460C490298FEF76CFC0B49029835
:102E8000FEF768FC07E09DF80730002B03D00749E8
:102E90000298FEF75FFC0298FEF73AFC00BF05B00F
:102EA0005DF804FB84000020E4BD0000F4BD0000D8
:102EB00030B58BB007900691059204930E9B1B7B57
:102EC0008DF827300E9B00221A730E990498FFF795
:102ED00067FF059B062B7FD801A252F823F000BFA5
:102EE000FD2E0000072F0000172F00002B2F0000E1
:102EF000492F0000712F0000A12F000007990E98A4
:102F0000FEF728FC69E0069B1B681A4607990E9895
:102F1000FEF720FC61E0069B1A68069B04331B68E1
:102F200007990E98FEF716FC57E0069B1A68069B59
:102F300004331968069B08331B6800930B460799F6
:102F40000E98FEF707FC48E0069B1968069B0433C1
:102F50001868069B08331B68069A0C3212680192A7
:102F6000009303460A4607990E98FEF7F3FB34E0F8
:102F7000069B1868069B04331C68069B08331B6875
:102F8000069A0C3212680699103109680291019272
:102F900000932346024607990E98FEF7DBFB1CE0E0
:102FA000069B1C68069B04331D68069B08331B6840
:102FB000069A0C3212680699103109680698143086
:102FC000006803900291019200932B4622460799D4
:102FD0000E98FEF7BFFB00E000BF00220E99049898
:102FE000FFF736FF0E9B9DF827201A7300BF0BB02A
:102FF00030BD00BF00B587B00390029101920093ED
:10300000029B082B64D8009B1B7B8DF81330009B20
:1030100000221A7300990198FFF7C2FE002305935E
:1030200014E0059A029B9A4209D2039A059B134425
:103030001B781A4628490098FEF78CFB03E02749C5
:103040000098FEF787FB059B01330593059B072B33
:10305000E7D923490098FEF77DFB002305932AE07A
:10306000059A029B9A421FD2039A059B13441B7830
:103070008DF812309DF812307E2B0ED802F02CF90C
:1030800002469DF81230013313441B7803F0970376
:10309000002B02D09DF8123000E02E231A46114971
:1030A0000098FEF757FB03E00F490098FEF752FB2C
:1030B000059B01330593059B072BD1D9012200996C
:1030C0000198FFF7C5FE009B9DF813201A7300E0DE
:1030D00000BF07B05DF804FBF8BD000000BE0000B3
:1030E00004BE000008BE00000CBE000000B583B0A6
:1030F00001900198FEF742FA0346184603B05DF8C6
:1031000004FB00B58BB001900091019B1B8A043B2E
:103110000793009A079B1344DA1C079BB2FBF3F357
:103120008DF81B300198FEF785FA0590059B002B62
:1031300001D1002338E0059B00221A71059B012272
:103140005A71079B9AB2059BDA80059B09939DF8FB
:103150001B30013B0493099B019A1A6000230893DA
:103160001DE00198FEF766FA0390039B002B0ED03A
:10317000059B5B790133DAB2059B5A71099B039A6F
:103180001A60039B019A1A60039B099304E0059857
:1031900000F00EF8002307E0089B01330893089A1B
:1031A000049B9A42DDD3059B18460BB05DF804FBE7
:1031B00000B58BB00190019B0793079B5B798DF85D
:1031C0001B30019B08939DF81B30013B05930023A6
:1031D000099305E0089B1B680893099B0133099339
:1031E000099A059B9A42F5D3089B1B680493019B9F
:1031F0000893002309930BE0089B1B68039308992D
:103200000498FEF759FA039B0893099B013309932D
:103210009DF81B30099A9A42EED300BF0BB05DF8BF
:1032200004FB00B585B00190019B0393039B04331D
:1032300001211846FEF724F900BF05B05DF804FB34
:1032400000B587B00190019B0593059B04330121D4
:103250001846FEF72DF90346039303AB0493049B32
:103260001B78002B02D10198FFF7A2FF00BF07B027
:103270005DF804FB00B591B00390029101920093B8
:10328000039B002B03D14349B620FEF79BF8039B19
:103290000993039B0F93099BDB881A46099B5B7973
:1032A00003FB02F3043B0893009A089B9A4203D362
:1032B0003849C420FEF786F8099BDB880793009BFA
:1032C0001A1D079BB2FBF3F30E93009B0433079A7E
:1032D000B3FBF2F2079901FB02F29B1A0D93019BDB
:1032E0001A68009B1344089A9A4203D2089A009BDA
:1032F000D31A01E0019B1B680C93019B0C9A1A6086
:1033000005E00F9B1B680F930E9B013B0E930E9BDA
:10331000002BF6D100230B93079A0D9BD31A0A9327
:103320000A9A0C9B934228BF13460A932AE0029AFA
:103330000B9B134406930F9A0D9B13440433059380
:103340009DF84830002B05D00A9A0599069801F09F
:10335000E7FF04E00A9A0699059801F0E1FF0023CF
:103360000D930F9B1B680F930C9A0A9BD31A0C9317
:103370000B9A0A9B13440B93079A0C9B934228BF0A
:1033800013460A930C9B002BD1D100BF11B05DF8FE
:1033900004FB00BF10BE000000B589B00590049189
:1033A00003920293039B079307AA00230093029BB7
:1033B00004990598FFF75EFF079B039A9A4203D092
:1033C0000349F620FDF7FEFF00BF09B05DF804FBDE
:1033D00010BE000000B589B00590049103920293DD
:1033E000039B079307AA01230093029B0499059866
:1033F000FFF740FF079B039A9A4204D004494FF419
:103400008070FDF7DFFF00BF09B05DF804FB00BF6F
:1034100010BE000082B00190019B9B6800229A6060
:10342000019B9B6800221A61019B9B6800225A61E4
:10343000019B9B680022DA60019B9B6800225A6016
:10344000019B9B6800221A6000BF02B07047000019
:1034500000B585B00190019800F00EF80390039B31
:10346000002B01D0039B00E0024B184605B05DF82D
:1034700004FB00BF78BF000086B00190164B059397
:10348000164B04931FE0049A059BD31ADB10DA0F46
:1034900013445B10DB00059A13440393039B1B68E2
:1034A0000293029A019B9A4202D9039B04930AE079
:1034B000029A019B9A4203D2039B0833059302E0D0
:1034C000039B5B6804E0059A049B9A42DBD30023CC
:1034D000184606B0704700BF4CC3000064C400002B
:1034E00082B001904FF08042019BC2F8083300BFC8
:1034F00002B0704784B00346ADF80630BDF8063020
:1035000003F1804300221A60BDF8063003F18043C6
:103510001B680393039B00BF04B0704782B003464F
:10352000ADF80630BDF8063003F180431B68002B70
:1035300014BF01230023DBB2184602B0704700001D
:1035400008B54FF48070FFF7E9FF0346002B14D055
:103550004FF48070FFF7CEFF0120FFF7C1FF114B42
:103560005B7983F00103DBB2002B06D00D4B012207
:103570005A710C4B1B68002098474FF48270FFF77C
:10358000CDFF0346002B0AD04FF48270FFF7B2FF45
:103590000220FFF7A5FF034B1B680120984700BFDF
:1035A00008BD00BFA817002082B003468DF8073081
:1035B0009DF8073003F01F0205499DF907305B09AC
:1035C000012000FA02F241F8232000BF02B0704748
:1035D00000E100E082B0034600918DF807309DF9CC
:1035E0000730002B0CDA009BDAB20C499DF807304B
:1035F00003F00F03043B5201D2B20B441A7609E0E8
:10360000009BDAB206499DF907305201D2B20B4451
:1036100083F8002300BF02B0704700BF00ED00E058
:1036200000E100E000B583B003460A468DF807309C
:1036300013468DF806309DF80630072B03D908494C
:103640006B20FDF7BFFE9DF806209DF9073011465F
:103650001846FFF7BFFF00BF03B05DF804FB00BFD3
:1036600000C5000000B583B003468DF807309DF912
:1036700007301846FFF798FF00BF03B05DF804FB62
:1036800000B583B00346ADF80630BDF806301846E5
:1036900000F026F803461B68012B0CBF0123002312
:1036A000DBB2184603B05DF804FB00B585B00346F5
:1036B000ADF80630BDF80630184600F011F80346A4
:1036C0001A4600231360BDF80630184600F008F8CB
:1036D00003461B680393039B00BF05B05DF804FB22
:1036E00082B00346ADF80630BDF8063003F18043E2
:1036F00003F5C043184602B07047000082B0019045
:10370000034A019BC2F8043300BF02B0704700BFF8
:103710000060004082B00190034BD3F80423019B6A
:103720001340184602B070470060004082B001901C
:10373000054A019B03F5A27352F823301B0A03F0DC
:103740001F03184602B070470060004082B001902D
:10375000064A019B03F5A27352F823301B0C03F0B9
:103760000303DBB2184602B0704700BF00600040A0
:1037700084B00390029111461A460B468DF807302B
:1037800013468DF80630184A039B03F5A27352F8CE
:103790002330154923F4981323F4F853039A02F5C0
:1037A000A27241F82230104A039B03F5A27352F82B
:1037B0002320029B1B0203F4F8519DF807301B04E1
:1037C00003F4403319439DF806301B0503F48013BE
:1037D0000B4305491A43039B03F5A27341F82320C9
:1037E00000BF04B0704700BF0060004000B583B068
:1037F0000190019B1B681F2B04D905494FF4F370FE
:10380000FDF7E0FD4FF0A043184603B05DF804FB60
:1038100044C5000000B585B00190084611461A461F
:1038200003468DF803300B468DF8023013468DF8B1
:10383000013001AB1846FFF7D9FF03909DF8032034
:103840009DF802305B001A439DF801309B001A433B
:103850009DF818301B0242EA03019DF81C301B043E
:10386000019A1943039B02F5E07243F8221000BF4E
:1038700005B05DF804FB00B585B00390002301930B
:10388000002300930023012201210398FFF7C2FFC8
:1038900000BF05B05DF804FB00B585B001900B4694
:1038A0008DF8033001AB1846FFF7A0FF0390019A93
:1038B000039B02F5E07253F82230019A23F4403161
:1038C000039B02F5E07243F82210019A039B02F574
:1038D000E07253F822309DF8032012041146019A39
:1038E0001943039B02F5E07243F8221000BF05B0B4
:1038F0005DF804FB00B585B0019001AB1846FFF7F9
:1039000075FF0390019B012202FA03F31946039805
:1039100000F036F800BF05B05DF804FB00B585B0D7
:10392000019001AB1846FFF761FF0390019B012254
:1039300002FA03F31946039800F02CF800BF05B013
:103940005DF804FB00B585B0019001AB1846FFF7A8
:103950004DFF0390019A039B02F5E07253F8223069
:103960001B0C03F00303DBB2184605B05DF804FB43
:1039700082B00190019BD3F81035184602B0704711
:1039800082B001900091019B009AC3F8082500BF06
:1039900002B0704782B001900091019B009AC3F879
:1039A0000C2500BF02B0704700B587B003900291AC
:1039B00001924FF0A0430493039A029B1344012BFE
:1039C00004D9124940F21630FDF7FCFC039B059325
:1039D00011E0059B9B0006AA134453F8083C1846C7
:1039E000FFF7C6FF0246019B1A60019B0433019357
:1039F000059B01330593039A029B1344059A9A424F
:103A0000E7D300BF07B05DF804FB00BF44C500006A
:103A100084B001900091009B0393019BDB0802930B
:103A2000019B03F0070301930122019B02FA03F3B8
:103A30000399029A0A4412781340184604B070475A
:103A400084B001900091009B0393019BDB080293DB
:103A5000019B03F007030193039A029B13441B7815
:103A60005AB20121019B01FA03F35BB2134359B22D
:103A7000039A029B1344CAB21A7000BF04B0704785
:103A800082B00190074A019B1344303393F9003010
:103A9000B3F1FF3F14BF01230023DBB2184602B08D
:103AA000704700BFB017002082B001900C4A019B04
:103AB0001344303393F90030002B09DB084A019B93
:103AC0001344303393F90030072B01DC012300E06D
:103AD000002303F00103DBB2184602B0704700BFB9
:103AE000B017002084B00390029101928DF803304A
:103AF000029B59B20E4A039B134430330A461A7094
:103B00000B49029B019A41F823209DF8033083F072
:103B10000103DBB2002B08D0029B083B039A51B291
:103B2000034A13440A4683F8502000BF04B070478C
:103B3000B017002082B00190044A019B1344303337
:103B4000FE221A7000BF02B0704700BFB0170020FD
:103B500082B00190044A019B13443033FF221A7053
:103B600000BF02B0704700BFB017002000B583B09F
:103B7000019004490198FFF763FF00BF03B05DF8AF
:103B800004FB00BF0418002082B00190044A019B8E
:103B90001344303393F90030184602B0704700BF29
:103BA000B017002082B00190034A019B52F82330E5
:103BB000184602B0704700BFB017002000B589B0AA
:103BC0000390029113468DF80730FF238DF81F30C4
:103BD0009DF80730002B01D0002300E00823059357
:103BE0009DF80730002B01D0082300E00C2304933C
:103BF000059B069314E00F4A069B52F82330B3F15D
:103C0000FF3F0AD19DF80730029A06990398FFF703
:103C100069FF069B8DF81F3006E0069B0133069373
:103C2000069A049B9A42E6D39DF91F30184609B0C4
:103C30005DF804FBB017002082B003468DF8073012
:103C40009DF80730094A4FF0FF3142F823109DF8E4
:103C50000730072B07D99DF80730083B034A134468
:103C6000FF2283F8502000BF02B07047B017002039
:103C700000B583B0254B93F85830002B03D00823B0
:103C80000193019B3EE000238DF8033009E09DF88D
:103C900003301846FFF75CFF9DF8033001338DF8C1
:103CA00003309DF803301F2BF1D900238DF803302A
:103CB00009E09DF803301846FFF7BEFF9DF803307A
:103CC00001338DF803309DF803300B2BF1D904221A
:103CD00000210F4801F0BEFB07210620FFF7A2FCE0
:103CE0000620FFF7BFFC4FF4BE70FFF7DEFC4FF07D
:103CF0000040FFF703FD054B012283F85820002305
:103D00000193019B184603B05DF804FBB017002037
:103D100004180020044B93F85830002B14BF0123E3
:103D20000023DBB218467047B017002000B585B0FD
:103D300001900091019B1F2B04D92E494FF49870DC
:103D4000FDF740FB2C4B93F85830012B04D0294948
:103D500040F23110FDF736FB009B002B04D12549C2
:103D60004FF49970FDF72EFB002303930198FFF7A2
:103D700087FE0346002B02D00823039334E0009B08
:103D80009B78002B19D0012200210198FFF716FF24
:103D900003468DF80B309DF90B30B3F1FF3F09D08E
:103DA0009DF90B00009B1A78009B5B780199FFF747
:103DB000DFFC05E00423039302E00198FFF7BAFE5D
:103DC000039B002B10D1009B5B78012B03D1019842
:103DD000FFF790FD02E00198FFF7A0FD0198FFF7C3
:103DE0004AFD0198FFF7C2FE039B184605B05DF837
:103DF00004FB00BF90C50000B017002000B583B0E1
:103E00000190019B1F2B04D912494FF4BE70FDF79E
:103E1000D9FA0198FFF734FE0346002B04D10D496F
:103E200040F27D10FDF7CEFA0198FFF73DFE034604
:103E300083F00103DBB2002B04D106494FF4BF70BD
:103E4000FDF7C0FA0198FFF755FD00BF03B05DF81C
:103E500004FB00BF90C5000000B583B00190019B3A
:103E60001F2B04D912494FF4C370FDF7ABFA019828
:103E7000FFF706FE0346002B04D10D4940F28710E0
:103E8000FDF7A0FA0198FFF70FFE034683F0010348
:103E9000DBB2002B04D106494FF4C470FDF792FA4F
:103EA0000198FFF73BFD00BF03B05DF804FB00BFC6
:103EB00090C5000000B595B0002310930023039334
:103EC0004FF48073ADF83A300123129300230F931F
:103ED00021E0BDF83A301846FFF7D2FB0346002B2D
:103EE0000ED01298FFF716FC0346002B08D0BDF841
:103EF0003A301846FFF7D9FB109A129B13431093E0
:103F0000129B5B001293BDF83A300433ADF83A309F
:103F10000F9B01330F930F9B072BDAD94FF4BE7021
:103F2000FFF7AEFB0346002B0DD04FF4BE70FFF73A
:103F3000BCFB109B43F00043109303AB1A460121D6
:103F40000020FFF731FD109BDBB2002B29D00123AD
:103F5000129300230F9321E0129A109B1340002B21
:103F600016D00F98FFF7E2FB0D900F98FFF7EEFBCE
:103F700003468DF833300F98FFF714FE0B900B9B20
:103F8000002B05D09DF833200B9B11460D989847C8
:103F9000129B5B0012930F9B01330F930F9B072B18
:103FA000DAD9109B002B80F2EE8000238DF84F3081
:103FB00000230293002311930AE0119B9B0014AA93
:103FC00013444FF0FF3243F84C2C119B01331193F3
:103FD000119B002BF1D000238DF84F3000230F935D
:103FE00078E06B4A0F9B1344503393F900308DF8FF
:103FF0002B309DF82B3023F0C0030993644A0F9BAC
:104000001344503393F90030B3F1FF3F5FD001AB5D
:1040100019460998FFF7FCFC0346002B57D09DF882
:104020002B309B098DF823300998FFF7ADFD03462F
:104030001846FFF7B7FD0790079B002B03D19DF8AB
:104040002330032B43D19DF82330032B04D102AB43
:1040500019460998FFF7F4FC0998FFF773FC03462B
:104060008DF81B3003AB19460998FFF7D1FC05907A
:10407000059B002B03D09DF81B30022B06D0059B1F
:10408000002B24D19DF81B30032B20D19DF8233029
:10409000032B13D19DF81B30022B01D1032300E029
:1040A00002238DF813309DF8133019460998FFF755
:1040B000F3FB9DF84F3001338DF84F30079B002BF9
:1040C00005D09DF82320079B1146099898470F9B20
:1040D00001330F930F9B032B83D99DF84F30002B97
:1040E0004CD001238DF84E306B461A46012100203A
:1040F000FFF75AFC0023119314E0119B9B0014AAB4
:10410000134453F8502C119B9B0014A90B4453F8F3
:10411000443C9A4203D000238DF84E3005E0119BB9
:1041200001331193119B002BE7D09DF84E30002BEB
:1041300003D000238DF84F3020E0002311931AE0C4
:10414000119B9B0014AA134453F8502C119B9B0005
:1041500014A90B4443F8442C119B9B0014AA13444C
:1041600053F8482C119B9B0014A90B4443F84C2C8A
:10417000119B01331193119B002BE1D09DF84F301F
:10418000002B7FF428AF00BF15B05DF804FB00BF23
:10419000B017002008B5064B1B68002B03D105495A
:1041A0005120FDF70FF9024B1B68984700BF08BD6F
:1041B0000C180020E8C5000084B001900B46ADF853
:1041C0000230BDF80230019A134400221A60BDF893
:1041D0000230019A13441B680393039B00BF04B091
:1041E000704782B001900B46ADF80230BDF8023046
:1041F000019A13441B68002B14BF01230023DBB278
:10420000184602B0704700B583B0019000914FF49A
:1042100088710198FFF7E5FF0346002B12D04FF499
:1042200088710198FFF7C8FF009B5B7903F00403D6
:10423000002B07D0009B1B68002B03D0009B1B6842
:10424000012098474FF48A710198FFF7CAFF03468F
:10425000002B12D04FF48A710198FFF7ADFF009B3D
:104260005B7903F00803002B07D0009B1B68002B31
:1042700003D0009B1B68022098474FF48E71019871
:10428000FFF7AFFF0346002B12D04FF48E71019859
:10429000FFF792FF009B5B7903F01003002B07D11F
:1042A000009B1B68002B03D0009B1B6800209847D5
:1042B0004FF482710198FFF794FF0346002B0FD053
:1042C0004FF482710198FFF777FF009B01221A716A
:1042D000009B1B68002B03D0009B1B6803209847A2
:1042E00000BF03B05DF804FB08B503490348FFF7BE
:1042F0008AFF00BF08BD00BF1418002000C00140A5
:1043000008B503490348FFF77EFF00BF08BD00BFA3
:104310001C1800200010024008B503490348FFF7AD
:1043200072FF00BF08BD00BF24180020002002401B
:1043300082B003468DF807309DF8073003F18043C3
:1043400003F5E04301221A6000BF02B0704782B05B
:104350000346ADF80630BDF8063003F1804303F59F
:10436000E0431B68002B14BF01230023DBB2184677
:1043700002B0704784B00346ADF80630BDF8063091
:1043800003F1804303F5E04300221A60BDF80630D4
:1043900003F1804303F5E0431B680393039B00BFD5
:1043A00004B0704782B001900091054A019BC2F8A9
:1043B0002C36034A009BC2F8303600BF02B070476B
:1043C0000070004000B58DB04FF48270FFF7BFFF62
:1043D0000346002B46D04FF48270FFF7CBFF8C4B87
:1043E00093F82E3083F00103DBB2002B04D1884B0D
:1043F00093F82F30002B35D000238DF81830844BE4
:104400005B680793824B1B899BB2ADF82030804BD1
:10441000DB68002B03D17E4B00221A7419E07C4B21
:104420001A8B7B4B5A837A4BDB68794A5360784B03
:104430001A8B774B1A81764B0022DA60744B93F813
:104440002E3083F00103DBB2002B02D00020FFF7F7
:104450006FFF6F4B1B6806AA104698476C4B0022F3
:1044600083F82F206A4B93F82E30002B62D04FF444
:104470008070FFF76CFF0346002B5BD04FF4807019
:10448000FFF778FF624B5A8B614B93F82D309BB24C
:104490009A421CD95E4B5A8B5D4B93F82D309BB2E0
:1044A000D31A9AB25A4B5A83594B5A68584B1B89A4
:1044B0009BB21946564B5B8BCB1A5B001A44544B8C
:1044C00093F82D3019461046FFF76CFF2BE0504B48
:1044D0005A8B4F4B93F82D309BB29A4214D14C4BD0
:1044E000DB68002B10D04A4B012283F82F20484B69
:1044F00000225A83464BDA68454B93F82D30194613
:104500001046FFF74FFF0EE0414B5A8B404B93F89C
:104510002D309BB29A4206D13D4B012283F82F20C9
:104520003B4B00225A834FF48270FFF723FF042095
:10453000FFF7FEFE4FF48870FFF709FF0346002BDC
:104540000ED04FF48870FFF715FF314B00221A741C
:1045500002238DF80C302E4B1B6803AA1046984797
:104560004FF48A70FFF7F3FE0346002B07D04FF499
:104570008A70FFF7FFFE264B00221A7444E0244B9A
:104580005B690B933DE00B9BB3FA83F30A934FF007
:1045900000420A9B22FA03F3DB430B9A13400B936E
:1045A0000A9B9BB246339BB29B00ADF82630BDF808
:1045B00026301846FFF7CBFE0346002B21D0BDF86E
:1045C00026301846FFF7D6FE01238DF80030BDF8DF
:1045D0002630A3F58C73DB08DBB28DF80430BDF810
:1045E0002630A3F58C7303F00403002B0CBF0123CA
:1045F0000023DBB28DF80530054B1B686A46104678
:1046000098470B9B002BBED100BF0DB05DF804FB9B
:104610002C18002084B001900B46ADF80230BDF894
:104620000230019A134400221A60BDF80230019A48
:1046300013441B680393039B00BF04B0704782B010
:1046400001900B46ADF80230BDF80230019A1344D8
:104650001B68002B14BF01230023DBB2184602B0F5
:104660007047000000B583B00190019B1B681F2BB1
:1046700004D905494FF4F370FCF7A4FE4FF0A043B2
:10468000184603B05DF804FB78C8000000B585B09B
:10469000019001AB1846FFF7E5FF0390019B012253
:1046A00002FA03F31946039800F018F800BF05B0AA
:1046B0005DF804FB00B585B0019001AB1846FFF72B
:1046C000D1FF0390019B012202FA03F319460398DC
:1046D00000F00EF800BF05B05DF804FB82B0019059
:1046E0000091019B009AC3F8082500BF02B07047F3
:1046F00082B001900091019B009AC3F80C2500BF85
:1047000002B0704700B583B00190019BDB7FFF2BA7
:104710000ED0019B9B7F002B05D0019BDB7F1846B1
:10472000FFF7C8FF04E0019BDB7F1846FFF7AEFFF1
:10473000019B00225A77019B00221A72019B1B6881
:10474000019A02F10800019A52681146984700BF89
:1047500003B05DF804FB000000B583B00190009148
:104760004FF48C710198FFF76AFF0346002B10D0BD
:104770004FF48C710198FFF74DFF009B1B68002BD5
:1047800004D106494FF42770FCF71CFE0098FFF790
:10479000B9FF00BF03B05DF804FB00BFC4C8000050
:1047A00008B503494FF04020FFF7D6FF00BF08BD12
:1047B0005C18002084B001900B46ADF80230BDF8C3
:1047C0000230019A134400221A60BDF80230019AA7
:1047D00013441B680393039B00BF04B0704782B06F
:1047E00001900B46ADF80230BDF80230019A134437
:1047F0001B68002B14BF01230023DBB2184602B054
:10480000704782B001900091019BD3F80423009B74
:104810001340002B14BF01230023DBB2184602B063
:10482000704782B00190019B9BB250339BB29B00BA
:104830009BB2184602B0704782B001904FF48032AC
:10484000019B02FA03F3184602B0704700B587B027
:104850000390029113468DF8073000238DF817302E
:1048600030E09DF817301846FFF7DBFF0346ADF840
:1048700014309DF817301846FFF7DEFF0490BDF89E
:10488000143019460398FFF7AAFF0346002B14D0F3
:1048900004990398FFF7B5FF0346002B0DD0BDF830
:1048A000143019460398FFF785FF029B1B68029A94
:1048B0005168BDF81420104698479DF81730013311
:1048C0008DF817309DF817209DF807309A42C8D30D
:1048D00000BF07B05DF804FB08B504220249034895
:1048E000FFF7B4FF00BF08BD801800200080004023
:1048F00008B5042202490348FFF7A8FF00BF08BD1E
:104900008C1800200090004082B001900B468DF87A
:1049100003309DF80330019A134401221A6000BF4E
:1049200002B0704784B001900B46ADF80230BDF87C
:104930000230019A134400221A60BDF80230019A35
:1049400013441B680393039B00BF04B0704782B0FD
:1049500001900B46ADF80230BDF80230019A1344C5
:104960001B68002B14BF01230023DBB2184602B0E2
:10497000704782B001900091019B009AC3F8042314
:1049800000BF02B0704782B001900091019B009A75
:10499000C3F8082300BF02B0704784B00190019BA8
:1049A000D3F8C4340393019B039AC3F8C424039B34
:1049B000184604B0704782B001900091019B009AA4
:1049C000C3F8002200BF02B0704782B00190019B83
:1049D000D3F84C35184602B0704782B00190019B65
:1049E000D3F83C35184602B07047000030B58BB0A4
:1049F00001900091009B1B68002B04D17E4940F27E
:104A00004520FCF7DFFC4FF492710198FFF79FFF00
:104A10000346002B27D04FF492710198FFF782FFD5
:104A20004FF482710198FFF792FF034683F0010370
:104A3000DBB2002B17D0009B9B6819460198FFF74B
:104A4000A2FF009B02229A60009B9B681946019876
:104A5000FFF78FFF20210198FFF756FF14210198DF
:104A6000FFF752FFC5E04FF482710198FFF76FFF27
:104A70000346002B50D04FF482710198FFF752FF8C
:104A8000009B04AC03F10C050FCD0FC42B68236011
:104A9000009B93F82E30002B1BD0009B1B7B012B1F
:104AA00004D10198FFF799FF034603E00198FFF74F
:104AB0008CFF03460593009B1B7B022B04D10198BE
:104AC000FFF78BFF034603E00198FFF77EFF0346E5
:104AD00006934FF4B0710198FFF724FF4FF4AE71C5
:104AE0000198FFF71FFF009B93F8303083F001031C
:104AF000DBB2002B04D1009B93F82E30002B4CD05E
:104B000000210198FFF757FF009B00229A603B4964
:104B10000198FFF738FF40E04FF4A4710198FFF7C8
:104B200001FF009B1B7B002B1BD1009B04AC03F1FE
:104B30000C050FCD0FC42B682360009B93F8303019
:104B400083F00103DBB2002B27D000210198FFF78F
:104B500032FF009B00229A6028490198FFF713FF5B
:104B60001BE04FF400710198FFF725FF009B40F216
:104B700002229A6021490198FFF705FF009B9B687C
:104B800019460198FFF7F5FE08210198FFF7BCFED2
:104B900020210198FFF7B8FE2BE00198FFF7FDFEFA
:104BA0000990099B03F00203002B03D001238DF829
:104BB0000C300BE0099B03F00403002B03D002230D
:104BC0008DF80C3002E000238DF80C30009B93F838
:104BD000303083F00103DBB2002B03D0009B0022B6
:104BE00083F82F20009B1B68009A516803AA104687
:104BF00098470BB030BD00BF3CCA000002029C01C8
:104C000008B503490348FFF7F1FE00BF08BD00BF28
:104C10009818002000300040BFF34F8F054BDB6831
:104C200003F4E0620349044B1343CB60BFF34F8F9F
:104C300000BFFDE700ED00E00400FA05024B034A67
:104C40001A6000BF704700BFA80000200090D0038A
:104C500008B500F067F90346002B06D09F4B1B6890
:104C60001B0A9F4A03F01F03136000F087F90346F5
:104C7000002B02D09B4B9C4A1A6000F09BF9034624
:104C8000002B06D0994B1B685B0B994A03F0070376
:104C9000136000F0BBF90346002B05D0954BDB6891
:104CA000944A23F08073D36000F0CCF90346002BC4
:104CB0000ED04FF080430022C3F80C214FF0804308
:104CC0000022C3F810214FF080430022C3F838259A
:104CD00000F0E4F90346002B02D0874B03221A6050
:104CE00000F0F8F90346002B0BD0844B05221A6024
:104CF000834B01221A60834B00221A60824B3F22B1
:104D00001A6000F003FA0346002B76D04FF0805370
:104D10007E4AD3F80434C2F820354FF080537B4AE2
:104D2000D3F80834C2F824354FF08053774AD3F8CB
:104D30000C34C2F828354FF08053744AD3F810343D
:104D4000C2F82C354FF08053704AD3F81434C2F8AF
:104D500030354FF080536D4AD3F81834C2F83435EB
:104D60004FF08053694AD3F81C34C2F840354FF0F5
:104D70008053664AD3F82034C2F844354FF080534C
:104D8000624AD3F82434C2F848354FF080535F4A62
:104D9000D3F82834C2F84C354FF080535B4AD3F82F
:104DA0002C34C2F850354FF08053584AD3F8303481
:104DB000C2F854354FF08053544AD3F83434C2F813
:104DC00060354FF08053514AD3F83834C2F8643517
:104DD0004FF080534D4AD3F83C34C2F868354FF059
:104DE00080534A4AD3F84034C2F86C354FF08053B0
:104DF000464AD3F84434C2F8703500F0A3F90346AC
:104E0000002B05D0424B1B68424A03F04F0313604E
:104E100000F0C4F90346002B0DD04FF08043D3F8C7
:104E2000003403F00103002B05D04FF080436FF0F6
:104E30000102C3F8002400F0DDF90346002B05D081
:104E4000354B1B68344A43F480631360334BD3F80B
:104E50008830324A43F47003C2F88830BFF34F8F72
:104E6000BFF36F8F4FF01023D3F80032002B05DB18
:104E70004FF01023D3F80432002B2BDA284B0122F9
:104E8000C3F8042500BF264BD3F80034002BFAD01A
:104E90004FF010231522C3F8002200BF204BD3F897
:104EA0000034002BFAD04FF010231522C3F804224F
:104EB00000BF1B4BD3F80034002BFAD0184B002254
:104EC000C3F8042500BF164BD3F80034002BFAD0EA
:104ED000FFF7A2FEFFF7B2FE00BF08BD24030010DB
:104EE0004035014074C007400DF0ADBA44020010D7
:104EF0003C050040F0ED00E0A005004010560040E9
:104F000088560040185600401456004000C000402B
:104F100058020010E40E00403C17004000ED00E095
:104F200000E00140124B1B68DBB2062B1DD1114B78
:104F30001B6803F00F03002B17D10F4B1B6803F006
:104F4000F003302B01D1012310E00B4B1B6803F061
:104F5000F003402B01D1012308E0074B1B6803F04D
:104F6000F003502B01D1012300E0002318467047C5
:104F7000E00F00F0E40F00F0E80F00F00A4B1B68B0
:104F8000DBB2062B0DD1094B1B6803F00F03002B7E
:104F900007D1074B1B6803F0F003302B01D101232D
:104FA00000E0002318467047E00F00F0E40F00F027
:104FB000E80F00F0124B1B68DBB2062B1DD1114B22
:104FC0001B6803F00F03002B17D10F4B1B6803F076
:104FD000F003302B01D1012310E00B4B1B6803F0D1
:104FE000F003402B01D1012308E0074B1B6803F0BD
:104FF000F003502B01D1012300E000231846704735
:10500000E00F00F0E40F00F0E80F00F00A4B1B681F
:10501000DBB2062B0DD1094B1B6803F00F03002BED
:1050200007D1074B1B6803F0F003302B01D101239C
:1050300000E0002318467047E00F00F0E40F00F096
:10504000E80F00F0124B1B68DBB2062B1DD1114B91
:105050001B6803F00F03002B17D10F4B1B6803F0E5
:10506000F003302B01D1012310E00B4B1B6803F040
:10507000F003402B01D1012308E0074B1B6803F02C
:10508000F003502B01D1012300E0002318467047A4
:10509000E00F00F0E40F00F0E80F00F00A4B1B688F
:1050A000DBB2062B0DD1094B1B6803F00F03002B5D
:1050B00007D1074B1B6803F0F003302B01D101230C
:1050C00000E0002318467047E00F00F0E40F00F006
:1050D000E80F00F00A4B1B68DBB2062B0DD1094B21
:1050E0001B6803F00F03002B07D1074B1B6803F06D
:1050F000F003302B01D1012300E000231846704754
:10510000E00F00F0E40F00F0E80F00F00A4B1B681E
:10511000DBB2062B0DD1094B1B6803F00F03002BEC
:1051200007D1074B1B6803F0F003502B01D101237B
:1051300000E0002318467047E00F00F0E40F00F095
:10514000E80F00F0124B1B68DBB2062B1DD1114B90
:105150001B6803F00F03002B17D10F4B1B6803F0E4
:10516000F003302B01D1012310E00B4B1B6803F03F
:10517000F003402B01D1012308E0074B1B6803F02B
:10518000F003502B01D1012300E0002318467047A3
:10519000E00F00F0E40F00F0E80F00F0124B1B6886
:1051A000DBB2062B1DD1114B1B6803F00F03002B44
:1051B00017D10F4B1B6803F0F003302B01D10123F3
:1051C00010E00B4B1B6803F0F003402B01D10123CF
:1051D00008E0074B1B6803F0F003502B01D10123BB
:1051E00000E0002318467047E00F00F0E40F00F0E5
:1051F000E80F00F0064B1B68062B05D1054B1B681A
:10520000062B01D1012300E000231846704700BFA0
:1052100030010010340100100649074A074B9B1A61
:1052200003DD043BC858D050FBDCFFF711FDFBF752
:1052300007F80000A4CF000000000020680A00204A
:10524000FEE7FEE7FEE7FEE7FEE7FEE7FEE7FEE736
:10525000FEE7FEE708B50021044602F0FFF8044B24
:105260001868C36B03B19847204605F0B1F900BF39
:1052700044CC000070B50D4E0D4D761BB61006D017
:105280000024013455F8043B9847A642F9D1094E51
:10529000094D761B05F0B2FFB61006D0002401348C
:1052A00055F8043B9847A642F9D170BD580A002032
:1052B000580A0020640A0020580A0020044B054ABE
:1052C0001B685B6B002B08BF134693F828017047DF
:1052D000AC000020D8040020044B054A1B685B6B1F
:1052E000002B08BF1346D3F8EC007047AC00002039
:1052F000D804002082B049B15AB16BB113780B6069
:105300001278101C18BF012002B0704701A9002AB2
:10531000F3D1104602B070476FF00100F4E700BF10
:10532000844641EA000313F003036DD1403A41D3B0
:1053300051F8043B40F8043B51F8043B40F8043B6F
:1053400051F8043B40F8043B51F8043B40F8043B5F
:1053500051F8043B40F8043B51F8043B40F8043B4F
:1053600051F8043B40F8043B51F8043B40F8043B3F
:1053700051F8043B40F8043B51F8043B40F8043B2F
:1053800051F8043B40F8043B51F8043B40F8043B1F
:1053900051F8043B40F8043B51F8043B40F8043B0F
:1053A00051F8043B40F8043B51F8043B40F8043BFF
:1053B000403ABDD2303211D351F8043B40F8043B9F
:1053C00051F8043B40F8043B51F8043B40F8043BDF
:1053D00051F8043B40F8043B103AEDD20C3205D3AF
:1053E00051F8043B40F8043B043AF9D2043208D0A7
:1053F000D2071CBF11F8013B00F8013B01D30B8819
:1054000003806046704700BF082A13D38B078DD0F6
:1054100010F003038AD0C3F10403D21ADB071CBFC8
:1054200011F8013B00F8013B80D331F8023B20F832
:10543000023B7BE7043AD9D3013A11F8013B00F86B
:10544000013BF9D20B7803704B7843708B788370F3
:1054500060467047F0B4860743D0541E002A3ED001
:10546000CAB2034602E014F1FF3438D303F8012B2B
:105470009D07F8D1032C2BD9CDB245EA05250F2C79
:1054800045EA054516D9A4F110073F0903F12006A6
:1054900006EB071603F1100242E9045542E90255F2
:1054A0001032B242F8D104F00F040137032C03EBA1
:1054B00007130DD91E462246043A032A46F8045B18
:1054C000FAD8221F22F003020432134404F003042A
:1054D0002CB1C9B21C4403F8011B9C42FBD1F0BCA7
:1054E000704714460346C5E70FB400B5074983B0BB
:1054F00004AB086853F8042B8168019300F0B0F9FD
:1055000003B05DF804EB04B0704700BFAC000020AE
:1055100000290CBF022200224FF4806300F000B883
:105520002DE9F0435D4C256883B004468846164655
:105530001F4615B1AB6B002B7ED0022E05D0012E7D
:1055400000F2A980002FC0F2A680636EDA0735D57D
:105550002146284603F04AF8216B41B104F140038B
:10556000994202D0284603F03FF900232363B4F99F
:105570000C3000221806A261626061D423F44A63F1
:1055800023F00303022EA3811FD10025616E0020AA
:1055900004F1430243F00203A060C9074FF0010089
:1055A000A3812260C4E9042004D49B0502D4A06D29
:1055B00003F04CFA284603B0BDE8F083A3899B05AD
:1055C000C6D4A06D03F040FAC2E701AB6A4621469B
:1055D000284603F03DFAA3891843A081002F36D155
:1055E000009F384603F0ACFA8046002842D0A389D9
:1055F00043F08003A381AB6B7BB3009AB4F90C300A
:10560000C4F80080BA421CBF43F40063A381012E9A
:1056100004BF43F00103A3819BB213F00802C4E965
:1056200004871ED1A260656E15F00105BDD000256E
:10563000284603B0BDE8F083284603F033F87CE742
:105640002169284603F0D0F8B4F90C3096E7B8F198
:10565000000FC6D0AB6B002BCFD1284603F022F849
:10566000CBE7DA0704D57F420022A761A260DAE720
:10567000A760D8E7DDF80090B94504D1B4F90C3043
:105680004FF0FF3582E7484603F05AFA804600287B
:10569000F4D04F46ABE74FF0FF358BE7AC0000206E
:1056A00080EA0102844612F0030F4FD111F0030F7C
:1056B00032D14DF8044D11F0040F51F8043B0BD0DA
:1056C000A3F101329A4312F0803F04BF4CF8043B2F
:1056D00051F8043B16D100BF51F8044BA3F101323D
:1056E0009A4312F0803FA4F101320BD14CF8043BF5
:1056F000A24312F0803F04BF51F8043B4CF8044B26
:10570000EAD023460CF8013B13F0FF0F4FEA332396
:10571000F8D15DF8044B704711F0010F06D011F875
:10572000012B0CF8012B002A08BF704711F0020F63
:10573000BFD031F8022B12F0FF0F16BF2CF8022B4E
:105740008CF8002012F47F4FB3D1704711F8012B71
:105750000CF8012B002AF9D1704700BF00000000AF
:105760000000000000000000000000000000000039
:105770000000000000000000000000000000000029
:1057800090F800F06DE9024520F007016FF0000C81
:1057900010F0070491F820F040F049804FF0000429
:1057A0006FF00700D1E9002391F840F000F1080004
:1057B00082FA4CF2A4FA8CF283FA4CF3A2FA8CF33C
:1057C0004BBBD1E9022382FA4CF200F10800A4FAA3
:1057D0008CF283FA4CF3A2FA8CF3E3B9D1E90423F7
:1057E00082FA4CF200F10800A4FA8CF283FA4CF32E
:1057F000A2FA8CF37BB9D1E9062301F1200182FAE8
:105800004CF200F10800A4FA8CF283FA4CF3A2FAED
:105810008CF3002BC6D0002A04BF04301A4612BAFB
:10582000B2FA82F2FDE8024500EBD2007047D1E9FE
:10583000002304F00305C4F100004FEAC50514F08D
:10584000040F91F840F00CFA05F562EA05021CBF5E
:1058500063EA050362464FF00004A9E70000000078
:105860002DE9F04FD7B01C468946174605460390F0
:1058700003F0D8F8036816931846FFF781FF0894E1
:1058800015901DB1AB6B002B00F00781D9F86410A7
:10589000B9F90C20C80793B202D4990540F11F81D1
:1058A0009E040AD4D9F8641042F4005321F4005144
:1058B000A9F80C30C9F864109BB21D0740F1B28002
:1058C000D9F81020002A00F0AD8003F01A020A2A4D
:1058D00000F0C98000239FED867B1093CDE92B3328
:1058E0001793CDE919331B93189305932DAB2A9386
:1058F0009B463B78CDF81C908DED127B002B00F081
:105900005982252B3C4602D11DE0252B03D014F8EB
:10591000013F002BF9D1E51B8DB1DDE92B320133BD
:105920002A44072BCBF80070CBF80450CDE92B327A
:1059300000F3CA800BF1080B059B2B4405932378D9
:10594000002B00F0378200236678069398468DF886
:105950008B3004F1010A4FF0FF392B250AF1010ABF
:10596000A6F120035A2B00F22A84DFE813F0AA03E1
:10597000280428049C02280428042804A7022804D8
:105980002804C602D2022804D702DC022804F60248
:105990006D026D026D026D026D026D026D026D028F
:1059A0006D02280428042804280428042804280454
:1059B000FB0228043C03F303FB02FB02FB02280466
:1059C000280428042804EE03280428049A00280444
:1059D0002804280450032804790328042804900389
:1059E0002804280428042804280428042804280457
:1059F000FB0228043C03C500FB02FB02FB02D103AF
:105A0000C50070002804B5032804C2039C00DE030F
:105A100070002804500372002C02280428047C0221
:105A2000280472004946039801F0A8FCA0B1D9F8F7
:105A30006430D80704D4B9F80C30990540F1B78325
:105A40004FF0FF330593059857B0BDE8F08F48F04D
:105A500020089AF8006081E7B9F80C3003F01A02C8
:105A60000A2A7FF437AFB9F90E20002AFFF632AFC9
:105A7000D9F86420D20705D49B0503D4D9F858007F
:105A800002F0E4FF23463A464946039801F026FC1B
:105A90000590059857B0BDE8F08F039802F002FE1C
:105AA000F4E648F0100818F0200F00F06C83089C12
:105AB000073424F00703D3E9004503F108020892F4
:105AC00028F4806300228CE12AAA0799039803F046
:105AD0004DFF002841F076830DF1B40B2CE7D9F887
