:1000000000000120253A00004D3A0000D112000006
:10001000513A0000533A0000553A00000000000039
:10002000000000000000000000000000573A00003F
:10003000593A0000000000005B3A00005D3A000001
:10004000852500005F3A0000312F0000FD350000DB
:10005000D53100005F3A00007D2C000029300000FF
:10006000CD350000DD3500005F3A00005F3A00004A
:100070005F3A00005F3A00005F3A00005F3A00001C
:100080005F3A0000010F00005F3A00005F3A000095
:100090009D0F00005F3A00005F3A00005F3A0000E9
:1000A0005F3A00005F3A00005F3A00005F3A0000EC
:1000B000E12F00005F3A0000000000000000000097
:1000C0005F3A0000F12F0000013000005F3A0000AD
:1000D0005F3A00005F3A00005F3A00000000000055
:1000E0000000000000000000000000000000000010
:1000F0000000000000000000000000000000000000
:1001000000000000000000000000000000000000EF
:1001100000000000000000000000000000000000DF
:1001200000000000000000000000000000000000CF
:1001300000000000000000000000000000000000BF
:1001400000000000000000000000000000000000AF
:10015000000000000000000000000000000000009F
:10016000000000000000000000000000000000008F
:10017000000000000000000000000000000000007F
:10018000000000000000000000000000000000006F
:10019000000000000000000000000000000000005F
:1001A000000000000000000000000000000000004F
:1001B000000000000000000000000000000000003F
:1001C000000000000000000000000000000000002F
:1001D000000000000000000000000000000000001F
:1001E000000000000000000000000000000000000F
:1001F00000000000000000000000000000000000FF
:1002000010B5054C237833B9044B13B10448AFF350
:1002100000800123237010BDC809002000000000E9
:100220008CAF000008B5034B1BB103490348AFF383
:10023000008008BD00000000CC0900208CAF000049
:10024000154B002B08BF134B9D46A3F5803A0021A8
:100250008B460F461348144A121A03F001FD0F4B48
:10026000002B00D098470E4B002B00D09847002061
:10027000002104000D000D48002802D00C4805F0B4
:1002800061FD03F0FDFB2000290000F0C3F803F03E
:10029000E7FB00BF00000800000001200000000094
:1002A00000000000C809002088190020455D0000FA
:1002B000156F00002DE9F3413C4B01221A641F2801
:1002C0000546D3F8404504D939494FF4F37001F09D
:1002D0009BF84FF0A043D3F81005E840C30761D462
:1002E000344B354D01229A601A64D3F8403593425D
:1002F00003D82C6002B0BDE8F08129682F48304E49
:1003000003F0F8FC2B68E31A07EE903AF8EE677AF0
:10031000C6ED007A306808F0C1FE02460B46294857
:1003200003F0E8FC284A2B6812682849D21A0A60B0
:1003300096ED007A264AF7EE006AC6EE877AE31A4F
:10034000C2ED007AD1ED006A07EE903AF8EE666AE7
:10035000F8EE677A1F4B86EEA77ADFED1F7A67EE1D
:10036000277AC3ED007A1868D2F8008008F096FE6C
:10037000064640460F4608F091FE3246CDE90001A0
:100380003B461648164F03F0B5FC642647F00107BC
:100390004FF47A40B847013EFAD1064B2C60012257
:1003A000DA60A7E7084B1C60A4E700BF00B001407B
:1003B0005B9A000000A00140EC0900209E9A00001A
:1003C000F4090020B09A0000F0090020F80900208C
:1003D000E8090020E40900200000C842BC9A00009F
:1003E000309A00000A4A0923C2F81035032100237D
:1003F000C2F80815C2F804350123D3601360A2F5D2
:100400008052C2F80815C2F80435D36013607047F3
:1004100000B0014070B54FF4004186B0002001F0FB
:1004200049FC18B12B4A772100F01DFA01F074FB4A
:1004300029482A4D03F05EFC02F010F903238DF8E1
:1004400000309DF80230264A002603F0FE0366F3D2
:10045000820369460E208DF802308DF8016002F0AB
:1004600021FB01210E2002F0ADFB0FCD01AC0FC42A
:100470002B681C482360324601A900F053FB18B1D9
:10048000144A922100F0EFF9164800F0EDFC3C22EE
:100490000021144800F03CFB18B10E4A972100F0EF
:1004A000E2F9104800F046FA20B10A4A99210120E9
:1004B00000F0D9F9FFF796FF0B4B0C4A01201864A6
:1004C000D3F84015914202DD002006B070BD30BF68
:1004D000F5E700BF409A0000479A0000149A000018
:1004E000B5020000289A000000B001403F4B4C00CC
:1004F00038B5054D044645F001054FF47A40A8474C
:10050000013CFAD138BD00BF609B00007FB50646B4
:100510000D46144672B601F0F5FD01F025FC0028E9
:10052000FBD1374803F0E6FB44F201039E4254D06E
:1005300044F202039E425ED122886168314803F092
:10054000D9FB02F0C1F808B902F088F80023ADF831
:100550000C308DF80E3003A9012319208DF80D30D1
:1005600002F0BCF803A9182002F0B8F803A917207C
:1005700002F0B4F8192002F0B5F9182002F0B2F92F
:10058000172002F0AFF94FF4FA70FFF7B1FF19200E
:1005900002F07AF9182002F077F9172002F074F9C6
:1005A0003220FFF7A5FF192002F09CF9182002F075
:1005B00099F9172002F096F94FF4FA70FFF798FFB7
:1005C000192002F061F9182002F05EF9172002F0FC
:1005D0005BF9FA20FFF78CFFCCE7A668304601F004
:1005E000C7FF2368019500930246636806483146B9
:1005F00003F080FBA5E72946044803F07BFBA0E756
:10060000DB9A0000F49A00000F9B0000399B000069
:1006100007B502F059F808B902F020F80023ADF848
:1006200004308DF8063001A9012319208DF805301A
:1006300002F054F801A9182002F050F801A917207F
:1006400002F04CF8192002F04DF9182002F04AF996
:10065000172002F047F94FF4FA70FFF749FF19200D
:1006600002F012F9182002F00FF9172002F00CF92D
:100670003220FFF73DFF192002F034F9182002F074
:1006800031F9172002F02EF94FF4FA70FFF730FF1E
:10069000192002F0F9F8182002F0F6F8172002F0FD
:1006A000F3F8FA20FFF724FFCCE70369C1688B4217
:1006B0009DBF8268D21802F1FF3203F1FF3394BF6D
:1006C000501A581A70472DE9F041D0E902670446E4
:1006D000F61B4068964288461546384405D903F013
:1006E00025FA3D44E560BDE8F0813246AD1B03F0DC
:1006F0001DFA2A4608EB0601606803F017FAF1E7D5
:100700002DE9F843C5680646894617464FF00008AC
:100710003469B3687068A54228BFE418013C621BC5
:100720005C1BBC4228BF3C46944228BF1446494645
:100730002844224603F0FAF9B3682544AB4208BFC7
:1007400000253F1BA044A144F560E1D14046BDE82F
:10075000F883000010B5114C114AA2610223C4E9CC
:100760000433104BE361A2644FF400730E4A23621A
:10077000E264002310220D49A362E01D6362E3627C
:10078000A3656365E365226503F090FB0849204695
:1007900003F08CFB2023A37110BD00BFDC180020E8
:1007A000669B00002C0E00201C0E00206F9B00009A
:1007B000739B0000F8B5184C182300FB033503FBAE
:1007C00000402544C46A012C0F46164611D003D3BD
:1007D000022C1BD000240AE02846FFF766FF864261
:1007E00005D8324639462846FFF76DFF3446204685
:1007F000F8BD2846FFF759FF8642344628BF044615
:10080000224639462846FFF75EFFF0E72846BDE856
:10081000F840FFF775BF00BFDC18002070B50B4B28
:100820001B7804460D4616460BB9FFF793FF0020D0
:1008300000F026FD324629462046FFF7BBFF04465E
:10084000002000F02DFD204670BD00BFDC18002008
:10085000FFF780BF10B511461C461A460020FFF76F
:10086000DDFF204610BD00B583B0029000910192DB
:1008700044F2010071466A46FFF748FE03B000BD2E
:100880002DE9F8430468054694F8200002F0E8FAE0
:1008900004F11807FF264FF0FF394FF00008207AC7
:1008A000FF2802D002F0DCFA2672607AFF2802D01C
:1008B00002F0D6FA66722068431C03D001F09CFF58
:1008C000C4F8009084F80B800C34BC42E7D168680F
:1008D000BDE8F84302F0BCBD2DE9F041134DDFF84F
:1008E00050800E460024012705EB41052B5D5BB1CE
:1008F0002B5D013BDBB22B552B5D93B958F82630AD
:100900001B683046DB6998474CB167B1084B53F818
:10091000263002215868BDE8F04102F035BE0124BE
:10092000E4E70027F0E7BDE8F08100BF541900209C
:100930002C10002040680C4902798B5CDBB2FF2B45
:100940000DD0FE2B0DD0006803F5A87350F82330AE
:10095000064850F82200984203D1FF238B54002010
:1009600070470120704700BF401000204810002051
:100970002DE9F84F012904460D469046066804D932
:100980005E4940F25B2000F03FFD0C2303FB056352
:10099000DB7A012B04D059494FF4177000F034FD75
:1009A00096F82130022B40F0A4800C276F43F319F6
:1009B0005B68984508D1F36913B90020BDE8F88F4A
:1009C000626810799847F8E72046FFF7B3FF83463F
:1009D000002840F090806368DFF830A11B79FE2288
:1009E0000AF80320266896F8200002F08BFAD14618
:1009F000B8F1000F1FD13744787A02F083FA387AC1
:100A000002F06AFA63681B79FF220AF803200C23BC
:100A100003FB0566C6F804802368DB69002BCCD095
:100A200063681A79364B03EB42030221595560681B
:100A300002F07EFDC1E7B169884507D337441FFA4C
:100A400081F8387A02F05EFA787AD9E705EB450743
:100A5000BF00F31960685A68914245D0002A43D01C
:100A6000904541D25B46032102F030FDD4F804A04A
:100A700096F820B09AF80530032B04D8214940F2AB
:100A8000751000F0C1FCDAF80030F05903F5A67AD1
:100A90000C2303FB05639B7A1BB301F0A7FF0246FF
:100AA0005146584602F0F8F996F8200002F014FA80
:100AB00063681B7909F8035063681A79124B43F88D
:100AC00022800C2707FB0567002342462946606801
:100AD00002F0FCFC387A02F0FFF9787A02F0FCF9B7
:100AE00095E701F05FFFDAE70379FF2209F80320B9
:100AF000E7E7082062E7112060E700BF7A9B00006B
:100B000054190020C49B0000481000204010002011
:100B100003681B8B5A436423B2FBF3F292B2FFF7D4
:100B200027BF00002DE9F04F89B08A4605920446A0
:100B300020B9C34940F2113000F066FCBAF1000F51
:100B400000F07981266896F82130002B40F07581FD
:100B500000F030FD08B1852821D101F0B5FD00B3CA
:100B6000B84B1B6803F0F003302B20D10023B64AAA
:100B700000211370FF234FF0FF3286F82030F1720E
:100B8000337273723260F17532757375F26006F10B
:100B9000200002F039F960B12046FFF771FE04250C
:100BA00018E001F05BFD0028DAD0032512E00123F4
:100BB000DDE705465AF825B0EBB2BBF1FF3F0493E1
:100BC00000F0AE80276897F8211049B1082520462B
:100BD000FFF756FE284609B0BDE8F08F0125E9E78A
:100BE0000AEB05024FF00C0808FB05F8137A029394
:100BF00007EB08024FF001095160937203228DF850
:100C000018202268424406A9927A8DF81A90B2FA06
:100C100082F2520958468DF8192001F05FFDE8B9BB
:100C2000029B47F808B0002B00F0EB80BBF11F0FD0
:100C300004D986494FF4F37000F0E6FB4FF0A04270
:100C400009FA0BF3C2F80C354FF00C0909FB05F952
:100C500009F10800384402F0D7F808B10425B6E7D6
:100C600009F10900384402F0CFF80028F6D1B94460
:100C700099F8080002F046F999F8090002F042F9E3
:100C8000029B57F80800002B00F0CA8001F0AEFE6E
:100C9000814657F8080001F085FE0C2303FB05731D
:100CA000049993F808B063685A798A42804606D856
:100CB0006749029340F2751000F0A6FB029B1B6887
:100CC00005F150014A4603EB8101584602F0E4F871
:100CD0000C2303FB0573D4F804B093F809909BF838
:100CE0000530022B04D85A4940F2751000F08CFBF5
:100CF000DBF80010424601F5A471484602F0CCF83A
:100D00000C2303FB05770123FB726368514A1B79AF
:100D1000049902EB4303204600225A55FFF728FEB0
:100D2000002D3FF45BAFDAF810200023B2F5805FAE
:100D300001D3092B7CD1444A127812B1002B08BF91
:100D400001238DF8183000238DF819308DF81A30F2
:100D50006068414A07238DF81B300379079306A981
:100D600002F090FA054600287FF431AF6368DAF8A4
:100D700010001B68D3F81015C9B2050FC1F1200C83
:100D80000001A1F1200720FA01F805FA0CFC48EA5D
:100D90000C0825FA07F725FA01F948EA0708B9F11E
:100DA000010F08BFB8F1000F08D32C4940F2B12061
:100DB000CDE9028900F028FBDDE90289C6F8188038
:100DC0006068CDE9028902F06BFBDDE9028901254B
:100DD0000095042342460221606802F092FB022142
:100DE000606802F0D1FB059BF36163681C4A1B79C4
:100DF00086F8215042F823401A4AFF21D154002599
:100E0000E8E6BBF11F0F04D910494FF4F37000F06E
:100E1000FBFA4FF0A04209FA0BF3C2F8083513E7CA
:100E200001F0C0FD814657F8080001F0DFFD34E70E
:100E3000520801337AE70B25CCE60825CAE600BF45
:100E40007A9B0000E80F00F05C1000205B9A000025
:100E5000C49B000054190020D9080000159C000014
:100E60002C100020401000202DE9F047076897F86B
:100E70002130044623B91B4940F2973000F0C4FAF0
:100E80000026DFF868903D46B0464FF00C0A6368D4
:100E90001B7909EB430303F80680EB7A73B12368EF
:100EA00028680AFB0633997AB1FA81F1490901F001
:100EB000C1FD286801F044FDC5F804800C357EB101
:100EC0006368094A1B79FF21D154606802F0E8FA8F
:100ED000606802F087FA022387F82130BDE8F087C6
:100EE0000126D4E77A9B000040100020541900200E
:100EF000024B4FF43C6043F001031847609C000034
:100F0000F8B51F491F4B0025C1F84051C1F84451A5
:100F1000C1F84851C1F84C51C1F80051C1F8045111
:100F20001B684BB3D1F8044517490968641A24F0CB
:100F30007F442F461A68A24209D8A41A15441A7C85
:100F4000DE691AB11F74D3E905209047AEB90F4B83
:100F50000F4A197813788B4205D10133DBB2022B8B
:100F600008BF0023137012780A4B43F822500A4B33
:100F70004FF48012C3F80021F8BD3346DAE700BF12
:100F800000100140801100207C1100207811002009
:100F9000791100207011002000E100E02DE9F74FE9
:100FA0009C4A9D49137809789C4D99423CD0013365
:100FB000DBB2022B08BF0023137099491278994BBA
:100FC0000F6853F822003B1823F07F4300220B6088
:100FD0002B6816461446944613B942B12B6006E0BE
:100FE000196881420ED902B12B60091A19604FF0BD
:100FF00001082B68DFF834A200930027BEB9DFF8A0
:1010000034B260E0401A0C44D968C3F800C0D3F889
:101010001CE031B13A1922F07F42C3E90121DE61BF
:101020001E4601227346D7E70026B046E1E7344664
:10103000F6697B4A63681268DFF8FCC1A068991AF8
:1010400021F07F41614500F2A58001442160012229
:1010500022742A680023C4E90133E361002A40F0C6
:10106000A2802C60CAE75A1C9BF80210D2B29142AF
:101070008BF8002004BF00228BF80020182202FB0E
:1010800003B32A6819799C68022974D003297ED099
:10109000012918D1217CB1B9DA6862601A69A260AD
:1010A0005A69E2609B69A3615F4B1B78002BC0D03B
:1010B0006160BEE79C4200F090809946DB69002B9E
:1010C000F8D1002323749BF800309BF801209A424A
:1010D000C9D12B682FB9009A934202D1B8F1000F01
:1010E00043D0002B41D0D3F800A0504D4C4BD5F845
:1010F00004751C68DFF844813E1B98F8003026F028
:101100007F4603369BB94FF48033C5F84433C5F8A6
:101110000433474B4FF400324FF00109C3F88021EC
:101120001A60C5F80090FFF7E3FE88F80090B2451A
:101130002CBF5444A41924F07F44C5F84045D5F889
:101140000435DB1B23F07F43E41B033324F07F448F
:10115000A3420AD9D5F80435C5F84035FFF7C8FED3
:10116000334B4FF40032C3F800212F4B00221A708A
:1011700003B0BDE8F08F13469146A0E71174D26921
:101180000123002AFAD1002B9DD02A609BE700237F
:101190001946F6E7D31A23F07F43834234BFC31ABC
:1011A0000023236053E721681368994213D8591A22
:1011B0001160E26155E7091AD8691A4638B1034649
:1011C00018688842F7D3401A186018461346216001
:1011D000E061DC6112E71346F2E74C450DD1D369BB
:1011E0002B6053B90E4801920121CAF80810036020
:1011F0000D4B1970FFF77CFE019AE1692368C9F86D
:101200001C1011B1086803440B602B689A4218BF88
:10121000012756E778110020791100208011002065
:101220007C110020701100206C1100200010014082
:1012300000E100E060100020FEFF7F006D11002043
:1012400072B6024A1368013313607047841100209C
:10125000034A1368013B136003B962B6704700BFCD
:1012600084110020EFF30583C3F308032BB9EFF3D8
:101270001480C04300F00100704701207047000057
:1012800008B5FFF7EFFF012803D00449432000F021
:10129000BBF8BDE80840FFF7D3BF00BF669C000065
:1012A00008B5FFF7DFFF012803D00449512000F003
:1012B000ABF8BDE80840FFF7CBBF00BF669C00005D
:1012C000024B1B680021986802F028BD0C0000202A
:1012D0001EF0040F1CBFEFF309800AE0EFF3088053
:1012E0000549064A884201D8904202D88D464FF0FF
:1012F0000000034B184700000000012000E0002020
:10130000051300002DE9F347054600F0FBFE00F051
:101310002BFD0028FBD12F4B2F4C9F6A2F4BE41A3B
:10132000E408240444F00104002D4ED0AA692C499D
:10133000204600F099FEEB680193AB6800932949C1
:10134000D5E90023204600F0A5FEEB69009326496D
:10135000D5E90423204600F091FE1E4BDB6A980776
:1013600003D52249204600F07BFEDFF89490DFF899
:1013700094A000264FF0010808FA06F33B4206D07D
:1013800059F826201AB15146204600F06DFE01366C
:101390001A2EF1D1390605D50E4B15495A6B204648
:1013A00000F062FE3A0405D50A4B12499A6B2046BA
:1013B00000F05AFE104B1B68DB0700D500BE284624
:1013C000FFF726F902B0BDE8F0870C49204600F08F
:1013D00047FEC2E700ED00E0F8AF000090AF00006C
:1013E000BB9C0000D09C0000059D0000609D00009B
:1013F000AF9D0000CF9D0000F0ED00E02D9D0000AE
:10140000EC9D0000A49D000007B5ADF8000001911F
:101410006A46002144F20200FFF778F803B05DF855
:1014200004FB50E8002F0B4640E8003C9CF0000F06
:10143000F7D11046704750E8003F43EA010240E808
:10144000002C9CF0000FF6D11046704750E8002F9A
:1014500002EA010340E8003C9CF0000FF6D1104680
:10146000704750E8003F03EB010240E8002C9CF07D
:10147000000FF6D11046704750E8003FA3EB010281
:1014800040E8002C9CF0000FF6D110467047012177
:10149000FFF7D1BF0021FFF7D9BF000010B5044608
:1014A000002834D003681BB91A49FF20FFF7ACFFAE
:1014B000636823B917494FF48070FFF7A5FFA3684D
:1014C00023B9144940F20110FFF79EFFE36823B9E6
:1014D00010494FF48170FFF797FF238A23B90D4914
:1014E00040F20310FFF790FFD4E9012321689B1A13
:1014F000DBB20A60013BDBB2FF2B226802D1002085
:10150000107110BD1168481C10600B70F2E70E20BE
:10151000F7E700BF14A3000038B5044620B912490C
:101520004FF49270FFF770FF0020FFF7A9FE2268CA
:10153000616813688B4215D9591E116013F8015C5C
:10154000228AE36802FB05352268A36811685B1AEA
:101550001179DBB2994200D213710020FFF7A0FE8F
:10156000284638BD0025F8E714A3000038B50C461E
:10157000054620B90E4940F24710FFF745FF24B950
:101580000B494FF4A470FFF73FFF0020FFF778FEF0
:101590002A681368591C1160EA68A41A2A8AB4FBE5
:1015A000F2F41C700020BDE83840FFF779BE00BFA0
:1015B00014A30000034B187810B901221A70704769
:1015C000852070478811002010B5044618B90649D7
:1015D0003120FFF719FFA2682AB1636921682069E9
:1015E00098470023A36010BD6AA300000EB433B572
:1015F000059D044618B912494220FFF705FF6369AB
:101600001BB90F494320FFF7FFFE23681BB90C49A4
:101610004420FFF7F9FE63681BB909494520FFF72D
:10162000F3FE3DB102AA06AB42F8043D294620462E
:1016300000F06EF802B0BDE8304003B0704700BF64
:101640006AA30000826830B40468551C8560A15408
:10165000D0E901329A4202D330BCFFF7B5BF30BCAB
:10166000704700002DE9F84F9946DDE90A43174617
:10167000824688460A460126BA420FD24E4538BFF6
:101680004E4613F0010B01D164B900240125B9F1D4
:10169000010F1AD909F1FF397D43F8E7B2FBF7F2E0
:1016A0000136E9E79B070ED5B9F1000F0CBF3025D5
:1016B0002025A642EAD2013C29465046FFF7C2FF48
:1016C000002CF6D1E1E72025F3E7B8FBF5F39F42C4
:1016D000E2D9DFF83890B8FBF5F3504619F803105B
:1016E00005FB1388FFF7AEFFB5FBF7F5002DF2D130
:1016F000BBF1000F02D00CB1A64201D3BDE8F88FB8
:1017000020215046013CFFF79DFFF4E7B0A3000005
:101710002DE9F74F0E469046054620B9AC494FF4E7
:10172000A270FFF771FE6B6923B9A9494FF4A3704A
:10173000FFF76AFE2B6823B9A54940F24710FFF76F
:1017400063FE6B6823B9A2494FF4A470FFF75CFEF7
:10175000002E00F03A8116F8011B002958D02529E7
:1017600040F0D180002702E047F0010716463246DC
:1017700012F8013B2D2BF7D0302B04D02B2B05D1A9
:1017800047F00407F2E747F00207EFE700242A2BAF
:1017900006F101021BD1D8F80030191DC8F800105D
:1017A0001B6816461C4433782E2B1CD101364FF093
:1017B000000A314611F8012BA2F13000092814D893
:1017C0000A2303FB0A23A3F1300A0E46F1E712F8BD
:1017D000013CA3F130010929E5D80A2101FB0434B9
:1017E000303C1646D3E74FF0000A324612F8011B90
:1017F00001F0FB0068281646F8D0692916D054D8A5
:10180000582970D00ED825297DD03378002BA2D14D
:101810002B7B002B00F0D980284603B0BDE8F04FA9
:10182000FFF7D2BE632968D06429EED1D8F8002032
:10183000111DC8F80010D2F8009089EAE972A2EBF5
:10184000E9724FF0010B092A61DCD34538BFD3465A
:101850002CB1B9F1000F01DB790700D5013CBA07C3
:1018600002D5BAF1000F04D0FB0702D4002C54D1EA
:101870000024B9F1000F58DAC9F100092D212846DA
:10188000FFF7E0FE07F00302022A05D1BAF1000FCC
:1018900002D1002C4DD10024CDE9004753460A2245
:1018A00049462846FFF7DEFEAFE7732954D016D825
:1018B0007029AAD1D8F800301A1DC8F800203021AC
:1018C00028461C68FFF7BEFE78212846FFF7BAFEBF
:1018D00000220823CDE9003221461022E1E77529D4
:1018E0002FD0782991D1D8F800100A1DC8F800200F
:1018F000CDE90047534610222CE0D8F800301A1DDD
:10190000C8F8002019782846FFF79CFE7DE70A23D7
:101910000BF1010B92FBF3F295E7A345A9D220212D
:101920002846013CFFF78EFEA0E77807AAD52B21B9
:10193000A5E7A345B0D230212846013CFFF782FE3F
:10194000A7E7D8F80010CDE900470A1DC8F8002025
:1019500053460A220968A4E7D8F800301A1DC8F8CF
:101960000020F907D3F8009012D54F46A7EB090BDA
:1019700017F8011B41B9A345BFF447AF2021284602
:10198000013CFFF75FFEF6E72846FFF75BFEEDE759
:10199000B9F1000F17D0484602F0F2FA0746BC42F0
:1019A00000D954B909F1FF3919F8011F00293FF492
:1019B0002CAF2846FFF746FEF6E720212846013CDB
:1019C000FFF740FEEBE74F46E9E703B0BDE8F08FD5
:1019D000C0A300007047000007B5044B0093044A01
:1019E000402300F032F803B05DF804FBF519000065
:1019F0008A1100202DE9F84389461446B2B10F4BF5
:101A00000F4E0325002743F00108224609EB07018A
:101A10000020FEF7CFFE0744241A48B933782BB1D3
:101A20004FF47A40C047013D02D13570BDE8F883DC
:101A300001233370002CE8D1F8E700BF20A4000098
:101A4000891100207047FEF703BFF0B595B01C4622
:101A5000164608460D4600F020FD1A9B0D93CDE971
:101A6000086400242346082205A928460A948DF814
:101A70002C400C9400F03AFD079B0293BDF81830FF
:101A8000ADF80C30BDF81A30ADF80E309DF81430BA
:101A90008DF8114003F00302012A1DD1BDF8144056
:101AA000059EC3F3C203C4F383148DF81030A20063
:101AB00008230EA9284600F019FDC6F3952608ABA9
:101AC0000093224602AB0EA9304600F08BFB28465D
:101AD00000F0E7FC15B0F0BD022AF8D1BDF81640C1
:101AE000C3F3C203A4098DF810300827082C26463A
:101AF00028BF08263B4632460EA9284600F0F6FCD1
:101B0000A41B08AB02AA31460EA8374400F0CEFB56
:101B1000002CEBD1DBE7000008B5FFF794FF0421B0
:101B2000064800F0C5FA002803DA05494120FFF70E
:101B30006BFC044B01225A7108BD00BF4CB0000081
:101B400034A4000000000020037813F0040216D033
:101B500003F00303012B03D0022B09D001207047AF
:101B60000A6800880232C0F3831002440A60F5E775
:101B70000B684288023303EB92130B60EEE71046CA
:101B8000704700002DE9F04F484C87B00D460646DF
:101B9000871C00200092FFF773FB23682B60D4E9B9
:101BA00001231344226801339B1A04F21C4804F5F4
:101BB000836B04F21449BB4219D3009A0023002A14
:101BC0006CD0012262F3010343F0040366F389132E
:101BD0002168A2680A4003320F44002044F82230F2
:101BE0002760FFF75DFB012007B0BDE8F08F012102
:101BF0004046FFF736FC5846FFF749FC0DF1180A3E
:101C00004846FFF744FC60684AF8100DA568284074
:101C1000033004EB80005146FFF796FF024602981E
:101C2000002AF4D105EA000304EB8303811CDB687E
:101C300003930130054004EB850503F00303012BFA
:101C40000291ED6823D0022B08D0194901924FF47C
:101C5000BF70FFF7D9FB019A154607E0BDF80E30BB
:101C60009B0903332D0C01EB930302934846FFF7C6
:101C700011FC08B1029B636029464046FFF7F1FB67
:101C8000D4E901231344226801339B1A93E7BDF87A
:101C90000C30C3F383132D0C0B44E6E7022262F3EE
:101CA000010343F0040366F39F5391E79C12002065
:101CB000A3A400000B4B0C48FF2210B59A60002231
:101CC000C3F81824C3E90022C3F81424012283F8BE
:101CD000202400F09BFB044610B9044800F01CFCD3
:101CE000204610BD9C12002010B00000FCA4000093
:101CF00030B50A4C71B10A4A0A49121BD2080023B6
:101D00009A4201D1002030BD31F82350854202D0E3
:101D10000133F5E7034654F83300F4E790AF0000D1
:101D200010B00000C8090020094B013903EBC000C6
:101D3000032909D8DFE801F00A02040604207047ED
:101D40000079704740797047002070470220704743
:101D500090AF0000034BD3E90030C31A58425841FA
:101D6000704700BF9C1200202DE9F04385B0FFF7BB
:101D7000F1FF0646002840F0F9807D4DC5F81804B3
:101D8000BFF34F8F6868AC6804AF47F8100D204070
:101D9000033005EB80003946FFF7D6FE009B18B1F3
:101DA000D5F81824002A5FD004EA0302991C0133F5
:101DB00005EB8202234005EB8303D268DB680293C4
:101DC00002F00303022B0192009162D1BDF80630AC
:101DD00068484FEA9318B8F1500FC14628BF4FF03A
:101DE000500969F38F1309F10801ADF8063000F0CE
:101DF00025FB0746002800F0A48000F04EFB01A957
:101E000000230822384600F05BFB009924EA010613
:101E10000136B600B14535D95FFA89F97EB3F6B21D
:101E2000A9EB0609214003315FFA89F4B146524E0D
:101E300005EB810108234A46384600F041FB36B1E4
:101E400009F1080322463146384600F039FB009B71
:101E500008F1030803EB98030093D5F81834002B1E
:101E60004BD1D5F810445BE02A689A4204D86A60E6
:101E7000304605B0BDE8F08304EA030088E73E4938
:101E80003446D7E72140033108234A4605EB810158
:101E9000DAE7012B55D1BDF804303648C3F383117E
:101EA000062928BF062161F3891302318900ADF8A4
:101EB000043000F0C3FA0746002842D000F0EDFAE3
:101EC0000023082201A9384600F0FAFA0026BDF8DE
:101ED0000420C2F38312B31C96424FEA8303BCD2A0
:101EE00000994A1C21400331009205EB8101042234
:101EF000384600F0E5FA0136E9E7384600F0D1FA55
:101F0000FFF728FF80F00100C6B2B1E7E3685B7914
:101F100023B1236839461B6820469847E3681C684C
:101F2000002CF3D1384600F0BCFA2046FFF7A8F9A0
:101F3000D5F818340BB9009B6B600020FFF7B0F99F
:101F4000DEE7D5F8104454B90C4B0D480D49C01AC2
:101F5000C008000440F0020000F082F8D0E72368D7
:101F600020469B689847E3681C68ECE700267FE7FB
:101F70009C12002010B00000A812002090AF0000BA
:101F8000E8AF000008A500002DE9F74F2F4C804670
:101F90000F46914601A9012218469B46D4F808A095
:101FA000FFF7F0FD00283DD0019D0026A91C5E45ED
:101FB00006EB010240D100212548FFF732FA80F3F9
:101FC000100B244B244A4FEA18499B1AB9EBD30F44
:101FD00004D3224940F2A310FFF716FA6B1C03EA60
:101FE0000A0304EB830349EA0B42DA6005EA0A03B9
:101FF0000333012114F8232068F3C50204F82320D9
:1020000034F8232066F3891224F8232054F823207F
:1020100067F39F2244F8232061F301026FF38202E9
:1020200004F8232094F820341BB1FFF79DFE00280C
:10203000FBD103B0BDE8F08F0AEA020204EB820292
:1020400059F82630D3600136B1E700BF9C1200205A
:10205000B816002010B0000090AF0000A3A400004C
:1020600000231A46FFF790BF13B502AC012344F8D2
:10207000042D2246FFF788FF02B010BD1FB5CDE941
:102080000123069B039301AA0323FFF77DFF05B0FD
:102090005DF804FB1FB5CDE90023069B0293079B67
:1020A00003936A460423FFF76FFF05B05DF804FB56
:1020B00030B5134AD2F810440023214651B9C46800
:1020C0002371D2F810445CB9C2F81004C2681160E0
:1020D000184630BDC9680D799D420AD00968EDE700
:1020E000E468C16824680C60D2F81024D2681060DB
:1020F000EEE701330A2BE0D14FF0FF33E8E700BFF2
:102100009C12002038B5094A0123D2F8104482F805
:1021100020341D4604B938BDE3685D71236820464C
:102120005B689847E3681C68F4E700BF9C120020D6
:1021300010B5037A052B0C460FD0437A23B1084A19
:1021400008492046FFF752FA07492046FFF74EFAA2
:102150002046BDE81040FFF737BA002AF8D0F3E771
:1021600053A5000058A5000078A5000073B5C388EA
:1021700004460D4633B1144A00921449144A2846C5
:10218000FFF734FA217A05291CD0637A4BB1A08875
:10219000FFF7CAFD0F4B104953F820202846FFF7E0
:1021A00025FA227A0D4BA08853F822600021FFF710
:1021B0009FFD0B4903463246284602B0BDE87040F9
:1021C000FFF714BA02B070BD53A5000063A500006C
:1021D0005BA5000020A5000058A5000088A5000010
:1021E0007BA500002DE9F04385B01F460C9D002320
:1021F00006460C46904695F80C902B7329463846B7
:10220000FFF7B4FFB8F1060F09D8DFE808F00412B1
:10221000181F2833400031462846FFF7E7F900220F
:1022200029463846FFF784FF85F80C9005B0BDE8D5
:10223000F083226831462846FFF7D8F9EFE7D4E962
:10224000002331462846FFF7D1F9E8E7A368009359
:102250003146D4E900232846FFF7C8F9DFE7E368F1
:102260000193A36800933146D4E900232846FFF781
:10227000BDF9D4E723690293E3680193A36800934F
:102280003146D4E900232846FFF7B0F9C7E7636970
:10229000039323690293E3680193A3680093314693
:1022A000D4E900232846FFF7A1F9B8E708292DE96A
:1022B000F84F80460E4617461C4635D8002593F841
:1022C0000C901D7319461046FFF750FFDFF88CA0E5
:1022D000DFF88CB0AE4229D918F8052059462046BF
:1022E000FFF784F90135082DF4D11A49DFF874B0ED
:1022F0002046FFF77BF94FF0000A564524D918F81D
:102300000A507E2D17D92E2259462046FFF76EF926
:102310000AF1010ABAF1080FEFD10122214638462D
:10232000FFF706FF84F80C90BDE8F88F5146204671
:10233000FFF75CF9D6E701F0D5FB2844427812F0AC
:10234000970FE0D02A46DFE703492046FFF74EF912
:10235000DEE700BF4EA500004CA500004AA5000026
:1023600044A5000050A500002DE9F74F99469DF8BF
:102370003030019388461746054618B92249B620E1
:10238000FFF742F8EA8895F805B00BFB02FBABF1CA
:10239000040BCB4503D81C49C420FFF735F83E6831
:1023A000B5F806A006EB09025A4509F1040188BFF9
:1023B000ABEB0906B1FBFAF43E600AFB141144B919
:1023C000AAEB0107B74228BF37462EB903B0BDE8D4
:1023D000F08F2D68013CF2E7019A043108EB040309
:1023E000681872B101463A461846F61B01F09EFB8A
:1023F000B2453C442D6857464FF0000128BF374690
:10240000E3E73A461946F0E7E7A50000FFF746B8CC
:10241000F8B546790146721E0546002393422D68A1
:1024200003D30024A64202D8F8BD0133F6E70F68B3
:102430002846FFF79BF801343946F3E72DE9F843C6
:10244000CD1C068A0746FFF767F8043E354404466C
:10245000B5FBF6F5F0B14FF48073EDB28380C68022
:10246000013D076081464FF00008A84512D238466A
:10247000FFF752F8064648B163790133637108F1FA
:102480000108C9F8000007608146EEE72046FFF723
:10249000BFFF34462046BDE8F88301210430FEF733
:1024A000E0BF10B5012104460430FEF7E5FF10F04F
:1024B000FF0F04D12046BDE81040FFF7A9BF10BDB3
:1024C00030B585B0144604AA002542F8044D0095A5
:1024D000FFF74AFF039BA34203D00349F620FEF710
:1024E00093FF05B030BD00BFE7A5000030B585B053
:1024F000144604AA012542F8044D0095FFF734FF65
:10250000039BA34204D003494FF48070FEF77CFF85
:1025100005B030BDE7A500008268002393608268A3
:102520001361826853618268D360826853608268F5
:10253000136070470D4930B5A1F58C7202259142A8
:1025400001D800200EE08B1ADB1093FBF5F302EBB1
:10255000C30452F83330834205D802D204F1080292
:10256000EDE7606830BD2146E9E700BF6CA70000D9
:1025700008B5FFF7DFFF024B002808BF184608BD6B
:1025800040A6000007B5154B1A687AB100221A6000
:102590001B680093009B4FF080430122C3F808237F
:1025A0000F4B587910B95A711B6898470D4B1A6830
:1025B00082B100221A601B680193019B4FF0804397
:1025C0000222C3F80823064B1B68012003B05DF804
:1025D00004EB184703B05DF804FB00BF00010040A6
:1025E000581700200401004000F1804000F5C04071
:1025F000002382B0036003680193019B02B070471F
:10260000054B4FF0FF32072843F8202084BF1B18EA
:1026100083F84820704700BF6017002002494FF43C
:10262000F370FEF7F1BE00BF5B9A00001F2838B5BB
:1026300004460D4601D9FFF7F1FFA00000F1A040CC
:10264000D0F8003723F44033C0F80037D0F8003713
:1026500043EA0543C0F8003738BD000010B5164CFA
:1026600094F8583033BBFF21E2180133202B82F855
:102670003010F9D10021C8B2FFF7C2FF01310C2997
:10268000F9D1042200210D4801F0EAFA0C4BE022B6
:1026900083F8062340221A604FF4BE70FFF7A4FFB0
:1026A000084B4FF00042C3F80423012384F858304C
:1026B000002010BD0820FCE760170020B4170020A0
:1026C00000E100E000600040034B93F85800003048
:1026D00018BF0120704700BF601700201F2870B589
:1026E00004460D4604D941494FF49870FEF78CFE1C
:1026F0003F4E96F85830012B04D03C4940F231103F
:10270000FEF782FE25B939494FF49970FEF77CFE39
:10271000331993F93020013265D1AA78002A54D0B8
:10272000002356F8231001314FEA830248D13119B2
:1027300002F1804281F83030002102F5C04246F8B3
:102740002310D2F810052B78697820F498101B0418
:10275000090520F4F85001F4801103F44033C2F865
:1027600010050B432102D2F8100501F4F8510B4378
:102770000343C2F810356B78012B4FF0010528D1C7
:102780001F2C01D9FFF74AFF4FF0A043A540C3F823
:1027900008551F2C01D9FFF741FF04F5E0724FF0F7
:1027A000A043032143F82210E2081249012304F058
:1027B000070403FA04F48B5C1C438C54002003E0F0
:1027C0000133082BADD1042070BDFE2283F83020E8
:1027D000D1E71F2C01D9FFF721FF4FF0A043A540FF
:1027E000C3F80C55D5E70820EEE700BF03AB0000A7
:1027F00060170020B41700201F28F8B5044604D93C
:102800001D494FF4B470FEF7FFFD1C4D2B1993F9D1
:102810003030013304D1184940F26910FEF7F4FD5D
:10282000291991F83000072809D8FFF7E9FE91F936
:102830003030134A03F5A273002142F823102544D7
:10284000FF23104F85F83030E60804F00703012518
:102850009D40BB5D2B420ED01F2C01D9FFF7DEFE41
:102860004FF0A04304F5E074022243F82420BB5D3E
:1028700023EA0505BD55F8BD03AB00006017002035
:1028800000600040B41700201F2838B5054604D961
:1028900012494FF4BE70FEF7B7FD114C621992F960
:1028A0003020013204D10D4940F27D10FEF7ACFD1D
:1028B000631993F83030072B04D808494FF4BF70E0
:1028C000FEF7A2FD1F2D01D9FFF7A8FE012303FA91
:1028D00005F54FF0A043C3F8085538BD03AB000021
:1028E000601700201F2838B5054604D912494FF457
:1028F000C370FEF789FD114C621992F93020013244
:1029000004D10D4940F28710FEF77EFD631993F85C
:102910003030072B04D808494FF4C470FEF774FD1B
:102920001F2D01D9FFF77AFE012303FA05F54FF0B9
:10293000A043C3F80C5538BD03AB0000601700205E
:102940001F2838B5054604D914494FF4CD70FEF759
:102950005BFD134C631993F93030013304D10F49F7
:1029600040F29B10FEF750FD631993F83030072BAF
:1029700004D90A494FF4CE70FEF746FD2C4494F971
:1029800030309B0003F1804303F5C043D3F810259A
:1029900042F00302C3F8102538BD00BF03AB0000AE
:1029A000601700201F2838B5054604D90D4940F2AC
:1029B000B910FEF729FD0C4C631993F83030072B42
:1029C00004D908494FF4DD70FEF71EFD601990F937
:1029D00030000C308000C0B200F1804000F5C040F3
:1029E00038BD00BF03AB0000601700201F2838B5BA
:1029F000054604D90D494FF4E370FEF705FD0C4C74
:102A0000631993F83030072B04D9084940F2C710F6
:102A1000FEF7FAFC601990F9300018308000C0B25F
:102A200000F1804000F5C04038BD00BF03AB00009E
:102A3000601700201F2870B506460D4604D91749B7
:102A40004FF4E970FEF7E0FC154CA31993F9303010
:102A5000013304D1114940F2D310FEF7D5FCA3197C
:102A600093F83030072B04D90C494FF4EA70FEF785
:102A7000CBFC3444003594F930304FEA830303F142
:102A8000804303F5C04318BF0125D3F8101521F486
:102A9000801141EA0551C3F8101570BD03AB000069
:102AA000601700201F282DE9F84304468846914608
:102AB00004D9414940F20720FEF7A6FC3F4F3B19DD
:102AC00093F93030002B74DA98F80230C3F34003E6
:102AD000002B0BBF082500250C2108218D4202D1B7
:102AE0000420BDE8F88357F8252001324FEA850617
:102AF00045D13A1947F8259082F8305013B97B191F
:102B000083F8484098F802305A0717D4D90738D5C7
:102B10001F2C01D9FFF782FDA30003F1A043D3F8D6
:102B2000002722F00202C3F800272549E20804F03A
:102B3000070001238340885C03438B5498F802000C
:102B400098F8001010F002002AD006F1804303F537
:102B5000C0432402D3F8102522F4473222F44072F5
:102B6000C3F810250904D3F8102504F4F85401F42F
:102B700040310C431443C3F810450020B1E7013540
:102B8000ACE71F2C98F8019001D9FFF747FD04F539
:102B9000E0734FF0A0414FEA890241F82320C4E7D7
:102BA000083D3D4495F8504044EA811185F85010A5
:102BB00097E7082095E700BF03AB000060170020EF
:102BC000B41700201F28F8B505460E4604D9284939
:102BD00040F23720FEF718FC264C631993F9303089
:102BE000002B04DA22494FF40E70FEF70DFC671932
:102BF00097F93020072A1ADD224492F848309B09C1
:102C0000032B10D11F2D01D9FFF708FD4FF0A04372
:102C1000D3F81035EB40DB0707D402212846BDE886
:102C2000F840FFF703BD012BF7D00321F6E7D3B23D
:102C3000072B1CD8930003F1804303F5C04302F136
:102C40004000D3F81015800041F00101C3F81015C1
:102C500080B2FFF7C9FC56B197F9303054F82330F1
:102C60002BB1012303FA02F2034BC3F80423F8BD8E
:102C700003AB000060170020006000402DE9F04F1A
:102C800087B000245B4A5C4E5C4D039401211368BD
:102C9000A2F5C040012B80B206D1D6F804330B4216
:102CA00002D0FFF7A1FC0C430432AA424FEA4101D3
:102CB000EDD1534B1B68012B0AD14FF4BE70FFF7C7
:102CC00093FC4FF0A04344F00044D3F81035039335
:102CD00014F0FF0F1AD04B4F00250126344210D0BC
:102CE000AB0003F1804303F5C043D3F81005D3F8DC
:102CF000101557F82530C0F30420C1F3014103B18A
:102D000098470135082D4FEA4606E7D1002C6EDAC8
:102D100000224FF0FF33CDE904233A4F4FF0000A71
:102D200056464FF0A04907EB0A0393F95040631C45
:102D300046D0E4B2012224F0C00504F0070B02FAE9
:102D40000BFBEB0806AAD11811F8042C12EA0B0FA2
:102D500036D07A19A40992F9302057F82280B8F1B8
:102D6000000F0AD1032C2BD10DF1100C1CF803001D
:102D700040EA0B000CF8030001E0032CF4D01F2DF7
:102D800003D90191FFF74AFC019911F80C1C05F5D4
:102D9000E07311EA0B0F59F82330C3F3014320D03D
:102DA000022B0DD1032C05D121462846FFF73EFC0E
:102DB0000136F6B2B8F1000F02D021462846C047CE
:102DC0000AF1010ABAF1040FADD186B14FF0A04368
:102DD000039AD3F810359A4209D00393049B0593C4
:102DE0009CE7032BECD1032CE4D10221DDE707B0F3
:102DF000BDE8F08F006100400060004020610040AD
:102E00007C610040601700202DE9F84F124D134FF0
:102E100080464FF0000A04264FF001095FFA8AFB52
:102E2000002009FA0BF4FEF72BFA2C4208D03B687D
:102E300014EA030201BF23433B6088F800B0164642
:102E40000020FEF72DFA1EB1A5430AF1010AE5D1D3
:102E50003046BDE8F88F00BFFFFF0F00BC17002011
:102E600010B501248440C4F313037BB1084B002048
:102E7000C3F80845FEF704FA064A1368002023EA5F
:102E800004041460FEF70CFA002010BD0720FCE7D4
:102E900000F00140BC17002010B5A1B19AB1012388
:102EA0008340C3F3130484B10A4C246823420ED038
:102EB000C00000F1804000F5F830C0F81015C0F8EF
:102EC0001425002010BD0E20FCE70720FAE708209B
:102ED000F8E700BFBC170020012303FA00F0C0F39D
:102EE00013031BB1054B1B68184204D0044BC3F8F5
:102EF0000405002070470820704700BFBC17002061
:102F000000F00140012303FA00F0C0F313031BB1EA
:102F1000054B1B68184204D0044BC3F80805002079
:102F200070470820704700BFBC17002000F0014028
:102F300010B5054C22681AB904495120FEF764FA0D
:102F40002368BDE810401847C01700205CAB0000A4
:102F50000023435082B043580193019B02B0704755
:102F600070B5D0F8103105460C4653B14FF4887156
:102F7000FFF7EEFF63795A0703D523680BB10120F1
:102F80009847D5F814315BB14FF48A712846FFF7A2
:102F9000DFFF63791B0703D523680BB10220984735
:102FA000D5F81C315BB128464FF48E71FFF7D0FF86
:102FB000607910F0100002D1236803B19847D5F86A
:102FC000043163B14FF482712846FFF7C1FF01233A
:102FD000237123681BB10320BDE87040184770BD02
:102FE00001490248FFF7BCBFC817002000C00140DC
:102FF00001490248FFF7B4BFD0170020001002407B
:1030000001490248FFF7ACBFD8170020002002405A
:1030100000F1804000F5E040002382B003600368C7
:103020000193019B02B07047F0B5514B514C1B68A6
:1030300085B0DBB14FF4827094F82E20FFF7E8FFE3
:1030400012B194F82F30A3B1636802932389ADF8CD
:103050000C30E36800218DF80410002B44D1237458
:10306000236801A89847002384F82F3094F82E3065
:1030700003B3414B1B68EBB14FF48070FFF7C8FFFF
:1030800094F82D20638B91B28B4238D95B1A218939
:103090009BB26383CB1A616801EB4301374BC3F8E2
:1030A0002C16C3F830264FF48270FFF7B1FF344B73
:1030B00001221A60334B1B685BB14FF48870FFF735
:1030C000A7FF002304A82374022300F80C3D236803
:1030D00098472D4B1B6813B34FF48A70FFF798FF86
:1030E0000023237405B0F0BD208B608363602081D2
:1030F000E160002AB4D1214B01221A60B0E7D2D19D
:10310000E368012184F82F103BB1002161831B4942
:10311000C1F82C36C1F83026C5E76383C3E766697A
:103120004FF000470125002EDCD0B6FA86F227FAD0
:1031300002F34632920026EA030602F1804303F5C9
:10314000E0431B68002BEED01046FFF761FFA2F5AD
:103150008C72D30882F00402C2F380028DF808302A
:103160008DF804508DF80920236801A89847DAE704
:1031700004710040E0170020007100400070004022
:1031800004700040107100401471004002494FF477
:10319000F370FEF739B900BF5B9A00001F2810B525
:1031A000044601D9FFF7F2FF012303FA04F44FF0BC
:1031B000A043C3F80C4510BD1F2810B5044601D923
:1031C000FFF7E4FF012303FA04F44FF0A043C3F830
:1031D000084510BD13B54FF04023D3F818310BB399
:1031E000114B124C00221A601B680193019B23684B
:1031F00023B90F494FF42770FEF706F9E07FFF2847
:1032000003D0A37F5BB1FFF7C9FF0023637723726D
:10321000D4E90031074802B0BDE810401847FFF775
:10322000CBFFF2E702B010BD18410040101800209B
:10323000B9AB0000181800202DE9F743002406461A
:103240000F4600F5A0754FF48038A14604F15000F8
:103250002B68800080B26BB1D6F8043308FA04F210
:103260001A4207D0C5F800902B680193019BD7E95B
:10327000003198470134042C05F10405E6D103B070
:10328000BDE8F0832DE9F3470446154606790F465D
:1032900019B94E494A20FEF7B7F81DB94B494B20E2
:1032A000FEF7B2F84A4A0C2303FB062390461B7A2A
:1032B000002B40F088802368464A93420FD002F5E5
:1032C000805293420BD002F58052934207D002F510
:1032D0008032934203D002F58052934202D1BB78F0
:1032E000032B03D939495F20FEF78EF80C23734373
:1032F00008EB030248F803507B68536000210D4639
:1033000060792368CAB2904201F1010153D897F85D
:1033100003901D0BB9F1070F4FFA85FA03D92E4917
:103320006B20FEF771F8BAF1000FAEBF0AF16043EF
:1033300005F00F03294A2A484FEA49195FFA89F92B
:10334000AABF03F5614302F8039083F80093236852
:103350001B0B59B24909012203F01F0302FA03F3C0
:1033600040F8213020687B78D0F8041503F003037F
:1033700021F003010B43C0F804352068BB78D0F876
:10338000081503F0030321F003010B43C0F80835CF
:1033900020683B78D0F8101503F00F0321F00F01DF
:1033A0000B43C0F810350C2303FB06860020327255
:1033B00002B0BDE8F087920002F5A0729D509B58C4
:1033C0000193019B9CE70820F2E700BF0AAC0000D4
:1033D000341800200080004057AC000014ED00E0DD
:1033E00000E100E038B50B4C02790C2101FB0242F0
:1033F0000546127A012A03D007498F20FEF704F808
:103400002B6801221A602B790C2202FB0343022253
:103410001A7238BD341800200AAC000038B50A4CC6
:1034200002790C2101FB02420546127A1AB90749BA
:103430009720FDF7E9FF2B6801221A612B790C21F7
:1034400001FB03431A7238BD341800200AAC000097
:1034500038B503681B0B5AB20121520903F01F0350
:1034600001FA03F320320C4941F8223003680025A9
:10347000D3F80022C3F8005203684FF0FF3204462D
:10348000C3F80823FFF7CAFF2379044A0C2101FB84
:1034900003231D7238BD00BF00E100E03418002096
:1034A00010B5084A03790C2101FB032304461B7A5B
:1034B0001BB90549B320FDF7A7FF23680122DA6095
:1034C00010BD00BF341800200AAC000073B54FF4E3
:1034D00080348C4005688BB101F150039B000026BD
:1034E000EE50EB580193019B0368C3F80443036853
:1034F00001F5A87143F8212002B070BDC5F808435A
:10350000F5E7F0B407689DF810C0D7F8004240F224
:1035100001158D4024EA0504C7F800420568D5F876
:1035200000422343C5F80032F0BC6346FFF7CEBF2C
:1035300037B5134A03790D460C2101FB03230446DA
:103540001B7A1BB90F49FB20FDF75EFF6379AB4285
:1035500003D80C49FC20FDF757FF05F150039B00F1
:1035600022689BB20021D150D3580193019B23685C
:103570004FF48031A940C3F8041303B030BD00BF3D
:10358000341800200AAC000038B50E4A03790D4605
:103590000C2101FB032304461B7A23B90A4940F29C
:1035A0000710FDF731FF6379AB4204D806494FF4A9
:1035B0008470FDF729FF23684FF48031A940C3F8D8
:1035C000081338BD341800200AAC00000149024835
:1035D000FFF732BE34180020008000400149024845
:1035E000FFF72ABE401800200090004000234350FF
:1035F00082B043580193019B02B07047F0B5504C24
:10360000236887B023B94F4940F24520FDF7FCFEFF
:103610004D4AD2F824311546A3B14FF492711046A9
:10362000FFF7E4FFD2F8043163B9A368C2F80833A6
:103630000223A360A368C2F8043301231362536119
:1036400007B0F0BDD5F80431002B49D03F4F3E48BC
:103650004FF48271FFF7CAFF0FCF01AE0FC63B6870
:10366000336094F82E307BB1237B012B0CBFD5F84F
:103670003C25D5F84C250292022B334B0CBFD3F8D6
:103680003C35D3F84C3503934FF4B0712E48FFF717
:10369000ADFF4FF4AE712C48FFF7A8FF94F830301F
:1036A00013B194F82E303BB1274B0022C3F800220F
:1036B000A260274AC3F80823234AD2F8C434C2F8C8
:1036C000C4349A0736D501238DF8003094F8303091
:1036D0000BB984F82F30D4E9003168469847AFE73A
:1036E0004FF4A4711848FFF781FF237B83B9174F6C
:1036F0000FCF01AE0FC63B68336094F83030002B1B
:10370000DAD1C5F80032A360114BC5F80833D3E70E
:103710004FF40073C5F8003240F20223A36003F1B6
:10372000CE73C5F80833A368C5F804330123AB6032
:103730002B6285E713F0040318BF0223C4E700BF20
:103740004C180020A1AC00000030004058180020A8
:1037500002029C010C4B1B78062B10D10B4B1B68F3
:103760001A070CD10A4B186800F0F003302B08D070
:1037700000F0E000A0F1400358425841704700209B
:1037800070470120704700BFE00F00F0E40F00F029
:10379000E80F00F0094B1B78062B0CD1084B1B6877
:1037A0001A0708D1074B186800F0F000A0F13003A9
:1037B0005842584170470020704700BFE00F00F0AA
:1037C000E40F00F0E80F00F008B5FFF7C3FF28B1E1
:1037D0007D4B7E4A1B68C3F304231360FFF7DAFFB7
:1037E00010B17B4B7B4A1A60FFF7B4FF28B17A4BCC
:1037F0007A4A1B68C3F342331360FFF7CBFF20B153
:10380000774AD36823F08073D360FFF7A3FF40B1FA
:103810004FF080430022C3F80C21C3F81021C3F8F5
:103820003825FFF7B7FF10B16E4B03221A60FFF780
:10383000B1FF40B16C4B05221A6001229A67002249
:103840009A603F225A60694B1B78062B50D1684B17
:103850001B6819074CD1674B1B6803F0F003502B12
:1038600046D14FF08052644BD2F80414C3F82015AF
:10387000D2F80814C3F82415D2F80C14C3F828158C
:10388000D2F81014C3F82C15D2F81414C3F830155C
:10389000D2F81814C3F83415D2F81C14C3F8401524
:1038A000D2F82014C3F84415D2F82414C3F84815EC
:1038B000D2F82814C3F84C15D2F82C14C3F85015BC
:1038C000D2F83014C3F85415D2F83414C3F8601584
:1038D000D2F83814C3F86415D2F83C14C3F868154C
:1038E000D2F84014C3F86C15D2F84424C3F87025FC
:1038F000FFF730FF28B1414B414A1B6803F04F03EB
:103900001360FFF727FF48B14FF08043D3F800243E
:10391000D20744BF6FF00102C3F80024394B1B6883
:10392000062B08D1384B1B68062B01BF374A13689A
:1039300043F480631360364AD2F8883043F470034E
:10394000C2F88830BFF34F8FBFF36F8F4FF0102353
:10395000D3F80022002A03DBD3F80432002B2FDA3D
:103960002C4B0122C3F80425D3F80024002AFBD0F5
:103970004FF010221521C2F80012D3F80024002ABB
:10398000FBD04FF010231522C3F80422214B1A4616
:10399000D3F800140029FBD00021C3F80415D2F895
:1039A0000034002BFBD0BFF34F8F19491A4BCA6864
:1039B00002F4E0621343CB60BFF34F8F00BFFDE71B
:1039C000164B174A1A6008BD240300104035014009
:1039D00074C007400DF0ADBA440200103C05004031
:1039E000F0ED00E0A005004010560040E00F00F0B0
:1039F000E40F00F0E80F00F000C000405802001093
:103A0000E40E004030010010340100103C1700406B
:103A100000ED00E000E001400400FA05080000208D
:103A20000090D0030649074A074B9B1A03DD043B6D
:103A3000C858D050FBDCFFF7C7FEFCF701FC0000C4
:103A400064B0000000000020C8090020FEE7FEE787
:103A5000FEE7FEE7FEE7FEE7FEE7FEE7FEE7FEE73E
:103A600008B50021044602F0F9F8044B1868C36B4E
:103A700003B19847204605F0ABF900BF00AD000048
:103A800070B50D4E0D4D761BB61006D000240134D6
:103A900055F8043B9847A642F9D1094E094D761BCB
:103AA00005F0ACFFB61006D00024013455F8043BF5
:103AB0009847A642F9D170BDB8090020B809002086
:103AC000C4090020B8090020044B054A1B685B6B41
:103AD000002B08BF134693F8280170470C00002004
:103AE00038040020044B054A1B685B6B002B08BFA1
:103AF0001346D3F8EC0070470C0000203804002077
:103B000082B049B15AB16BB113780B601278101CB6
:103B100018BF012002B0704701A9002AF3D1104656
:103B200002B070476FF00100F4E700BF844641EA3D
:103B3000000313F003036DD1403A41D351F8043B25
:103B400040F8043B51F8043B40F8043B51F8043B77
:103B500040F8043B51F8043B40F8043B51F8043B67
:103B600040F8043B51F8043B40F8043B51F8043B57
:103B700040F8043B51F8043B40F8043B51F8043B47
:103B800040F8043B51F8043B40F8043B51F8043B37
:103B900040F8043B51F8043B40F8043B51F8043B27
:103BA00040F8043B51F8043B40F8043B51F8043B17
:103BB00040F8043B51F8043B40F8043B403ABDD286
:103BC000303211D351F8043B40F8043B51F8043B28
:103BD00040F8043B51F8043B40F8043B51F8043BE7
:103BE00040F8043B103AEDD20C3205D351F8043BB7
:103BF00040F8043B043AF9D2043208D0D2071CBF83
:103C000011F8013B00F8013B01D30B8803806046AB
:103C1000704700BF082A13D38B078DD010F0030321
:103C20008AD0C3F10403D21ADB071CBF11F8013B91
:103C300000F8013B80D331F8023B20F8023B7BE7E0
:103C4000043AD9D3013A11F8013B00F8013BF9D20B
:103C50000B7803704B7843708B78837060467047A5
:103C6000F0B4860743D0541E002A3ED0CAB20346A1
:103C700002E014F1FF3438D303F8012B9D07F8D18B
:103C8000032C2BD9CDB245EA05250F2C45EA054575
:103C900016D9A4F110073F0903F1200606EB071619
:103CA00003F1100242E9045542E902551032B242D2
:103CB000F8D104F00F040137032C03EB07130DD9DF
:103CC0001E462246043A032A46F8045BFAD8221F0D
:103CD00022F003020432134404F003042CB1C9B2ED
:103CE0001C4403F8011B9C42FBD1F0BC70471446F6
:103CF0000346C5E70FB400B5074983B004AB0868B5
:103D000053F8042B8168019300F0AAF903B05DF821
:103D100004EB04B0704700BF0C00002000290CBF6A
:103D2000022200224FF4806300F000B82DE9F04336
:103D30005D4C256883B00446884616461F4615B17B
:103D4000AB6B002B7ED0022E05D0012E00F2A98095
:103D5000002FC0F2A680636EDA0735D521462846CB
:103D600003F044F8216B41B104F14003994202D0C1
:103D7000284603F039F900232363B4F90C300022FC
:103D80001806A261626061D423F44A6323F003033E
:103D9000022EA3811FD10025616E002004F1430291
:103DA00043F00203A060C9074FF00100A381226025
:103DB000C4E9042004D49B0502D4A06D03F046FAA4
:103DC000284603B0BDE8F083A3899B05C6D4A06D47
:103DD00003F03AFAC2E701AB6A462146284603F0EF
:103DE00037FAA3891843A081002F36D1009F3846A7
:103DF00003F0A6FA8046002842D0A38943F080034E
:103E0000A381AB6B7BB3009AB4F90C30C4F800808B
:103E1000BA421CBF43F40063A381012E04BF43F0E8
:103E20000103A3819BB213F00802C4E904871ED1E9
:103E3000A260656E15F00105BDD00025284603B0CF
:103E4000BDE8F083284603F02DF87CE72169284679
:103E500003F0CAF8B4F90C3096E7B8F1000FC6D0F9
:103E6000AB6B002BCFD1284603F01CF8CBE7DA0769
:103E700004D57F420022A761A260DAE7A760D8E7F5
:103E8000DDF80090B94504D1B4F90C304FF0FF359E
:103E900082E7484603F054FA80460028F4D04F46A3
:103EA000ABE74FF0FF358BE70C00002080EA010202
:103EB000844612F0030F4FD111F0030F32D14DF8A9
:103EC000044D11F0040F51F8043B0BD0A3F1013263
:103ED0009A4312F0803F04BF4CF8043B51F8043B76
:103EE00016D100BF51F8044BA3F101329A4312F0EE
:103EF000803FA4F101320BD14CF8043BA24312F0F5
:103F0000803F04BF51F8043B4CF8044BEAD02346F1
:103F10000CF8013B13F0FF0F4FEA3323F8D15DF8A3
:103F2000044B704711F0010F06D011F8012B0CF86B
:103F3000012B002A08BF704711F0020FBFD031F8E3
:103F4000022B12F0FF0F16BF2CF8022B8CF800206A
:103F500012F47F4FB3D1704711F8012B0CF8012BED
:103F6000002AF9D1704700BF0000000000000000E7
:103F70000000000000000000000000000000000041
:103F800090F800F06DE9024520F007016FF0000C99
:103F900010F0070491F820F040F049804FF0000441
:103FA0006FF00700D1E9002391F840F000F108001C
:103FB00082FA4CF2A4FA8CF283FA4CF3A2FA8CF354
:103FC0004BBBD1E9022382FA4CF200F10800A4FABB
:103FD0008CF283FA4CF3A2FA8CF3E3B9D1E904230F
:103FE00082FA4CF200F10800A4FA8CF283FA4CF346
:103FF000A2FA8CF37BB9D1E9062301F1200182FA00
:104000004CF200F10800A4FA8CF283FA4CF3A2FA05
:104010008CF3002BC6D0002A04BF04301A4612BA13
:10402000B2FA82F2FDE8024500EBD2007047D1E916
:10403000002304F00305C4F100004FEAC50514F0A5
:10404000040F91F840F00CFA05F562EA05021CBF76
:1040500063EA050362464FF00004A9E70000000090
:104060002DE9F04FD7B01C46894617460546039008
:1040700003F0D8F8036816931846FFF781FF0894F9
:1040800015901DB1AB6B002B00F00781D9F86410BF
:10409000B9F90C20C80793B202D4990540F11F81E9
:1040A0009E040AD4D9F8641042F4005321F400515C
:1040B000A9F80C30C9F864109BB21D0740F1B2801A
:1040C000D9F81020002A00F0AD8003F01A020A2A65
:1040D00000F0C98000239FED867B1093CDE92B3340
:1040E0001793CDE919331B93189305932DAB2A939E
:1040F0009B463B78CDF81C908DED127B002B00F099
:104100005982252B3C4602D11DE0252B03D014F803
:10411000013F002BF9D1E51B8DB1DDE92B320133D5
:104120002A44072BCBF80070CBF80450CDE92B3292
:1041300000F3CA800BF1080B059B2B4405932378F1
:10414000002B00F0378200236678069398468DF89E
:104150008B3004F1010A4FF0FF392B250AF1010AD7
:10416000A6F120035A2B00F22A84DFE813F0AA03F9
:10417000280428049C02280428042804A7022804F0
:104180002804C602D2022804D702DC022804F60260
:104190006D026D026D026D026D026D026D026D02A7
:1041A0006D0228042804280428042804280428046C
:1041B000FB0228043C03F303FB02FB02FB0228047E
:1041C000280428042804EE03280428049A0028045C
:1041D00028042804500328047903280428049003A1
:1041E000280428042804280428042804280428046F
:1041F000FB0228043C03C500FB02FB02FB02D103C7
:10420000C50070002804B5032804C2039C00DE0327
:1042100070002804500372002C02280428047C0239
:10422000280472004946039801F0A8FCA0B1D9F80F
:104230006430D80704D4B9F80C30990540F1B7833D
:104240004FF0FF330593059857B0BDE8F08F48F065
:1042500020089AF8006081E7B9F80C3003F01A02E0
:104260000A2A7FF437AFB9F90E20002AFFF632AFE1
:10427000D9F86420D20705D49B0503D4D9F8580097
:1042800002F0E4FF23463A464946039801F026FC33
:104290000590059857B0BDE8F08F039802F002FE34
:1042A000F4E648F0100818F0200F00F06C83089C2A
:1042B000073424F00703D3E9004503F1080208920C
:1042C00028F4806300228CE12AAA0799039803F05E
:1042D0004DFF002841F076830DF1B40B2CE7D9F89F
:1042E000580002F0B1FFB9F90C2093B2D8E600BF34
:1042F000000000000000000043469F0640F12F83AD
:10430000089C073424F00704D4E9000104F10802F2
:10431000089204460D46002871F1000205DA2D22AC
:10432000644265EB45058DF88B2056AAB9F1FF3F35
:10433000049200F0B284012254EA050123F08008BF
:1043400040F05981B9F1000F40F01986002A40F081
:10435000088513F0010356AF099302D0302307F804
:10436000013D00230A930F9314931193099B9DF829
:104370008B204B45B8BF4B46049312B1049B0133CD
:10438000049318F002030B9302D0049B02330493AE
:1043900018F084032C9C0E933FD1069B04995D1A60
:1043A000002D3ADD102D2B9A29DD59462046209606
:1043B0001023039C079EBB4604E0103D102D01F125
:1043C000080118DD0132BA4F1030072ACDE92B2041
:1043D000C1E90073F1DD2AAA314620460C9303F0AF
:1043E000C5FE002840F03D84103D102DDDE92B2056
:1043F0002DA90C9BE6DC209E5F4604468B460132CD
:10440000AB4B2C44072ACDE92B24CBE9003500F334
:10441000FF849DF88B200BF1080B72B12B9A0132AF
:1044200001340DF18B000121072ACDE92B24CBE9C2
:10443000000100F318840BF1080B0B9B6BB12B9B55
:104440000133023423A90222072BCDE92B34CBE917
:10445000001200F315840BF1080B0E9B802B00F06B
:104460003183099BA9EB0305002D37DD102D2B9A15
:10447000904B28DD59462046BB464FF01009374681
:104480001C46079E04E0103D102D01F1080115DDCA
:1044900001321030072ACDE92B20C1E90049F2DDB5
:1044A0002AAA3146039803F061FE002840F0D98320
:1044B000103D102DDDE92B202DA9E9DC3E462346D9
:1044C0005F4604468B4601322C44072ACDE92B2453
:1044D000CBE9003500F3EF830BF1080B18F4807F74
:1044E00040F080822B9B099ACBF800700133144472
:1044F000072B2C94CBF804202B9300F392830BF121
:10450000080B18F0040F3BD0069B049A9D1A002D4F
:1045100036DD102D2B9B21DD1026039FDDF81C803E
:1045200004E0103D102D0BF1080B17DD0133604A3C
:104530001034072BCDE92B34CBE90026F1DD2AAA74
:104540004146384603F012FE002840F06C85103DCD
:10455000102DDDE92B340DF1B40BE7DC0133544AA7
:104560002C44072BCDE92B34CBE9002508DD2AAA02
:104570000799039803F0FAFD002840F0E9822C9C8B
:104580000499DDE905328A42ACBF9B185B1805939C
:10459000002C40F0D58200232B930A9B1BB10A9973
:1045A000039802F021FD0DF1B40B57463B78002B28
:1045B0007FF4A7AD2C9BDDF81C90002B41F0E78029
:1045C00000232B93CBE243469A0640F14E81089C90
:1045D000073424F0070202F10801D2E900450891EE
:1045E000012200218DF88B10B9F1FF3F56A90491EB
:1045F0007FF4A2AE9846012A00F05083022A00F010
:104600001B8356A900E03946E20842EA4572E808F1
:1046100004F0070305461446303354EA050201F856
:10462000013C01F1FF37EED118F0010F00F01483C7
:10463000302B00F01183049A02393023521A07F804
:10464000013C09920F468CE6A6F1300300221AF8CD
:10465000016B02EB820203EB4202A6F13003092B4D
:10466000F5D906927CE5144B179318F0200F00F053
:104670001481089C073424F00703D3E9004503F1B3
:104680000802089218F0010F09D054EA050306D079
:1046900030238DF88D6048F002088DF88C3028F4B6
:1046A000806302229DE748F001089AF8006055E512
:1046B00058AD000068AD000024AD0000039E3046F8
:1046C00002F0B0FD436818931846FFF759FC1B90A1
:1046D0000446304602F0A6FD83681A93002C3FF48E
:1046E000B8AD9AF80060002B3FF438AD1B78002B72
:1046F0003FF434AD48F4806830E5089B9AF80060D8
:104700001A680692002A03F10403C0F29786089300
:1047100024E58DF88B509AF800601FE59AF8006048
:1047200048F004081AE59AF800602A2E0AF10102FE
:1047300001F0B081A6F13003092B92464FF0000939
:104740003FF60EAD1AF8016B09EB890903EB490935
:10475000A6F13003092BF5D902E548F080089AF854
:104760000060FBE4089C073424F0070494ED007B10
:1047700052EC171B22F000431D938DED1C7A083478
:10478000DDE91C014FF0FF32BA4B08948DED127B2E
:1047900004F076FF002840F06F844FF0FF32B54BF5
:1047A000DDE91C0104F04EFF002840F06584002282
:1047B0000023DDE9120104F03BFF002840F05B8597
:1047C0009DF88B20AC4FAD4B0020032104910A9043
:1047D00028F08008472ED8BF1F46099181460F90C8
:1047E00014901190C9E50898002301688DF88B306A
:1047F0001A468DF8F4100123011D04930A92914684
:104800000F9214921192CDE908133DAFB9E5089BC0
:104810001F6800258DF88B501C1D002F00F0398675
:10482000B9F1FF3F00F011874A462946384603F0A8
:104830003FF80A90002800F0E7850A9BDB1B0993EC
:10484000A94623EAE37308940493CDF82890CDF8A1
:104850003C90CDF85090CDF844909DF88B208CE59D
:1048600048F010039A063FF5B2AE089ADF0602F14F
:10487000040100F17E835D06089A00F1E4849C0542
:1048800040F177831478089100250122A9E67C4B3A
:10489000179318F0200F7FF4ECAE089A18F0100F61
:1048A00002F1040340F0548318F0400F089A40F0DE
:1048B000D08418F4007F00F04B831478089300250F
:1048C000E0E69DF88B309AF80060002B7FF446AC50
:1048D00020238DF88B3041E49AF800606C2E03BFE2
:1048E0009AF8016048F020080AF1010A48F010081F
:1048F00034E4089A18F0200F52F8043B089200F0B4
:10490000A183059A1046D117C3E9000157464DE629
:104910009AF80060682E03BF9AF8016048F40078A6
:104920000AF1010A48F0400818E40899554B0C6850
:10493000179347F630020431ADF88C2048F002039B
:1049400008910025022278264BE648F008089AF8DC
:10495000006003E448F010039F063FF5D1AC0899CE
:10496000DD0601F1040200F1FD825C06089900F108
:104970007584980540F1F68291F900400892E51798
:1049800020462946C7E4089A18F0100F02F10403E4
:1049900040F0E38218F0400F089A40F0678418F462
:1049A000007F00F0DA8214780893002588E4D9F8B3
:1049B000580002F04BFC4FF0FF33059343E4002E08
:1049C0003FF4F8AD002301211A4604918DF8F460FC
:1049D0008DF88B300A9399460F9314931193099194
:1049E0003DAFCEE4652E40F3CA8000220023DDE90E
:1049F000120104F013FE002800F069812B9B224A6B
:104A0000CBF80020013301340122072BCDE92B34F0
:104A1000CBF8042000F306840BF1080B249B109ABA
:104A20002C9C934203DB18F0010F3FF46AAD2B9BE3
:104A3000169ACBF80020159ACBF8042001331444C1
:104A4000072BCDE92B3400F317850BF1080B109BD6
:104A50005D1E002D7FF755AD102D2B9A0B4B40F3AB
:104A6000E782194610262346039FDDF81C900C466A
:104A700014E000BFFFFFEF7F18AD000014AD000091
:104A800038AD000024AD000054AD000068AD00005A
:104A90000BF1080B103D102D40F3C782013210338B
:104AA000072ACDE92B23CBE90046F1DD2AAA4946A6
:104AB000384603F05BFB00284CD1DDE92B230DF1D8
:104AC000B40BE7E7069B049A9D1A002D7FF7C9AC4B
:104AD000102D2B9ABC4B27DD59462046BB461C4661
:104AE0003746079E04E0103D102D01F1080116DD48
:104AF000013210301023072ACDE92B200C604B60C7
:104B0000F1DD2AAA3146039803F030FB002840F07B
:104B1000A880103D102DDDE92B202DA9E8DC3E46B4
:104B200023465F4604468B4601322C44072ACDE9D2
:104B30002B24CBE9003500F392820BF1080B90E4B3
:104B40002AAA0799039803F011FB00283FF423AD2C
:104B5000DDF81C900A9911B1039802F045FAD9F8D2
:104B60006420B9F80C30D00702D4990540F1D08107
:104B70005A063FF565AB059857B0BDE8F08F109A1F
:104B80002B9B012A04F1010403F101050BF1080636
:104B900040F31C810123072DCBF80070CDE92B5485
:104BA000CBF8043000F3BB81159B169A691C1C449A
:104BB00007290B91CDE92B14C6E9002300F3BB8133
:104BC00008360B9A531C1D460995109D0E93002222
:104BD0000023DDE9120105F1FF3906F1080B04F0AD
:104BE0001DFD002840F0C280099DC6F804900137E1
:104BF0004C44072D37602C942B9500F3F9800B9AC9
:104C000006F1100302325E4609929B46199A7260C1
:104C10001444099A2C9426AB072A2B9233607FF711
:104C200070AC2AAA0799039803F0A0FA00288FD144
:104C30002C9C0DF1B40B64E4179856AF230904F0D3
:104C40000F0143EA05732A091C461546435C07F821
:104C5000013D54EA0503F1D1049BDB1B0993FFF7E7
:104C600080BBB14676E72AAA0799039803F07EFA3B
:104C700000287FF46DAF2C9C0DF1B40BFFF7DDBB6A
:104C80002AAA0799039803F071FA00287FF460AF0D
:104C90002C9C0DF1B40BFFF7E0BB9846002D08BF2C
:104CA0000A2C80F0708156AF3034012307F8014D93
:104CB0000993FFF756BB2AAA0799039803F056FAFF
:104CC00000287FF445AF2C9C0DF1B40B06E4249B27
:104CD000002B40F37382DDE910239342A8BF1346F3
:104CE000002B1D460DDD2B9BCBF8007001332C44AF
:104CF000072B2C94CBF804502B9300F3C1820BF1BB
:104D0000080B119B002DA8BF5B1B002B1D4640F319
:104D10009980102D2B9A2C4B40F3DB8318462146AB
:104D20005B461026BB46DDF80C90079C074604E066
:104D30000833103D102D40F3C78301321031072A8C
:104D4000CDE92B21C3E90076F2DD2AAA21464846A7
:104D500003F00CFA002840F0A584DDE92B212DABEF
:104D6000E7E7CDF8249056AFFFF7FBBAB9F1000F93
:104D70007FF74CAFB9F1100F134B40F3598619462A
:104D8000224633461027DDF80CB0079C0E9D0E46D8
:104D900007E00833A9F11009B9F1100F40F353836C
:104DA00001351032072DCDE92B52C3E90067F0DD44
:104DB0002AAA2146584603F0D9F9002840F0728407
:104DC000DDE92B522DABE5E768AD000018F0010FCF
:104DD0007FF4E0AE0122072DCBF80070CDE92B5413
:104DE000CBF8042004DC023309930BF1100B0DE720
:104DF0002AAA0799039803F0B9F900287FF4A8AE0E
:104E0000DDE92B34013309930DF1BC0B2DAEFDE62A
:104E10002AAA0799039803F0A9F900287FF498AE0D
:104E20009DF88B202C9C0DF1B40BFFF7F6BA2AAA43
:104E30000799039803F09AF900287FF489AE2C9C17
:104E40000DF1B40B119B18F4806F3B44994640F070
:104E50005783249B109A934249DB18F0010F46D1E7
:104E6000109ABD18A5EB0905D31A9D42A8BF1D468F
:104E7000002D0DDD2B9ACBF8009001322C44072A2F
:104E80002C94CBF804502B9200F362840BF1080BA6
:104E9000002DACBF5D1B1D46002D7FF732AB102DE2
:104EA0002B9AC54B40F3C480194610262346039F16
:104EB000DDF81C900C4605E00BF1080B103D102DA1
:104EC00040F3B38001321033072ACDE92B23CBE91D
:104ED0000046F1DD2AAA4946384603F047F9002882
:104EE0007FF438AEDDE92B230DF1B40BE6E72B9A06
:104EF0001699CBF800101599CBF8041001320C4428
:104F0000072A2C942B9200F38C820BF1080BA7E755
:104F1000D9F8580002F09AF9B9F80C3028E62AAA14
:104F20000799039803F022F900287FF411AEDDE918
:104F30002B542DAE38E62AAA0799039803F016F9E8
:104F400000287FF405AEDDE92B342DAE0B9338E657
:104F5000146808930025FFF795BB14680893002593
:104F6000FFF7AEB90C680892E51720462946FFF70F
:104F7000D2B91468089101220025FFF732BB012A3B
:104F80007FF43CAB8FE608F480630022CDE909A6EC
:104F9000CDF82C8056AF9246DDF868801E460AE0B8
:104FA0000023204629460A2204F0A8FB04460D46A9
:104FB00054EA050329D00A2200232046294604F09A
:104FC0009DFB303207F8012C0AF1010A013F002E47
:104FD000E6D098F800309A45E2D1BAF1FF0FDFD061
:104FE000002D08BF0A2CDBD31B9B1899FF1A1A4609
:104FF000384603F04DF898F80130002B00F0968405
:1050000008F101084FF0000ACAE7049BCDF8688058
:10501000DB1BCDF840A00A9EDDF824A0DDF82C8033
:105020000993FFF79EB9C14694E521461C460B46FD
:1050300001322C44072ACDE92B24CBE900357FF738
:105040005EAAEEE518F0100F40F0F88018F0400F5F
:1050500000F05183059A1A805746FFF7A7BA2AAA8B
:105060000799039803F082F800287FF471AD2C9C17
:105070000DF1B40BFFF7F5B9DDE9120102460B465D
:1050800004F0FEFA002840F09184612E00F01181B6
:10509000412E00F0778348F4807326F02002B9F1A6
:1050A000FF3F0E930492139B00F02D84472A00F0DB
:1050B0002484002BC0F2F9829DED127BCDE90A0019
:1050C0008DED1E7B662E00F0EB83462E00F07E8475
:1050D000049B0398452B0CBF09F101054D4628AAF6
:1050E00025ABCDE90032022124AB2A469DED1E0BF3
:1050F00000F0C2FE672E074640F09C8418F0010FB6
:1051000040F0F983289B4046DB1BDDF83880109384
:10511000249B1193049B472B00F0E781049B462BB3
:1051200000F000830499119BF2B2412908BF0F32AD
:1051300003F1FF3306BFD2B201210021002B2493DB
:10514000B8BF119B8DF89820BABFC3F101032D227F
:105150002B22092B8DF8992000F3F983002940F0C8
:10516000878430228DF89A200DF19B023033137022
:10517000531C26AA9B1A109A1993012A13440993C7
:1051800040F34284099B159A1344099300230F931B
:1051900014931193099B20F4806023EAE37340F495
:1051A000807804930B9B002B40F0758299469DF804
:1051B0008B20FFF7E2B800BF68AD00002B9ABD4915
:1051C000CBF80010013201340121072ACDE92B244C
:1051D000CBF8041060DC0BF1080B2BB9109A1AB94C
:1051E00018F0010F3FF48DA92B9A1699CBF80010F7
:1051F0001599CBF8041001320C44072A2C942B92F9
:1052000000F382820BF1080B002BC0F2E782109BA7
:1052100001321C44072ACDE92B24CBE900737FF728
:105220006EA9FEE42AAA0799039802F09FFF0028BE
:105230007FF48EAC0DF1B40BFFF7F0BB059A1A604A
:105240005746FFF7B3B91488089100250122FFF7EC
:10525000C8B9148808930025FFF714BAB1F90040C3
:105260000892E51720462946FFF755B81488089399
:105270000025FFF725B82D228DF88B20FFF7A2BA65
:105280002AAA0799039802F071FF00287FF460AC06
:105290002C9C0DF1B40B34E52AAA0799039802F06F
:1052A00065FF00287FF454AC249B2C9C0DF1B40BBB
:1052B00093E730238DF88C307823B9F1630F8DF8A4
:1052C0008D3048F0020400F3B08248F481730E93ED
:1052D00026F0200304930022139B0A92A0463DAFC0
:1052E000002BC0F2E3819DED127B8DED1E7B002330
:1052F0000B93612E00F05582412E7FF4E3AE24A87B
:105300009DED1E0B02F03AFE00224FF07F5351EC50
:10531000100B03F01BFF00220023CDE90C0104F069
:105320007DF9002840F00583634B0993CDE90FA672
:1053300009F1FF34CDF850902197B946CDF844B02B
:10534000CDF88080DDF824A0DDE90C6703E004F0EF
:1053500065F920BBA9460022584B3046394603F078
:10536000F5FE0F46064604F0A1F9804603F084FEE0
:1053700002460B463046394603F030FD4D461AF8DA
:1053800008C005F801CBB4F1FF3FA34606460F461F
:105390004FF000024FF0000304F1FF34D7D1304644
:1053A00039460022464BDDF83CA0109ECDF83CB0BB
:1053B0004446CDF84090DDF88080DDF85090DDF86F
:1053C00044B0219FCDE90C0104F050F9002840F0D1
:1053D0007681DDE90C010022394B04F01FF910B190
:1053E000E20700F16C810F9B002B07DB0F9B013361
:1053F0002B44302205F8012BAB42FBD1EB1B40467E
:105400001093DDF8388083E6CDF81090CDF8249025
:10541000089481460F90149011909DF88B20FEF710
:10542000ACBF2AAA0799039802F0A0FE00287FF4D7
:105430008FAB249B2C9C0DF1B40B11E552420692CC
:105440000893FFF76DB9144632461E4613462A46A6
:105450000132099206F10802C6E90039099B2B9333
:105460004C44072B2C943FF7C3AC0133099302F152
:10547000080B1646FFF7CABB2AAA0799039802F041
:1054800075FE00287FF464AB2C9C0DF1B40BFFF784
:10549000DEBA4B46062B28BF0623B9460F97149752
:1054A00011970A973A460493CDE90843054FFEF752
:1054B00064BF00BF54AD000038AD000000003040B4
:1054C0000000E03F4CAD00000C4639465F469B466D
:1054D0000B4601322C44072ACDE92B24CBE90035B9
:1054E0003FF7A5AC0BF1080BACE4119BDA1C02DB17
:1054F000994580F2B580023E26F02003049311E620
:10550000109BCDF838805A46DDE91A8BFB18CDF890
:105510002CA00C97AF4EDDF81CA009934F46DDF888
:105520000C902146149B002B5BD00F9B002B54D179
:10553000149B013B08F1FF3814932B9B18981060C3
:1055400001335944072B2C91C2F804B02B9368DC2B
:105550000832099898F80030C51B9D42A8BF1D4627
:10556000002D0BDD2B9B176001332944072B2C9159
:1055700055602B935EDC98F800300832002DACBFEC
:105580005D1B1D46002D26DD102D2B983CDD1024C3
:1055900003E00832103D102D36DD013010310728B0
:1055A000CDE92B01C2E90064F3DD2AAA5146484641
:1055B00002F0DCFD002850D1DDE92B012DAAE9E73E
:1055C0002AAA5146484602F0D1FD002845D198F854
:1055D00000302C992DAA1F44A4E70F9B013B0F9389
:1055E000ABE70F9B002BF8D1B946109B0C9FCDF871
:1055F0006880FB189945DDF82CA0DDF838809346CB
:105600000C4628BF994624E4013029440728CDE9F7
:105610002B01C2E90065D3DC98F8003008321F4442
:1056200080E72AAA5146484602F0A0FDA8B92C9965
:105630002DAA8EE72AAA5146484602F097FD60B986
:1056400098F800302C992DAA98E73846FEF798FC78
:10565000A94603460990FFF7F4B8D146FFF77ABA96
:10566000109B1946119B994200F38280C40740F1B8
:105670006B81159A13440993410503D5119B002BA7
:1056800000F3E680099B23EAE37304936726002373
:105690000F93149386E52D228DF88B204FF000098F
:1056A000FEF76CBEA146FFF755BA0A90DDE912126B
:1056B00002F100431F932D231E910B9319E6109BBB
:1056C0002893099B15F8012CD97B91422B4609D1CF
:1056D000302003F8010C289B5A1E289213F8012C45
:1056E0009142F6D0392A0BBF099A0132927AD2B28E
:1056F00003F8012C82E618F4007F3FF49FAD059A71
:105700001A705746FEF752BF2AAA0799039802F06B
:105710002DFD00287FF41CAA249BDDE92B240DF12C
:10572000B40B71E5119B002B40F36481119BB9F11F
:10573000000F40F00381C60700F10081099366263F
:10574000430500F18680099B23EAE37304939EE7F7
:105750002AAA0799039802F009FD00287FF4F8A906
:10576000249B109A2C9CD31A0DF1B40BFFF790BB1D
:10577000109B159A13440993119B002B40F3498108
:105780006726DDE730238DF88C30582395E50398A4
:105790002AAA494602F0EAFC00287FF4E0A9FEF7B5
:1057A0000FBF24A89DED1E0B02F0E8FB00224FF076
:1057B0007F5351EC100B03F0C9FC00220023CDE90C
:1057C0000C0103F02BFF08B101232493024B099332
:1057D000ACE500BF68AD000024AD00005D421033B1
:1057E000B94B80F29780194610262346DDF80C90BD
:1057F0000C4605E00BF1080B103D102D40F387809F
:1058000001321033072ACDE92B23CBE90046F1DD25
:105810002AAA0799484602F0A9FC00287FF498A913
:10582000DDE92B230DF1B40BE6E709F10101039843
:1058300001F096FD0746002800F03B8148F4817393
:105840000E9326F020030493A046139B0A9047E58D
:1058500067261A9800220F9214920378119AFF2B50
:105860000CD093420ADA4178D21AA9B1149B0133C1
:1058700014930B46FF2B00F10100F2D11192149BFF
:105880000F9A09991A9013441B9A02FB0313099368
:1058900023EAE373049385E40F9901310F91DEE766
:1058A00028AA25ABCDE90032032124AB4A469DED61
:1058B0001E0B039800F0E0FA4D46074600EB090482
:1058C0003B78302B00F0BE80249D2C440022002326
:1058D000DDE91E0103F0A2FE08B1234613E4289B74
:1058E000A342BFF410AC30215A1C28921970289B97
:1058F0009C42F9D807E47C19E8E7B9F1000F00F001
:1059000092800A90ECE40A904FF00609E8E4214600
:105910001C460B4601322C44072ACDE92B24CBE947
:10592000003500F3A9800BF1080B70E49A46FFF7ED
:1059300037BB01232493654B0993F7E4159A13446D
:105940004B4409936626FBE6119B099394E60DF1FF
:10595000A70C64465E4D00E01446A5FB0312D20876
:1059600002EB8201A3EB410303F130011346092B43
:1059700004F8011C04F1FF32EEDC3033023CDBB2F0
:10598000A44502F8013C40F290800DF19A041146C2
:1059900001E011F8013B04F8013B8C45F9D12AAB39
:1059A0009B1A0DF19A021344FFF7E3BB139B494F77
:1059B000002BB6BF2D229DF88B208DF88B20464BF7
:1059C000FEF702BFDDF81C90FFF7C9B828AA25AB87
:1059D000CDE90032032124AB4A469DED1E0B03980E
:1059E00000F04AFA4D460746462E07EB05043FF401
:1059F00067AF6BE7B9F1000F31D1C5072FD4012391
:105A000004930993662642E6C3077FF5BFABFFF711
:105A1000B9BB099AC3F101031A4422EAE27309925D
:105A20000493672633E6CDF828904FF0010957E438
:105A30005A4611E5472E7FF45EAF18F0010F3FF490
:105A400061ABD1E700220023DDE91E0103F0E6FD92
:105A500000287FF439AFC5F10105249535E7159B82
:105A600001334B44099323EAE373049366260EE65D
:105A70000DF19A02FFF77ABB2AAA0799039802F060
:105A800075FB00287FF464A8DDE92B240DF1B40B2D
:105A9000FFF7BDBB08999AF801600B6843EAE37908
:105AA0000B1D92460893FEF759BB0DF19A03FFF7C1
:105AB00060BBDDF81C90B9F80C3043F04003A9F846
:105AC0000C30FFF74CB800BF68AD000038AD0000E7
:105AD000CDCCCCCC20AD00001CAD00002DE9F041B8
